:100000000C94D3000C94FB000C94FB000C94FB00AC
:100010000C94FB000C94FB000C94FB000C94FB0074
:100020000C94FB000C94FB000C94FB000C94DF047C
:100030000C94FB000C94FB000C94FB000C94FB0054
:100040000C948B030C94FB000C94AE020C9488026D
:100050000C94FB000C94FB000C94FB000C94FB0034
:100060000C94A0050C94FB00036EDB363D9A999925
:10007000993DABAAAA2A3E000000803F084AD73B20
:100080003BCE016E84BCBFFDC12F3D6C74319ABD67
:1000900056833DDA3D00C77F11BED9E4BB4C3E918B
:1000A0006BAAAABE000000803F072C7AA5BA6CC5D7
:1000B00090DA3B9365FC8BBC53F810FD3C56928361
:1000C0004DBD879D3AB63DCBC9BF5BBE73DA0FC944
:1000D0003F07634236B79BD8A71A39685618AEBA9D
:1000E000AB558C1D3CB7CC5763BD6DEDFD753EF631
:1000F000177231BF000000803F08000000BE92244C
:1001000049123EABAAAA2ABECDCCCC4C3E00000080
:1001100080BEABAAAAAA3E00000000BF000000807B
:100120003F0000000000084178D3BB4387D1133D56
:10013000190E3CC3BD4282AD2B3E68EC8276BED91F
:100140008FE1A93E4C80EFFFBE01C4FF7F3F00005E
:100150000000000000000000250028002B00000027
:100160000000240027002A000404040404040404FA
:100170000202020202020303030303030102040852
:100180001020408001020408102001020408102001
:100190000000000800020100000304070000000046
:1001A00000000000572011241FBECFEFD8E0DEBFB3
:1001B000CDBF13E0A0E0B1E0E8EBF2E502C00590AE
:1001C0000D92A434B107D9F725E0A4E4B3E001C04F
:1001D0001D92A93DB207E1F710E0C3EDD0E004C0E5
:1001E0002197FE010E94D321C23DD107C9F70E9489
:1001F00063080C945A290C940000FC01918D828DA7
:10020000981761F0828DDF01A80FB11D5D968C916A
:10021000928D9F5F9F73928F90E008958FEF9FEF75
:100220000895FC01918D828D981731F0828DE80F31
:10023000F11D858D90E008958FEF9FEF0895FC01EB
:10024000918D228D892F90E0805C9F4F821B9109B8
:100250008F73992708958CEC94E00E941F0121E090
:10026000892B09F420E0822F0895FC01848DDF01A1
:10027000A80FB11DA35ABF4F2C91848D90E0019619
:100280008F739927848FA689B7892C93A089B18908
:100290008C9180648C93938D848D981306C0028812
:1002A000F389E02D80818F7D80830895EF92FF9206
:1002B0000F931F93CF93DF93EC0181E0888F9B8D89
:1002C0008C8D981305C0E889F989808185FD24C04B
:1002D000F62E0B8D10E00F5F1F4F0F731127E02ECE
:1002E0008C8DE8120CC00FB607FCFACFE889F989AB
:1002F000808185FFF5CFCE010E943501F1CF8B8D36
:10030000FE01E80FF11DE35AFF4FF0820B8FEA89DF
:10031000FB898081806207C0EE89FF896083E8895C
:10032000F98980818064808381E090E0DF91CF91C2
:100330001F910F91FF90EF900895CF93DF93EC0101
:10034000888D8823C9F0EA89FB89808185FD05C0F5
:10035000A889B9898C9186FD0FC00FB607FCF5CF2F
:10036000808185FFF2CFA889B9898C9185FFEDCF77
:10037000CE010E943501E7CFDF91CF91089580E053
:1003800090E0892B29F00E942B0181110C94000030
:1003900008958091440390E020914503821B9109C8
:1003A000089585ED8093BC008091BC0084FDFCCF56
:1003B0001092A704089540913604262F30E0240FB0
:1003C000311D21323105DCF42091A7042430C9F419
:1003D000FC0180E090E0861758F4309136042191BA
:1003E000DC01AC5EBB4FA30FB11D2C930196F3CF84
:1003F00080913604680F6093360480E0089581E0B0
:10040000089582E008950895E091450380914403A2
:10041000E81730F4F0E0EF59FB4F808190E0089549
:100420008FEF9FEF089590914503809144039817B3
:1004300050F4E92FF0E0EF59FB4F208130E09F5F4F
:100440009093450302C02FEF3FEFC9010895CF926B
:10045000DF92EF92FF920F931F93CF93DF937C0174
:10046000262F972F8A018091A804882391F0C62F08
:10047000D72F6E01C40ED51ECC15DD0571F0699124
:10048000D701ED91FC910190F081E02DC701099514
:10049000F3CF642F822F0E94DB01C801DF91CF913F
:1004A0001F910F91FF90EF90DF90CF900895CF9321
:1004B000DF931F92CDB7DEB769832091A804222372
:1004C000D1F02091CB04203240F021E030E0FC015B
:1004D0003383228380E090E015C08091A904E82F47
:1004E000F0E0E655FB4F998190838F5F8093A904DC
:1004F0008093CB0405C061E0CE0101960E94DB0130
:1005000081E090E00F90DF91CF9108950E947F27C6
:100510001F920F920FB60F9211242F933F934F9378
:100520005F936F937F938F939F93AF93BF93EF935B
:10053000FF938CEC94E00E943501FF91EF91BF9105
:10054000AF919F918F917F916F915F914F913F916B
:100550002F910F900FBE0F901F9018951F920F9222
:100560000FB60F9211242F938F939F93EF93FF93C6
:10057000E091DC04F091DD048081E091E204F091EF
:10058000E30482FD12C090818091E5048F5F8F7338
:100590002091E604821751F0E091E504F0E0E45385
:1005A000FB4F958F8093E50401C08081FF91EF910F
:1005B0009F918F912F910F900FBE0F901F901895C4
:1005C00090E0FC01E057FE4F3491FC01E458FE4FEF
:1005D0002491FC01E859FE4FE491EE2309F43BC05D
:1005E000332339F1333091F038F43130A9F032301F
:1005F00001F584B58F7D12C0373091F03830A1F00D
:100600003430B9F4809180008F7D03C080918000E8
:100610008F77809380000DC084B58F7784BD09C02B
:100620008091B0008F7703C08091B0008F7D809360
:10063000B000F0E0EE0FFF1FEC5AFE4FA591B49111
:100640008FB7F894EC91611103C020952E2301C05F
:100650002E2B2C938FBF08953FB7F89480915D04A3
:1006600090915E04A0915F04B091600426B5A89BB0
:1006700005C02F3F19F00196A11DB11D3FBFBA2F34
:10068000A92F982F8827820F911DA11DB11DBC0194
:10069000CD0142E0660F771F881F991F4A95D1F759
:1006A00008958F929F92AF92BF92CF92DF92EF9276
:1006B000FF926B017C010E942C034B015C01C11471
:1006C000D104E104F104F1F00E942C03DC01CB0120
:1006D00088199909AA09BB09883E9340A105B1056B
:1006E00070F321E0C21AD108E108F10888EE880E03
:1006F00083E0981EA11CB11CC114D104E104F104D3
:1007000019F7DDCFFF90EF90DF90CF90BF90AF90C3
:100710009F908F9008951F920F920FB60F92112401
:100720002F933F938F939F93AF93BF9380914603F3
:1007300090914703A0914803B091490330915C0424
:1007400023E0230F2D3720F40196A11DB11D05C014
:1007500026E8230F0296A11DB11D20935C0480930F
:10076000460390934703A0934803B09349038091B5
:100770005D0490915E04A0915F04B09160040196C5
:10078000A11DB11D80935D0490935E04A0935F044E
:10079000B0936004BF91AF919F918F913F912F9142
:1007A0000F900FBE0F901F901895DF92EF92FF925F
:1007B0000F931F93CF93DF931F92CDB7DEB7F82E21
:1007C000890181E08093A804F092CA041092A904E0
:1007D0001092CB0481EC95E049830E94570280E09F
:1007E0000E944E074981642F413208F060E28F2D4C
:1007F0000E94AB07109245038093440380E0309140
:10080000440390914503391771F0DD24D394D80E39
:100810007801E80EF11C81EC95E00E941302F701CB
:1008200080838D2DECCF0F90DF91CF911F910F9191
:10083000FF90EF90DF900895CF93C82F81E08093D1
:10084000A804C093CA041092A9041092CB0481ECAE
:1008500095E00E94570280E00E944E0761E08C2FD5
:100860000E94AB07109245038093440381EC95E00E
:100870000E941302CF910895CF93DF93DC01809102
:100880008D058C3098F491E0980F90938D058C93A2
:1008900090E0FC01EE0FFF1F8E0F9F1FFC01E75938
:1008A000FA4F88EB9BE09283818302C08FEF8C9399
:1008B00013961C92139715961C921E9214971796D6
:1008C0001C921E92169719961C921E9218971B96B0
:1008D0005C934E931A978C918C3008F06DC0262F44
:1008E00030E0F901E458FE4F8491F901E859FE4FD8
:1008F0002491222399F030E0220F331FF901E25AAC
:10090000FE4FC591D491F901EC5AFE4F25913491D7
:100910009FB7F894E881E82BE8839FBF8C91E82F7C
:10092000F0E09F01220F331FE20FF31FE759FA4F48
:100930006F739081907C692B608311961C92119744
:1009400012961C9212976CE00E94B3219CE0899F42
:10095000B001112440E050E09A01260F371FF90141
:10096000EE0FFF1F2E0F3F1FF901E759FA4F90813D
:1009700096FD16C04F5F5F4F4C30510569F78111EE
:100980000FC01092800082E0809381001092850059
:1009900010928400B19A80916F00826080936F0002
:1009A000EC91F0E0CF01880F991FE80FF91FE7598C
:1009B000FA4F808180648083DF91CF9108951F92E8
:1009C0000F920FB60F9211242F933F934F935F9383
:1009D0006F937F938F939F93AF93BF93EF93FF9307
:1009E00080915B0487FF05C01092850010928400FF
:1009F0001BC020915B04022E000C330B80918D05EF
:100A000090E02817390784F480915B04082E000CCD
:100A1000990BFC01EE0FFF1F8E0F9F1FFC01E75982
:100A2000FA4F808186FD15C080915B048F5F8093B3
:100A30005B0420915B04022E000C330B80918D052A
:100A400090E028173907C4F480915B048C3064F17E
:100A500013C080915B04082E000C990BFC01EE0F73
:100A6000FF1F8E0F9F1FFC01E759FA4F808160E046
:100A70008F730E94E002D8CF80918400909185000E
:100A8000049680349C4918F480E49CE905C0809168
:100A9000840090918500049690938900809388004B
:100AA0008FEF80935B043BC02091840030918500E0
:100AB00080915B04082E000C990BFC01EE0FFF1FC8
:100AC0008E0F9F1FFC01E759FA4F81819281820F9F
:100AD000931F909389008093880080915B04082E77
:100AE000000C990BFC01EE0FFF1F8E0F9F1FFC01E6
:100AF000E759FA4F808186FF12C080915B04082E6F
:100B0000000C990BFC01EE0FFF1F8E0F9F1FFC01C5
:100B1000E759FA4F808161E08F730E94E002FF91F4
:100B2000EF91BF91AF919F918F917F916F915F9165
:100B30004F913F912F910F900FBE0F901F901895DE
:100B40001F920F920FB60F9211242F933F934F9342
:100B50005F936F937F938F939F93AF93BF93EF9325
:100B6000FF938091B900887F803609F49CC068F5B6
:100B7000883209F45BC090F4803109F454C038F431
:100B8000882309F4F6C0883009F44DC0F6C08831D6
:100B900009F44CC0803209F45DC0EFC0803409F420
:100BA00068C048F4803309F455C0883309F0E5C0C3
:100BB0008093A504D8C0803509F44FC0883509F466
:100BC0005DC0883409F0D9C0D6C0883909F4C7C0DF
:100BD000A8F4883709F467C038F4883609F463C08C
:100BE000803709F460C0C9C0883809F4B8C08039BA
:100BF00009F45FC0803809F0C0C05BC0803B09F4D5
:100C000086C038F4803A09F466C0883A09F47FC097
:100C1000B4C0803C09F4A7C0883C09F4A4C0883B58
:100C200009F48AC0AAC08091820410C09091A404E3
:100C30008091A304981770F5E091A40481E08E0FD1
:100C40008093A404F0E0ED57FB4F80818093BB00BC
:100C500085EC86C08093A5048EC0E091A40481E059
:100C60008E0F8093A4048091BB00F0E0ED57FB4F02
:100C700080839091A4048091A3046EC0E091A404A9
:100C800081E08E0F8093A4048091BB00F0E0ED57CB
:100C9000FB4F80838091A60481116DC081E0809319
:100CA000810484EA61C083E08093A70410925A040F
:100CB000CFCF80915A04803208F051C0E0915A049D
:100CC00081E08E0F80935A048091BB00F0E0E65CD7
:100CD000FB4F8083BDCF85EC8093BC001092A704AE
:100CE00080915A04803230F4E0915A04F0E0E65CDE
:100CF000FB4F108260915A0470E0E0913804F0914B
:100D000039048AE394E0099510925A0436C084E0CD
:100D10008093A7041092370410923604E0913404B3
:100D2000F0913504099580913604811105C081E068
:100D30008093360410921404E091370481E08E0F02
:100D400080933704F0E0EC5EFB4F80818093BB0022
:100D50009091370480913604981708F479CF85E88C
:100D60008093BC000AC085EC8093BC001092A7045D
:100D700004C01092A5040E94D101FF91EF91BF9190
:100D8000AF919F918F917F916F915F914F913F9123
:100D90002F910F900FBE0F901F901895CF92DF925A
:100DA000EF92FF920F931F93CF93DF936C017A0121
:100DB0008B01C0E0D0E0CE15DF0589F0D8016D9140
:100DC0008D01D601ED91FC910190F081E02DC601DD
:100DD0000995892B11F47E0102C02196ECCFC70141
:100DE000DF91CF911F910F91FF90EF90DF90CF9007
:100DF0000895009769F0FC0101900020E9F7319710
:100E0000AF01481B590BBC018CEC94E00C94CE064E
:100E100080E090E008958F929F92AF92BF920F93DF
:100E20001F93CF93DF93CDB7DEB7A1970FB6F8949A
:100E3000DEBF0FBECDBF19A2423008F44AE08E01DA
:100E40000F5D1F4F842E912CA12CB12CA501940174
:100E50000E943829E62FB901CA0101501109EA3070
:100E600014F4E05D01C0E95CD801EC93232B242B42
:100E7000252B61F7C8010E94F906A1960FB6F894D8
:100E8000DEBF0FBECDBFDF91CF911F910F91BF90FD
:100E9000AF909F908F9008950C94F906382F209171
:100EA000CB049091CA04213208F049C08091A70474
:100EB0008111FCCF42E04093A7043093A6043FEF9A
:100EC0003093A5041092A4042093A304AAEAB4E0EA
:100ED00043E854E0FA013E2F341B321718F43D91D9
:100EE0003193F9CF1092820420918204990F922BB2
:100EF0009093820490918104913061F41092810466
:100F0000909182049093BB009091BC0093FDF8CF28
:100F100095EC01C095EE9093BC009091A70492309F
:100F2000E1F39091A5049F3F79F08091A504803270
:100F300041F08091A504803331F084E005C081E068
:100F400003C082E001C083E01092A9041092CB0498
:100F50001092A80408959091A7049111FCCF91E0FC
:100F60009093A7049093A6042FEF2093A5041092CA
:100F7000A404260F2093A3049093820490918204EA
:100F8000880F892B8093820480918104813061F4E1
:100F900010928104809182048093BB008091BC00F8
:100FA00083FDF8CF85EC01C085EE8093BC00809175
:100FB000A7048130E1F38091A404861710F46091B6
:100FC000A404A3E8B4E021E634E0F9018E2F821BEB
:100FD000861718F48D918193F9CF862F08950F937A
:100FE0001F93CF93DF93EC0188819981009729F0BB
:100FF0002A813B812617370788F48B016F5F7F4F6B
:101000000E94B526009761F0998388831B830A8329
:101010002C813D81232B11F4FC01108281E001C061
:1010200080E0DF91CF911F910F910895CF93DF93CF
:10103000EC0188819981009711F00E941D26198288
:1010400018821D821C821B821A82DF91CF91089523
:10105000EF92FF920F931F93CF93DF93EC011982CE
:1010600018821B821A821D821C826115710521F172
:101070008B01FB0101900020E9F731977F01E61A0F
:10108000F70AB7010E94EF07811109C0CE01DF9175
:10109000CF911F910F91FF90EF900C941608FD8255
:1010A000EC82B80188819981DF91CF911F910F91D6
:1010B000FF90EF900C948D27DF91CF911F910F91AE
:1010C000FF90EF900895CF93DF93CDB7DEB7CA5C62
:1010D000D1090FB6F894DEBF0FBECDBF789484B5AA
:1010E000826084BD84B5816084BD85B5826085BD24
:1010F00085B5816085BD80916E00816080936E00B2
:1011000010928100809181008260809381008091A3
:101110008100816080938100809180008160809354
:1011200080008091B10084608093B1008091B00014
:1011300081608093B00080917A00846080937A000F
:1011400080917A00826080937A0080917A00816039
:1011500080937A0080917A00806880937A00109260
:10116000C100E091DC04F091DD0482E08083E09135
:10117000D804F091D9041082E091DA04F091DB04F4
:101180008FEC80831092E404E091E004F091E1049C
:1011900086E08083E091DE04F091DF04808180614D
:1011A0008083E091DE04F091DF0480818860808399
:1011B000E091DE04F091DF04808180688083E0911B
:1011C000DE04F091DF0480818F7D808310924503DF
:1011D000109244031092A9041092CB041092A70419
:1011E00081E08093A6041092810461E082E10E9474
:1011F000E00261E083E10E94E0028091B9008E7F0D
:101200008093B9008091B9008D7F8093B90088E404
:101210008093B80085E48093BC00EEE7F1E0249170
:10122000EAE6F1E084918823C9F090E0880F991FE5
:10123000FC01E25AFE4FA591B491FC01EC5AFE4F1D
:10124000459154919FB7F8948C91E22FE0958E23AD
:101250008C93DA018C91E823EC939FBF60E082E0ED
:101260000E94E00265E788E60E941C04182F8AE3CA
:1012700091E00E944C0783E491E00E944C07C12E4C
:10128000D12CE12CF12C40E1C701B6010E940B07E3
:1012900089E491E00E944C0740E161E770E080E062
:1012A00090E00E940B0787E591E00E94F90668EE46
:1012B00073E080E090E00E945103113711F00C942C
:1012C000CE118AE591E00E94F6208E01075B1F4F48
:1012D00086E0F80111928A95E9F78CE06E01FDE352
:1012E000CF0ED11CD601E82F1D92EA95E9F72E0109
:1012F000F1E34F0E511CD201E82F1D92EA95E9F758
:101300009E012B5D3F4F61963FAF2EAF6197D90194
:10131000E82F1D92EA95E9F77E01F9E1EF0EF11C45
:10132000D7011D928A95E9F740E069E188E60E94BD
:10133000382042E06AE188E60E94382041E06BE113
:1013400088E60E94382042E06DE188E60E9438205D
:1013500041E06CE188E60E94382068ECA62EB12CB2
:10136000980146E06BE388E60E94D503F80180818E
:1013700090E0982F88272181822B092E000CAA0B40
:10138000BB0B49A95AA96BA97CA9840F951FA61F5D
:10139000B71F89AB9AABABABBCAB828190E0982F07
:1013A00088272381822B092E000CAA0BBB0B4DA989
:1013B0005EA96FA978AD840F951FA61FB71F8DABCF
:1013C0009EABAFABB8AF848190E0982F8827258182
:1013D000822B092E000CAA0BBB0B49AD5AAD6BAD8D
:1013E0007CAD840F951FA61FB71F89AF9AAFABAF17
:1013F000BCAF980146E063E488E60E94D503D801BB
:101400008C9190E0982F882711962C91822B092E91
:10141000000CAA0BBB0BF6014081518162817381E4
:10142000840F951FA61FB71F80839183A283B38368
:10143000D80112968C91129790E0982F88271396D6
:101440002C91822B092E000CAA0BBB0B25964CADC0
:101450005DAD6EAD7FAD2597840F951FA61FB71F9D
:1014600025968CAF9DAFAEAFBFAF2597F8018481B5
:1014700090E0982F88272581822B092E000CAA0B3B
:10148000BB0B29964CAD5DAD6EAD7FAD2997840F3A
:10149000951FA61FB71F29968CAF9DAFAEAFBFAFEC
:1014A0002997F1E0AF1AB10809F05ACF12016796F7
:1014B000DFAECEAE67976396DFAECEAE63975201D6
:1014C000F8EC6F2E712C812C912CD5016D917D91B2
:1014D0008D919C91A40193010E94E228F501219332
:1014E0003193419351935F016396AEADBFAD639766
:1014F0006D917D918D919C91A40193010E94E228B0
:101500006396EEADFFAD6397219331934193519371
:101510006396FFAFEEAF6397AC14BD04B1F640EE37
:101520006CE188E60E94382040EE6BE188E60E947C
:10153000382069E170E080E090E00E945103E8EC1F
:10154000CE2ED12C980146E06BE388E60E94D503AD
:10155000D8018C9190E0982F882711962C91822B9E
:10156000092E000CAA0BBB0B4DA15EA16FA178A5A3
:10157000840F951FA61FB71F8DA39EA3AFA3B8A767
:10158000F801828190E0982F88272381822B092EF1
:10159000000CAA0BBB0B49A55AA56BA57CA5840F13
:1015A000951FA61FB71F89A79AA7ABA7BCA78481C1
:1015B00090E0982F88272581822B092E000CAA0BFA
:1015C000BB0B4DA55EA56FA578A9840F951FA61F1F
:1015D000B71F8DA79EA7AFA7B8AB980146E063E4FD
:1015E00088E60E94D503D8018C9190E0982F882737
:1015F00011962C91822B092E000CAA0BBB0B498D46
:101600005A8D6B8D7C8D840F951FA61FB71F898FF8
:101610009A8FAB8FBC8FF801828190E0982F88273A
:101620002381822B092E000CAA0BBB0B4D8D5E8DE6
:101630006F8D78A1840F951FA61FB71F8D8F9E8F6A
:10164000AF8FB8A3848190E0982F88272581822BC3
:10165000092E000CAA0BBB0B49A15AA16BA17CA1BE
:10166000840F951FA61FB71F89A39AA3ABA3BCA382
:10167000F1E0CF1AD10809F065CF8E010B5D1F4F45
:1016800037016396FFAEEEAE63976801A8EC8A2E31
:10169000912CA12CB12CD6016D917D918D919C91B5
:1016A000A50194010E94E228F60121933193419310
:1016B00051936F016396AEADBFAD63976D917D9110
:1016C0008D919C91A50194010E94E2286396EEAD54
:1016D000FFAD639721933193419351936396FFAF8D
:1016E000EEAF6397C414D504B1F640E06CE188E630
:1016F0000E94382040E06BE188E60E94382069E1D2
:1017000070E080E090E00E9451036DE088E60E9466
:101710001C04882E6EE088E60E941C04982E6FE060
:1017200088E60E941C04A82E60E088E60E941C0443
:10173000B82E61E088E60E941C04C82E62E088E6AC
:101740000E941C04D82E682D70E080E090E00E947A
:10175000C32720E030E040E85FE30E94D9219B01ED
:10176000AC016EEA77E481E89FE30E94DC2320E08D
:1017700030EC43E255E40E94242869837A838B830A
:101780009C83692D70E080E090E00E94C32720E0F8
:1017900030E040E85FE30E94D9219B01AC016EEA92
:1017A00077E481E89FE30E94DC2320E030EC43E211
:1017B00055E40E9424286D837E838F8398876A2D49
:1017C00070E080E090E00E94C32720E030E040E835
:1017D0005FE30E94D9219B01AC016EEA77E481E8C6
:1017E0009FE30E94DC2320E030EC43E255E40E94BA
:1017F000242869877A878B879C876B2D70E080E02F
:1018000090E00E94C32720E030E040E85FE30E94C0
:10181000D9219B01AC016EEA77E481E89FE30E9445
:10182000DC2320E030EC43E255E40E9424286D875D
:101830007E878F87988B6C2D70E080E090E00E940F
:10184000C32720E030E040E85FE30E94D9219B01FC
:10185000AC016EEA77E481E89FE30E94DC2320E09C
:1018600030EC43E255E40E942428698B7A8B8B8B01
:101870009C8B6D2D70E080E090E00E94C32720E0FB
:1018800030E040E85FE30E94D9219B01AC016EEAA1
:1018900077E481E89FE30E94DC2320E030EC43E220
:1018A00055E40E9424286D8B7E8B8F8B988F9E0130
:1018B0002F5F3F4F5901F2E6CF2EF3E0DF2E812C50
:1018C000912CF80181919191A191B1918F01F10138
:1018D00021913191419151911F01BC01CD01621BB8
:1018E000730B840B950B0E94C52720E030E048EC79
:1018F00052E40E942428D5012D913D914D915C9197
:101900000E94D32220E030E048EC52E40E94D9212A
:10191000F6016083718382839383F30181919191B6
:10192000A191B1913F016796EEADFFAD679721910F
:101930003191419151916796FFAFEEAF6797BC012E
:10194000CD01621B730B840B950B0E94C52720E011
:1019500030E048EC52E40E942428D5011C962D91D9
:101960003D914D915C911F970E94D32220E030E081
:1019700048EC52E40E94D921F60164877587868776
:101980009787FFEF8F1A9F0A24E0A20EB11C34E064
:10199000C30ED11C43E08416910409F092CF8FE668
:1019A00091E00E944C076091620370916303809103
:1019B0006403909165030E9404218DE991E00E94E7
:1019C000F62080EB91E00E944C07609166037091D5
:1019D000670380916803909169030E9404218DE957
:1019E00091E00E94F6208EED91E00E944C076091FC
:1019F0006A0370916B0380916C0390916D030E9458
:101A000004218DE991E00E94F6208CE092E00E9492
:101A10004C0760916E0370916F03809170039091F9
:101A200071030E9404218DE991E00E94F62086E373
:101A300092E00E944C076091720370917303809151
:101A40007403909175030E9404218DE991E00E9436
:101A5000F62080E692E00E944C0760917603709138
:101A6000770380917803909179030E9404218DE996
:101A700091E00E94F62040E86BE688E60E9438205C
:101A800064E670E080E090E00E94510341E06BE684
:101A900088E60E94382040E06CE688E60E94382004
:101AA00068EC70E080E090E00E94510340E068E361
:101AB00088E60E94382040E063E288E60E943820F1
:101AC00040E06BE688E60E94382040E064E288E669
:101AD0000E94382040E06AE688E60E9438204CE008
:101AE0006AE688E60E9438206FE070E080E090E0CF
:101AF0000E94510341E06AE188E60E94382040E0FC
:101B000069E188E60E94382040E06BE188E60E94A7
:101B1000382040E06CE188E60E94382040E46AE624
:101B200088E60E94382048E763E288E60E94382071
:101B300068E270E080E090E00E94510340E063E2E0
:101B400088E60E943820970142E062E788E60E941A
:101B5000D503898D90E0982F88272A8D822B6CE001
:101B600070E00E94BF218B01412C512C3201812C4D
:101B7000912C540165961CAE1DAE1EAE1FAE65972E
:101B80006D961CAE1DAE1EAE1FAE6D97A1961CAE1F
:101B90001DAE1EAE1FAEA19769961CAE1DAE1EAE49
:101BA0001FAE6997C12CD12CC016D10609F490C084
:101BB0009E01275E3F4F4CE064E788E60E94D50314
:101BC000898D90E0982F88272A8D822B092E000C72
:101BD000AA0BBB0B65962CAD3DAD4EAD5FAD6597C9
:101BE000280F391F4A1F5B1F65962CAF3DAF4EAFC4
:101BF0005FAF65978B8D90E0982F88272C8D822B77
:101C0000092E000CAA0BBB0B880E991EAA1EBB1E28
:101C10008D8D90E0982F88272E8D822B092E000C19
:101C2000AA0BBB0B480E591E6A1E7B1E8F8D90E0BF
:101C3000982F882728A1822B092E000CAA0BBB0BFA
:101C400069962CAD3DAD4EAD5FAD6997280F391F3C
:101C50004A1F5B1F69962CAF3DAF4EAF5FAF6997D0
:101C600089A190E0982F88272AA1822B092E000CA9
:101C7000AA0BBB0BA1962CAD3DAD4EAD5FADA197B0
:101C8000280F391F4A1F5B1FA1962CAF3DAF4EAFE7
:101C90005FAFA1978BA190E0982F88272CA1822B72
:101CA000092E000CAA0BBB0B6D962CAD3DAD4EADB5
:101CB0005FAD6D97280F391F4A1F5B1F6D962CAFC4
:101CC0003DAF4EAF5FAF6D973FEFC31AD30A6CCFF6
:101CD000E12CF12C65966CAD7DAD8EAD9FAD659719
:101CE000A70196010E94E228A5962CAF3DAF4EAF0A
:101CF0005FAFA597C501B401A70196010E94E22834
:101D0000A9962CAF3DAF4EAF5FAFA997C301B2010B
:101D1000A70196010E94E22849015A0169966CAD1B
:101D20007DAD8EAD9FAD6997A70196010E94E22817
:101D300029013A01A1966CAD7DAD8EAD9FADA19705
:101D4000A70196010E94E22869962CAF3DAF4EAFE5
:101D50005FAF69976D966CAD7DAD8EAD9FAD6D97A4
:101D6000A70196010E94E228A1962CAF3DAF4EAF8D
:101D70005FAFA197181419041A041B0464F4D50169
:101D8000C4019054A109B10965968CAF9DAFAEAF67
:101D9000BFAF65970BC0A5019401305C4F4F5F4FFB
:101DA00065962CAF3DAF4EAF5FAF659774E0C72E21
:101DB000D12CE12CF12CC301B201A70196010E94A4
:101DC000E22850954095309521953F4F4F4F5F4FFA
:101DD000BB2757FDBA95A52F942F832F6D968CAFF7
:101DE0009DAFAEAFBFAF6D97898F2A8F69966CADEF
:101DF0007DAD8EAD9FAD6997A70196010E94E22847
:101E000050954095309521953F4F4F4F5F4F3B8FF9
:101E10002C8FA1966CAD7DAD8EAD9FADA197A70126
:101E200096010E94E22850954095309521953F4FAC
:101E30004F4F5F4F3D8F2E8F6A964FAD6A9763E18C
:101E400088E60E9438204A8D64E188E60E943820A6
:101E50004B8D65E188E60E9438204C8D66E188E66E
:101E60000E9438204D8D67E188E60E9438204E8D13
:101E700068E188E60E943820C301B2010E94C527AC
:101E800020E030E043E053E40E94D3226093560305
:101E900070935703809358039093590369966CADE0
:101EA0007DAD8EAD9FAD69970E94C52720E030E0E3
:101EB00043E053E40E94D32260935A0370935B0380
:101EC00080935C0390935D03A1966CAD7DAD8EAD68
:101ED0009FADA1970E94C52720E030E043E053E486
:101EE0000E94D32260935E0370935F03809360032C
:101EF000909361039E01275E3F4F42E067E788E6CB
:101F00000E94D503498C512C542C44248A8D482A94
:101F1000052C000C6608770849825A826B827C8205
:101F20009E01275E3F4F42E06AE788E60E94D503A4
:101F3000C98CD12CDC2CCC248A8DC82A0D2C000C09
:101F4000EE08FF08CD82DE82EF82F8869E01275ED2
:101F50003F4F42E06DE788E60E94D503898D90E00F
:101F6000982F88272A8D822B9C01990F440B550BA3
:101F700069962CAF3DAF4EAF5FAF699729873A871F
:101F80004B875C871DA21EA21FA2FE013196DE01B7
:101F90009596CE010D9621E04191519161917191FB
:101FA00040FD2C931196E817F907B1F758E0852EFC
:101FB000912CA12CB12CA5966CAD7DAD8EAD9FADB5
:101FC000A597A50194010E94E228421A530A640AC7
:101FD000750AA9966CAD7DAD8EAD9FADA997A50193
:101FE00094010E94E228C21AD30AE40AF50A65960F
:101FF0006CAD7DAD8EAD9FAD6597A50194010E943E
:10200000E22869968CAD9DADAEADBFAD6997821BE0
:10201000930BA40BB50B772777FC7A95672D562D7C
:10202000452D498F2DA1422A4A8EDB8E2EA1C22A30
:10203000CC8E9D8F2FA1822B8E8F67E788E60E9422
:1020400038204A8D68E788E60E9438204B8D6AE781
:1020500088E60E9438204C8D6BE788E60E94382085
:102060004D8D6DE788E60E9438204E8D6EE788E63C
:102070000E943820A5966CAD7DAD8EAD9FADA59725
:102080000E94C52720E030E040E858E30E94242861
:1020900060934A0370934B0380934C0390934D03DA
:1020A000A9966CAD7DAD8EAD9FADA9970E94C52759
:1020B00020E030E040E858E30E94242860934E037B
:1020C00070934F03809350039093510365966CADCA
:1020D0007DAD8EAD9FAD65970E94C52720E030E0B5
:1020E00040E858E30E9424286093520370935303FE
:1020F000809354039093550340E06BE688E60E947A
:10210000382064E670E080E090E00E94510341E0F6
:102110006BE688E60E94382068EC70E080E090E092
:102120000E94510343E06AE188E60E94382044E0BF
:1021300069E188E60E9438206BE188E60E941C0471
:10214000482F457E6BE188E60E9438206CE188E6E6
:102150000E941C04482F477E6CE188E60E943820CC
:102160006DE188E60E941C04807F482F43606DE18A
:1021700088E60E94382042E267E388E60E94382021
:1021800041E068E388E60E94382064E670E080E081
:1021900090E00E9451038AE892E00E94F62060E0FD
:1021A0008CE00E941C04182F87EB92E00E944C07E1
:1021B00083E491E00E944C07612F70E080E090E0A2
:1021C00040E10E940B0789E491E00E944C0740E146
:1021D00068E470E080E090E00E940B0787E591E002
:1021E0000E94F90668EE73E080E090E00E945103DF
:1021F00040E06AE08CE00E9438206AE070E080E015
:1022000090E00E9451034FE06AE08CE00E94382089
:102210006AE070E080E090E00E9451038E010F5F61
:102220001F4F980143E060E18CE00E94D503698173
:1022300070E060587109072E000C880B990B0E9402
:10224000C52720E030E040E85BE30E94242820E03E
:1022500030E040E85FE30E94DA216093BA037093B4
:10226000BB038093BC039093BD036A8170E0605808
:102270007109072E000C880B990B0E94C52720E0DE
:1022800030E040E85BE30E94242820E030E040E8B2
:102290005FE30E94DA216093BE037093BF038093D3
:1022A000C0039093C1036B8170E060587109072EE1
:1022B000000C880B990B0E94C52720E030E040E815
:1022C0005BE30E94242820E030E040E85FE30E94C6
:1022D000DA216093C2037093C3038093C403909385
:1022E000C50340E06AE08CE00E9438206AE070E0BC
:1022F00080E090E00E94510342E16AE08CE00E949D
:1023000038206AE070E080E090E00E9451038FEB9B
:1023100092E00E94F62068EE73E080E090E00E9478
:10232000510342E050E069E0C8010E943C048CE0A7
:10233000F801A1E9B5E001900D928A95E1F743E03B
:1023400050E069E0C8010E943C048CE0F801ADE96E
:10235000B5E001900D928A95E1F740E050E069E028
:10236000C8010E943C048CE0F801A9EAB5E00190A4
:102370000D928A95E1F741E050E069E0C8010E94C2
:102380003C048CE0F801A5EBB5E001900D928A9534
:10239000E1F761961FAF0EAF619782C08BEE92E0BE
:1023A0000E944C0740E1C701B6010E940B0787E578
:1023B00091E00E94F906FFCF8130910511F40C9451
:1023C000BD1F14F00C94AD1F892B11F40C94BA1F8F
:1023D0001EA21DA218A61FA21AA619A6C98CDA8CC5
:1023E000C114D10411F00C94C51FC9A4DAA4B3E040
:1023F000CB0ED11CB601CE0185960E94EF07882333
:1024000011F40C9432202DA13EA189A59AA564E374
:1024100073E0820F931F0E948D27DAA6C9A64AE0B7
:10242000BE016F5F7F4FEB968EAD9FADEB970E9425
:1024300094276196EEADFFAD619701900020E9F71A
:10244000319761962EAD3FAD6197E21BF30BC9A4A6
:10245000DAA4309711F00C94DD1F49A55AA56DA19F
:102460007EA18CEC94E00E94CE0687E591E00E946C
:10247000F9068DA19EA10E941D26898D9A8D0E942C
:102480001D2601110C94FB1F5CE0E50EF11C84EC91
:10249000E81685E0F80611F00C94811E0E94BF0139
:1024A0006AE388E60E941C0480FFB3C19E012F5F8F
:1024B0003F4F46E06BE388E60E94D503698170E0F8
:1024C000762F66278A81682B709303046093020439
:1024D000EB80F12CFE2CEE248C81E82AF09205048E
:1024E000E09204040D8110E0102F00278E81082B4C
:1024F000109307040093060480E090E0A0E8B8E39E
:102500008093FE039093FF03A0930004B093010413
:10251000072E000C880B990B0E94C52720E030E0A5
:1025200040E858E30E9424286093FA037093FB0369
:102530008093FC039093FD03B701FF0C880B990B6C
:102540000E94C52720E030E040E858E30E9424289C
:102550006093F6037093F7038093F8039093F90365
:10256000B801110F880B990B0E94C52720E030E0BD
:1025700040E858E30E9424286093F2037093F30329
:102580008093F4039093F5039E012F5F3F4F46E045
:1025900063E488E60E94D503698170E0762F6627A0
:1025A0008A81682B7093ED036093EC03EB80F12C30
:1025B000FE2CEE248C81E82AF092EF03E092EE03E9
:1025C0000D8110E0102F00278E81082B1093F1034E
:1025D0000093F00320E030E04AEF5BE32093E80350
:1025E0003093E9034093EA035093EB03072E000C6A
:1025F000880B990B0E94C52720E030E04AEF5BE38F
:102600000E9424286093E4037093E5038093E6031B
:102610009093E703B701FF0C880B990B0E94C52725
:1026200020E030E04AEF5BE30E9424286093E0035F
:102630007093E1038093E2039093E303B801110FD9
:10264000880B990B0E94C52720E030E04AEF5BE33E
:102650000E9424286093DC037093DD038093DE03E3
:102660009093DF0362E08CE00E941C0480FF29C08D
:102670009E012F5F3F4F47E063E08CE00E94D5034F
:102680008F8183FD1EC08A8190E0982F8827298141
:10269000822B9093D7038093D6038C8190E0982F60
:1026A00088272B81822B9093D9038093D8038E8126
:1026B00090E0982F88272D81822B9093DB038093C5
:1026C000DA038FEF9BEEAFEBBFE38093C6039093EB
:1026D000C703A093C803B093C90320E030E04BEEDA
:1026E00053E42093CA033093CB034093CC0350931D
:1026F000CD0380E090E0A0EFB2E48093CE0390930E
:10270000CF03A093D003B093D10320E030E04AEF91
:1027100052E42093D2033093D3034093D4035093D5
:10272000D5036091D6037091D703072E000C880B58
:10273000990B0E94C5272FEF3BEE4FEB5FE30E9402
:1027400024282091BA033091BB034091BC035091DF
:10275000BD030E94242820E030E04BEE53E40E94A9
:10276000D9216093B6037093B7038093B803909315
:10277000B9036091D8037091D903072E000C880B20
:10278000990B0E94C5272FEF3BEE4FEB5FE30E94B2
:1027900024282091BE033091BF034091C003509183
:1027A000C1030E94242820E030E040EF52E40E9460
:1027B000D9216093B2037093B3038093B4039093D1
:1027C000B5036091DA037091DB03072E000C880BD0
:1027D000990B0E94C5272FEF3BEE4FEB5FE30E9462
:1027E00024282091C2033091C3034091C403509127
:1027F000C5030E94242820E030E04AEF52E40E9402
:10280000D9216093AE037093AF038093B00390938C
:10281000B1030E942C036B017C016093AA037093A7
:10282000AB038093AC039093AD038091A60390918A
:10283000A703A091A803B091A903A7019601281BA3
:10284000390B4A0B5B0BCA01B9010E94C32720E078
:1028500034E244E759E40E94D322C157DF4F688332
:1028600079838A839B83CF58D0406093A20370936F
:10287000A3038093A4039093A503C092A603D092D0
:10288000A703E092A803F092A9039B01AC01609119
:102890009E0370919F038091A0039091A1030E94D9
:1028A000DA2160939E0370939F038093A00390931B
:1028B000A10380919A0390919B03A0919C03B091F6
:1028C0009D030196A11DB11D80939A0390939B03D4
:1028D000A0939C03B0939D034090AE035090AF0330
:1028E0006090B0037090B1038091B6039091B703EC
:1028F000A091B803B091B903A9968CAF9DAFAEAFCC
:10290000BFAFA9972091B2033091B3034091B403B4
:102910005091B503A5962CAF3DAF4EAF5FAFA597D5
:102920008091DC039091DD03A091DE03B091DF0381
:10293000C554DF4F88839983AA83BB83CB5BD04088
:102940002091E0033091E1034091E2035091E303D1
:10295000C154DF4F288339834A835B83CF5BD040E8
:102960008091E4039091E503A091E603B091E70321
:10297000CD53DF4F88839983AA83BB83C35CD04048
:102980002091F2033091F3034091F4035091F50349
:10299000AD962CAF3DAF4EAF5FAFAD978091F603D4
:1029A0009091F703A091F803B091F903E1968CAFF1
:1029B0009DAFAEAFBFAFE1972091FA033091FB031B
:1029C0004091FC035091FD03E5962CAF3DAF4EAF17
:1029D0005FAFE5978091000190910101A091020104
:1029E000B09103016D968CAF9DAFAEAFBFAF6D9749
:1029F0002091040130910501409106015091070199
:102A000065962CAF3DAF4EAF5FAF659780910801E3
:102A100090910901A0910A01B0910B0169968CAFC8
:102A20009DAFAEAFBFAF699720910C0130910D0102
:102A300040910E0150910F01A1962CAF3DAF4EAFCA
:102A40005FAFA197E5962CAD3DAD4EAD5FADE5977F
:102A5000CA01B9010E9424286B017C01E1962CADCA
:102A60003DAD4EAD5FADE197CA01B9010E9424288A
:102A70009B01AC01C701B6010E94DA216B017C0108
:102A8000AD962CAD3DAD4EAD5FADAD97CA01B90170
:102A90000E9424289B01AC01C701B6010E94DA21E3
:102AA0000E9432244B015C0120E030E0A9010E9429
:102AB000BE27882309F458C7A5962CAD3DAD4EAD71
:102AC0005FADA597CA01B9010E9424286B017C0162
:102AD000A9962CAD3DAD4EAD5FADA997CA01B90128
:102AE0000E9424289B01AC01C701B6010E94DA2193
:102AF0006B017C01A3019201C301B2010E94242851
:102B00009B01AC01C701B6010E94DA210E94322468
:102B1000E9966CAF7DAF8EAF9FAFE99720E030E0D4
:102B2000A9010E94BE27882309F41EC765962CAD13
:102B30003DAD4EAD5FAD65976D966CAD7DAD8EAD27
:102B40009FAD6D970E942428CD57DF4F688379830E
:102B50008A839B83C358D04069962CAD3DAD4EAD62
:102B60005FAD69976D966CAD7DAD8EAD9FAD6D9788
:102B70000E942428C957DF4F688379838A839B8307
:102B8000C758D040A1962CAD3DAD4EAD5FADA197DD
:102B90006D966CAD7DAD8EAD9FAD6D970E94242876
:102BA000C557DF4F688379838A839B83CB58D04096
:102BB00065962CAD3DAD4EAD5FAD6597CA01B901CF
:102BC0000E942428C956DF4F688379838A839B83B8
:102BD000C759D04069962CAD3DAD4EAD5FAD6997FC
:102BE00065966CAD7DAD8EAD9FAD65970E94242836
:102BF0006B017C01A1962CAD3DAD4EAD5FADA197B3
:102C000065966CAD7DAD8EAD9FAD65970E94242815
:102C1000C556DF4F688379838A839B83CB59D04025
:102C200069962CAD3DAD4EAD5FAD6997CA01B90156
:102C30000E942428EF966CAF7DAF8EAF9FAFEF97C9
:102C4000A1962CAD3DAD4EAD5FADA19769966CAD33
:102C50007DAD8EAD9FAD69970E942428C156DF4F90
:102C6000688379838A839B83CF59D040A1962CAD0A
:102C70003DAD4EAD5FADA197CA01B9010E942428B8
:102C8000C158DF4F688379838A839B83CF57D040B5
:102C9000A501940160E070E080E89FE30E94D322E8
:102CA0004B015C019B01AC01E5966CAD7DAD8EAD39
:102CB0009FADE5970E942428CD55DF4F6883798327
:102CC0008A839B83C35AD040A5019401E1966CADE1
:102CD0007DAD8EAD9FADE1970E942428C955DF4F91
:102CE000688379838A839B83C75AD040A501940166
:102CF000AD966CAD7DAD8EAD9FADAD970E94242895
:102D0000C555DF4F688379838A839B83CB5AD04034
:102D1000E9962CAD3DAD4EAD5FADE99760E070E05A
:102D200080E89FE30E94D3224B015C019B01AC0130
:102D3000A5966CAD7DAD8EAD9FADA5970E94242864
:102D4000A5966CAF7DAF8EAF9FAFA597A5019401FF
:102D5000A9966CAD7DAD8EAD9FADA9970E9424283C
:102D6000A9966CAF7DAF8EAF9FAFA997A5019401D7
:102D7000C301B2010E942428AD966CAF7DAF8EAF27
:102D80009FAFAD97A5962CAD3DAD4EAD5FADA59770
:102D9000CA01B9010E94DA21E5966CAF7DAF8EAF12
:102DA0009FAFE597EF962CAD3DAD4EAD5FADEF9784
:102DB00060E070E080E09FE30E94D921C158DF4FBE
:102DC000288139814A815B81CF57D0400E94D92127
:102DD000C155DF4F688379838A839B83CF5AD04064
:102DE000A9962CAD3DAD4EAD5FADA997CA01B90115
:102DF0000E94DA21E9966CAF7DAF8EAF9FAFE99765
:102E0000C557DF4F288139814A815B81CB58D0403B
:102E1000C701B6010E94D921CD54DF4F6883798361
:102E20008A839B83C35BD040AD962CAD3DAD4EAD48
:102E30005FADAD97CA01B9010E94DA21CD56DF4FCF
:102E4000688379838A839B83C359D040C957DF4FF6
:102E5000288139814A815B81C758D040C556DF4FF0
:102E6000688179818A819B81CB59D0400E94DA2187
:102E7000C954DF4F688379838A839B83C75BD040C3
:102E8000C155DF4F288139814A815B81CF5AD040BB
:102E9000E5966CAD7DAD8EAD9FADE5970E94242883
:102EA0004B015C01CD54DF4F288139814A815B8120
:102EB000C35BD040E9966CAD7DAD8EAD9FADE9971B
:102EC0000E9424289B01AC01C501B4010E94DA21B3
:102ED0004B015C01C954DF4F288139814A815B81F4
:102EE000C75BD040CD56DF4F688179818A819B8155
:102EF000C359D0400E9424289B01AC01C501B401F4
:102F00000E94DA212B013C01C956DF4F288139810B
:102F10004A815B81C759D04060E070E080E09FE368
:102F20000E94D9214B015C01C557DF4F28813981AF
:102F30004A815B81CB58D040C701B6010E94DA219B
:102F40009B01AC01E5966CAD7DAD8EAD9FADE59777
:102F50000E9424286B017C01C158DF4F28813981F0
:102F60004A815B81CF57D040C501B4010E94D9216D
:102F70009B01AC01E9966CAD7DAD8EAD9FADE9973F
:102F80000E9424289B01AC01C701B6010E94DA21EE
:102F90006B017C01CD57DF4F288139814A815B81EC
:102FA000C358D040C156DF4F688179818A819B81A7
:102FB000CF59D0400E94D9219B01AC01CD56DF4FA3
:102FC000688179818A819B81C359D0400E942428DD
:102FD0009B01AC01C701B6010E94DA216B017C01A3
:102FE000A3019201C301B2010E9424282B013C01DC
:102FF000A7019601C701B6010E9424289B01AC01DC
:10300000C301B2010E94DA210E9432246B017C01CB
:10301000C957DF4F288139814A815B81C758D04029
:10302000C556DF4F688179818A819B81CB59D04019
:103030000E94D921E1966CAF7DAF8EAF9FAFE19733
:10304000CD57DF4F288139814A815B81C358D040F9
:10305000C156DF4F688179818A819B81CF59D040E9
:103060000E94DA212B013C01EF962CAD3DAD4EAD17
:103070005FADEF97C501B4010E94D921CD57DF4F55
:10308000688379838A839B83C358D040E1962CADB3
:103090003DAD4EAD5FADE197CA01B9010E94DA21A5
:1030A000C957DF4F688379838A839B83C758D04091
:1030B000A3019201C301B2010E94DA21C557DF4F7B
:1030C000688379838A839B83CB58D0406D962CADDF
:1030D0003DAD4EAD5FAD6D97CA01B9010E94242888
:1030E000C956DF4F288139814A815B81C759D04059
:1030F0000E94D921EF962CAD3DAD4EAD5FADEF975F
:103100000E94D921C158DF4F288139814A815B81D2
:10311000CF57D0400E94DA21EF966CAF7DAF8EAFD3
:103120009FAFEF97A7019601C701B6010E94DA2170
:103130004B015C01E1962CAD3DAD4EAD5FADE1972D
:10314000E5966CAD7DAD8EAD9FADE5970E942428D0
:103150006B017C01A3019201E9966CAD7DAD8EAD52
:103160009FADE9970E9424289B01AC01C701B601DD
:103170000E94DA216B017C01CD57DF4F2881398114
:103180004A815B81C358D040CD56DF4F6881798139
:103190008A819B81C359D0400E9424289B01AC01A5
:1031A000C701B6010E94DA219B01AC010E94DA211D
:1031B0006B017C01C155DF4F288139814A815B81D8
:1031C000CF5AD040C501B4010E942428E5966CAFC7
:1031D0007DAF8EAF9FAFE597E1962CAD3DAD4EAD87
:1031E0005FADE197C701B6010E9424289B01AC01A5
:1031F000E5966CAD7DAD8EAD9FADE5970E94DA2171
:10320000E5966CAF7DAF8EAF9FAFE597CD54DF4FA6
:10321000288139814A815B81C35BD040C501B401FB
:103220000E942428E1966CAF7DAF8EAF9FAFE197EF
:10323000A3019201C701B6010E9424289B01AC01A1
:10324000E1966CAD7DAD8EAD9FADE1970E94DA2128
:10325000C158DF4F688379838A839B83CF57D040DF
:10326000C954DF4F288139814A815B81C75BD040D7
:10327000C501B4010E9424284B015C01CD57DF4FEA
:10328000288139814A815B81C358D040C701B6018A
:103290000E9424289B01AC01C501B4010E94DA21DF
:1032A000E9966CAF7DAF8EAF9FAFE99710927A032E
:1032B00010927B0310927C0310927D0310927E0388
:1032C00010927F0310928003109281031092820368
:1032D0001092830310928403109285032BED3FE03C
:1032E00049E450E4CD53DF4F688179818A819B8125
:1032F000C35CD0400E94242820E030E044E353E443
:103300000E94D3226B017C01EF962CAD3DAD4EADFA
:103310005FADEF97C955DF4F688179818A819B81C5
:10332000C75AD0400E9424284B015C01C557DF4F8B
:10333000288139814A815B81CB58D040C555DF4F08
:10334000688179818A819B81CB5AD0400E94242850
:103350009B01AC01C501B4010E94D9214B015C0164
:10336000E9962CAD3DAD4EAD5FADE997A9966CAD3C
:103370007DAD8EAD9FADA9970E9424282B013C0105
:10338000C158DF4F288139814A815B81CF57D040B6
:10339000AD966CAD7DAD8EAD9FADAD970E942428EE
:1033A0009B01AC01C301B2010E94D9219B01AC0178
:1033B000C501B4010E94DA2120E030E040E251E48E
:1033C0000E9424289B01AC01C701B6010E94DA21AA
:1033D00020E030E0A9010E94DA21E1966CAF7DAFD8
:1033E0008EAF9FAFE1972BED3FE049E450E4C1542D
:1033F000DF4F688179818A819B81CF5BD0400E94B9
:10340000242820E030E044E353E40E94D3226B01FF
:103410007C01C957DF4F288139814A815B81C758B8
:10342000D040C555DF4F688179818A819B81CB5A15
:10343000D0400E9424284B015C01EF962CAD3DAD9D
:103440004EAD5FADEF97CD55DF4F688179818A81B1
:103450009B81C35AD0400E9424289B01AC01C50126
:10346000B4010E94D9214B015C01E5962CAD3DAD24
:103470004EAD5FADE597AD966CAD7DAD8EAD9FADBC
:10348000AD970E9424282B013C01E9962CAD3DAD5F
:103490004EAD5FADE997A5966CAD7DAD8EAD9FADA0
:1034A000A5970E9424289B01AC01C301B2010E9490
:1034B000D9219B01AC01C501B4010E94DA2120E0B1
:1034C00030E040E251E40E9424289B01AC01C70196
:1034D000B6010E94DA2120E030E0A9010E94DA2141
:1034E000AD966CAF7DAF8EAF9FAFAD972BED3FE04C
:1034F00049E450E4C554DF4F688179818A819B811A
:10350000CB5BD0400E94242820E030E044E353E429
:103510000E94D3226B017C01C557DF4F288139817E
:103520004A815B81CB58D040CD55DF4F688179818E
:103530008A819B81C35AD0400E9424284B015C01A0
:10354000C957DF4F288139814A815B81C758D040F4
:10355000C955DF4F688179818A819B81C75AD040E4
:103560000E9424289B01AC01C501B4010E94D9210D
:103570004B015C01C158DF4F288139814A815B8151
:10358000CF57D040A5966CAD7DAD8EAD9FADA597C4
:103590000E9424282B013C01E5962CAD3DAD4EAD9B
:1035A0005FADE597A9966CAD7DAD8EAD9FADA9974A
:1035B0000E9424289B01AC01C301B2010E94D921C1
:1035C0009B01AC01C501B4010E94DA2120E030E08A
:1035D00040E251E40E9424289B01AC01C701B601DE
:1035E0000E94DA2120E030E0A9010E94DA214B019B
:1035F0005C0120E030E040E05FE3C157DF4F6881CD
:1036000079818A819B81CF58D0400E942428A59639
:103610006CAF7DAF8EAF9FAFA59765966CAD7DAD5E
:103620008EAD9FAD65979058E1962CAD3DAD4EADFA
:103630005FADE1970E9424286B017C01AD962CAD13
:103640003DAD4EAD5FADAD9769966CAD7DAD8EADC8
:103650009FAD69970E9424289B01AC01C701B60168
:103660000E94D9216B017C01A5019401A1966CAD4A
:103670007DAD8EAD9FADA1970E9424289B01AC012A
:10368000C701B6010E94D921A5962CAD3DAD4EAD26
:103690005FADA5970E9424289B01AC016D966CAD8F
:1036A0007DAD8EAD9FAD6D970E94DA216B017C01DF
:1036B000E1962CAD3DAD4EAD5FADE1970E94242863
:1036C0002B013C01A501940169966CAD7DAD8EADD9
:1036D0009FAD69970E9424289B01AC01C301B201F0
:1036E0000E94DA212B013C01AD962CAD3DAD4EADD3
:1036F0005FADAD97A1966CAD7DAD8EAD9FADA19741
:103700000E9424289B01AC01C301B2010E94D9216F
:10371000A5962CAD3DAD4EAD5FADA5970E9424287A
:103720009B01AC0165966CAD7DAD8EAD9FAD65978F
:103730000E94DA216D966CAF7DAF8EAF9FAF6D9713
:10374000AD962CAD3DAD4EAD5FADAD97C701B601A9
:103750000E9424282B013C01A501940165966CADC3
:103760007DAD8EAD9FAD65970E9424289B01AC0175
:10377000C301B2010E94D9212B013C01E1962CAD7D
:103780003DAD4EAD5FADE197A1966CAD7DAD8EAD1B
:103790009FADA1970E9424289B01AC01C301B201F7
:1037A0000E94DA21A5962CAD3DAD4EAD5FADA5973B
:1037B0000E9424289B01AC0169966CAD7DAD8EAD55
:1037C0009FAD69970E94DA21A9966CAF7DAF8EAF4D
:1037D0009FAFA997A5019401C701B6010E942428B3
:1037E0004B015C01AD962CAD3DAD4EAD5FADAD97DF
:1037F00065966CAD7DAD8EAD9FAD65970E9424281A
:103800009B01AC01C501B4010E94DA214B015C01AE
:10381000E1962CAD3DAD4EAD5FADE19769966CADD7
:103820007DAD8EAD9FAD69970E9424289B01AC01B0
:10383000C501B4010E94D921A5962CAD3DAD4EAD78
:103840005FADA5970E9424289B01AC01A1966CADA9
:103850007DAD8EAD9FADA1970E94DA212B013C0179
:10386000A7019601C701B6010E9424284B015C0103
:103870006D962CAD3DAD4EAD5FAD6D97CA01B901F2
:103880000E9424289B01AC01C501B4010E94DA21E9
:103890004B015C01A9962CAD3DAD4EAD5FADA99736
:1038A000CA01B9010E9424289B01AC01C501B401E1
:1038B0000E94DA214B015C01A3019201C301B20114
:1038C0000E9424289B01AC01C501B4010E94DA21A9
:1038D0000E9432249B01AC0160E070E080E89FE32D
:1038E0000E94D3224B015C019B01AC01C701B601D0
:1038F0000E942428609300017093010180930201CB
:1039000090930301A50194016D966CAD7DAD8EADD4
:103910009FAD6D970E942428609304017093050168
:103920008093060190930701A5019401A9966CADBF
:103930007DAD8EAD9FADA9970E94242860930801AC
:103940007093090180930A0190930B01A5019401E2
:10395000C301B2010E94242860930C0170930D01F1
:1039600080930E0190930F012FB7F8948091460336
:1039700090914703A0914803B09149032FBF409114
:103980009603509197036091980370919903841B5B
:10399000950BA60BB70B8093920390939303A09380
:1039A0009403B0939503853F9140A105B10508F4B8
:1039B000A0C18091000190910101A0910201B091FC
:1039C000030165968CAF9DAFAEAFBFAF65979C010D
:1039D000AD01BC01CD010E942428A1966CAF7DAF42
:1039E0008EAF9FAFA19720910401309105014091C6
:1039F00006015091070169962CAF3DAF4EAF5FAF06
:103A00006997CA01B9010E9424286D966CAF7DAFF9
:103A10008EAF9FAF6D974090080150900901609064
:103A20000A0170900B01A3019201C301B2010E942F
:103A30002428A5966CAF7DAF8EAF9FAFA597C090A1
:103A40000C01D0900D01E0900E01F0900F01A70144
:103A50009601C701B6010E942428A9966CAF7DAFDC
:103A60008EAF9FAFA9976D962CAD3DAD4EAD5FADBE
:103A70006D97A1966CAD7DAD8EAD9FADA1970E9467
:103A8000DA21A5962CAD3DAD4EAD5FADA5970E9458
:103A9000D921A9962CAD3DAD4EAD5FADA9970E9441
:103AA000D9214B015C01A301920169966CAD7DADFA
:103AB0008EAD9FAD69970E942428AD966CAF7DAF07
:103AC0008EAF9FAFAD97A701960165966CAD7DADAA
:103AD0008EAD9FAD65970E9424289B01AC01AD96E9
:103AE0006CAD7DAD8EAD9FADAD970E94DA219B018F
:103AF000AC010E94DA21A50194010E947422AD96C6
:103B00006CAF7DAF8EAF9FAFAD97A7019601699661
:103B10006CAD7DAD8EAD9FAD69970E9424284B01A1
:103B20005C01A301920165966CAD7DAD8EAD9FAD3C
:103B300065970E9424289B01AC01C501B4010E9435
:103B4000D9219B01AC010E94DA210E944622E19614
:103B50006CAF7DAF8EAF9FAFE1976D962CAD3DAD55
:103B60004EAD5FAD6D97A1966CAD7DAD8EAD9FAD49
:103B7000A1970E94D921A5962CAD3DAD4EAD5FAD6C
:103B8000A5970E94D921A9962CAD3DAD4EAD5FAD54
:103B9000A9970E94DA214B015C0169962CAD3DADDD
:103BA0004EAD5FAD699765966CAD7DAD8EAD9FAD49
:103BB00065970E94242865966CAF7DAF8EAF9FAF4E
:103BC0006597A7019601C301B2010E9424289B01B9
:103BD000AC0165966CAD7DAD8EAD9FAD65970E94D5
:103BE000DA219B01AC010E94DA21A50194010E9417
:103BF00074226B017C01E1966CAD7DAD8EAD9FAD05
:103C0000E197905820EE3EE245E652E40E942428D7
:103C10004B015C0160938A0370938B0380938C0348
:103C200090938D0320EE3EE245E652E4AD966CADF6
:103C30007DAD8EAD9FADAD970E9424282DEC3CEC60
:103C40004CE551E40E94D9212B013C0160938E0385
:103C500070938F03809390039093910320EE3EE244
:103C600045E652E4C701B6010E942428609386030A
:103C70007093870380938803909389036093100463
:103C8000709311048093120490931304809208049B
:103C900090920904A0920A04B0920B0440920C0482
:103CA00050920D0460920E0470920F042FB7F89496
:103CB0008091460390914703A0914803B091490336
:103CC0002FBF8093960390939703A0939803B0938C
:103CD000990310929A0310929B0310929C031092E6
:103CE0009D0310929E0310929F031092A0031092C6
:103CF000A103E4E9EE2EE5E0FE2EF8E5AF2EF2E0BA
:103D0000BF2EF70133971081319660803196708015
:103D1000D7010C91209010043090110440901204AF
:103D200050901304209108043091090440910A0432
:103D300050910B0417968D919C91189781309105A5
:103D400009F4CCC00CF043C0009711F00C94DC11C6
:103D500060918F0570919005072E000C880B990BD0
:103D6000C953DF4F2883C75CD040C853DF4F388327
:103D7000C85CD040C753DF4F4883C95CD040C653AE
:103D8000DF4F5883CA5CD0400E94C527C953DF4F1C
:103D90002881C75CD040C853DF4F3881C85CD04011
:103DA000C753DF4F4881C95CD040C653DF4F5881AD
:103DB000CA5CD0400E94DA21A20191010E94D9215F
:103DC0000E944523EB967FAF6EAFEB97D3C0823056
:103DD000910509F444C08330910511F00C94DC1175
:103DE00060918F0570919005072E000C880B990B40
:103DF000C953DF4F2883C75CD040C853DF4F388397
:103E0000C85CD040C753DF4F4883C95CD040C6531D
:103E1000DF4F5883CA5CD0400E94C527C953DF4F8B
:103E20002881C75CD040C853DF4F3881C85CD04080
:103E3000C753DF4F4881C95CD040C653DF4F58811C
:103E4000CA5CD0400E94D921A20191010E94DA21CE
:103E50000E944523EB967FAF6EAFEB9788C06091D1
:103E60008F0570919005072E000C880B990BC95394
:103E7000DF4F2883C75CD040C853DF4F3883C85C0E
:103E8000D040C753DF4F4883C95CD040C653DF4F93
:103E90005883CA5CD0400E94C527C953DF4F288190
:103EA000C75CD040C853DF4F3881C85CD040C7538F
:103EB000DF4F4881C95CD040C653DF4F5881CA5C90
:103EC000D0400E94D921A20191010E94D9210E94D3
:103ED0004523EB967FAF6EAFEB9746C060918F05A1
:103EE00070919005072E000C880B990BC953DF4F7A
:103EF0002883C75CD040C853DF4F3883C85CD040AC
:103F0000C753DF4F4883C95CD040C653DF4F588347
:103F1000CA5CD0400E94C527C953DF4F2881C75CC7
:103F2000D040C853DF4F3881C85CD040C753DF4F03
:103F30004881C95CD040C653DF4F5881CA5CD0402D
:103F40000E94DA21A20191010E94DA210E944523F8
:103F5000EB967FAF6EAFEB9710C08230910521F0EA
:103F6000039729F00C94E8116CE073E008C065E158
:103F700073E005C06FE173E002C069E273E0CE0157
:103F800049960E9428080C94E8118D8C9E8CB401EF
:103F9000CE0185960E94EF07811106C0CE0185965D
:103FA0000E9416080C94F5119AA689A6B6018DA157
:103FB0009EA10E948D270C94F511CE0EDF1EB60136
:103FC000CE0185960E94EF07882379F02DA13EA1AE
:103FD00089A59AA5BE016F5F7F4F820F931F0E9434
:103FE0008D27DAA6C9A60C942D12CE0185960E94C3
:103FF00016080C942D121C3010F00C94441288E812
:1040000090E08619910967FC9395880F991F880F96
:10401000991FEB964EAD5FADEB974817590774F0BB
:1040200095012719310977FC3395220F331F220F91
:10403000331FCA01241735070CF4C9010297880FF2
:10404000991F4FB7F894212F30E0F901EE0FFF1FB1
:104050002E0F3F1FF901E759FA4F928381834FBF1B
:104060000C944412CE0185960E9416080C940F12EF
:10407000CF93DF931F92CDB7DEB791E09093A80462
:104080008093CA041092A9041092CB0481EC95E0AD
:1040900049830E9457024981642F81EC95E00E9478
:1040A000570281E00F90DF91CF910C944E07109250
:1040B000CF041092CE0488EE93E0A0E0B0E08093AD
:1040C000D0049093D104A093D204B093D3048EE192
:1040D00091E09093CD048093CC0485EC90E0909394
:1040E000D9048093D80484EC90E09093DB0480930F
:1040F000DA0480EC90E09093DD048093DC0481ECA2
:1041000090E09093DF048093DE0482EC90E0909343
:10411000E1048093E00486EC90E09093E3048093C4
:10412000E2041092E5041092E6041092E704109263
:10413000E8048EE097ECAAE1BFE38093D105909369
:10414000D205A093D305B093D4051092CD0510925B
:10415000CE051092CF051092D00581E080938E0598
:1041600088EE93E09093900580938F0580918D0564
:1041700040E050E09FEF68EB7BE0DA01A257BA4FD6
:104180008C3088F413968C931397282F30E0F90124
:10419000EE0FFF1F2E0F3F1FF901E759FA4F7283F1
:1041A00061838F5F03C013969C93139716961C929E
:1041B000445F5F4F4033510501F780938D051092A6
:1041C000C4051092C30588EE93E0A0E0B0E08093B0
:1041D000C5059093C605A093C705B093C8058EE2A8
:1041E00091E09093C2058093C1050895CF93DF932A
:1041F0000E94F906EC0187E591E00E94F9068C0F18
:104200009D1FDF91CF9108958F929F92AF92BF92A1
:10421000CF92DF92EF92FF92CF93DF936B017C01FD
:104220009B01AC010E947624882319F088E393E077
:1042300027C046015701E894B7F82FEF3FEF4FE74B
:104240005FE7C501B4010E94762481110DC02FEFF4
:104250003FEF4FE75FE7C501B4010E94BE27181684
:104260001CF48CE393E00CC02FEF3FEF4FE75FE4CB
:10427000C701B6010E94CF23181674F480E493E0BE
:10428000DF91CF91FF90EF90DF90CF90BF90AF90F4
:104290009F908F900C94F9062FEF3FEF4FE75FEC64
:1042A000C701B6010E94BE2787FDE8CF20E030E0BD
:1042B000A901C701B6010E94BE2787FF11C0E09186
:1042C000CC04F091CD040190F081E02D6DE28CECF6
:1042D00094E00995EC01F7FAF094F7F8F09402C035
:1042E000C0E0D0E02DEC3CEC4CE45DE3C701B6014E
:1042F0000E94DA214B015C010E9445236B017C0185
:104300000E94C3279B01AC01C501B4010E94D921C1
:104310004B015C014AE0C701B6010E940B07C80FC0
:10432000D91F85EB92E00E94F906C80FD91F20E043
:1043300030E040E251E4C501B4010E9424280E940B
:10434000452380E090E04AE00E940B078C0F9D1F00
:10435000DF91CF91FF90EF90DF90CF90BF90AF9023
:104360009F908F900895991B79E004C0991F96172C
:1043700008F0961B881F7A95C9F780950895AA1BA7
:10438000BB1B51E107C0AA1FBB1FA617B70710F040
:10439000A61BB70B881F991F5A95A9F78095909572
:1043A000BC01CD010895EE0FFF1F0590F491E02DA3
:1043B00009945058BB27AA270E94F1210C94A828E1
:1043C0000E949A2838F00E94A12820F039F49F3FDB
:1043D00019F426F40C9497280EF4E095E7FB0C945E
:1043E0009128E92F0E94B92858F3BA17620773077A
:1043F0008407950720F079F4A6F50C94DB280EF4D9
:10440000E0950B2EBA2FA02D0B01B90190010C01E4
:10441000CA01A0011124FF27591B99F0593F50F4FC
:10442000503E68F11A16F040A22F232F342F442754
:10443000585FF3CF469537952795A795F04053954C
:10444000C9F77EF41F16BA0B620B730B840BBAF01C
:104450009150A1F0FF0FBB1F661F771F881FC2F787
:104460000EC0BA0F621F731F841F48F4879577959B
:104470006795B795F7959E3F08F0B0CF9395880F55
:1044800008F09927EE0F9795879508959F939F774A
:10449000EEE389379E0728F4E8E6F0E00E94BB23AC
:1044A0000CC00E9474239058A2EA2AED3FE049EC28
:1044B0005FE30E94F1210E94A8280F9007FC90580A
:1044C00008950E949A2860F080E891E009F49EEF38
:1044D0000E94A12828F040E851E071F45EEF0CC082
:1044E0000C9497280C94DB28E92FE0780E94B928D7
:1044F00040F3092E052AB1F3261737074807590755
:1045000038F00E2E07F8E02569F0E025E0640AC0D7
:10451000EF6307F8009407FADB01B9019D01DC01A4
:10452000CA01AD01EF930E94EA220E94A8280E94CE
:10453000A4225F91552339F02BED3FE049E450FD73
:1045400049EC0C94DA210895DF93DD27B92FBF776A
:1045500040E85FE31616170648075B0718F4D92FE3
:104560000E94D4239F938F937F936F930E94722412
:10457000ECE7F0E00E9494230E94A8282F913F913D
:104580004F915F910E943728DD2351F09058A2EAA5
:104590002AED3FE049EC5FE3D0785D270E94F121EE
:1045A000DF910C94A8280E94E7220C94A8280E946E
:1045B000A12858F00E949A2840F029F45F3F29F082
:1045C0000C94912851110C94DC280C9497280E948B
:1045D000B92868F39923B1F3552391F3951B550B33
:1045E000BB27AA2762177307840738F09F5F5F4FC6
:1045F000220F331F441FAA1FA9F335D00E2E3AF005
:10460000E0E832D091505040E695001CCAF72BD01C
:10461000FE2F29D0660F771F881FBB1F261737076D
:104620004807AB07B0E809F0BB0B802DBF01FF279F
:1046300093585F4F3AF09E3F510578F00C949128C3
:104640000C94DC285F3FE4F3983ED4F3869577958D
:104650006795B795F7959F5FC9F7880F911D969558
:10466000879597F90895E1E0660F771F881FBB1FB4
:10467000621773078407BA0720F0621B730B840B61
:10468000BA0BEE1F88F7E09508950E94C12888F0C4
:104690009F5798F0B92F9927B751B0F0E1F0660F06
:1046A000771F881F991F1AF0BA95C9F714C0B13047
:1046B00091F00E94DB28B1E008950C94DB28672F6D
:1046C000782F8827B85F39F0B93FCCF38695779576
:1046D0006795B395D9F73EF490958095709561955F
:1046E0007F4F8F4F9F4F0895DF93CF931F930F936B
:1046F0008B01EC01E9EAF0E00E9494230E94A828D3
:104700009801AE018B01EC0160E070E080E89FE36E
:104710000E94D9210E9432249801AE010F911F916D
:10472000CF91DF910C943728DF93CF931F930F9392
:10473000FF92EF92DF927B018C01689406C0DA2E23
:10474000EF010E943728FE01E894A591259135914B
:1047500045915591A6F3EF010E94F121FE019701C9
:10476000A801DA9469F7DF90EF90FF900F911F9105
:10477000CF91DF9108959F938F937F936F93FF93D2
:10478000EF939B01AC010E942428EF91FF910E94BE
:1047900094232F913F914F915F910C9424280E9474
:1047A000002808F48FEF08959B01AC0160E070E0F1
:1047B00080E89FE30C94D322FA01EE0FFF1F30969E
:1047C00021053105A1F16115710561F48038BFE360
:1047D0009B0749F168949038810561F08038BFEFFC
:1047E0009B0741F099234AF5FF3FE105310521057B
:1047F00019F1E8940894E795D901AA2329F4AB2F7D
:10480000BE2FF85FD0F310C0FF5F70F4A695E0F7FD
:10481000F73950F019F0FF3A38F49F779F930DD095
:104820000F9007FC9058089546F00C94972860E08C
:1048300070E080E89FE308954FE79F775F934F9381
:104840003F932F930E940C252F913F914F915F91A1
:104850000E9424280C94832419F416F40C949728AD
:104860000C94B5240E94C128B8F39923C9F3B6F378
:104870009F57550B87FF0E94C3240024A0E640EAFF
:10488000900180585695979528F4805C660F771FA5
:10489000881F20F026173707480730F4621B730B78
:1048A000840B202931294A2BA6951794079420259B
:1048B00031254A2758F7660F771F881F20F02617E3
:1048C0003707480730F4620B730B840B200D311D42
:1048D000411DA09581F7B901842F9158880F9695B5
:1048E000879508959B01AC010C9424280E94002810
:1048F000880B990B089529F416F00C9491280C94C8
:10490000DB280C9497280E94C128A8F39638A0F7BA
:1049100007F80F92E8942BE33AEA48EB5FE70E942E
:104920003A280F920F920F924DB75EB70F920E94E6
:104930005425E1EDF0E00E9494234F915F91EF91B7
:10494000FF91E595EE1FFF1F49F0FE57E0684427F1
:10495000EE0F441FFA95E1F74195550B0E94CE24C6
:104960000F9007FE0C94D42308959F3F31F091508F
:1049700020F4879577956795B795880F911D969543
:10498000879597F9089591505040660F771F881FBB
:10499000D2F708950C9491280C94B5240E94C12854
:1049A000D8F39923C9F3940F511DA3F391505040AC
:1049B00094F059F0882332F0660F771F881F9150CA
:1049C0005040C1F79E3F51052CF7880F911D9695D9
:1049D000879597F908955F3FACF0983E9CF0BB2710
:1049E000869577956795B79508F4B1609395C1F76B
:1049F000BB0F58F711F460FFE8CF6F5F7F4F8F4F09
:104A00009F4FE3CF0C94DC2816F00C94B5240C9443
:104A1000972868940C9491280E94C128A8F39923A0
:104A2000C1F3AEF3DF93CF931F930F93FF92C92F80
:104A3000DD2788232AF02197660F771F881FDAF772
:104A400020E030E040E85FEB9FE3883920F0803ED3
:104A500038F021968F770E94DA21E9EFF0E004C068
:104A60000E94DA21E6E2F1E00E9494238B01BE016C
:104A7000EC01FB2E6F5771097595771F880B990B09
:104A80000E94C52728E132E741E35FE30E9437280F
:104A9000AF2D9801AE01FF900F911F91CF91DF9143
:104AA0000E94F1210C94A828FA01DC01AA0FBB1F77
:104AB0009B01AC01BF5728F42227332744275078A5
:104AC00020C0B75190F4AB2F002446953795279519
:104AD000011CA395D2F3002071F0220F331F441F55
:104AE000B395DAF30ED00C94D92161307105A0E8AA
:104AF0008A07B94630F49B01AC01662777278827DF
:104B00009078309621F02083318342835383089537
:104B1000CF93DF938230910510F482E090E0E09132
:104B2000D705F091D80520E030E0C0E0D0E0309724
:104B300011F14081518148175907C0F048175907B2
:104B400061F482819381209719F09B838A832BC023
:104B50009093D8058093D70526C02115310519F00B
:104B60004217530718F49A01BE01DF01EF010280DA
:104B7000F381E02DDCCF2115310509F1281B390B1C
:104B80002430310590F412968D919C911397611504
:104B9000710521F0FB019383828304C09093D805B3
:104BA0008093D705FD01329644C0FD01E20FF31F4B
:104BB00081939193225031092D933C933AC02091D7
:104BC000D5053091D605232B41F420911201309167
:104BD00013013093D6052093D50520911001309113
:104BE00011012115310541F42DB73EB74091140153
:104BF00050911501241B350BE091D505F091D60598
:104C0000E217F307A0F42E1B3F0B2817390778F0A3
:104C1000AC014E5F5F4F2417350748F04E0F5F1F02
:104C20005093D6054093D5058193919302C0E0E05F
:104C3000F0E0CF01DF91CF9108950F931F93CF93B1
:104C4000DF93009709F48CC0FC0132971382128223
:104C50000091D7051091D8050115110581F4208127
:104C60003181820F931F2091D5053091D6052817E9
:104C7000390779F5F093D605E093D50571C0D801D1
:104C800040E050E0AE17BF0750F412962D913C91D2
:104C90001397AD012115310509F1D901F3CF9D011C
:104CA000DA013383228360817181860F971F821717
:104CB000930769F4EC0128813981260F371F2E5F95
:104CC0003F4F318320838A819B8193838283452B4D
:104CD00029F4F093D805E093D70542C01396FC93CE
:104CE000EE931297ED01499159919E01240F351FC2
:104CF000E217F30771F480819181840F951F02966A
:104D000011969C938E938281938113969C938E939C
:104D10001297E0E0F0E0D80112968D919C911397E4
:104D2000009719F0F8018C01F6CF8D919C919801B4
:104D30002E5F3F4F820F931F2091D5053091D605EE
:104D40002817390769F4309729F41092D805109282
:104D5000D70502C0138212821093D6050093D505A1
:104D6000DF91CF911F910F910895A0E0B0E0EBEBA0
:104D7000F6E20C940529EC01009721F4CB010E9486
:104D80008825B8C0FC01E60FF71F9C0122503109AD
:104D9000E217F30708F4ACC0D9010D911C911197EB
:104DA00006171707B0F00530110508F49FC0C801B9
:104DB00004978617970708F499C002501109061B3B
:104DC000170B019311936D937C93CF010E941D26C5
:104DD0008DC05B01A01AB10A4C01800E911EA091FA
:104DE000D705B091D80540E050E0E12CF12C1097A8
:104DF00009F44AC0A815B905D1F56D907C901197BA
:104E0000630182E0C80ED11CCA14DB0480F1A30147
:104E10004A195B096A0182E0C80ED11C1296BC9047
:104E200012971396AC91B5E0CB16D10440F0B28244
:104E3000A38351834083D9016D937C930AC00E5F95
:104E40001F4FC301800F911FF90191838083EB2DC8
:104E5000FA2FE114F10431F0D7011396FC93EE938D
:104E6000129744C0F093D805E093D7053FC08D91C9
:104E70009C9111974817590708F4AC017D011296CF
:104E80000D90BC91A02DB3CF8091D5059091D60502
:104E900088159905E1F446175707C8F48091100169
:104EA00090911101009741F48DB79EB74091140184
:104EB00050911501841B950BE817F907C8F4F0937E
:104EC000D605E093D505F901718360830FC0CB014E
:104ED0000E9488257C01009759F0A801BE010E941C
:104EE0008427CE010E941D26C70104C0CE0102C046
:104EF00080E090E0CDB7DEB7EEE00C94212981E0B0
:104F000090E0F8940C945A29FB01DC0102C0019056
:104F10000D9241505040D8F70895FB01DC010190FB
:104F20000D920020E1F70895BB27FB015527AA2722
:104F3000880F991FAA1FA41710F0A41B8395505126
:104F4000B9F7A05DAA3308F0A95DA193009779F79E
:104F5000B111B1931192CB010C94AE27DC01FC018D
:104F6000672F71917723E1F7329704C07C916D939D
:104F700070836291AE17BF07C8F308950E9400289E
:104F800008F481E00895E89409C097FB3EF49095F9
:104F90008095709561957F4F8F4F9F4F9923A9F012
:104FA000F92F96E9BB279395F695879577956795A1
:104FB000B795F111F8CFFAF4BB0F11F460FF1BC0E5
:104FC0006F5F7F4F8F4F9F4F16C0882311F096E978
:104FD00011C0772321F09EE8872F762F05C0662326
:104FE00071F096E8862F70E060E02AF09A95660FDF
:104FF000771F881FDAF7880F9695879597F9089598
:10500000990F0008550FAA0BE0E8FEEF16161706D9
:10501000E807F907C0F012161306E407F50798F041
:10502000621B730B840B950B39F40A2661F0232B5A
:10503000242B252B21F408950A2609F4A140A695D6
:105040008FEF811D811D08950E9437280C94A82898
:105050000E949A2838F00E94A12820F0952311F090
:105060000C9491280C94972811240C94DC280E940D
:10507000B92870F3959FC1F3950F50E0551F629FBB
:10508000F001729FBB27F00DB11D639FAA27F00DA1
:10509000B11DAA1F649F6627B00DA11D661F829FC8
:1050A0002227B00DA11D621F739FB00DA11D621FAD
:1050B000839FA00D611D221F749F3327A00D611DCA
:1050C000231F849F600D211D822F762F6A2F1124AC
:1050D0009F5750409AF0F1F088234AF0EE0FFF1FDF
:1050E000BB1F661F771F881F91505040A9F79E3F36
:1050F000510580F00C9491280C94DC285F3FE4F378
:10510000983ED4F3869577956795B795F795E7958B
:105110009F5FC1F7FE2B880F911D9695879597F994
:10512000089597F99F6780E870E060E008959FEF29
:1051300080EC089500240A9416161706180609062E
:10514000089500240A9412161306140605060895FD
:10515000092E0394000C11F4882352F0BB0F40F485
:10516000BF2B11F460FF04C06F5F7F4F8F4F9F4FC5
:10517000089557FD9058440F551F59F05F3F71F047
:105180004795880F97FB991F61F09F3F79F08795AE
:105190000895121613061406551FF2CF4695F1DF37
:1051A00008C0161617061806991FF1CF86957105C7
:1051B000610508940895E894BB2766277727CB01FB
:1051C00097F90895052E97FB1EF400940E94F92884
:1051D00057FD07D00E94382907FC03D04EF40C94E9
:1051E000F92850954095309521953F4F4F4F5F4F8F
:1051F000089590958095709561957F4F8F4F9F4F43
:1052000008952F923F924F925F926F927F928F926A
:105210009F92AF92BF92CF92DF92EF92FF920F9345
:105220001F93CF93DF93CDB7DEB7CA1BDB0B0FB64F
:10523000F894DEBF0FBECDBF09942A88398848880C
:105240005F846E847D848C849B84AA84B984C884A2
:10525000DF80EE80FD800C811B81AA81B981CE0F99
:10526000D11D0FB6F894DEBF0FBECDBFED0108957E
:10527000A1E21A2EAA1BBB1BFD010DC0AA1FBB1F5A
:10528000EE1FFF1FA217B307E407F50720F0A21BCC
:10529000B30BE40BF50B661F771F881F991F1A9439
:1052A00069F760957095809590959B01AC01BD0163
:0852B000CF010895F894FFCF2F
:1052B8000000803F00000000000000000000000027
:1052C8000000D90580000100000000000000560120
:1052D800CE061F01FD0011019D01000000005702CC
:1052E8002702C9011302040203024D505539323511
:1052F8003020004920414D200020492073686F75F7
:105308006C6420626520000D0A004D505539323515
:1053180030206973206F6E6C696E652E2E2E0078B2
:105328002D617869732073656C6620746573743AAF
:1053380020616363656C65726174696F6E20747255
:10534800696D2077697468696E203A200025206F9E
:105358006620666163746F72792076616C7565008A
:10536800792D617869732073656C66207465737430
:105378003A20616363656C65726174696F6E20744D
:1053880072696D2077697468696E203A20007A2DF9
:10539800617869732073656C6620746573743A204C
:1053A800616363656C65726174696F6E207472699C
:1053B8006D2077697468696E203A2000782D6178CD
:1053C80069732073656C6620746573743A20677915
:1053D800726174696F6E207472696D207769746880
:1053E800696E203A2000792D617869732073656CA5
:1053F8006620746573743A206779726174696F6E98
:10540800207472696D2077697468696E203A20008B
:105418007A2D617869732073656C6620746573747E
:105428003A206779726174696F6E207472696D20B1
:1054380077697468696E203A20004D5055393235C5
:105448003020696E697469616C697A656420666F79
:1054580072206163746976652064617461206D6F80
:1054680064652E2E2E2E00414B38393633200041EC
:105478004B3839363320696E697469616C697A65AD
:105488006420666F72206163746976652064617454
:1054980061206D6F64652E2E2E2E00436F756C642F
:1054A800206E6F7420636F6E6E65637420746F2056
:1054B8004D5055393235303A203078005265617296
:1054C8004C6566740052656172526967687400467B
:1054D800726F6E744C6566740046726F6E745269B2
:1054E80067687400202D20006E616E00696E66008A
:0454F8006F76660065
:00000001FF
