:100000000C94D9000C9401010C9401010C94DA07B2
:100010000C94DA070C94DA070C9401010C9401019A
:100020000C9401010C9401010C9401010C9419072A
:100030000C9401010C9401010C9401010C94010138
:100040000C94EB050C9401010C9498030C9472032E
:100050000C9401010C9401010C9401010C94010118
:100060000C946A080C940101036EDB363D9A999951
:10007000993DABAAAA2A3E000000803F084AD73B20
:100080003BCE016E84BCBFFDC12F3D6C74319ABD67
:1000900056833DDA3D00C77F11BED9E4BB4C3E918B
:1000A0006BAAAABE000000803F072C7AA5BA6CC5D7
:1000B00090DA3B9365FC8BBC53F810FD3C56928361
:1000C0004DBD879D3AB63DCBC9BF5BBE73DA0FC944
:1000D0003F07634236B79BD8A71A39685618AEBA9D
:1000E000AB558C1D3CB7CC5763BD6DEDFD753EF631
:1000F000177231BF000000803F08000000BE92244C
:1001000049123EABAAAA2ABECDCCCC4C3E00000080
:1001100080BEABAAAAAA3E00000000BF000000807B
:100120003F0000000000084178D3BB4387D1133D56
:10013000190E3CC3BD4282AD2B3E68EC8276BED91F
:100140008FE1A93E4C80EFFFBE01C4FF7F3F00005E
:100150000000000000000000240027002A0000002A
:100160000008000201000003040700000000000076
:10017000000000000000250028002B000000000007
:1001800023002600290004040404040404040202D9
:100190000202020203030303030301020408102006
:1001A0004080010204081020010204081020812868
:1001B000582811241FBECFEFD8E0DEBFCDBF13E01B
:1001C000A0E0B1E0E8E4F5E602C005900D92AE369D
:1001D000B107D9F726E0AEE6B3E001C01D92A23A1E
:1001E000B207E1F710E0C8EDD0E004C02197FE01AE
:1001F0000E94E32AC73DD107C9F70E94FB0D0C946A
:1002000097320C940000FC01918D828D981761F05B
:10021000828DDF01A80FB11D5D968C91928D9F5F3D
:100220009F73928F90E008958FEF9FEF0895FC01E8
:10023000918D828D981731F0828DE80FF11D858D9B
:1002400090E008958FEF9FEF0895FC01918D228D2E
:10025000892F90E0805C9F4F821B91098F739927B3
:10026000089581E595E00E94250121E0892B09F49C
:1002700020E0822F0895FC01848DDF01A80FB11DBD
:10028000A35ABF4F2C91848D90E001968F739927CC
:10029000848FA689B7892C93A089B1898C918064B9
:1002A0008C93938D848D981306C00288F389E02D7A
:1002B00080818F7D80830895EF92FF920F931F932B
:1002C000CF93DF93EC0181E0888F9B8D8C8D981309
:1002D00005C0E889F989808185FD24C0F62E0B8D43
:1002E00010E00F5F1F4F0F731127E02E8C8DE81267
:1002F0000CC00FB607FCFACFE889F989808185FF29
:10030000F5CFCE010E943B01F1CF8B8DFE01E80FAE
:10031000F11DE35AFF4FF0820B8FEA89FB89808140
:10032000806207C0EE89FF896083E889F98980814E
:100330008064808381E090E0DF91CF911F910F91E5
:10034000FF90EF900895CF93DF93EC01888D882381
:10035000C9F0EA89FB89808185FD05C0A889B98932
:100360008C9186FD0FC00FB607FCF5CF808185FF0D
:10037000F2CFA889B9898C9185FFEDCFCE010E947B
:100380003B01E7CFDF91CF91089580E090E0892B8A
:1003900029F00E94310181110C9400000895809190
:1003A0000F0690E020911006821B9109089520917C
:1003B0007003309171032817390771F490916E031F
:1003C00080916F03981741F0E0916E03F0E0EE55D5
:1003D000FB4F808190E008958FEF9FEF089508957F
:1003E0001F93CF93DF93DC015C962D913C915D9739
:1003F0002115310539F481E090E013969C938E939A
:1004000012973DC05196ED91FC91529750969C9158
:100410005097892F80951FB75E964C915E9741FB50
:10042000772770F941FD6095F8944081772311F0AA
:10043000492B01C048234083E9012197F1F748E0A7
:10044000508160FF02C0592B01C058235083E9013D
:100450002197F1F76695415099F7772321F0908124
:100460008923808303C08081982B90831FBF5C9673
:100470008D919C915D970197F1F721E030E0C901E2
:10048000DF91CF911F9108952091700330917103F6
:100490002817390771F480916F0320916E0390E063
:1004A000805C9F4F821B910960E470E00E94CF2A1C
:1004B000089580E090E008952091700330917103D9
:1004C00028173907B9F490916E0380916F0398173C
:1004D00089F0E0916E03F0E0EE55FB4F80812091B2
:1004E0006E0330E02F5F3F4F2F73332720936E034F
:1004F00090E008958FEF9FEF089585ED8093BC0005
:100500008091BC0084FDFCCF10922E05089540918F
:100510007D04262F30E0240F311D21323105DCF41B
:1005200020912E052430C9F4FC0180E090E086176C
:1005300058F430917D042191DC01A55ABB4FA30FE3
:10054000B11D2C930196F3CF80917D04680F6093C9
:100550007D0480E0089581E0089582E00895089583
:10056000E091100680910F06E81730F4F0E0E851B2
:10057000FB4F808190E008958FEF9FEF0895909159
:10058000100680910F06981750F4E92FF0E0E8511B
:10059000FB4F208130E09F5F9093100602C02FEF49
:1005A0003FEFC9010895CF92DF92EF92FF920F9330
:1005B0001F93CF93DF937C01262F972F8A01809181
:1005C0002F05882391F0C62FD72F6E01C40ED51E9C
:1005D000CC15DD0571F06991D701ED91FC91019089
:1005E000F081E02DC7010995F3CF642F822F0E947F
:1005F0008702C801DF91CF911F910F91FF90EF907B
:10060000DF90CF900895CF93DF931F92CDB7DEB7E1
:10061000698320912F052223D1F020910D062032ED
:1006200040F021E030E0FC013383228380E090E061
:1006300015C080910E06E82FF0E0E05DFA4F998139
:1006400090838F5F80930E0680930D0605C061E056
:10065000CE0101960E94870281E090E00F90DF9129
:10066000CF9108950E948F3081E080932F0586E717
:100670008093500510920E0610920D0660EE8AE8E7
:1006800096E00E94030366EB8AE896E00E9403036B
:1006900081E00C940B0ACF93DF931F92CDB7DEB7A6
:1006A00041E0BE016F5F7F4F83EF0E94B30A8981F3
:1006B00083FB882780F991E089270F90DF91CF9104
:1006C000089541E063E084EF0C94FE0A02970C94D5
:1006D0006103611102C040E001C043E063E084EFC8
:1006E0000C94FE0A1F920F920FB60F9211242F93B3
:1006F0003F934F935F936F937F938F939F93AF93AA
:10070000BF93EF93FF9381E595E00E943B01FF913A
:10071000EF91BF91AF919F918F917F916F915F9179
:100720004F913F912F910F900FBE0F901F901895F2
:100730001F920F920FB60F9211242F938F939F93B6
:10074000EF93FF93E0916105F09162058081E09164
:100750006705F091680582FD12C0908180916A055D
:100760008F5F8F7320916B05821751F0E0916A05BE
:10077000F0E0EF5AFA4F958F80936A0501C08081AF
:10078000FF91EF919F918F912F910F900FBE0F903E
:100790001F90189590E0FC01E25AFE4F3491FC0145
:1007A000E656FE4F2491FC01EA57FE4FE491EE23FA
:1007B00009F43BC0332339F1333091F038F4313050
:1007C000A9F0323001F584B58F7D12C0373091F039
:1007D0003830A1F03430B9F4809180008F7D03C0AF
:1007E000809180008F77809380000DC084B58F77D3
:1007F00084BD09C08091B0008F7703C08091B000A4
:100800008F7D8093B000F0E0EE0FFF1FEE58FE4F9B
:10081000A591B4918FB7F894EC91611103C0209524
:100820002E2301C02E2B2C938FBF0895CF93DF93DF
:1008300090E0FC01E656FE4F2491FC01EA57FE4F82
:100840008491882361F190E0880F991FFC01EC5A94
:10085000FE4FC591D491FC01EE58FE4FA591B49185
:10086000611109C09FB7F8948881209582238883FD
:10087000EC912E230BC0623061F49FB7F89438815D
:10088000822F809583238883EC912E2B2C939FBFFE
:1008900006C08FB7F894E8812E2B28838FBFDF9195
:1008A000CF9108953FB7F8948091E4049091E504C6
:1008B000A091E604B091E70426B5A89B05C02F3FA0
:1008C00019F00196A11DB11D3FBFBA2FA92F982F76
:1008D0008827820F911DA11DB11DBC01CD0142E0F1
:1008E000660F771F881F991F4A95D1F708958F9239
:1008F0009F92AF92BF92CF92DF92EF92FF926B01E5
:100900007C010E9452044B015C01C114D104E1043A
:10091000F104F1F00E945204DC01CB01881999091D
:10092000AA09BB09883E9340A105B10570F321E0F7
:10093000C21AD108E108F10888EE880E83E0981EFB
:10094000A11CB11CC114D104E104F10419F7DDCFDD
:10095000FF90EF90DF90CF90BF90AF909F908F90DF
:1009600008950F931F93CF938C01CBEFD801ED9196
:10097000FC910680F781E02DC8010995811109C01D
:10098000C15041F062E070E080E090E00E947704A6
:10099000EDCFC1E08C2FCF911F910F9108950F9350
:1009A0001F93CF93DF9300D0CDB7DEB78C0181E0EA
:1009B00080932F0586E78093500510920E061092C3
:1009C0000D0681E00E940B0A882311F080E0FCC034
:1009D000D801ED91FC910280F381E02DC8010995C9
:1009E00064E070E080E090E00E94770444E16CE114
:1009F00084EF0E94FE0A40E460EE84EF0E94FE0A4B
:100A000040E06CE185EF0E94FE0A40E060EE85EF79
:100A10000E94FE0A40E061E085EF0E94FE0A42E08B
:100A2000BE016F5F7F4F88E80E94B30A8A8190E021
:100A3000982F88272981822BF8019583848342E0AF
:100A4000BE016F5F7F4F8AE80E94B30A8A8190E0FF
:100A5000982F88272981822BD80119969C938E93F1
:100A6000189742E0BE016F5F7F4F8CE80E94B30A87
:100A70008A8190E0982F88272981822BF80193871B
:100A8000828742E0BE016F5F7F4F8EE80E94B30A0B
:100A90008A8190E0982F88272981822BD801179688
:100AA0009C938E93169742E0BE016F5F7F4F80E963
:100AB0000E94B30A8A8190E0982F88272981822B8F
:100AC000F8019587848742E0BE016F5F7F4F82E91E
:100AD0000E94B30A8A8190E0982F88272981822B6F
:100AE000D8011F969C938E931E9742E0BE016F5FC4
:100AF0007F4F84E90E94B30A8A8190E0982F88276B
:100B00002981822BF801918B808B42E0BE016F5FBF
:100B10007F4F86E90E94B30A8A8190E0982F882748
:100B20002981822BD80153969C938E93529742E051
:100B3000BE016F5F7F4F88E90E94B30A8A8190E00F
:100B4000982F88272981822BF801958B848B42E08E
:100B5000BE016F5F7F4F8AE90E94B30A8A8190E0ED
:100B6000982F88272981822BD80157969C938E93A2
:100B7000569742E0BE016F5F7F4F8CE90E94B30A37
:100B80008A8190E0982F88272981822BF801918F04
:100B9000808F42E0BE016F5F7F4F8EE90E94B30AF3
:100BA0008A8190E0982F88272981822BD8015B9633
:100BB0009C938E935A97ED91FC910190F081E02DDA
:100BC00061E0C801099581E00F900F90DF91CF910E
:100BD0001F910F9108951F920F920FB60F9211243B
:100BE0002F933F938F939F93AF93BF938091720303
:100BF00090917303A0917403B09175033091E30455
:100C000023E0230F2D3720F40196A11DB11D05C04F
:100C100026E8230F0296A11DB11D2093E3048093C3
:100C2000720390937303A0937403B0937503809140
:100C3000E4049091E504A091E604B091E7040196E4
:100C4000A11DB11D8093E4049093E504A093E604F4
:100C5000B093E704BF91AF919F918F913F912F91F6
:100C60000F900FBE0F901F901895DF92EF92FF929A
:100C70000F931F93CF93DF931F92CDB7DEB7F82E5C
:100C8000890181E080932F05F092500510920E06A5
:100C900010920D068AE896E049830E94030380E0E3
:100CA0000E940B0A4981642F8F2D0E94680A80E000
:100CB00030910F0690911006391771F0DD24D3940E
:100CC000D80E7801E80EF11C8AE896E00E94BF0277
:100CD000F70180838D2DECCF0F90DF91CF911F9185
:100CE0000F91FF90EF90DF900895CF93C82F81E090
:100CF00080932F05C093500510920E0610920D069A
:100D00008AE896E00E94030380E00E940B0A61E0FB
:100D10008C2F0E94680A8AE896E00E94BF02CF9159
:100D200008951F93CF93DF93DC01209156062C305A
:100D300098F481E0820F809356062C9330E0F901FD
:100D4000EE0FFF1F2E0F3F1FF901EE5CF94F88EBEE
:100D50009BE09283818302C08FEF8C9313961C9249
:100D6000139715961C921E92149717961C921E921A
:100D7000169719961C921E9218971B965C934E9389
:100D80001A978C918C3008F050C0162FED0161E05D
:100D9000812F0E9416048881E82FF0E09F01220F26
:100DA000331FE20FF31FEE5CF94F1F736081607C0D
:100DB000162B108319821A826CE00E94AF2A9CE0E5
:100DC000899FB001112440E050E09A01260F371F9F
:100DD000F901EE0FFF1F2E0F3F1FF901EE5CF94FD7
:100DE000908196FD16C04F5F5F4F4C30510569F7FB
:100DF00081110FC01092800082E0809381001092D8
:100E0000850010928400B19A80916F008260809377
:100E10006F00E881F0E0CF01880F991FE80FF91FFC
:100E2000EE5CF94F808180648083DF91CF911F91C8
:100E300008951F920F920FB60F9211242F933F9394
:100E40004F935F936F937F938F939F93AF93BF93D2
:100E5000EF93FF938091E20487FF05C01092850015
:100E6000109284001BC02091E204022E000C330B70
:100E70008091560690E02817390784F48091E204A7
:100E8000082E000C990BFC01EE0FFF1F8E0F9F1F09
:100E9000FC01EE5CF94F808186FD15C08091E20473
:100EA0008F5F8093E2042091E204022E000C330B4A
:100EB0008091560690E028173907C4F48091E20427
:100EC0008C3064F113C08091E204082E000C990B61
:100ED000FC01EE0FFF1F8E0F9F1FFC01EE5CF94F10
:100EE000808160E08F730E94CA03D8CF8091840014
:100EF00090918500049680349C4918F480E49CE924
:100F000005C080918400909185000496909389009B
:100F1000809388008FEF8093E2043BC0209184008F
:100F2000309185008091E204082E000C990BFC01A1
:100F3000EE0FFF1F8E0F9F1FFC01EE5CF94F8181AA
:100F40009281820F931F90938900809388008091F3
:100F5000E204082E000C990BFC01EE0FFF1F8E0F10
:100F60009F1FFC01EE5CF94F808186FF12C08091CB
:100F7000E204082E000C990BFC01EE0FFF1F8E0FF0
:100F80009F1FFC01EE5CF94F808161E08F730E942E
:100F9000CA03FF91EF91BF91AF919F918F917F9184
:100FA0006F915F914F913F912F910F900FBE0F90D6
:100FB0001F9018951F920F920FB60F9211242F9326
:100FC0003F934F935F936F937F938F939F93AF93D1
:100FD000BF93EF93FF93E0917003F091710330970B
:100FE00009F451C0968DA685B785858591FF04C00B
:100FF0009C91892329F447C09C91892309F043C01F
:10100000A389B4899C918589809589238C9386894D
:1010100097890197F1F7608D718DA685B785558504
:1010200038E020E0CB010197F1F7822F90E0959511
:101030008795282F4C91452309F02068315091F76E
:10104000868D81FD209580916F0390E001968F73CE
:10105000992730916E03381749F0A0916F03B0E0E3
:10106000AE55BB4F2C9380936F0303C0868D816078
:10107000868F828D938D0197F1F7A389B4899C9116
:101080008589892B8C93FF91EF91BF91AF919F91AF
:101090008F917F916F915F914F913F912F910F9021
:1010A0000FBE0F901F901895E0917003F09171039F
:1010B000E817F90769F4A389B4899C91858980951B
:1010C00089238C93109271031092700381E008952C
:1010D00080E008951F920F920FB60F9211242F9364
:1010E0003F934F935F936F937F938F939F93AF93B0
:1010F000BF93EF93FF938091B900887F803609F406
:101100009CC068F5883209F45BC090F4803109F422
:1011100054C038F4882309F4F6C0883009F44DC06F
:10112000F6C0883109F44CC0803209F45DC0EFC0CC
:10113000803409F468C048F4803309F455C088331A
:1011400009F0E5C080932C05D8C0803509F44FC064
:10115000883509F45DC0883409F0D9C0D6C0883913
:1011600009F4C7C0A8F4883709F467C038F4883692
:1011700009F463C0803709F460C0C9C0883809F435
:10118000B8C0803909F45FC0803809F0C0C05BC0C6
:10119000803B09F486C038F4803A09F466C0883A86
:1011A00009F47FC0B4C0803C09F4A7C0883C09F4AE
:1011B000A4C0883B09F48AC0AAC08091090510C068
:1011C00090912B0580912A05981770F5E0912B05D9
:1011D00081E08E0F80932B05F0E0E65FFA4F80816F
:1011E0008093BB0085EC86C080932C058EC0E09177
:1011F0002B0581E08E0F80932B058091BB00F0E0E2
:10120000E65FFA4F808390912B0580912A056EC08E
:10121000E0912B0581E08E0F80932B058091BB0020
:10122000F0E0E65FFA4F808380912D0581116DC05B
:1012300081E08093080584EA61C083E080932E05F5
:101240001092A104CFCF8091A104803208F051C048
:10125000E091A10481E08E0F8093A1048091BB00F6
:10126000F0E0EF57FB4F8083BDCF85EC8093BC004F
:1012700010922E058091A104803230F4E091A104F7
:10128000F0E0EF57FB4F10826091A10470E0E09115
:101290007F04F091800481E894E009951092A10404
:1012A00036C084E080932E0510927E0410927D0457
:1012B000E0917B04F0917C04099580917D0481117B
:1012C00005C081E080937D0410925B04E0917E0470
:1012D00081E08E0F80937E04F0E0E55AFB4F808121
:1012E0008093BB0090917E0480917D04981708F450
:1012F00079CF85E88093BC000AC085EC8093BC0060
:1013000010922E0504C010922C050E947D02FF91C0
:10131000EF91BF91AF919F918F917F916F915F916D
:101320004F913F912F910F900FBE0F901F901895E6
:1013300010922E0581E080932D051092080561E042
:1013400082E10E94CA0361E083E10E94CA03E9EBE3
:10135000F0E080818E7F808380818D7F808388E430
:101360008093B80085E48093BC000895009769F0ED
:10137000FC0101900020E9F73197AF01481B590BA0
:10138000BC0181E595E00C94350B80E090E0089578
:101390008F929F92AF92BF920F931F93CF93DF9341
:1013A000CDB7DEB7A1970FB6F894DEBF0FBECDBFA5
:1013B00019A2423008F44AE08E010F5D1F4F842EBF
:1013C000912CA12CB12CA50194010E946632E62F2C
:1013D000B901CA0101501109EA3014F4E05D01C0FD
:1013E000E95CD801EC93232B242B252B61F7C80152
:1013F0000E94B609A1960FB6F894DEBF0FBECDBF0E
:10140000DF91CF911F910F91BF90AF909F908F90E0
:1014100008950C94B609382F20910D06909150052F
:10142000213208F049C080912E058111FCCF42E0A5
:1014300040932E0530932D053FEF30932C051092ED
:101440002B0520932A05A0E3B5E04AE055E0FA0118
:101450003E2F341B321718F43D913193F9CF10927F
:10146000090520910905990F922B909309059091F8
:101470000805913061F41092080590910905909348
:10148000BB009091BC0093FDF8CF95EC01C095EEA8
:101490009093BC0090912E059230E1F390912C0531
:1014A0009F3F79F080912C05803241F080912C058E
:1014B000803331F084E005C081E003C082E001C0E8
:1014C00083E010920E0610920D0610922F050895DB
:1014D00090912E059111FCCF613208F060E291E00D
:1014E00090932E0590932D052FEF20932C051092AD
:1014F0002B05260F20932A05909309059091090545
:10150000880F892B8093090580910805813061F44B
:1015100010920805809109058093BB008091BC0062
:1015200083FDF8CF85EC01C085EE8093BC008091EF
:101530002E058130E1F380912B05861710F4609120
:101540002B05AAE0B5E028EE34E0F9018E2F821BCE
:10155000861718F48D918193F9CF1092100660933D
:101560000F06862F0895DF92EF92FF920F931F933D
:10157000CF93DF931F92CDB7DEB78B0191E09093AD
:101580002F0596E79093500510920E0610920D06C7
:10159000682F8AE896E049830E94030380E00E9456
:1015A0000B0A4981442309F1642F86E70E94680AE7
:1015B000D12C90910F0680911006981759F0780160
:1015C000ED0CF11C8AE896E00E94BF02F7018083CF
:1015D000D394EFCF81E00F90DF91CF911F910F91C6
:1015E000FF90EF90DF900C940B0A0F90DF91CF915A
:1015F0001F910F91FF90EF90DF900895FF920F934E
:101600001F93CF93DF931F92CDB7DEB7F82E162F1F
:10161000042F41E0BE016F5F7F4F0E94B30A812F0C
:101620008095998198230123192F102B198381E02C
:1016300080932F0586E78093500510920E06109236
:101640000D066F2D8AE896E00E940303612F8AE859
:1016500096E00E94030381E00E940B0A0F90DF9145
:10166000CF911F910F91FF900895CF92DF92EF924B
:10167000FF920F931F93CF93DF936C017A018B013D
:10168000C0E0D0E0CE15DF0589F0D8016D918D0165
:10169000D601ED91FC910190F081E02DC6010995F4
:1016A000892B11F47E0102C02196ECCFC701DF9196
:1016B000CF911F910F91FF90EF90DF90CF90089501
:1016C0000F931F93CF93DF93EC018881998100974B
:1016D00029F02A813B812617370788F48B016F5F39
:1016E0007F4F0E94C52F009761F0998388831B83E9
:1016F0000A832C813D81232B11F4FC01108281E0AF
:1017000001C080E0DF91CF911F910F910895EF927A
:10171000FF920F931F93CF93DF93FC0124813581B8
:101720006115710511F480E019C041155105A9F04A
:101730007B01EC018A01020F131FB8010E94600BAC
:10174000882389F3288139818C819D81B701820F9B
:10175000931F0E949D301D830C8381E0DF91CF9108
:101760001F910F91FF90EF900895CF93DF93EC01BD
:1017700088819981009711F00E942D2F198218827B
:101780001D821C821B821A82DF91CF9108952F92B5
:101790003F924F925F926F927F928F929F92AF9201
:1017A000BF92CF92DF92EF92FF920F931F93CF934E
:1017B000DF93CDB7DEB728970FB6F894DEBF0FBE24
:1017C000CDBF8C0143E0BE016F5F7F4F87EF0E946A
:1017D000B30AE981EC83FA81FD83EB81EE83C0904B
:1017E0002D06D0902E06E0902F06F0903006F5944E
:1017F000E794D794C794FAEFDF1AE108F108C7011C
:10180000B60152E095958795779567955A95D1F7EA
:101810009B01AC010E949F2A2B013C01E09125060F
:10182000F091260620902306309024062091210670
:101830003091220638872F83A0911F06B091200691
:101840009B01AC016DE055954795379527956A95B5
:10185000D1F70E9427324B015C0173E0B594A79445
:10186000979487947A95D1F7A0911D06B0911E06A2
:10187000A70196010E942732DC01CB01B595A795FF
:1018800097958795880D991DAA1DBB1D32E1B595C9
:10189000A795979587953A95D1F79C01AD0130585A
:1018A0004F4F5F4FA0911706B09118060E941C324F
:1018B0004B015C014FE0B594A794979487944A95A7
:1018C000D1F781149104A104B10409F4F1C0A3017A
:1018D00092016BE055954795379527956A95D1F715
:1018E000DF010E9427322B013C01D101A7019601A3
:1018F0000E942732DC01CB01880F991FAA1FBB1F52
:10190000480E591E6A1E7B1EE2E075946794579438
:101910004794EA95D1F7ED81CE2ED12CFC81DF2AB8
:10192000E12CF12CF4E0CC0CDD1CEE1CFF1CFA9534
:10193000D1F7EE814E2F50E0CA01A4E0959587952E
:10194000AA95E1F7092E000CAA0BBB0BC82AD92ACD
:10195000EA2AFB2A44275527BA014C195D096E096A
:101960007F09EF81F885CF01FF0FAA0BBB0BDC01CC
:1019700099278827480E591E6A1E7B1E3CE07594E5
:101980006794579447943A95D1F79A01AB0124197B
:10199000350946095709A5E3BCE00E941C32805B6B
:1019A0009C43F801608371838283938397FD0EC00B
:1019B000660F771F881F991FA50194010E94663248
:1019C000F80120833183428353830FC0A501940122
:1019D0000E946632DA01C901880F991FAA1FBB1F36
:1019E000F80180839183A283B383F801C080D18002
:1019F000E280F380C701B60123E09695879577953D
:101A000067952A95D1F7E0912B06F0912C069B0162
:101A1000AC010E949F2A9B01AC016DE05695479551
:101A2000379527956A95D1F7DF010E9427324B0140
:101A30005C017CE0B594A794979487947A95D1F74C
:101A4000A7019601E2E05695479537952795EA95C7
:101A5000D1F7A0912906B0912A060E942732DC0115
:101A6000CB01FDE0B595A79597958795FA95D1F7A8
:101A7000880D991DAA1DBB1D40912706509128066F
:101A8000052E000C660B770B840F951FA61FB71F42
:101A900024E0B595A795979587952A95D1F78C0D54
:101AA0009D1DAE1DBF1DF80180839183A283B3836A
:101AB00028960FB6F894DEBF0FBECDBFDF91CF9151
:101AC0001F910F91FF90EF90DF90CF90BF90AF905C
:101AD0009F908F907F906F905F904F903F902F904E
:101AE0000895CF93DF93EC016115710561F0FB015F
:101AF00001900020E9F73197AF01461B570B0E9478
:101B0000870B811103C0CE010E94B50BCE01DF917E
:101B1000CF910895CF93DF93EC01FB014481558170
:101B2000608171810E94870B811103C0CE010E94E8
:101B3000B50BCE01DF91CF910895EF92FF920F93F5
:101B40001F93CF93DF93EC017B018A01BA010E94BE
:101B5000600B811104C0CE010E94B50B07C01D832C
:101B60000C83B701888199810E949D30CE01DF915D
:101B7000CF911F910F91FF90EF900895FC0180810C
:101B800091810C942D2FEF92FF920F931F93CF937F
:101B9000DF93CDB7DEB761970FB6F894DEBF0FBE07
:101BA000CDBF8C01CB01F801118210821382128209
:101BB0001582148250E09E012F5F3F4F7901B901D9
:101BC0000E94A430F70101900020E9F73197AF019E
:101BD0004E195F09B701C8010E949D0D61960FB6AD
:101BE000F894DEBF0FBECDBFDF91CF911F910F9153
:101BF000FF90EF900895CF93DF93CDB7DEB7C45D2C
:101C0000D1090FB6F894DEBF0FBECDBF789484B56E
:101C1000826084BD84B5816084BD85B5826085BDE8
:101C200085B5816085BD80916E00816080936E0076
:101C30001092810080918100826080938100809168
:101C40008100816080938100809180008160809319
:101C500080008091B10084608093B1008091B000D9
:101C600081608093B00080917A00846080937A00D4
:101C700080917A00826080937A0080917A008160FE
:101C800080937A0080917A00806880937A00109225
:101C9000C100E0916105F091620582E08083E091EE
:101CA0005D05F0915E051082E0915F05F0916005A1
:101CB0008FEC808310926905E0916505F0916605CF
:101CC00076E0F72EF082E0916305F0916405808163
:101CD00080618083E0916305F09164058081886074
:101CE0008083E0916305F091640580818068808342
:101CF000E0916305F091640580818F7D808310926F
:101D0000100610920F0610920E0610920D060E94F9
:101D1000980960E082E00E94160460E082E00E9480
:101D2000CA0365E788E60E947506182F80E691E0F1
:101D30000E94090A89E691E00E94090A812E912CED
:101D4000A12CB12C40E1C501B4010E94C8098FE665
:101D500091E00E94090A40E161E770E080E090E0D4
:101D60000E94C8098DE791E00E94B60964E670E020
:101D700080E090E00E947704113711F00C942A174C
:101D800080E891E00E94DB298E01075B1F4FD8019C
:101D90001D92FA94E9F78CE06E01BDE3CB0ED11CE5
:101DA000F601282F11922A95E9F72E0131E3430E0F
:101DB000511CD201E82F1D92EA95E9F79E012B5D97
:101DC0003F4F6D963FAF2EAF6D97D901E82F1D9213
:101DD000EA95E9F77E01F9E1EF0EF11CD7011D92BA
:101DE0008A95E9F740E069E188E60E94622842E0CE
:101DF0006AE188E60E94622841E06BE188E60E9481
:101E0000622842E06DE188E60E94622841E06CE1D0
:101E100088E60E94622868ECA62EB12C980146E064
:101E20006BE388E60E943506F801808190E0982FE8
:101E300088272181822B092E000CAA0BBB0B49A9F4
:101E40005AA96BA97CA9840F951FA61FB71F89AB40
:101E50009AABABABBCAB828190E0982F88272381F3
:101E6000822B092E000CAA0BBB0B4DA95EA96FA9F2
:101E700078AD840F951FA61FB71F8DAB9EABAFAB80
:101E8000B8AF848190E0982F88272581822B092E76
:101E9000000CAA0BBB0B49AD5AAD6BAD7CAD840FEA
:101EA000951FA61FB71F89AF9AAFABAFBCAF980104
:101EB00046E063E488E60E943506D8018C9190E004
:101EC000982F882711962C91822B092E000CAA0B93
:101ED000BB0BF6014081518162817381840F951F94
:101EE000A61FB71F80839183A283B383D801129664
:101EF0008C91129790E0982F882713962C91822B23
:101F0000092E000CAA0BBB0B25964CAD5DAD6EAD3A
:101F10007FAD2597840F951FA61FB71F25968CAF01
:101F20009DAFAEAFBFAF2597F801848190E0982FA9
:101F300088272581822B092E000CAA0BBB0B299622
:101F40004CAD5DAD6EAD7FAD2997840F951FA61F7B
:101F5000B71F29968CAF9DAFAEAFBFAF2997F1E009
:101F6000AF1AB10809F05ACFA3965FAE4EAEA39751
:101F7000A796DFAECEAEA7976F96DFAECEAE6F97C9
:101F80005201F8EC6F2E712C812C912CD5016D91A2
:101F90007D918D919C91A40193010E94FD31F501E9
:101FA00021933193419351935F016F96AEADBFADD5
:101FB0006F976D917D918D919C91A40193010E94E9
:101FC000FD316F96EEADFFAD6F9721933193419345
:101FD00051936F96FFAFEEAF6F97AC14BD04B1F69F
:101FE00040EE6CE188E60E94622840EE6BE188E6F4
:101FF0000E94622869E170E080E090E00E9477042E
:10200000E8ECCE2ED12C980146E06BE388E60E94E6
:102010003506D8018C9190E0982F882711962C9145
:10202000822B092E000CAA0BBB0B4DA15EA16FA148
:1020300078A5840F951FA61FB71F8DA39EA3AFA3DE
:10204000B8A7F801828190E0982F88272381822BFE
:10205000092E000CAA0BBB0B49A55AA56BA57CA5A4
:10206000840F951FA61FB71F89A79AA7ABA7BCA768
:10207000848190E0982F88272581822B092E000CDF
:10208000AA0BBB0B4DA55EA56FA578A9840F951F64
:10209000A61FB71F8DA79EA7AFA7B8AB980146E0B4
:1020A00063E488E60E943506D8018C9190E0982F71
:1020B000882711962C91822B092E000CAA0BBB0BA2
:1020C000498D5A8D6B8D7C8D840F951FA61FB71F70
:1020D000898F9A8FAB8FBC8FF801828190E0982F07
:1020E00088272381822B092E000CAA0BBB0B4D8D58
:1020F0005E8D6F8D78A1840F951FA61FB71F8D8FE2
:102100009E8FAF8FB8A3848190E0982F8827258178
:10211000822B092E000CAA0BBB0B49A15AA16BA163
:102120007CA1840F951FA61FB71F89A39AA3ABA3F9
:10213000BCA3F1E0CF1AD10809F065CF8E010B5D89
:102140001F4F37016F96FFAEEEAE6F976801F8EC48
:102150008F2E912CA12CB12CD6016D917D918D915A
:102160009C91A50194010E94FD31F60121933193C8
:10217000419351936F016F96AEADBFAD6F976D9167
:102180007D918D919C91A50194010E94FD316F96E6
:10219000EEADFFAD6F9721933193419351936F96BD
:1021A000FFAFEEAF6F97C414D504B1F640E06CE119
:1021B00088E60E94622840E06BE188E60E9462287F
:1021C00069E170E080E090E00E9477046DE088E6CD
:1021D0000E947506882E6EE088E60E947506982E8D
:1021E0006FE088E60E947506A82E60E088E60E94EF
:1021F0007506B82E61E088E60E947506C82E62E07A
:1022000088E60E947506D82E682D70E080E090E088
:102210000E94DE3020E030E040E85FE30E94E92ADF
:102220009B01AC016EEA77E481E89FE30E94EC2C0D
:1022300020E030EC43E255E40E943F3169837A8329
:102240008B839C83692D70E080E090E00E94DE30FB
:1022500020E030E040E85FE30E94E92A9B01AC0106
:102260006EEA77E481E89FE30E94EC2C20E030ECFA
:1022700043E255E40E943F316D837E838F839887CC
:102280006A2D70E080E090E00E94DE3020E030E0D7
:1022900040E85FE30E94E92A9B01AC016EEA77E423
:1022A00081E89FE30E94EC2C20E030EC43E255E40F
:1022B0000E943F3169877A878B879C876B2D70E0FE
:1022C00080E090E00E94DE3020E030E040E85FE314
:1022D0000E94E92A9B01AC016EEA77E481E89FE362
:1022E0000E94EC2C20E030EC43E255E40E943F31A8
:1022F0006D877E878F87988B6C2D70E080E090E0F3
:102300000E94DE3020E030E040E85FE30E94E92AEE
:102310009B01AC016EEA77E481E89FE30E94EC2C1C
:1023200020E030EC43E255E40E943F31698B7A8B28
:102330008B8B9C8B6D2D70E080E090E00E94DE30F6
:1023400020E030E040E85FE30E94E92A9B01AC0115
:102350006EEA77E481E89FE30E94EC2C20E030EC09
:1023600043E255E40E943F316D8B7E8B8F8B988FBB
:102370009E012F5F3F4F59017EE8C72E73E0D72E95
:10238000E3E08E2E912CF80181919191A191B19170
:102390008F01A396EEADFFADA397219131914191AD
:1023A0005191A396FFAFEEAFA397BC01CD01621B85
:1023B000730B840B950B0E94E03020E030E048EC7A
:1023C00052E40E943F31D5012D913D914D915C9198
:1023D0000E94E32B20E030E048EC52E40E94E92A1E
:1023E000F6016083718382839383F30181919191DC
:1023F000A191B1913F01A796EEADFFADA7972191B5
:10240000319141915191A796FFAFEEAFA797BC01D3
:10241000CD01621B730B840B950B0E94E03020E012
:1024200030E048EC52E40E943F31D5011C962D91DA
:102430003D914D915C911F970E94E32B20E030E08D
:1024400048EC52E40E94E92AF60164877587868782
:102450009787F1E08F1A910824E0A20EB11C34E0B6
:10246000C30ED11C8114910409F08DCF85E991E050
:102470000E94090A60918E0370918F0380919003EE
:10248000909191030E94E92983EC91E00E94DB295D
:1024900086ED91E00E94090A609192037091930386
:1024A00080919403909195030E94E92983EC91E037
:1024B0000E94DB2984E092E00E94090A6091960361
:1024C0007091970380919803909199030E94E92954
:1024D00083EC91E00E94DB2982E392E00E94090AEA
:1024E00060919A0370919B0380919C0390919D034E
:1024F0000E94E92983EC91E00E94DB298CE592E0BF
:102500000E94090A60919E0370919F038091A0032D
:102510009091A1030E94E92983EC91E00E94DB29BC
:1025200086E892E00E94090A6091A2037091A303D9
:102530008091A4039091A5030E94E92983EC91E086
:102540000E94DB2940E86BE688E60E94622864E688
:1025500070E080E090E00E94770441E06BE688E65E
:102560000E94622840E06CE688E60E94622868ECDF
:1025700070E080E090E00E94770440E068E388E645
:102580000E94622840E063E288E60E94622840E000
:102590006BE688E60E94622840E064E288E60E94DA
:1025A000622840E06AE688E60E9462284CE06AE61B
:1025B00088E60E9462286FE070E080E090E00E9470
:1025C000770441E06AE188E60E94622840E069E120
:1025D00088E60E94622840E06BE188E60E9462285B
:1025E00040E06CE188E60E94622840E46AE688E602
:1025F0000E94622848E763E288E60E94622868E257
:1026000070E080E090E00E94770440E063E288E6BA
:102610000E946228970142E062E788E60E94350640
:10262000898D90E0982F88272A8D822B6CE070E0AE
:102630000E94BB2A8B01412C512C3201812C912C00
:102640005401A1961CAE1DAE1EAE1FAEA197AD9655
:102650001CAE1DAE1EAE1FAEAD97A9961CAE1DAE34
:102660001EAE1FAEA997A5961CAE1DAE1EAE1FAE28
:10267000A597C12CD12CC016D10609F490C09E019B
:10268000275E3F4F4CE064E788E60E943506898D5F
:1026900090E0982F88272A8D822B092E000CAA0BF8
:1026A000BB0BA1962CAD3DAD4EAD5FADA197280FF4
:1026B000391F4A1F5B1FA1962CAF3DAF4EAF5FAFD6
:1026C000A1978B8D90E0982F88272C8D822B092E37
:1026D000000CAA0BBB0B880E991EAA1EBB1E8D8D6B
:1026E00090E0982F88272E8D822B092E000CAA0BA4
:1026F000BB0B480E591E6A1E7B1E8F8D90E0982FD3
:10270000882728A1822B092E000CAA0BBB0BA596AB
:102710002CAD3DAD4EAD5FADA597280F391F4A1FBB
:102720005B1FA5962CAF3DAF4EAF5FAFA59789A1BC
:1027300090E0982F88272AA1822B092E000CAA0B43
:10274000BB0BA9962CAD3DAD4EAD5FADA997280F43
:10275000391F4A1F5B1FA9962CAF3DAF4EAF5FAF2D
:10276000A9978BA190E0982F88272CA1822B092E66
:10277000000CAA0BBB0BAD962CAD3DAD4EAD5FADC5
:10278000AD97280F391F4A1F5B1FAD962CAF3DAF89
:102790004EAF5FAFAD973FEFC31AD30A6CCFE12CBA
:1027A000F12CA1966CAD7DAD8EAD9FADA197A7012B
:1027B00096010E94FD31E1962CAF3DAF4EAF5FAF69
:1027C000E197C501B401A70196010E94FD31E5968C
:1027D0002CAF3DAF4EAF5FAFE597C301B201A7018C
:1027E00096010E94FD3149015A01A5966CAD7DAD5F
:1027F0008EAD9FADA597A70196010E94FD312901DD
:102800003A01A9966CAD7DAD8EAD9FADA997A7019C
:1028100096010E94FD31A5962CAF3DAF4EAF5FAF44
:10282000A597AD966CAD7DAD8EAD9FADAD97A70173
:1028300096010E94FD31A9962CAF3DAF4EAF5FAF20
:10284000A997181419041A041B0464F4D501C401CF
:102850009054A109B109A1968CAF9DAFAEAFBFAFA7
:10286000A1970BC0A5019401305C4F4F5F4FA1961B
:102870002CAF3DAF4EAF5FAFA19734E0C32ED12C4C
:10288000E12CF12CC301B201A70196010E94FD3198
:1028900050954095309521953F4F4F4F5F4FBB2747
:1028A00057FDBA95A52F942F832FAD968CAF9DAF72
:1028B000AEAFBFAFAD97898F2A8FA5966CAD7DADBA
:1028C0008EAD9FADA597A70196010E94FD31509551
:1028D0004095309521953F4F4F4F5F4F3B8F2C8F49
:1028E000A9966CAD7DAD8EAD9FADA997A701960160
:1028F0000E94FD3150954095309521953F4F4F4FA7
:102900005F4F3D8F2E8FAA964FADAA9763E188E661
:102910000E9462284A8D64E188E60E9462284B8DFD
:1029200065E188E60E9462284C8D66E188E60E9497
:1029300062284D8D67E188E60E9462284E8D68E12D
:1029400088E60E946228C301B2010E94E03020E0C4
:1029500030E043E053E40E94E32B609382037093E2
:1029600083038093840390938503A5966CAD7DAD1E
:102970008EAD9FADA5970E94E03020E030E043E0AF
:1029800053E40E94E32B6093860370938703809344
:10299000880390938903A9966CAD7DAD8EAD9FADF4
:1029A000A9970E94E03020E030E043E053E40E9429
:1029B000E32B60938A0370938B0380938C03909333
:1029C0008D039E01275E3F4F42E067E788E60E9445
:1029D0003506498C512C542C44248A8D482A052CC8
:1029E000000C6608770849825A826B827C829E01BD
:1029F000275E3F4F42E06AE788E60E943506C98CB1
:102A0000D12CDC2CCC248A8DC82A0D2C000CEE088D
:102A1000FF08CD82DE82EF82F8869E01275E3F4F5F
:102A200042E06DE788E60E943506898D90E0982F98
:102A300088272A8D822B9C01990F440B550BA59654
:102A40002CAF3DAF4EAF5FAFA59729873A874B8735
:102A50005C871DA21EA21FA2FE013196DE01959683
:102A6000CE010D9621E0419151916191719140FD0E
:102A70002C931196E817F907B1F798E0892E912C5D
:102A8000A12CB12CE1966CAD7DAD8EAD9FADE197E3
:102A9000A50194010E94FD31421A530A640A750A85
:102AA000E5966CAD7DAD8EAD9FADE597A50194012A
:102AB0000E94FD31C21AD30AE40AF50AA1966CAD50
:102AC0007DAD8EAD9FADA197A50194010E94FD3112
:102AD000A5968CAD9DADAEADBFADA597821B930BFA
:102AE000A40BB50B772777FC7A95672D562D452DCE
:102AF000498F2DA1422A4A8EDB8E2EA1C22ACC8E6E
:102B00009D8F2FA1822B8E8F67E788E60E94622817
:102B10004A8D68E788E60E9462284B8D6AE788E65E
:102B20000E9462284C8D6BE788E60E9462284D8DDA
:102B30006DE788E60E9462284E8D6EE788E60E9467
:102B40006228E1966CAD7DAD8EAD9FADE1970E94A0
:102B5000E03020E030E040E858E30E943F316093ED
:102B60007603709377038093780390937903E596C7
:102B70006CAD7DAD8EAD9FADE5970E94E03020E05D
:102B800030E040E858E30E943F3160937A0370934D
:102B90007B0380937C0390937D03A1966CAD7DAD08
:102BA0008EAD9FADA1970E94E03020E030E040E87C
:102BB00058E30E943F3160937E0370937F038093BC
:102BC00080039093810340E06BE688E60E946228D0
:102BD00064E670E080E090E00E94770441E06BE6FC
:102BE00088E60E94622868EC70E080E090E00E9435
:102BF000770443E06AE188E60E94622844E069E1E4
:102C000088E60E9462286BE188E60E947506482FDC
:102C1000457E6BE188E60E9462286CE188E60E94AE
:102C20007506482F477E6CE188E60E9462286DE1B8
:102C300088E60E947506807F482F43606DE188E634
:102C40000E94622842E267E388E60E94622841E02F
:102C500068E388E60E94622864E670E080E090E025
:102C60000E94770480EB92E00E94DB2960E08CE018
:102C70000E947506182F8DED92E00E94090A89E6E0
:102C800091E00E94090A612F70E080E090E040E14D
:102C90000E94C8098FE691E00E94090A40E168E4B9
:102CA00070E080E090E00E94C8098DE791E00E940A
:102CB000B60964E670E080E090E00E94770440E0AE
:102CC0006AE08CE00E9462286AE070E080E090E0B8
:102CD0000E9477044FE06AE08CE00E9462286AE07C
:102CE00070E080E090E00E9477049E012F5F3F4FEC
:102CF00043E060E18CE00E943506698170E0605835
:102D00007109072E000C880B990B0E94E03020E01F
:102D100030E040E85BE30E943F3120E030E040E8F3
:102D20005FE30E94EA2A6093F3037093F4038093B5
:102D3000F5039093F6036A8170E060587109072EDD
:102D4000000C880B990B0E94E03020E030E040E856
:102D50005BE30E943F3120E030E040E85FE30E9407
:102D6000EA2A6093F7037093F8038093F903909332
:102D7000FA036B8170E060587109072E000C880B14
:102D8000990B0E94E03020E030E040E85BE30E94D5
:102D90003F3120E030E040E85FE30E94EA2A6093A0
:102DA000FB037093FC038093FD039093FE0340E0CC
:102DB0006AE08CE00E9462286AE070E080E090E0C7
:102DC0000E94770442E16AE08CE00E9462286AE097
:102DD00070E080E090E00E94770485EE92E00E942F
:102DE000DB2964E670E080E090E00E94770481E1F6
:102DF00093E00E94090A81E196E00E94CF048823B3
:102E000021F180E293E00E94DB2960E081E196E01D
:102E10000E94690381E196E00E9461031092090615
:102E200010920806109207061092060610920506E8
:102E3000109204068FE190E090930B0680930A06AF
:102E40009091FA059631A0F06AC08DE293E00E945D
:102E5000DB29FFCF8CE393E00E94090A40E1C50122
:102E6000B4010E94C8098DE791E00E94B609FFCF26
:102E700021E030E030930506209304062DE130E098
:102E800030930706209306062DE030E030930906C4
:102E90002093080620916800983050F031E09E3071
:102EA00008F430E081E001C0880F3A95EAF701C0EC
:102EB00084E0822B80936800983038F09E3040F098
:102EC000963148F020E030E008C02DE630E005C043
:102ED0002BE630E002C02CE630E03093020620936F
:102EE0000106983030F481E001C0880F9A95EAF726
:102EF0000EC0292F30E09E3018F42850310902C04E
:102F00002E50310981E001C0880F2A95EAF780939D
:102F1000030680910A0690910B060197F1F78091C4
:102F2000080690910906892B21F1809170039091F8
:102F3000710335E08E3E9307E1F0009711F00E9497
:102F4000540880910C068E7F80930C0610926F03BC
:102F500010926E038EEE95E0909371038093700350
:102F6000E0910106F0910206908180910306892B81
:102F7000808383E494E0909342048093410442E090
:102F800050E069E0CE0101960E9491068CE0FE01BE
:102F90003196AAE5B6E001900D928A95E1F743E0FB
:102FA00050E069E0CE0101960E9491068CE0FE019E
:102FB0003196A6E6B6E001900D928A95E1F740E0E1
:102FC00050E069E0CE0101960E9491068CE0FE017E
:102FD0003196A2E7B6E001900D928A95E1F741E0C3
:102FE00050E069E0CE0101960E9491068CE0FE015E
:102FF0003196AEE7B6E001900D928A95E1F7AE0109
:10300000475E5F4F6D965FAF4EAF6D976AE388E6A0
:103010000E94750680FFB3C19E012F5F3F4F46E0BF
:103020006BE388E60E943506698170E0762F66279B
:103030008A81682B70933C0460933B04EB80F12CF5
:10304000FE2CEE248C81E82AF0923E04E0923D04AE
:103050000D8110E0102F00278E81082B1093400463
:1030600000933F0480E090E0A0E8B8E38093370449
:1030700090933804A0933904B0933A04072E000CBF
:10308000880B990B0E94E03020E030E040E858E3E4
:103090000E943F316093330470933404809335046D
:1030A00090933604B701FF0C880B990B0E94E03017
:1030B00020E030E040E858E30E943F3160932F0465
:1030C000709330048093310490933204B801110F4F
:1030D000880B990B0E94E03020E030E040E858E394
:1030E0000E943F3160932B0470932C0480932D0435
:1030F00090932E049E012F5F3F4F46E063E488E6E5
:103100000E943506698170E0762F66278A81682BD8
:103110007093260460932504EB80F12CFE2CEE24A2
:103120008C81E82AF0922804E09227040D8110E0B7
:10313000102F00278E81082B10932A040093290456
:1031400020E030E04AEF5BE3209321043093220437
:103150004093230450932404072E000C880B990BF2
:103160000E94E03020E030E04AEF5BE30E943F3114
:1031700060931D0470931E0480931F049093200499
:10318000B701FF0C880B990B0E94E03020E030E083
:103190004AEF5BE30E943F316093190470931A0475
:1031A00080931B0490931C04B801110F880B990B9A
:1031B0000E94E03020E030E04AEF5BE30E943F31C4
:1031C0006093150470931604809317049093180469
:1031D00062E08CE00E94750680FF29C09E012F5F8F
:1031E0003F4F47E063E08CE00E9435068F8183FD0E
:1031F0001EC08A8190E0982F88272981822B909386
:10320000100480930F048C8190E0982F88272B81E5
:10321000822B90931204809311048E8190E0982F5A
:1032200088272D81822B90931404809313048FEFB1
:103230009BEEAFEBBFE38093FF0390930004A0935A
:103240000104B093020420E030E04BEE53E42093FD
:10325000030430930404409305045093060480E073
:1032600090E0A0EFB2E48093070490930804A09349
:103270000904B0930A0420E030E04AEF52E42093BE
:103280000B0430930C0440930D0450930E04609192
:103290000F0470911004072E000C880B990B0E94EC
:1032A000E0302FEF3BEE4FEB5FE30E943F31209188
:1032B000F3033091F4034091F5035091F6030E941B
:1032C0003F3120E030E04BEE53E40E94E92A609366
:1032D000EF037093F0038093F1039093F2036091F6
:1032E000110470911204072E000C880B990B0E9498
:1032F000E0302FEF3BEE4FEB5FE30E943F31209138
:10330000F7033091F8034091F9035091FA030E94BA
:103310003F3120E030E040EF52E40E94E92A609320
:10332000EB037093EC038093ED039093EE036091B5
:10333000130470911404072E000C880B990B0E9443
:10334000E0302FEF3BEE4FEB5FE30E943F312091E7
:10335000FB033091FC034091FD035091FE030E945A
:103360003F3120E030E04AEF52E40E94E92A6093C6
:10337000E7037093E8038093E9039093EA030E94C4
:1033800052046B017C016093E3037093E403809328
:10339000E5039093E6038091DF039091E003A09111
:1033A000E103B091E203A7019601281B390B4A0BF8
:1033B0005B0BCA01B9010E94DE3020E034E244E731
:1033C00059E40E94E32BC756DF4F688379838A83D1
:1033D0009B83C959D0406093DB037093DC038093D7
:1033E000DD039093DE03C092DF03D092E003E0920E
:1033F000E103F092E2039B01AC016091D70370916D
:10340000D8038091D9039091DA030E94EA2A60934D
:10341000D7037093D8038093D9039093DA038091F4
:10342000D3039091D403A091D503B091D603019614
:10343000A11DB11D8093D3039093D403A093D50312
:10344000B093D6034090E7035090E8036090E903FF
:103450007090EA038091EF039091F003A091F10343
:10346000B091F203E5968CAF9DAFAEAFBFAFE597DD
:103470002091EB033091EC034091ED035091EE036A
:10348000E1962CAF3DAF4EAF5FAFE1978091150451
:1034900090911604A0911704B0911804CB53DF4FFC
:1034A00088839983AA83BB83C55CD040209119048B
:1034B00030911A0440911B0450911C04C753DF4FF4
:1034C000288339834A835B83C95CD04080911D0483
:1034D00090911E04A0911F04B0912004C353DF4FAC
:1034E00088839983AA83BB83CD5CD04020912B0431
:1034F00030912C0440912D0450912E04E9962CAF6C
:103500003DAF4EAF5FAFE99780912F0490913004AB
:10351000A0913104B0913204ED968CAF9DAFAEAF67
:10352000BFAFED97209133043091340440913504BE
:1035300050913604C358DF4F288339834A835B8315
:10354000CD57D0408091000190910101A0910201DE
:10355000B0910301AD968CAF9DAFAEAFBFAFAD974D
:10356000209104013091050140910601509107011D
:10357000A1962CAF3DAF4EAF5FAFA19780910801F0
:1035800090910901A0910A01B0910B01A5968CAF11
:103590009DAFAEAFBFAFA59720910C0130910D014B
:1035A00040910E0150910F01A9962CAF3DAF4EAF47
:1035B0005FAFA997C358DF4F288139814A815B816A
:1035C000CD57D040CA01B9010E943F316B017C0147
:1035D000ED962CAD3DAD4EAD5FADED97CA01B90195
:1035E0000E943F319B01AC01C701B6010E94EA2A4B
:1035F0006B017C01E9962CAD3DAD4EAD5FADE99719
:10360000CA01B9010E943F319B01AC01C701B6015B
:103610000E94EA2A0E94422D4B015C0120E030E02A
:10362000A9010E94D930882309F48CC7E1962CADFA
:103630003DAD4EAD5FADE197CA01B9010E943F318A
:103640006B017C01E5962CAD3DAD4EAD5FADE597D0
:10365000CA01B9010E943F319B01AC01C701B6010B
:103660000E94EA2A6B017C01A3019201C301B2010D
:103670000E943F319B01AC01C701B6010E94EA2ABA
:103680000E94422DCF57DF4F688379838A839B83C3
:10369000C158D04020E030E0A9010E94D9308823F1
:1036A00009F450C7A1962CAD3DAD4EAD5FADA197CD
:1036B000AD966CAD7DAD8EAD9FADAD970E943F31A7
:1036C000C357DF4F688379838A839B83CD58D0406B
:1036D000A5962CAD3DAD4EAD5FADA597AD966CAD4D
:1036E0007DAD8EAD9FADAD970E943F31CF56DF4F80
:1036F000688379838A839B83C159D040A9962CAD76
:103700003DAD4EAD5FADA997AD966CAD7DAD8EADC7
:103710009FADAD970E943F31CB56DF4F68837983D1
:103720008A839B83C559D040A1962CAD3DAD4EAD4B
:103730005FADA197CA01B9010E943F31CF55DF4F5C
:10374000688379838A839B83C15AD040A5962CAD28
:103750003DAD4EAD5FADA597A1966CAD7DAD8EAD87
:103760009FADA1970E943F316B017C01A9962CADC2
:103770003DAD4EAD5FADA997A1966CAD7DAD8EAD63
:103780009FADA1970E943F31CB55DF4F688379836E
:103790008A839B83C55AD040A5962CAD3DAD4EADD6
:1037A0005FADA597CA01B9010E943F31CB57DF4FEA
:1037B000688379838A839B83C558D040A9962CADB2
:1037C0003DAD4EAD5FADA997A5966CAD7DAD8EAD0F
:1037D0009FADA5970E943F31C755DF4F688379831E
:1037E0008A839B83C95AD040A9962CAD3DAD4EAD7E
:1037F0005FADA997CA01B9010E943F31C757DF4F9A
:10380000688379838A839B83C958D040A50194013A
:1038100060E070E080E89FE30E94E32B4B015C01D5
:103820009B01AC01C358DF4F688179818A819B81FC
:10383000CD57D0400E943F31C355DF4F6883798315
:103840008A839B83CD5AD040A5019401ED966CAD3F
:103850007DAD8EAD9FADED970E943F31CF54DF4FD0
:10386000688379838A839B83C15BD040A5019401DF
:10387000E9966CAD7DAD8EAD9FADE9970E943F316D
:10388000CB54DF4F688379838A839B83C55BD040A9
:10389000CF57DF4F288139814A815B81C158D040A1
:1038A00060E070E080E89FE30E94E32B4B015C0145
:1038B0009B01AC01E1966CAD7DAD8EAD9FADE19706
:1038C0000E943F31E1966CAF7DAF8EAF9FAFE19725
:1038D000A5019401E5966CAD7DAD8EAD9FADE597EC
:1038E0000E943F31E5966CAF7DAF8EAF9FAFE597FD
:1038F000A5019401C301B2010E943F31E9966CAF6A
:103900007DAF8EAF9FAFE997E1962CAD3DAD4EAD4B
:103910005FADE197CA01B9010E94EA2AC358DF4F9F
:10392000688379838A839B83CD57D040CB57DF4F01
:10393000288139814A815B81C558D04060E070E0C0
:1039400080E09FE30E94E92AC757DF4F2881398131
:103950004A815B81C958D0400E94E92AC754DF4F91
:10396000688379838A839B83C95BD040E5962CADBD
:103970003DAD4EAD5FADE597CA01B9010E94EA2A9F
:10398000CF57DF4F688379838A839B83C158D040A8
:10399000CB56DF4F288139814A815B81C559D040A0
:1039A000C701B6010E94E92AC354DF4F68837983B7
:1039B0008A839B83CD5BD040E9962CAD3DAD4EAD67
:1039C0005FADE997CA01B9010E94EA2AC356DF4FE9
:1039D000688379838A839B83CD59D040CF56DF4F4C
:1039E000288139814A815B81C159D040CB55DF4F55
:1039F000688179818A819B81C55AD0400E94EA2AD8
:103A0000CF53DF4F688379838A839B83C15CD04027
:103A1000C754DF4F288139814A815B81C95BD0401F
:103A2000C358DF4F688179818A819B81CD57D0400F
:103A30000E943F314B015C01C354DF4F2881398123
:103A40004A815B81CD5BD040CF57DF4F6881798160
:103A50008A819B81C158D0400E943F319B01AC01BB
:103A6000C501B4010E94EA2A4B015C01CF53DF4F2C
:103A7000288139814A815B81C15CD040C356DF4FC8
:103A8000688179818A819B81CD59D0400E943F31E4
:103A90009B01AC01C501B4010E94EA2A2B013C0143
:103AA000CF55DF4F288139814A815B81C15AD0408F
:103AB00060E070E080E09FE30E94E92A4B015C0136
:103AC000CB56DF4F288139814A815B81C559D0406F
:103AD000C701B6010E94EA2A9B01AC01C358DF4F1F
:103AE000688179818A819B81CD57D0400E943F3186
:103AF0006B017C01C757DF4F288139814A815B8187
:103B0000C958D040C501B4010E94E92A9B01AC010B
:103B1000CF57DF4F688179818A819B81C158D0401E
:103B20000E943F319B01AC01C701B6010E94EA2A05
:103B30006B017C01C357DF4F288139814A815B814A
:103B4000CD58D040C755DF4F688179818A819B81EC
:103B5000C95AD0400E94E92A9B01AC01C356DF4FED
:103B6000688179818A819B81CD59D0400E943F3103
:103B70009B01AC01C701B6010E94EA2A6B017C01DE
:103B8000A3019201C301B2010E943F312B013C010C
:103B9000A7019601C701B6010E943F319B01AC010C
:103BA000C301B2010E94EA2A0E94422D6B017C01EE
:103BB000CF56DF4F288139814A815B81C159D0407E
:103BC000CB55DF4F688179818A819B81C55AD0406E
:103BD0000E94E92AED966CAF7DAF8EAF9FAFED9757
:103BE000C357DF4F288139814A815B81CD58D0404E
:103BF000C755DF4F688179818A819B81C95AD0403E
:103C00000E94EA2A2B013C01CB57DF4F28813981E2
:103C10004A815B81C558D040C501B4010E94E92AA0
:103C2000C357DF4F688379838A839B83CD58D04005
:103C3000ED962CAD3DAD4EAD5FADED97CA01B9012E
:103C40000E94EA2ACF56DF4F688379838A839B8359
:103C5000C159D040A3019201C301B2010E94EA2AD6
:103C6000CB56DF4F688379838A839B83C559D040C5
:103C7000AD962CAD3DAD4EAD5FADAD97CA01B9016E
:103C80000E943F31CF55DF4F288139814A815B81C6
:103C9000C15AD0400E94E92ACB57DF4F2881398191
:103CA0004A815B81C558D0400E94E92AC757DF4F3F
:103CB000288139814A815B81C958D0400E94EA2A13
:103CC000CB57DF4F688379838A839B83C558D04065
:103CD000A7019601C701B6010E94EA2A4B015C01C7
:103CE000ED962CAD3DAD4EAD5FADED97C358DF4FBA
:103CF000688179818A819B81CD57D0400E943F3174
:103D00006B017C01A3019201CF57DF4F688179815C
:103D10008A819B81C158D0400E943F319B01AC01F8
:103D2000C701B6010E94EA2A6B017C01C357DF4F2D
:103D3000288139814A815B81CD58D040C356DF4FFD
:103D4000688179818A819B81CD59D0400E943F3121
:103D50009B01AC01C701B6010E94EA2A9B01AC019C
:103D60000E94EA2A6B017C01C754DF4F2881398108
:103D70004A815B81C95BD040C501B4010E943F31DB
:103D8000C358DF4F688379838A839B83CD57D040A4
:103D9000ED962CAD3DAD4EAD5FADED97C701B601D3
:103DA0000E943F319B01AC01C358DF4F688179818C
:103DB0008A819B81CD57D0400E94EA2AC358DF4FA9
:103DC000688379838A839B83CD57D040C354DF4F68
:103DD000288139814A815B81CD5BD040C501B40126
:103DE0000E943F31ED966CAF7DAF8EAF9FAFED97E8
:103DF000A3019201C701B6010E943F319B01AC01B2
:103E0000ED966CAD7DAD8EAD9FADED970E94EA2A2B
:103E1000C757DF4F688379838A839B83C958D04013
:103E2000CF53DF4F288139814A815B81C15CD0400B
:103E3000C501B4010E943F314B015C01C357DF4F04
:103E4000288139814A815B81CD58D040C701B601B4
:103E50000E943F319B01AC01C501B4010E94EA2AD6
:103E6000CF57DF4F688379838A839B83C158D040C3
:103E70001092A7031092A8031092A9031092AA030C
:103E80001092AB031092AC031092AD031092AE03EC
:103E90001092AF031092B0031092B1031092B203CC
:103EA0002BED3FE049E450E4C353DF4F6881798153
:103EB0008A819B81CD5CD0400E943F3120E030E080
:103EC00044E353E40E94E32B6B017C01CB57DF4FAB
:103ED000288139814A815B81C558D040CF54DF4F5A
:103EE000688179818A819B81C15BD0400E943F318A
:103EF0004B015C01CB56DF4F288139814A815B81C0
:103F0000C559D040CB54DF4F688179818A819B812C
:103F1000C55BD0400E943F319B01AC01C501B4019B
:103F20000E94E92A4B015C01CF57DF4F288139817C
:103F30004A815B81C158D040E5966CAD7DAD8EADB8
:103F40009FADE5970E943F312B013C01C757DF4FE2
:103F5000288139814A815B81C958D040E9966CAD8E
:103F60007DAD8EAD9FADE9970E943F319B01AC01C5
:103F7000C301B2010E94E92A9B01AC01C501B40151
:103F80000E94EA2A20E030E040E251E40E943F3102
:103F90009B01AC01C701B6010E94EA2A20E030E093
:103FA000A9010E94EA2AED966CAF7DAF8EAF9FAF5C
:103FB000ED972BED3FE049E450E4C753DF4F6881B4
:103FC00079818A819B81C95CD0400E943F3120E089
:103FD00030E044E353E40E94E32B6B017C01CF56B5
:103FE000DF4F288139814A815B81C159D040CB5450
:103FF000DF4F688179818A819B81C55BD0400E94B7
:104000003F314B015C01CB57DF4F288139814A8119
:104010005B81C558D040C355DF4F688179818A8163
:104020009B81CD5AD0400E943F319B01AC01C5011C
:10403000B4010E94E92A4B015C01C358DF4F28817B
:1040400039814A815B81CD57D040E9966CAD7DAD19
:104050008EAD9FADE9970E943F312B013C01CF57B8
:10406000DF4F288139814A815B81C158D040E19678
:104070006CAD7DAD8EAD9FADE1970E943F319B0150
:10408000AC01C301B2010E94E92A9B01AC01C50148
:10409000B4010E94EA2A20E030E040E251E40E94AC
:1040A0003F319B01AC01C701B6010E94EA2A20E022
:1040B00030E0A9010E94EA2AE9966CAF7DAF8EAF8D
:1040C0009FAFE9972BED3FE049E450E4CB53DF4F3E
:1040D000688179818A819B81C55CD0400E943F3193
:1040E00020E030E044E353E40E94E32B6B017C01C9
:1040F000CB56DF4F288139814A815B81C559D04039
:10410000C355DF4F688179818A819B81CD5AD04028
:104110000E943F314B015C01CF56DF4F288139812E
:104120004A815B81C159D040CF54DF4F688179818A
:104130008A819B81C15BD0400E943F319B01AC01D1
:10414000C501B4010E94E92A4B015C01C757DF4F4A
:10415000288139814A815B81C958D040E1966CAD94
:104160007DAD8EAD9FADE1970E943F312B013C01AB
:10417000C358DF4F288139814A815B81CD57D040B8
:10418000E5966CAD7DAD8EAD9FADE5970E943F315C
:104190009B01AC01C301B2010E94E92A9B01AC0161
:1041A000C501B4010E94EA2A20E030E040E251E477
:1041B0000E943F319B01AC01C701B6010E94EA2A6F
:1041C00020E030E0A9010E94EA2A4B015C0120E0D6
:1041D00030E040E05FE3C756DF4F688179818A8134
:1041E0009B81C959D0400E943F31E1966CAF7DAFB1
:1041F0008EAF9FAFE197A1966CAD7DAD8EAD9FADBB
:10420000A1979058ED962CAD3DAD4EAD5FADED97BD
:104210000E943F316B017C01E9962CAD3DAD4EAD66
:104220005FADE997A5966CAD7DAD8EAD9FADA597C1
:104230000E943F319B01AC01C701B6010E94E92AEF
:104240006B017C01A5019401A9966CAD7DAD8EAD8D
:104250009FADA9970E943F319B01AC01C701B601F8
:104260000E94E92AE1962CAD3DAD4EAD5FADE197E0
:104270000E943F319B01AC01AD966CAD7DAD8EAD22
:104280009FADAD970E94EA2A6B017C01ED962CADA3
:104290003DAD4EAD5FADED970E943F312B013C012E
:1042A000A5019401A5966CAD7DAD8EAD9FADA59792
:1042B0000E943F319B01AC01C301B2010E94EA2A76
:1042C0002B013C01E9962CAD3DAD4EAD5FADE997BC
:1042D000A9966CAD7DAD8EAD9FADA9970E943F3183
:1042E0009B01AC01C301B2010E94E92AE1962CAD09
:1042F0003DAD4EAD5FADE1970E943F319B01AC01FA
:10430000A1966CAD7DAD8EAD9FADA1970E94EA2ABE
:10431000AD966CAF7DAF8EAF9FAFAD97E9962CADEC
:104320003DAD4EAD5FADE997C701B6010E943F318B
:104330002B013C01A5019401A1966CAD7DAD8EAD24
:104340009FADA1970E943F319B01AC01C301B20117
:104350000E94E92A2B013C01ED962CAD3DAD4EADFE
:104360005FADED97A9966CAD7DAD8EAD9FADA99774
:104370000E943F319B01AC01C301B2010E94EA2AB5
:10438000E1962CAD3DAD4EAD5FADE1970E943F3162
:104390009B01AC01A5966CAD7DAD8EAD9FADA59793
:1043A0000E94EA2AE5966CAF7DAF8EAF9FAFE5978E
:1043B000A5019401C701B6010E943F314B015C0188
:1043C000E9962CAD3DAD4EAD5FADE997A1966CADD4
:1043D0007DAD8EAD9FADA1970E943F319B01AC0199
:1043E000C501B4010E94EA2A4B015C01ED962CAD97
:1043F0003DAD4EAD5FADED97A5966CAD7DAD8EAD8F
:104400009FADA5970E943F319B01AC01C501B4014E
:104410000E94E92AE1962CAD3DAD4EAD5FADE1972E
:104420000E943F319B01AC01A9966CAD7DAD8EAD74
:104430009FADA9970E94EA2A2B013C01A701960192
:10444000C701B6010E943F314B015C01AD962CAD16
:104450003DAD4EAD5FADAD97CA01B9010E943F3190
:104460009B01AC01C501B4010E94EA2A4B015C0129
:10447000E5962CAD3DAD4EAD5FADE597CA01B901F6
:104480000E943F319B01AC01C501B4010E94EA2AA0
:104490004B015C01A3019201C301B2010E943F31B3
:1044A0009B01AC01C501B4010E94EA2A0E94422D81
:1044B0009B01AC0160E070E080E89FE30E94E32B89
:1044C0004B015C019B01AC01C701B6010E943F3169
:1044D00060930001709301018093020190930301A6
:1044E000A5019401AD966CAD7DAD8EAD9FADAD9740
:1044F0000E943F316093040170930501809306018F
:1045000090930701A5019401E5966CAD7DAD8EAD4C
:104510009FADE5970E943F316093080170930901B8
:1045200080930A0190930B01A5019401C301B2018C
:104530000E943F3160930C0170930D0180930E0136
:1045400090930F012FB7F8948091720390917303A9
:10455000A0917403B09175032FBF4091CF03509188
:10456000D0036091D1037091D203841B950BA60BED
:10457000B70B8093CB039093CC03A093CD03B09360
:10458000CE03853F9140A105B10508F4F5C28091A5
:10459000000190910101A0910201B0910301A19647
:1045A0008CAF9DAFAEAFBFAFA1979C01AD01BC0179
:1045B000CD010E943F31A9966CAF7DAF8EAF9FAF0A
:1045C000A997209104013091050140910601509175
:1045D0000701A5962CAF3DAF4EAF5FAFA597CA01BF
:1045E000B9010E943F31AD966CAF7DAF8EAF9FAFEA
:1045F000AD97409008015090090160900A017090B9
:104600000B01A3019201C301B2010E943F31E19667
:104610006CAF7DAF8EAF9FAFE197C0900C01D09093
:104620000D01E0900E01F0900F01A7019601C70166
:10463000B6010E943F31E5966CAF7DAF8EAF9FAF64
:10464000E597AD962CAD3DAD4EAD5FADAD97A9965E
:104650006CAD7DAD8EAD9FADA9970E94EA2AE19623
:104660002CAD3DAD4EAD5FADE1970E94E92AE596D8
:104670002CAD3DAD4EAD5FADE5970E94E92A4B01F3
:104680005C01A3019201A5966CAD7DAD8EAD9FAD91
:10469000A5970E943F31E9966CAF7DAF8EAF9FAF7B
:1046A000E997A7019601A1966CAD7DAD8EAD9FAD4A
:1046B000A1970E943F319B01AC01E9966CAD7DADA5
:1046C0008EAD9FADE9970E94EA2A9B01AC010E9442
:1046D000EA2AA50194010E94842BE9966CAF7DAF74
:1046E0008EAF9FAFE997A7019601A5966CAD7DAD02
:1046F0008EAD9FADA5970E943F314B015C01A30198
:104700009201A1966CAD7DAD8EAD9FADA1970E943B
:104710003F319B01AC01C501B4010E94E92A9B0114
:10472000AC010E94EA2A0E94562BED966CAF7DAF39
:104730008EAF9FAFED97AD962CAD3DAD4EAD5FAD5D
:10474000AD97A9966CAD7DAD8EAD9FADA9970E943A
:10475000E92AE1962CAD3DAD4EAD5FADE1970E94EB
:10476000E92AE5962CAD3DAD4EAD5FADE5970E94D3
:10477000EA2A4B015C01A5962CAD3DAD4EAD5FAD77
:10478000A597A1966CAD7DAD8EAD9FADA1970E9412
:104790003F31A1966CAF7DAF8EAF9FAFA197A701C0
:1047A0009601C301B2010E943F319B01AC01A19669
:1047B0006CAD7DAD8EAD9FADA1970E94EA2A9B01A5
:1047C000AC010E94EA2AA50194010E94842B6B018E
:1047D0007C01ED966CAD7DAD8EAD9FADED979058A3
:1047E00020EE3EE245E652E40E943F31A1966CAFD6
:1047F0007DAF8EAF9FAFA1976093C3037093C40347
:104800008093C5039093C60320EE3EE245E652E452
:10481000E9966CAD7DAD8EAD9FADE9970E943F31BD
:104820002DEC3CEC4CE551E40E94E92A2B013C01C3
:104830006093C7037093C8038093C9039093CA031E
:1048400020EE3EE245E652E4C701B6010E943F3148
:104850004B015C016093BF037093C0038093C1035D
:104860009093C20381E196E00E944B03813009F0EE
:1048700042C1CE0101960E94C70B69817A818B816A
:104880009C810E94DE30A5966CAF7DAF8EAF9FAF4E
:10489000A597CE0101960E94C70B69817A818B8111
:1048A0009C810E94DE3020E836EE45EC57E40E9401
:1048B000E32B2EEA3CED42E45EE30E94EC2C9B01EC
:1048C000AC0160E070E080E89FE30E94E92A20E00C
:1048D0003AE24DE257E40E943F316093BB0370938C
:1048E000BC038093BD039093BE0343E0BE016F5FA2
:1048F0007F4F8AEF0E94B30A298130E0322F2227AE
:104900008A81282BC901A0E0B0E014E0880F991F2C
:10491000AA1FBB1F1A95D1F72B8130E004E0359513
:1049200027950A95E1F7A901330F660B770B482B02
:10493000592B6A2B7B2B8091150690911606A0E0CF
:10494000B0E06A017B0124E0F594E794D794C79422
:104950002A95D1F7C81AD90AEA0AFB0A33E07595F5
:104960006795579547953A95D1F7880F991FAA1FD4
:10497000BB1F9A01AB01281B390B4A0B5B0BA091A3
:104980001906B0911A060E9427329B01AC01FBE088
:104990005595479537952795FA95D1F7A9962CAF58
:1049A0003DAF4EAF5FAFA997A7019601C701B60112
:1049B0000E949F2A9B01AC01ACE055954795379525
:1049C0002795AA95D1F7A0911B06B0911C060E94CD
:1049D0002732DC01CB011EE0B595A7959795879509
:1049E0001A95D1F7A9962CAD3DAD4EAD5FADA99707
:1049F000280F391F4A1F5B1F20932D0630932E0668
:104A000040932F0650933006A2E3B0E00E941C3280
:104A1000DC01CB019B5FAF4FBF4F692F7A2F8B2FEC
:104A2000992787FD9A950E94E03020E030E04AE720
:104A300054E40E94E32B6093B7037093B803809310
:104A4000B9039093BA0320E030E040E251E4609172
:104A5000B3037091B4038091B5039091B6030E94A3
:104A60003F312091BB033091BC034091BD03509175
:104A7000BE030E94EA2A20E030E040E351E40E94B5
:104A8000E32B6093B3037093B4038093B5039093C7
:104A9000B60381E196E00E9461038091BB0390918F
:104AA000BC03A091BD03B091BE0380934F049093CB
:104AB0005004A0935104B0935204A5968CAD9DADC3
:104AC000AEADBFADA5978093530490935404A093CB
:104AD0005504B09356048091B7039091B803A09108
:104AE000B903B091BA038093570490935804A093EC
:104AF0005904B0935A0480924B0490924C04A092B3
:104B00004D04B0924E04A1962CAD3DAD4EAD5FADBF
:104B1000A197209343043093440440934504509359
:104B200046044092470450924804609249047092AF
:104B30004A042FB7F8948091720390917303A09167
:104B40007403B09175032FBF8093CF039093D0036C
:104B5000A093D103B093D2031092D3031092D40345
:104B60001092D5031092D6031092D7031092D80357
:104B70001092D9031092DA0300914104109142047B
:104B800020E030E048EC52E4D8016D917D918D91A8
:104B90009C910E943F310E94552CA1966CAF7DAF35
:104BA0008EAF9FAFA19720E030E048EC52E4F801CF
:104BB00060897189828993890E943F310E94552CB6
:104BC000A5966CAF7DAF8EAF9FAFA59720E030E08C
:104BD00048EC52E4D80118966D917D918D919C918D
:104BE0001B970E943F310E94552C2B013C0120E075
:104BF00030E048EC52E4F801648975898689978928
:104C00000E943F310E94552C4B015C0120E030E0B6
:104C100048EC52E4D80114966D917D918D919C9150
:104C200017970E943F310E94552C6B017C0120E0B8
:104C300030E048EC52E4F8016485758586859785F7
:104C40000E943F310E94552C4AE0CE018B5A9F4F63
:104C50000E94C30D4AE06F966EAD7FAD6F97CE0197
:104C6000815B9F4F0E94C30D4AE0A3966EAD7FAD5E
:104C7000A397CE01875B9F4F0E94C30D4AE0B2010C
:104C8000CE01CD960E94C30D4AE0B401CE01C1967B
:104C90000E94C30D4AE0B601CE0185960E94C30D65
:104CA0001A8219821C821B821E821D8242E050E001
:104CB0006DE573E0CE0101960E949D0DBE016B5A19
:104CC0007F4FCE0101960E948A0D6EE573E00E942F
:104CD000710DBE01615B7F4F0E948A0D6EE573E02E
:104CE0000E94710DBE01675B7F4F0E948A0D6EE5C9
:104CF00073E00E94710DBE01635C7F4F0E948A0DBC
:104D00006EE573E00E94710DBE016F5C7F4F0E94E3
:104D10008A0D6EE573E00E94710DBE016B5D7F4FE1
:104D20000E948A0D60E673E00E94710D1A8E198E42
:104D30001C8E1B8E1E8E1D8E6D962EAD3FAD6D97FB
:104D40008217930779F0DC016D917C9111976115C1
:104D5000710541F014964D915C911597CE014996DD
:104D60000E949D0DCE0101960E94BE0D4D8D5E8D5F
:104D7000698D7A8D81E595E00E94350B8DE791E094
:104D80000E94B60900E010E08D8D9E8D081719076E
:104D900098F4E98DFA8D309729F41092A603E6EA8B
:104DA000F3E002C0E00FF11F60818EEE95E00E94FB
:104DB000F0010F5F1F4FE8CFCE0149960E94BE0D54
:104DC000CE0185960E94BE0DCE01C1960E94BE0DF9
:104DD000CE01CD960E94BE0DCE01875B9F4F0E94F3
:104DE000BE0DCE01815B9F4F0E94BE0DCE018B5A3E
:104DF0009F4F0E94BE0DE12CF12C0CE0E8E8CE2E76
:104E0000D12CF8E5AF2EF2E0BF2EC701895A994F99
:104E1000FC013396DE011196202F01900D922A9508
:104E2000E1F7FC01138184809580F6816E96FFAFD7
:104E30006E9740904B0450904C0460904D047090DD
:104E40004E04209143043091440440914504509114
:104E500046048B859C858130910509F4A9C0C4F571
:104E6000892B09F0E5C06091580670915906072E0C
:104E7000000C880B990BCF52DF4F2883C15DD040C7
:104E8000CE52DF4F3883C25DD040CD52DF4F4883D2
:104E9000C35DD040CC52DF4F5883C45DD0400E94E8
:104EA000E030CF52DF4F2881C15DD040CE52DF4F7E
:104EB0003881C25DD040CD52DF4F4881C35DD040C4
:104EC000CC52DF4F5881C45DD0400E94EA2AA9C06D
:104ED00082309105C1F1039709F0AAC0609158068C
:104EE00070915906072E000C880B990BCF52DF4F9B
:104EF0002883C15DD040CE52DF4F3883C25DD040A1
:104F0000CD52DF4F4883C35DD040CC52DF4F588332
:104F1000C45DD0400E94E030CF52DF4F2881C15D98
:104F2000D040CE52DF4F3881C25DD040CD52DF4FEE
:104F30004881C35DD040CC52DF4F5881C45DD04022
:104F40000E94E92A69C06091580670915906072E9F
:104F5000000C880B990BCF52DF4F2883C15DD040E6
:104F6000CE52DF4F3883C25DD040CD52DF4F4883F1
:104F7000C35DD040CC52DF4F5883C45DD0400E9407
:104F8000E030CF52DF4F2881C15DD040CE52DF4F9D
:104F90003881C25DD040CD52DF4F4881C35DD040E3
:104FA000CC52DF4F5881C45DD0400E94E92A39C0FD
:104FB0006091580670915906072E000C880B990BCA
:104FC000CF52DF4F2883C15DD040CE52DF4F3883B0
:104FD000C25DD040CD52DF4F4883C35DD040CC523C
:104FE000DF4F5883C45DD0400E94E030CF52DF4F86
:104FF0002881C15DD040CE52DF4F3881C25DD040A4
:10500000CD52DF4F4881C35DD040CC52DF4F588135
:10501000C45DD0400E94EA2AA30192010E94EA2ABC
:1050200004C0A30192010E94E92A0E94552C1B0191
:105030006E962FAD6E97222379F11C3068F5C6016C
:105040008819910987FC9395880F991F880F991FDC
:105050002816390674F095012919310997FC339502
:10506000220F331F220F331FC101221533050CF409
:10507000C90102979C01220F331F4FB7F894812F6B
:1050800090E0FC01EE0FFF1F8E0F9F1FFC01EE5CF6
:10509000F94F328321834FBF3CE0E30EF11C40E324
:1050A000E416F10409F0B1CE0E94C5010C94061873
:1050B0008EE291E09093EF058093EE058EEE95E001
:1050C0000C945408CF93DF931F92CDB7DEB791E0D5
:1050D00090932F058093500510920E0610920D06A6
:1050E0008AE896E049830E9403034981642F8AE895
:1050F00096E00E94030381E00F90DF91CF910C9422
:105100000B0A109254051092530588EE93E0A0E02C
:10511000B0E08093550590935605A0935705B09342
:1051200058052EE131E0309352052093510525ECCE
:1051300030E030935E0520935D0524EC30E0309341
:10514000600520935F0520EC30E0309362052093EA
:10515000610521EC30E0309364052093630522EC77
:1051600030E0309366052093650526EC30E03093FF
:1051700068052093670510926A0510926B051092DE
:105180006C0510926D051092F1051092F005809358
:10519000F2059093F305A093F405B093F5058EE224
:1051A00091E09093EF058093EE0510920506109222
:1051B0000406109207061092060610920906109235
:1051C000080610920B0610920A0660910C066E7F7C
:1051D0006D7F60930C066695617081E0682780E1C1
:1051E0000E94CA0361E080E10E941604EAEAF1E04D
:1051F000E491E093FE05E6E9F1E0E491F0E0EE0FE2
:10520000FF1FEE58FE4F8591949190930006809376
:10521000FF0560E081E10E94160480910C0681FD8B
:1052200004C061E081E10E94CA0381E18093FA0534
:10523000EBEAF1E0E491E093FB05E7E9F1E0E491CA
:10524000F0E0EE0FFF1FE458FE4F8591949190938C
:10525000FD058093FC051092100610920F06109227
:105260000E0610920D060E949809449A459A8CE009
:105270008093B8008EE097ECAAE1BFE380939A0692
:1052800090939B06A0939C06B0939D061092960661
:105290001092970610929806109299068EE391E06C
:1052A00090931206809311068EE491E09093140679
:1052B0008093130610921606109215061092180687
:1052C0001092170610921A061092190610921C06D8
:1052D00010921B0610921E0610921D0610922006B8
:1052E00010921F0610922206109221061092240698
:1052F0001092230610922606109225061092280678
:105300001092270610922A061092290610922C0657
:1053100010922B0610922D0610922E0610922F0638
:105320001092300681E08093570688EE93E09093C8
:105330005906809358068091560640E050E09FEF52
:1053400068EB7BE0DA01A95AB94F8C3088F41396E8
:105350008C931397282F30E0F901EE0FFF1F2E0FCB
:105360003F1FF901EE5CF94F728361838F5F03C0C9
:1053700013969C93139716961C92445F5F4F40338D
:10538000510501F78093560610928D0610928C06F7
:1053900088EE93E0A0E0B0E080938E0690938F06B5
:1053A000A0939006B093910684E591E090938B06CC
:1053B00080938A060895CF93DF930E94B609EC018B
:1053C0008DE791E00E94B6098C0F9D1FDF91CF9170
:1053D00008958F929F92AF92BF92CF92DF92EF92F9
:1053E000FF92CF93DF936B017C019B01AC010E9484
:1053F000862D882319F082E693E027C046015701E5
:10540000E894B7F82FEF3FEF4FE75FE7C501B4012E
:105410000E94862D81110DC02FEF3FEF4FE75FE710
:10542000C501B4010E94D93018161CF486E693E039
:105430000CC02FEF3FEF4FE75FE4C701B6010E94BA
:10544000DF2C181674F48AE693E0DF91CF91FF9079
:10545000EF90DF90CF90BF90AF909F908F900C9483
:10546000B6092FEF3FEF4FE75FECC701B6010E948F
:10547000D93087FDE8CF20E030E0A901C701B601AF
:105480000E94D93087FF11C0E0915105F09152057B
:105490000190F081E02D6DE281E595E00995EC0148
:1054A000F7FAF094F7F8F09402C0C0E0D0E02DECE9
:1054B0003CEC4CE45DE3C701B6010E94EA2A4B01D3
:1054C0005C010E94552C6B017C010E94DE309B0127
:1054D000AC01C501B4010E94E92A4B015C014AE01C
:1054E000C701B6010E94C809C80FD91FE091510534
:1054F000F09152050190F081E02D6EE281E595E09A
:105500000995C80FD91F20E030E040E251E4C50101
:10551000B4010E943F310E94552C80E090E04AE0A7
:105520000E94C8098C0F9D1FDF91CF91FF90EF90D3
:10553000DF90CF90BF90AF909F908F900895DB0148
:105540008F939F930E941C32BF91AF91A29F800DB9
:10555000911DA39F900DB29F900D11240895991B4A
:1055600079E004C0991F961708F0961B881F7A955A
:10557000C9F780950895AA1BBB1B51E107C0AA1F5C
:10558000BB1FA617B70710F0A61BB70B881F991FE4
:105590005A95A9F780959095BC01CD01089597FB88
:1055A000072E16F4009407D077FD09D00E94BB2A7D
:1055B00007FC05D03EF4909581959F4F0895709516
:1055C00061957F4F0895EE0FFF1F0590F491E02D38
:1055D00009945058BB27AA270E94012B0C94C33171
:1055E0000E94B53138F00E94BC3120F039F49F3F61
:1055F00019F426F40C94B2310EF4E095E7FB0C9408
:10560000AC31E92F0E94D43158F3BA1762077307FF
:105610008407950720F079F4A6F50C94F6310EF482
:10562000E0950B2EBA2FA02D0B01B90190010C01B2
:10563000CA01A0011124FF27591B99F0593F50F4CA
:10564000503E68F11A16F040A22F232F342F442722
:10565000585FF3CF469537952795A795F04053951A
:10566000C9F77EF41F16BA0B620B730B840BBAF0EA
:105670009150A1F0FF0FBB1F661F771F881FC2F755
:105680000EC0BA0F621F731F841F48F48795779569
:105690006795B795F7959E3F08F0B0CF9395880F23
:1056A00008F09927EE0F9795879508959F939F7718
:1056B000EEE389379E0728F4E8E6F0E00E94CB2C61
:1056C0000CC00E94842C9058A2EA2AED3FE049ECDD
:1056D0005FE30E94012B0E94C3310F9007FC90589A
:1056E00008950E94B53160F080E891E009F49EEFE2
:1056F0000E94BC3128F040E851E071F45EEF0CC02C
:105700000C94B2310C94F631E92FE0780E94D43138
:1057100040F3092E052AB1F3261737074807590722
:1057200038F00E2E07F8E02569F0E025E0640AC0A5
:10573000EF6307F8009407FADB01B9019D01DC0172
:10574000CA01AD01EF930E94FA2B0E94C3310E945F
:10575000B42B5F91552339F02BED3FE049E450FD28
:1057600049EC0C94EA2A0895DF93DD27B92FBF771F
:1057700040E85FE31616170648075B0718F4D92FB1
:105780000E94E42C9F938F937F936F930E94822DAE
:10579000ECE7F0E00E94A42C0E94C3312F913F91CE
:1057A0004F915F910E945231DD2351F09058A2EA4F
:1057B0002AED3FE049EC5FE3D0785D270E94012BA2
:1057C000DF910C94C3310E94F72B0C94C3310E94DB
:1057D000BC3158F00E94B53140F029F45F3F29F008
:1057E0000C94AC3151110C94F7310C94B2310E94ED
:1057F000D43168F39923B1F3552391F3951B550BDD
:10580000BB27AA2762177307840738F09F5F5F4F93
:10581000220F331F441FAA1FA9F335D00E2E3AF0D2
:10582000E0E832D091505040E695001CCAF72BD0EA
:10583000FE2F29D0660F771F881FBB1F261737073B
:105840004807AB07B0E809F0BB0B802DBF01FF276D
:1058500093585F4F3AF09E3F510578F00C94AC316D
:105860000C94F7315F3FE4F3983ED4F38695779537
:105870006795B795F7959F5FC9F7880F911D969526
:10588000879597F90895E1E0660F771F881FBB1F82
:10589000621773078407BA0720F0621B730B840B2F
:1058A000BA0BEE1F88F7E09508950E94DC3188F06E
:1058B0009F5798F0B92F9927B751B0F0E1F0660FD4
:1058C000771F881F991F1AF0BA95C9F714C0B13015
:1058D00091F00E94F631B1E008950C94F631672FF3
:1058E000782F8827B85F39F0B93FCCF38695779544
:1058F0006795B395D9F73EF490958095709561952D
:105900007F4F8F4F9F4F0895DF93CF931F930F9338
:105910008B01EC01E9EAF0E00E94A42C0E94C33163
:105920009801AE018B01EC0160E070E080E89FE33C
:105930000E94E92A0E94422D9801AE010F911F9109
:10594000CF91DF910C945231DF93CF931F930F933C
:10595000FF92EF92DF927B018C01689406C0DA2EF1
:10596000EF010E945231FE01E894A59125913591F5
:1059700045915591A6F3EF010E94012BFE0197017D
:10598000A801DA9469F7DF90EF90FF900F911F91D3
:10599000CF91DF9108959F938F937F936F93FF93A0
:1059A000EF939B01AC010E943F31EF91FF910E9468
:1059B000A42C2F913F914F915F910C943F310E9405
:1059C0001B3108F48FEF08959B01AC0160E070E09B
:1059D00080E89FE30C94E32BFA01EE0FFF1F309653
:1059E00021053105A1F16115710561F48038BFE32E
:1059F0009B0749F168949038810561F08038BFEFCA
:105A00009B0741F099234AF5FF3FE1053105210548
:105A100019F1E8940894E795D901AA2329F4AB2F4A
:105A2000BE2FF85FD0F310C0FF5F70F4A695E0F7CB
:105A3000F73950F019F0FF3A38F49F779F930DD063
:105A40000F9007FC9058089546F00C94B23160E036
:105A500070E080E89FE308954FE79F775F934F934F
:105A60003F932F930E941C2E2F913F914F915F9156
:105A70000E943F310C94932D19F416F40C94B2311A
:105A80000C94C52D0E94DC31B8F39923C9F3B6F309
:105A90009F57550B87FF0E94D32D0024A0E640EAB4
:105AA000900180585695979528F4805C660F771F73
:105AB000881F20F026173707480730F4621B730B46
:105AC000840B202931294A2BA69517940794202569
:105AD00031254A2758F7660F771F881F20F02617B1
