:100000000C94D9000C9401010C9401010C94E607A6
:100010000C94E6070C94E6070C9401010C94010182
:100020000C9401010C9401010C9401010C9425071E
:100030000C9401010C9401010C9401010C94010138
:100040000C94F7050C9401010C9498030C94720322
:100050000C9401010C9401010C9401010C94010118
:100060000C9476080C940101036EDB363D9A999945
:10007000993DABAAAA2A3E000000803F084AD73B20
:100080003BCE016E84BCBFFDC12F3D6C74319ABD67
:1000900056833DDA3D00C77F11BED9E4BB4C3E918B
:1000A0006BAAAABE000000803F072C7AA5BA6CC5D7
:1000B00090DA3B9365FC8BBC53F810FD3C56928361
:1000C0004DBD879D3AB63DCBC9BF5BBE73DA0FC944
:1000D0003F07634236B79BD8A71A39685618AEBA9D
:1000E000AB558C1D3CB7CC5763BD6DEDFD753EF631
:1000F000177231BF000000803F08000000BE92244C
:1001000049123EABAAAA2ABECDCCCC4C3E00000080
:1001100080BEABAAAAAA3E00000000BF000000807B
:100120003F0000000000084178D3BB4387D1133D56
:10013000190E3CC3BD4282AD2B3E68EC8276BED91F
:100140008FE1A93E4C80EFFFBE01C4FF7F3F00005E
:100150000000000000000000240027002A0000002A
:100160000008000201000003040700000000000076
:10017000000000000000250028002B000000000007
:1001800023002600290004040404040404040202D9
:100190000202020203030303030301020408102006
:1001A00040800102040810200102040810203527B5
:1001B0002B2711241FBECFEFD8E0DEBFCDBF13E049
:1001C000A0E0B1E0E6EBF2E602C005900D92AC369D
:1001D000B107D9F726E0ACE6B3E001C01D92AE3915
:1001E000B207E1F710E0C8EDD0E004C02197FE01AE
:1001F0000E949329C73DD107C9F70E947E0D0C9438
:100200004E310C940000FC01918D828D981761F0A5
:10021000828DDF01A80FB11D5D968C91928D9F5F3D
:100220009F73928F90E008958FEF9FEF0895FC01E8
:10023000918D828D981731F0828DE80FF11D858D9B
:1002400090E008958FEF9FEF0895FC01918D228D2E
:10025000892F90E0805C9F4F821B91098F739927B3
:1002600008958DE495E00E94250121E0892B09F491
:1002700020E0822F0895FC01848DDF01A80FB11DBD
:10028000A35ABF4F2C91848D90E001968F739927CC
:10029000848FA689B7892C93A089B1898C918064B9
:1002A0008C93938D848D981306C00288F389E02D7A
:1002B00080818F7D80830895EF92FF920F931F932B
:1002C000CF93DF93EC0181E0888F9B8D8C8D981309
:1002D00005C0E889F989808185FD24C0F62E0B8D43
:1002E00010E00F5F1F4F0F731127E02E8C8DE81267
:1002F0000CC00FB607FCFACFE889F989808185FF29
:10030000F5CFCE010E943B01F1CF8B8DFE01E80FAE
:10031000F11DE35AFF4FF0820B8FEA89FB89808140
:10032000806207C0EE89FF896083E889F98980814E
:100330008064808381E090E0DF91CF911F910F91E5
:10034000FF90EF900895CF93DF93EC01888D882381
:10035000C9F0EA89FB89808185FD05C0A889B98932
:100360008C9186FD0FC00FB607FCF5CF808185FF0D
:10037000F2CFA889B9898C9185FFEDCFCE010E947B
:100380003B01E7CFDF91CF91089580E090E0892B8A
:1003900029F00E94310181110C9400000895809190
:1003A000EC0590E02091ED05821B910908952091C4
:1003B0006E0330916F032817390771F490916C0325
:1003C00080916D03981741F0E0916C03F0E0E656E0
:1003D000FB4F808190E008958FEF9FEF089508957F
:1003E0001F93CF93DF93DC015C962D913C915D9739
:1003F0002115310539F481E090E013969C938E939A
:1004000012973DC05196ED91FC91529750969C9158
:100410005097892F80951FB75E964C915E9741FB50
:10042000772770F941FD6095F8944081772311F0AA
:10043000492B01C048234083E9012197F1F748E0A7
:10044000508160FF02C0592B01C058235083E9013D
:100450002197F1F76695415099F7772321F0908124
:100460008923808303C08081982B90831FBF5C9673
:100470008D919C915D970197F1F721E030E0C901E2
:10048000DF91CF911F91089520916E0330916F03FA
:100490002817390771F480916D0320916C0390E067
:1004A000805C9F4F821B910960E470E00E947F296D
:1004B000089580E090E0089520916E0330916F03DD
:1004C00028173907B9F490916C0380916D03981740
:1004D00089F0E0916C03F0E0E656FB4F80812091BB
:1004E0006C0330E02F5F3F4F2F73332720936C0353
:1004F00090E008958FEF9FEF089585ED8093BC0005
:100500008091BC0084FDFCCF10922A050895409193
:100510007504262F30E0240F311D21323105DCF423
:1005200020912A052430C9F4FC0180E090E0861770
:1005300058F4309175042191DC01AD5ABB4FA30FE3
:10054000B11D2C930196F3CF80917504680F6093D1
:10055000750480E0089581E0089582E0089508958B
:10056000E091ED058091EC05E81730F4F0E0EC51F6
:10057000FB4F808190E008958FEF9FEF0895909159
:10058000ED058091EC05981750F4E92FF0E0EC515F
:10059000FB4F208130E09F5F9093ED0502C02FEF6D
:1005A0003FEFC9010895CF92DF92EF92FF920F9330
:1005B0001F93CF93DF937C01262F972F8A01809181
:1005C0002B05882391F0C62FD72F6E01C40ED51EA0
:1005D000CC15DD0571F06991D701ED91FC91019089
:1005E000F081E02DC7010995F3CF642F822F0E947F
:1005F0008702C801DF91CF911F910F91FF90EF907B
:10060000DF90CF900895CF93DF931F92CDB7DEB7E1
:10061000698320912B052223D1F02091EA05203215
:1006200040F021E030E0FC013383228380E090E061
:1006300015C08091EB05E82FF0E0E45DFA4F998159
:1006400090838F5F8093EB058093EA0505C061E09E
:10065000CE0101960E94870281E090E00F90DF9129
:10066000CF9108950E94462F81E080932B0586E765
:1006700080934C051092EB051092EA0560EE86E837
:1006800096E00E94030366EB86E896E00E9403036F
:1006900081E00C94250ACF93DF931F92CDB7DEB78C
:1006A00041E0BE016F5F7F4F83EF0E94CD0A8981D9
:1006B00083FB882780F991E089270F90DF91CF9104
:1006C000089541E063E084EF0C94180B02970C94BA
:1006D0006103611102C040E001C043E063E084EFC8
:1006E0000C94180B1F920F920FB60F9211242F9398
:1006F0003F934F935F936F937F938F939F93AF93AA
:10070000BF93EF93FF938DE495E00E943B01FF912F
:10071000EF91BF91AF919F918F917F916F915F9179
:100720004F913F912F910F900FBE0F901F901895F2
:100730001F920F920FB60F9211242F938F939F93B6
:10074000EF93FF93E0915D05F0915E058081E0916C
:100750006305F091640582FD12C090818091660569
:100760008F5F8F7320916705821751F0E0916605C6
:10077000F0E0E35BFA4F958F8093660501C08081BE
:10078000FF91EF919F918F912F910F900FBE0F903E
:100790001F90189590E0FC01E25AFE4F3491FC0145
:1007A000E656FE4F2491FC01EA57FE4FE491EE23FA
:1007B00009F43BC0332339F1333091F038F4313050
:1007C000A9F0323001F584B58F7D12C0373091F039
:1007D0003830A1F03430B9F4809180008F7D03C0AF
:1007E000809180008F77809380000DC084B58F77D3
:1007F00084BD09C08091B0008F7703C08091B000A4
:100800008F7D8093B000F0E0EE0FFF1FEE58FE4F9B
:10081000A591B4918FB7F894EC91611103C0209524
:100820002E2301C02E2B2C938FBF0895CF93DF93DF
:1008300090E0FC01E656FE4F2491FC01EA57FE4F82
:100840008491882361F190E0880F991FFC01EC5A94
:10085000FE4FC591D491FC01EE58FE4FA591B49185
:10086000611109C09FB7F8948881209582238883FD
:10087000EC912E230BC0623061F49FB7F89438815D
:10088000822F809583238883EC912E2B2C939FBFFE
:1008900006C08FB7F894E8812E2B28838FBFDF9195
:1008A000CF9108953FB7F8948091E0049091E104CE
:1008B000A091E204B091E30426B5A89B05C02F3FA8
:1008C00019F00196A11DB11D3FBFBA2FA92F982F76
:1008D0008827820F911DA11DB11DBC01CD0142E0F1
:1008E000660F771F881F991F4A95D1F708958F9239
:1008F0009F92AF92BF92CF92DF92EF92FF926B01E5
:100900007C010E9452044B015C01C114D104E1043A
:10091000F104F1F00E945204DC01CB01881999091D
:10092000AA09BB09883E9340A105B10570F321E0F7
:10093000C21AD108E108F10888EE880E83E0981EFB
:10094000A11CB11CC114D104E104F10419F7DDCFDD
:10095000FF90EF90DF90CF90BF90AF909F908F90DF
:1009600008950F931F93CF938C01CBEFD801ED9196
:10097000FC910680F781E02DC8010995811109C01D
:10098000C15041F062E070E080E090E00E947704A6
:10099000EDCFC1E08C2FCF911F910F9108950F9350
:1009A0001F93CF93DF9300D0CDB7DEB78C0181E0EA
:1009B00080932B0586E780934C051092EB051092EF
:1009C000EA0581E00E94250A882311F080E0FCC03E
:1009D000D801ED91FC910280F381E02DC8010995C9
:1009E00064E070E080E090E00E94770444E16CE114
:1009F00084EF0E94180B40E460EE84EF0E94180B15
:100A000040E06CE185EF0E94180B40E060EE85EF5E
:100A10000E94180B40E061E085EF0E94180B42E055
:100A2000BE016F5F7F4F88E80E94CD0A8A8190E007
:100A3000982F88272981822BF8019583848342E0AF
:100A4000BE016F5F7F4F8AE80E94CD0A8A8190E0E5
:100A5000982F88272981822BD80119969C938E93F1
:100A6000189742E0BE016F5F7F4F8CE80E94CD0A6D
:100A70008A8190E0982F88272981822BF80193871B
:100A8000828742E0BE016F5F7F4F8EE80E94CD0AF1
:100A90008A8190E0982F88272981822BD801179688
:100AA0009C938E93169742E0BE016F5F7F4F80E963
:100AB0000E94CD0A8A8190E0982F88272981822B75
:100AC000F8019587848742E0BE016F5F7F4F82E91E
:100AD0000E94CD0A8A8190E0982F88272981822B55
:100AE000D8011F969C938E931E9742E0BE016F5FC4
:100AF0007F4F84E90E94CD0A8A8190E0982F882751
:100B00002981822BF801918B808B42E0BE016F5FBF
:100B10007F4F86E90E94CD0A8A8190E0982F88272E
:100B20002981822BD80153969C938E93529742E051
:100B3000BE016F5F7F4F88E90E94CD0A8A8190E0F5
:100B4000982F88272981822BF801958B848B42E08E
:100B5000BE016F5F7F4F8AE90E94CD0A8A8190E0D3
:100B6000982F88272981822BD80157969C938E93A2
:100B7000569742E0BE016F5F7F4F8CE90E94CD0A1D
:100B80008A8190E0982F88272981822BF801918F04
:100B9000808F42E0BE016F5F7F4F8EE90E94CD0AD9
:100BA0008A8190E0982F88272981822BD8015B9633
:100BB0009C938E935A97ED91FC910190F081E02DDA
:100BC00061E0C801099581E00F900F90DF91CF910E
:100BD0001F910F9108952FB7F8946091DC047091E4
:100BE000DD048091DE049091DF042FBF08951F92F1
:100BF0000F920FB60F9211242F933F938F939F93D1
:100C0000AF93BF938091DC049091DD04A091DE044A
:100C1000B091DF043091DB0423E0230F2D3720F463
:100C20000196A11DB11D05C026E8230F0296A11D46
:100C3000B11D2093DB048093DC049093DD04A0932A
:100C4000DE04B093DF048091E0049091E104A09170
:100C5000E204B091E3040196A11DB11D8093E0046C
:100C60009093E104A093E204B093E304BF91AF91A9
:100C70009F918F913F912F910F900FBE0F901F90DA
:100C80001895DF92EF92FF920F931F93CF93DF930C
:100C90001F92CDB7DEB7F82E890181E080932B0536
:100CA000F0924C051092EB051092EA0586E896E06A
:100CB00049830E94030380E00E94250A4981642F32
:100CC0008F2D0E94820A80E03091EC059091ED0515
:100CD000391771F0DD24D394D80E7801E80EF11C99
:100CE00086E896E00E94BF02F70180838D2DECCF4D
:100CF0000F90DF91CF911F910F91FF90EF90DF90B8
:100D00000895CF93C82F81E080932B05C0934C05A5
:100D10001092EB051092EA0586E896E00E94030324
:100D200080E00E94250A61E08C2F0E94820A86E8FA
:100D300096E00E94BF02CF9108951F93CF93DF9357
:100D4000DC01209152062C3098F481E0820F8093D0
:100D500052062C9330E0F901EE0FFF1F2E0F3F1FBC
:100D6000F901E25DF94F88EB9BE09283818302C039
:100D70008FEF8C9313961C92139715961C921E92CC
:100D8000149717961C921E92169719961C921E92F3
:100D900018971B965C934E931A978C918C3008F0A1
:100DA00050C0162FED0161E0812F0E94160488814A
:100DB000E82FF0E09F01220F331FE20FF31FE25DE7
:100DC000F94F1F736081607C162B108319821A8281
:100DD0006CE00E945F299CE0899FB001112440E0F3
:100DE00050E09A01260F371FF901EE0FFF1F2E0F5B
:100DF0003F1FF901E25DF94F908196FD16C04F5FEC
:100E00005F4F4C30510569F781110FC0109280007F
:100E100082E0809381001092850010928400B19A44
:100E200080916F00826080936F00E881F0E0CF01D5
:100E3000880F991FE80FF91FE25DF94F80818064E8
:100E40008083DF91CF911F9108951F920F920FB66B
:100E50000F9211242F933F934F935F936F937F9340
:100E60008F939F93AF93BF93EF93FF938091DA0497
:100E700087FF05C010928500109284001BC020914E
:100E8000DA04022E000C330B8091520690E02817F2
:100E9000390784F48091DA04082E000C990BFC01C8
:100EA000EE0FFF1F8E0F9F1FFC01E25DF94F808147
:100EB00086FD15C08091DA048F5F8093DA0420915B
:100EC000DA04022E000C330B8091520690E02817B2
:100ED0003907C4F48091DA048C3064F113C0809136
:100EE000DA04082E000C990BFC01EE0FFF1F8E0F89
:100EF0009F1FFC01E25DF94F808160E08F730E94CB
:100F0000CA03D8CF809184009091850004968034E4
:100F10009C4918F480E49CE905C08091840090917C
:100F20008500049690938900809388008FEF8093CA
:100F3000DA043BC020918400309185008091DA046E
:100F4000082E000C990BFC01EE0FFF1F8E0F9F1F48
:100F5000FC01E25DF94F81819281820F931F909392
:100F60008900809388008091DA04082E000C990B88
:100F7000FC01EE0FFF1F8E0F9F1FFC01E25DF94F7A
:100F8000808186FF12C08091DA04082E000C990B34
:100F9000FC01EE0FFF1F8E0F9F1FFC01E25DF94F5A
:100FA000808161E08F730E94CA03FF91EF91BF912E
:100FB000AF919F918F917F916F915F914F913F91F1
:100FC0002F910F900FBE0F901F9018951F920F92A8
:100FD0000FB60F9211242F933F934F935F936F930C
:100FE0007F938F939F93AF93BF93EF93FF93E09182
:100FF0006E03F0916F03309709F451C0968DA6856A
:10100000B785858591FF04C09C91892329F447C049
:101010009C91892309F043C0A389B4899C91858957
:10102000809589238C93868997890197F1F7608D44
:10103000718DA685B785558538E020E0CB010197F5
:10104000F1F7822F90E095958795282F4C914523B5
:1010500009F02068315091F7868D81FD20958091AF
:101060006D0390E001968F73992730916C033817C8
:1010700049F0A0916D03B0E0A656BB4F2C9380932E
:101080006D0303C0868D8160868F828D938D01975D
:10109000F1F7A389B4899C918589892B8C93FF9161
:1010A000EF91BF91AF919F918F917F916F915F91E0
:1010B0004F913F912F910F900FBE0F901F90189559
:1010C000E0916E03F0916F03E817F90769F4A389C3
:1010D000B4899C918589809589238C9310926F03A4
:1010E00010926E0381E0089580E008951F920F92A0
:1010F0000FB60F9211242F933F934F935F936F93EB
:101100007F938F939F93AF93BF93EF93FF938091C0
:10111000B900887F803609F49CC068F5883209F4EC
:101120005BC090F4803109F454C038F4882309F48A
:10113000F6C0883009F44DC0F6C0883109F44CC0BF
:10114000803209F45DC0EFC0803409F468C048F40F
:10115000803309F455C0883309F0E5C08093280531
:10116000D8C0803509F44FC0883509F45DC0883493
:1011700009F0D9C0D6C0883909F4C7C0A8F48837A7
:1011800009F467C038F4883609F463C0803709F47D
:1011900060C0C9C0883809F4B8C0803909F45FC09C
:1011A000803809F0C0C05BC0803B09F486C038F4C9
:1011B000803A09F466C0883A09F47FC0B4C0803C24
:1011C00009F4A7C0883C09F4A4C0883B09F48AC08C
:1011D000AAC08091050510C0909127058091260531
:1011E000981770F5E091270581E08E0F8093270511
:1011F000F0E0EA5FFA4F80818093BB0085EC86C007
:10120000809328058EC0E091270581E08E0F8093A2
:1012100027058091BB00F0E0EA5FFA4F8083909150
:101220002705809126056EC0E091270581E08E0F8D
:10123000809327058091BB00F0E0EA5FFA4F80833E
:101240008091290581116DC081E08093040584EAB5
:1012500061C083E080932A0510929904CFCF8091DA
:101260009904803208F051C0E091990481E08E0F1A
:10127000809399048091BB00F0E0E758FB4F808396
:10128000BDCF85EC8093BC0010922A058091990413
:10129000803230F4E0919904F0E0E758FB4F10827F
:1012A0006091990470E0E0917704F091780489E707
:1012B00094E009951092990436C084E080932A0541
:1012C0001092760410927504E0917304F091740406
:1012D000099580917504811105C081E080937504A2
:1012E00010925304E091760481E08E0F809376048F
:1012F000F0E0ED5AFB4F80818093BB009091760423
:1013000080917504981708F479CF85E88093BC0024
:101310000AC085EC8093BC0010922A0504C010928C
:1013200028050E947D02FF91EF91BF91AF919F919F
:101330008F917F916F915F914F913F912F910F907E
:101340000FBE0F901F90189510922A0581E0809390
:1013500029051092040561E082E10E94CA0361E060
:1013600083E10E94CA03E9EBF0E080818E7F8083F5
:1013700080818D7F808388E48093B80085E48093AA
:10138000BC000895009769F0FC0101900020E9F786
:101390003197AF01481B590BBC018DE495E00C94CB
:1013A000410D80E090E008958F929F92AF92BF929E
:1013B0000F931F93CF93DF93CDB7DEB7A1970FB6EF
:1013C000F894DEBF0FBECDBF19A2423008F44AE048
:1013D0008E010F5D1F4F842E912CA12CB12CA501E5
:1013E00094010E941D31E62FB901CA010150110973
:1013F000EA3014F4E05D01C0E95CD801EC93232BE2
:10140000242B252B61F7C8010E94C209A1960FB6B3
:10141000F894DEBF0FBECDBFDF91CF911F910F912A
:10142000BF90AF909F908F9008950C94C209CF9376
:10143000DF930E94C209EC018DE791E00E94C2098E
:101440008C0F9D1FDF91CF910895382F2091EA05D1
:1014500090914C05213208F049C080912A058111F4
:10146000FCCF42E040932A05309329053FEF3093AB
:1014700028051092270520932605ACE2B5E046E04A
:1014800055E0FA013E2F341B321718F43D91319389
:10149000F9CF1092050520910505990F922B909395
:1014A000050590910405913061F410920405909126
:1014B00005059093BB009091BC0093FDF8CF95EC8F
:1014C00001C095EE9093BC0090912A059230E1F313
:1014D000909128059F3F79F080912805803241F056
:1014E00080912805803331F084E005C081E003C09D
:1014F00082E001C083E01092EB051092EA051092A1
:101500002B05089590912A059111FCCF613208F0C6
:1015100060E291E090932A05909329052FEF2093A4
:10152000280510922705260F209326059093050580
:1015300090910505880F892B8093050580910405FE
:10154000813061F410920405809105058093BB0001
:101550008091BC0083FDF8CF85EC01C085EE8093BF
:10156000BC0080912A058130E1F380912705861720
:1015700010F460912705A6E0B5E024EE34E0F9010F
:101580008E2F821B861718F48D918193F9CF1092BC
:10159000ED056093EC05862F0895DF92EF92FF92A0
:1015A0000F931F93CF93DF931F92CDB7DEB78B01BD
:1015B00091E090932B0596E790934C051092EB05E4
:1015C0001092EA05682F86E896E049830E9403039B
:1015D00080E00E94250A4981442309F1642F86E7AF
:1015E0000E94820AD12C9091EC058091ED0598170C
:1015F00059F07801ED0CF11C86E896E00E94BF02DC
:10160000F7018083D394EFCF81E00F90DF91CF91EA
:101610001F910F91FF90EF90DF900C94250A0F908F
:10162000DF91CF911F910F91FF90EF90DF90089580
:10163000FF920F931F93CF93DF931F92CDB7DEB727
:10164000F82E162F042F41E0BE016F5F7F4F0E94DE
:10165000CD0A812F8095998198230123192F102B72
:10166000198381E080932B0586E780934C051092C7
:10167000EB051092EA056F2D86E896E00E940303C1
:10168000612F86E896E00E94030381E00E94250A0C
:101690000F90DF91CF911F910F91FF9008952F929E
:1016A0003F924F925F926F927F928F929F92AF92F2
:1016B000BF92CF92DF92EF92FF920F931F93CF933F
:1016C000DF93CDB7DEB728970FB6F894DEBF0FBE15
:1016D000CDBF8C0143E0BE016F5F7F4F87EF0E945B
:1016E000CD0AE981EC83FA81FD83EB81EE83C09022
:1016F0000A06D0900B06E0900C06F0900D06F594CB
:10170000E794D794C794FAEFDF1AE108F108C7010C
:10171000B60152E095958795779567955A95D1F7DB
:101720009B01AC010E944F292B013C01E091020674
:10173000F091030620900006309001062091FE05EE
:101740003091FF0538872F83A091FC05B091FD05EE
:101750009B01AC016DE055954795379527956A95A6
:10176000D1F70E94DE304B015C0173E0B594A79481
:10177000979487947A95D1F7A091FA05B091FB05DB
:10178000A70196010E94DE30DC01CB01B595A7953B
:1017900097958795880D991DAA1DBB1D32E1B595BA
:1017A000A795979587953A95D1F79C01AD0130584B
:1017B0004F4F5F4FA091F405B091F5050E94D330D3
:1017C0004B015C014FE0B594A794979487944A9598
:1017D000D1F781149104A104B10409F4F1C0A3016B
:1017E00092016BE055954795379527956A95D1F706
:1017F000DF010E94DE302B013C01D101A7019601DF
:101800000E94DE30DC01CB01880F991FAA1FBB1F8D
:10181000480E591E6A1E7B1EE2E075946794579429
:101820004794EA95D1F7ED81CE2ED12CFC81DF2AA9
:10183000E12CF12CF4E0CC0CDD1CEE1CFF1CFA9525
:10184000D1F7EE814E2F50E0CA01A4E0959587951F
:10185000AA95E1F7092E000CAA0BBB0BC82AD92ABE
:10186000EA2AFB2A44275527BA014C195D096E095B
:101870007F09EF81F885CF01FF0FAA0BBB0BDC01BD
:1018800099278827480E591E6A1E7B1E3CE07594D6
:101890006794579447943A95D1F79A01AB0124196C
:1018A000350946095709A5E3BCE00E94D330805BA7
:1018B0009C43F801608371838283938397FD0EC0FC
:1018C000660F771F881F991FA50194010E941D3183
:1018D000F80120833183428353830FC0A501940113
:1018E0000E941D31DA01C901880F991FAA1FBB1F71
:1018F000F80180839183A283B383F801C080D180F3
:10190000E280F380C701B60123E09695879577952D
:1019100067952A95D1F7E0910806F09109069B0199
:10192000AC010E944F299B01AC016DE05695479593
:10193000379527956A95D1F7DF010E94DE304B017C
:101940005C017CE0B594A794979487947A95D1F73D
:10195000A7019601E2E05695479537952795EA95B8
:10196000D1F7A0910606B09107060E94DE30DC0197
:10197000CB01FDE0B595A79597958795FA95D1F799
:10198000880D991DAA1DBB1D4091040650910506A6
:10199000052E000C660B770B840F951FA61FB71F33
:1019A00024E0B595A795979587952A95D1F78C0D45
:1019B0009D1DAE1DBF1DF80180839183A283B3835B
:1019C00028960FB6F894DEBF0FBECDBFDF91CF9142
:1019D0001F910F91FF90EF90DF90CF90BF90AF904D
:1019E0009F908F907F906F905F904F903F902F903F
:1019F00008950F931F93CF93DF93EC018881998112
:101A0000009729F02A813B812617370788F48B013C
:101A10006F5F7F4F0E947C2E009761F099838883CF
:101A20001B830A832C813D81232B11F4FC0110823E
:101A300081E001C080E0DF91CF911F910F91089567
:101A4000EF92FF920F931F93CF93DF93EC017B01F3
:101A50008A01BA010E94F90C811104C0CE010E94D2
:101A60006C0D07C01D830C83B701888199810E948A
:101A7000542FCE01DF91CF911F910F91FF90EF90E6
:101A80000895CF92DF92EF92FF920F931F93CF931F
:101A9000DF936C017A018B01C0E0D0E0CE15DF0549
:101AA00089F0D8016D918D01D601ED91FC910190E5
:101AB000F081E02DC6010995892B11F47E0102C049
:101AC0002196ECCFC701DF91CF911F910F91FF902D
:101AD000EF90DF90CF900895CF93DF93EC01888152
:101AE0009981009711F00E94E42D198218821D82BD
:101AF0001C821B821A82DF91CF910895CF93DF93CE
:101B0000CDB7DEB7C45CD1090FB6F894DEBF0FBE07
:101B1000CDBF789484B5826084BD84B5816084BD76
:101B200085B5826085BD85B5816085BD80916E007B
:101B3000816080936E0010928100809181008260AC
:101B400080938100809181008160809381008091E9
:101B500080008160809380008091B10084608093D8
:101B6000B1008091B00081608093B00080917A00D4
:101B7000846080937A0080917A00826080937A00FA
:101B800080917A00816080937A0080917A008068E9
:101B900080937A001092C100E0915D05F0915E059E
:101BA00082E08083E0915905F0915A051082E0911E
:101BB0005B05F0915C058FEC808310926505E091E8
:101BC0006105F091620576E0F72EF082E0915F0505
:101BD000F0916005808180618083E0915F05F091E4
:101BE0006005808188608083E0915F05F0916005E9
:101BF000808180688083E0915F05F091600580813D
:101C00008F7D80831092ED051092EC051092EB050C
:101C10001092EA050E94A409109247041092480409
:101C20001092490410924A0460E082E00E94160477
:101C300060E082E00E94CA0365E788E60E948106B0
:101C4000182F80E691E00E94150A89E691E00E9433
:101C5000150A812E912CA12CB12C40E1C501B401B3
:101C60000E94D4098FE691E00E94150A40E161E7E5
:101C700070E080E090E00E94D4098DE791E00E943E
:101C8000C20964E670E080E090E00E9477041137BA
:101C900011F00C94B51680E891E00E94170A8E01AD
:101CA000075B1F4FD8011D92FA94E9F78CE06E0193
:101CB000BDE3CB0ED11CF601282F11922A95E9F72E
:101CC0002E0131E3430E511CD201E82F1D92EA95FB
:101CD000E9F79E012B5D3F4F61963FAF2EAF6197B5
:101CE000D901E82F1D92EA95E9F77E01F9E1EF0E9F
:101CF000F11CD7011D928A95E9F740E069E188E679
:101D00000E940C2742E06AE188E60E940C2741E02D
:101D10006BE188E60E940C2742E06DE188E60E94B4
:101D20000C2741E06CE188E60E940C2768ECA62EA7
:101D3000B12C980146E06BE388E60E944106F80169
:101D4000808190E0982F88272181822B092E000C1A
:101D5000AA0BBB0B49A95AA96BA97CA9840F951F93
:101D6000A61FB71F89AB9AABABABBCAB828190E02F
:101D7000982F88272381822B092E000CAA0BBB0BDE
:101D80004DA95EA96FA978AD840F951FA61FB71F37
:101D90008DAB9EABAFABB8AF848190E0982F882716
:101DA0002581822B092E000CAA0BBB0B49AD5AAD25
:101DB0006BAD7CAD840F951FA61FB71F89AF9AAF7F
:101DC000ABAFBCAF980146E063E488E60E944106F1
:101DD000D8018C9190E0982F882711962C91822B16
:101DE000092E000CAA0BBB0BF601408151816281C8
:101DF0007381840F951FA61FB71F80839183A283D1
:101E0000B383D80112968C91129790E0982F88276F
:101E100013962C91822B092E000CAA0BBB0B259636
:101E20004CAD5DAD6EAD7FAD2597840F951FA61FA0
:101E3000B71F25968CAF9DAFAEAFBFAF2597F8010A
:101E4000848190E0982F88272581822B092E000C11
:101E5000AA0BBB0B29964CAD5DAD6EAD7FAD29973E
:101E6000840F951FA61FB71F29968CAF9DAFAEAFED
:101E7000BFAF2997F1E0AF1AB10809F05ACF6796C2
:101E80005FAE4EAE67976B96DFAECEAE6B97639646
:101E9000DFAECEAE63975201F8EC6F2E712C812C21
:101EA000912CD5016D917D918D919C91A40193010F
:101EB0000E94B430F50121933193419351935F0116
:101EC0006396AEADBFAD63976D917D918D919C9101
:101ED000A40193010E94B4306396EEADFFAD639709
:101EE00021933193419351936396FFAFEEAF639784
:101EF000AC14BD04B1F640EE6CE188E60E940C27FC
:101F000040EE6BE188E60E940C2769E170E080E01A
:101F100090E00E947704E8ECCE2ED12C980146E0A8
:101F20006BE388E60E944106D8018C9190E0982FDF
:101F3000882711962C91822B092E000CAA0BBB0B23
:101F40004DA15EA16FA178A5840F951FA61FB71F95
:101F50008DA39EA3AFA3B8A7F801828190E0982F2C
:101F600088272381822B092E000CAA0BBB0B49A5C5
:101F70005AA56BA57CA5840F951FA61FB71F89A71F
:101F80009AA7ABA7BCA7848190E0982F88272581CA
:101F9000822B092E000CAA0BBB0B4DA55EA56FA5CD
:101FA00078A9840F951FA61FB71F8DA79EA7AFA75F
:101FB000B8AB980146E063E488E60E944106D80188
:101FC0008C9190E0982F882711962C91822B092EC6
:101FD000000CAA0BBB0B498D5A8D6B8D7C8D840F29
:101FE000951FA61FB71F898F9A8FAB8FBC8FF801E3
:101FF000828190E0982F88272381822B092E000C64
:10200000AA0BBB0B4D8D5E8D6F8D78A1840F951F34
:10201000A61FB71F8D8F9E8FAF8FB8A3848190E0CE
:10202000982F88272581822B092E000CAA0BBB0B29
:1020300049A15AA16BA17CA1840F951FA61FB71FB0
:1020400089A39AA3ABA3BCA3F1E0CF1AD10809F0EE
:1020500065CF8E010B5D1F4F37016396FFAEEEAE6D
:102060006397680188EC882E912CA12CB12CD601A5
:102070006D917D918D919C91A50194010E94B43048
:10208000F60121933193419351936F016396AEAD65
:10209000BFAD63976D917D918D919C91A501940148
:1020A0000E94B4306396EEADFFAD639721933193F8
:1020B000419351936396FFAFEEAF6397C414D50479
:1020C000B1F640E06CE188E60E940C2740E06BE14D
:1020D00088E60E940C2769E170E080E090E00E94B1
:1020E00077046DE088E60E948106882E6EE088E61F
:1020F0000E948106982E6FE088E60E948106A82E35
:1021000060E088E60E948106B82E61E088E60E94C1
:102110008106C82E62E088E60E948106D82E682DCE
:1021200070E080E090E00E94952F20E030E040E8F1
:102130005FE30E9499299B01AC016EEA77E481E894
:102140009FE30E94A32B20E030EC43E255E40E9481
:10215000F62F69837A838B839C83692D70E080E0FE
:1021600090E00E94952F20E030E040E85FE30E947D
:1021700099299B01AC016EEA77E481E89FE30E9414
:10218000A32B20E030EC43E255E40E94F62F6D8350
:102190007E838F8398876A2D70E080E090E00E94B4
:1021A000952F20E030E040E85FE30E9499299B01F1
:1021B000AC016EEA77E481E89FE30E94A32B20E064
:1021C00030EC43E255E40E94F62F69877A878B87CB
:1021D0009C876B2D70E080E090E00E94952F20E0BE
:1021E00030E040E85FE30E9499299B01AC016EEA70
:1021F00077E481E89FE30E94A32B20E030EC43E2E8
:1022000055E40E94F62F6D877E878F87988B6C2D03
:1022100070E080E090E00E94952F20E030E040E800
:102220005FE30E9499299B01AC016EEA77E481E8A3
:102230009FE30E94A32B20E030EC43E255E40E9490
:10224000F62F698B7A8B8B8B9C8B6D2D70E080E0E9
:1022500090E00E94952F20E030E040E85FE30E948C
:1022600099299B01AC016EEA77E481E89FE30E9423
:10227000A32B20E030EC43E255E40E94F62F6D8B57
:102280007E8B8F8B988F9E012F5F3F4F5901B8E84F
:10229000CB2EB3E0DB2E812C912CF8018191919112
:1022A000A191B1918F016796EEADFFAD6797219136
:1022B0003191419151916796FFAFEEAF6797BC01A5
:1022C000CD01621B730B840B950B0E94972F20E0AE
:1022D00030E048EC52E40E94F62FD5012D913D915B
:1022E0004D915C910E94932A20E030E048EC52E44A
:1022F0000E949929F6016083718382839383F3019D
:1023000081919191A191B1913F016B96EEADFFAD9D
:102310006B9721913191419151916B96FFAFEEAF47
:102320006B97BC01CD01621B730B840B950B0E9454
:10233000972F20E030E048EC52E40E94F62FD501C0
:102340001C962D913D914D915C911F970E94932A6F
:1023500020E030E048EC52E40E949929F6016487BD
:10236000758786879787FFEF8F1A9F0A24E0A20E52
:10237000B11C34E0C30ED11C43E08416910409F073
:102380008CCF85E991E00E94150A609188037091D5
:10239000890380918A0390918B030E94992883EC92
:1023A00091E00E94170A86ED91E00E94150A609163
:1023B0008C0370918D0380918E0390918F030E9406
:1023C000992883EC91E00E94170A84E092E00E9431
:1023D000150A6091900370919103809192039091FE
:1023E00093030E94992883EC91E00E94170A82E3EC
:1023F00092E00E94150A6091940370919503809178
:102400009603909197030E94992883EC91E00E9493
:10241000170A8CE592E00E94150A6091980370916A
:10242000990380919A0390919B030E94992883ECD1
:1024300091E00E94170A86E892E00E94150A6091D6
:102440009C0370919D0380919E0390919F030E9435
:10245000992883EC91E00E94170A40E86BE688E631
:102460000E940C2764E670E080E090E00E94770410
:1024700041E06BE688E60E940C2740E06CE688E6C7
:102480000E940C2768EC70E080E090E00E947704E6
:1024900040E068E388E60E940C2740E063E288E6BB
:1024A0000E940C2740E06BE688E60E940C2740E083
:1024B00064E288E60E940C2740E06AE688E60E9413
:1024C0000C274CE06AE688E60E940C276FE070E07B
:1024D00080E090E00E94770441E06AE188E60E9493
:1024E0000C2740E069E188E60E940C2740E06BE1A0
:1024F00088E60E940C2740E06CE188E60E940C27E9
:1025000040E46AE688E60E940C2748E763E288E632
:102510000E940C2768E270E080E090E00E9477045F
:1025200040E063E288E60E940C27970142E062E700
:1025300088E60E944106898D90E0982F88272A8D91
:10254000822B6CE070E00E946B298B01412C512C96
:102550003201812C912C540165961CAE1DAE1EAE2D
:102560001FAE6597A1961CAE1DAE1EAE1FAEA19705
:102570006D961CAE1DAE1EAE1FAE6D9769961CAE5D
:102580001DAE1EAE1FAE6997C12CD12CC016D10650
:1025900009F490C09E01275E3F4F4CE064E788E657
:1025A0000E944106898D90E0982F88272A8D822BE2
:1025B000092E000CAA0BBB0B65962CAD3DAD4EADA4
:1025C0005FAD6597280F391F4A1F5B1F65962CAFBB
:1025D0003DAF4EAF5FAF65978B8D90E0982F88270A
:1025E0002C8D822B092E000CAA0BBB0B880E991E7A
:1025F000AA1EBB1E8D8D90E0982F88272E8D822BD2
:10260000092E000CAA0BBB0B480E591E6A1E7B1E1E
:102610008F8D90E0982F882728A1822B092E000CFF
:10262000AA0BBB0B69962CAD3DAD4EAD5FAD699766
:10263000280F391F4A1F5B1F69962CAF3DAF4EAF65
:102640005FAF699789A190E0982F88272AA1822BF4
:10265000092E000CAA0BBB0B6D962CAD3DAD4EADFB
:102660005FAD6D97280F391F4A1F5B1F6D962CAF0A
:102670003DAF4EAF5FAF6D978BA190E0982F88274D
:102680002CA1822B092E000CAA0BBB0BA1962CAD02
:102690003DAD4EAD5FADA197280F391F4A1F5B1F9F
:1026A000A1962CAF3DAF4EAF5FAFA1973FEFC31ADE
:1026B000D30A6CCFE12CF12C65966CAD7DAD8EAD5F
:1026C0009FAD6597A70196010E94B430A9962CAFE3
:1026D0003DAF4EAF5FAFA997C501B401A701960109
:1026E0000E94B430AD962CAF3DAF4EAF5FAFAD970B
:1026F000C301B201A70196010E94B43049015A01F9
:1027000069966CAD7DAD8EAD9FAD6997A7019601C1
:102710000E94B43029013A016D966CAD7DAD8EAD4D
:102720009FAD6D97A70196010E94B43069962CAFBA
:102730003DAF4EAF5FAF6997A1966CAD7DAD8EADED
:102740009FADA197A70196010E94B4306D962CAF62
:102750003DAF4EAF5FAF6D97181419041A041B04F8
:1027600064F4D501C4019054A109B10965968CAFF8
:102770009DAFAEAFBFAF65970BC0A5019401305CB4
:102780004F4F5F4F65962CAF3DAF4EAF5FAF659734
:1027900004E0C02ED12CE12CF12CC301B201A70121
:1027A00096010E94B43050954095309521953F4F49
:1027B0004F4F5F4FBB2757FDBA95A52F942F832FFF
:1027C000A1968CAF9DAFAEAFBFAFA197898F2A8F77
:1027D00069966CAD7DAD8EAD9FAD6997A7019601F1
:1027E0000E94B43050954095309521953F4F4F4F02
:1027F0005F4F3B8F2C8F6D966CAD7DAD8EAD9FADD9
:102800006D97A70196010E94B43050954095309580
:1028100021953F4F4F4F5F4F3D8F2E8F6E964FAD9F
:102820006E9763E188E60E940C274A8D64E188E692
:102830000E940C274B8D65E188E60E940C274C8D89
:1028400066E188E60E940C274D8D67E188E60E94CC
:102850000C274E8D68E188E60E940C27C301B20167
:102860000E94972F20E030E043E053E40E94932A37
:1028700060937C0370937D0380937E0390937F032A
:1028800069966CAD7DAD8EAD9FAD69970E94972F17
:1028900020E030E043E053E40E94932A60938003F9
:1028A0007093810380938203909383036D966CAD44
:1028B0007DAD8EAD9FAD6D970E94972F20E030E0EB
:1028C00043E053E40E94932A60938403709385034A
:1028D00080938603909387039E01275E3F4F42E0DB
:1028E00067E788E60E944106498C512C542C442409
:1028F0008A8D482A052C000C6608770849825A827E
:102900006B827C829E01275E3F4F42E06AE788E649
:102910000E944106C98CD12CDC2CCC248A8DC82A7B
:102920000D2C000CEE08FF08CD82DE82EF82F886C7
:102930009E01275E3F4F42E06DE788E60E94410618
:10294000898D90E0982F88272A8D822B9C01990FE2
:10295000440B550B69962CAF3DAF4EAF5FAF6997F7
:1029600029873A874B875C871DA21EA21FA2FE0102
:102970003196DE019596CE010D9621E0419151915F
:102980006191719140FD2C931196E817F907B1F709
:10299000B8E08B2E912CA12CB12CA9966CAD7DADFD
:1029A0008EAD9FADA997A50194010E94B430421A43
:1029B000530A640A750AAD966CAD7DAD8EAD9FADC0
:1029C000AD97A50194010E94B430C21AD30AE40A5B
:1029D000F50A65966CAD7DAD8EAD9FAD6597A50191
:1029E00094010E94B43069968CAD9DADAEADBFAD83
:1029F0006997821B930BA40BB50B772777FC7A950D
:102A0000672D562D452D498F2DA1422A4A8EDB8EEA
:102A10002EA1C22ACC8E9D8F2FA1822B8E8F67E78D
:102A200088E60E940C274A8D68E788E60E940C27FA
:102A30004B8D6AE788E60E940C274C8D6BE788E691
:102A40000E940C274D8D6DE788E60E940C274E8D65
:102A50006EE788E60E940C27A9966CAD7DAD8EAD21
:102A60009FADA9970E94972F20E030E040E858E3FF
:102A70000E94F62F6093700370937103809372032A
:102A800090937303AD966CAD7DAD8EAD9FADAD975C
:102A90000E94972F20E030E040E858E30E94F62F94
:102AA0006093740370937503809376039093770318
:102AB00065966CAD7DAD8EAD9FAD65970E94972FED
:102AC00020E030E040E858E30E94F62F609378035E
:102AD0007093790380937A0390937B0340E06BE6D5
:102AE00088E60E940C2764E670E080E090E00E9497
:102AF000770441E06BE688E60E940C2768EC70E002
:102B000080E090E00E94770443E06AE188E60E945A
:102B10000C2744E069E188E60E940C276BE188E617
:102B20000E948106482F457E6BE188E60E940C27B3
:102B30006CE188E60E948106482F477E6CE188E6BA
:102B40000E940C276DE188E60E948106807F482F55
:102B500043606DE188E60E940C2742E267E388E665
:102B60000E940C2741E068E388E60E940C2764E697
:102B700070E080E090E00E94770480EB92E00E9499
:102B8000170A60E08CE00E948106182F8DED92E01C
:102B90000E94150A89E691E00E94150A612F70E0F3
:102BA00080E090E040E10E94D4098FE691E00E942D
:102BB000150A40E168E470E080E090E00E94D409EA
:102BC0008DE791E00E94C20964E670E080E090E049
:102BD0000E94770440E06AE08CE00E940C276AE0E3
:102BE00070E080E090E00E9477044FE06AE08CE0C3
:102BF0000E940C276AE070E080E090E00E94770479
:102C00009E012F5F3F4F43E060E18CE00E94410650
:102C1000698170E060587109072E000C880B990BD0
:102C20000E94972F20E030E040E85BE30E94F62FFF
:102C300020E030E040E85FE30E949A296093ED03D2
:102C40007093EE038093EF039093F0036A8170E03A
:102C500060587109072E000C880B990B0E94972F62
:102C600020E030E040E85BE30E94F62F20E030E017
:102C700040E85FE30E949A296093F1037093F203A6
:102C80008093F3039093F4036B8170E060587109B3
:102C9000072E000C880B990B0E94972F20E030E044
:102CA00040E85BE30E94F62F20E030E040E85FE37D
:102CB0000E949A296093F5037093F6038093F703BB
:102CC0009093F80340E06AE08CE00E940C276AE0F1
:102CD00070E080E090E00E94770442E16AE08CE0DE
:102CE0000E940C276AE070E080E090E00E94770488
:102CF00085EE92E00E94170A64E670E080E090E0C2
:102D00000E94770481E193E00E94150A8EEE95E01F
:102D10000E94CF04882321F180E293E00E94170AE9
:102D200060E08EEE95E00E9469038EEE95E00E94D1
:102D3000610310922A06109229061092280610921A
:102D4000270610922606109225068FE190E09093B8
:102D50002C0680932B0690911B069631A0F06AC03A
:102D60008DE293E00E94170AFFCF8CE393E00E946C
:102D7000150A40E1C501B4010E94D4098DE791E034
:102D80000E94C209FFCF21E030E030932606209355
:102D900025062DE130E030932806209327062DE00C
:102DA00030E030932A06209329062091680098305D
:102DB00050F031E09E3008F430E081E001C0880F2F
:102DC0003A95EAF701C084E0822B8093680098303E
:102DD00038F09E3040F0963148F020E030E008C0F6
:102DE0002DE630E005C02BE630E002C02CE630E0F6
:102DF0003093230620932206983030F481E001C0FE
:102E0000880F9A95EAF70EC0292F30E09E3018F40B
:102E10002850310902C02E50310981E001C0880FCD
:102E20002A95EAF78093240680912B0690912C0630
:102E30000197F1F78091290690912A06892B21F1BB
:102E400080916E0390916F0336E08F309307E1F02D
:102E5000009711F00E94600880912D068E7F80936C
:102E60002D0610926D0310926C038FE096E0909304
:102E70006F0380936E03E0912206F0912306908108
:102E800080912406892B808342E050E069E0CE01E6
:102E900001960E949D068CE0FE013196A6E5B6E003
:102EA00001900D928A95E1F743E050E069E0CE0190
:102EB00001960E949D068CE0FE013196A2E6B6E0E6
:102EC00001900D928A95E1F740E050E069E0CE0173
:102ED00001960E949D068CE0FE013196AEE6B6E0BA
:102EE00001900D928A95E1F741E050E069E0CE0152
:102EF00001960E949D068CE0FE013196AAE7B6E09D
:102F000001900D928A95E1F78E010F5F1F4F6AE3E2
:102F100088E60E94810680FFADC1980146E06BE320
:102F200088E60E944106698170E0762F66278A81D3
:102F3000682B7093360460933504CB80D12CDC2C45
:102F4000CC248C81C82AD0923804C0923704ED80FA
:102F5000F12CFE2CEE248E81E82AF0923A04E092C5
:102F6000390480E090E0A0E8B8E3809331049093C6
:102F70003204A0933304B0933404072E000C880B62
:102F8000990B0E94972F20E030E040E858E30E9420
:102F9000F62F60932D0470932E0480932F0490934A
:102FA0003004B601DD0C880B990B0E94972F20E0AE
:102FB00030E040E858E30E94F62F609329047093B4
:102FC0002A0480932B0490932C04B701FF0C880BE8
:102FD000990B0E94972F20E030E040E858E30E94D0
:102FE000F62F609325047093260480932704909312
:102FF0002804980146E063E488E60E94410669815E
:1030000070E0762F66278A81682B70932004609386
:103010001F04CB80D12CDC2CCC248C81C82AD092EC
:103020002204C0922104ED80F12CFE2CEE248E812E
:10303000E82AF0922404E092230420E030E04AEFF2
:103040005BE320931B0430931C0440931D045093B6
:103050001E04072E000C880B990B0E94972F20E06E
:1030600030E04AEF5BE30E94F62F60931704709301
:1030700018048093190490931A04B601DD0C880B90
:10308000990B0E94972F20E030E04AEF5BE30E940B
:10309000F62F609313047093140480931504909397
:1030A0001604B701FF0C880B990B0E94972F20E0A4
:1030B00030E04AEF5BE30E94F62F60930F047093B9
:1030C0001004809311049093120462E08CE00E943B
:1030D000810680FF27C0980147E063E08CE00E94F2
:1030E00041068F8183FD1EC08A8190E0982F88273A
:1030F0002981822B90930A04809309048C8190E0AB
:10310000982F88272B81822B90930C0480930B049B
:103110008E8190E0982F88272D81822B90930E042A
:1031200080930D048FEF9BEEAFEBBFE38093F90329
:103130009093FA03A093FB03B093FC0320E030E0EC
:103140004BEE53E42093FD033093FE034093FF03C3
:103150005093000480E090E0A0EFB2E4809301047B
:1031600090930204A0930304B093040420E030E0A1
:103170004AEF52E420930504309306044093070479
:10318000509308046091090470910A04072E000C02
:10319000880B990B0E94972F2FEF3BEE4FEB5FE3CD
:1031A0000E94F62F2091ED033091EE034091EF0342
:1031B0005091F0030E94F62F20E030E04BEE53E4F4
:1031C0000E9499296093E9037093EA038093EB03CB
:1031D0009093EC0360910B0470910C04072E000C8B
:1031E000880B990B0E94972F2FEF3BEE4FEB5FE37D
:1031F0000E94F62F2091F1033091F2034091F303E6
:103200005091F4030E94F62F20E030E040EF52E4AA
:103210000E9499296093E5037093E6038093E70386
:103220009093E80360910D0470910E04072E000C3A
:10323000880B990B0E94972F2FEF3BEE4FEB5FE32C
:103240000E94F62F2091F5033091F6034091F70389
:103250005091F8030E94F62F20E030E04AEF52E44C
:103260000E9499296093E1037093E2038093E30342
:103270009093E4030E9452046B017C016093DD0390
:103280007093DE038093DF039093E0038091D90372
:103290009091DA03A091DB03B091DC03A7019601C2
:1032A000281B390B4A0B5B0BCA01B9010E94952FF1
:1032B00020E034E244E759E40E94932AC357DF4FE9
:1032C000688379838A839B83CD58D0406093D503EC
:1032D0007093D6038093D7039093D803C092D903F9
:1032E000D092DA03E092DB03F092DC039B01AC01A5
:1032F0006091D1037091D2038091D3039091D40354
:103300000E949A296093D1037093D2038093D303D0
:103310009093D4038091CD039091CE03A091CF03DD
:10332000B091D0030196A11DB11D8093CD03909360
:10333000CE03A093CF03B093D0038091E10390918B
:10334000E203A091E303B091E403E1968CAF9DAF5B
:10335000AEAFBFAFE1972091E9033091EA0340910E
:10336000EB035091EC03AD962CAF3DAF4EAF5FAF8A
:10337000AD978091E5039091E603A091E703B091AA
:10338000E803A9968CAF9DAFAEAFBFAFA9972091D0
:103390000F04309110044091110450911204CB5449
:1033A000DF4F288339834A835B83C55BD04080919C
:1033B000130490911404A0911504B0911604C754FD
:1033C000DF4F88839983AA83BB83C95BD040209158
:1033D0001704309118044091190450911A04C354F1
:1033E000DF4F288339834A835B83CD5BD040809154
:1033F000250490912604A0912704B0912804A59655
:103400008CAF9DAFAEAFBFAFA597809029049090D1
:103410002A04A0902B04B0902C0440902D045090CE
:103420002E0460902F0470903004209100013091A0
:1034300001014091020150910301A1962CAF3DAFD3
:103440004EAF5FAFA1978091040190910501A091CB
:103450000601B091070165968CAF9DAFAEAFBFAFCF
:103460006597209108013091090140910A0150911E
:103470000B0169962CAF3DAF4EAF5FAF699780915E
:103480000C0190910D01A0910E01B0910F016D966C
:103490008CAF9DAFAEAFBFAF6D97A3019201C301DB
:1034A000B2010E94F62F6B017C01A5019401C501B8
:1034B000B4010E94F62F9B01AC01C701B6010E9426
:1034C0009A296B017C01A5962CAD3DAD4EAD5FAD4B
:1034D000A597CA01B9010E94F62F9B01AC01C70153
:1034E000B6010E949A290E94F92B6B017C0120E011
:1034F00030E0A9010E94902F882309F44AC7A70150
:10350000960160E070E080E89FE30E94932A6B01DF
:103510007C019B01AC01C301B2010E94F62FCB5686
:10352000DF4F688379838A839B83C559D040A70185
:103530009601C501B4010E94F62FC756DF4F68837C
:1035400079838A839B83C959D040A7019601A596A8
:103550006CAD7DAD8EAD9FADA5970E94F62FC35685
:10356000DF4F688379838A839B83CD59D040A996A6
:103570002CAD3DAD4EAD5FADA997CA01B9010E941A
:10358000F62F6B017C01AD962CAD3DAD4EAD5FAD20
:10359000AD97CA01B9010E94F62F9B01AC01C7018A
:1035A000B6010E949A296B017C01E1962CAD3DADDC
:1035B0004EAD5FADE197CA01B9010E94F62F9B01A4
:1035C000AC01C701B6010E949A290E94F92B4B0158
:1035D0005C0120E030E0A9010E94902F882309F4CB
:1035E000D8C665962CAD3DAD4EAD5FAD6597A19645
:1035F0006CAD7DAD8EAD9FADA1970E94F62FCF57DC
:10360000DF4F688379838A839B83C158D040699652
:103610002CAD3DAD4EAD5FAD6997A1966CAD7DAD66
:103620008EAD9FADA1970E94F62FA5966CAF7DAF92
:103630008EAF9FAFA5976D962CAD3DAD4EAD5FADF6
:103640006D97A1966CAD7DAD8EAD9FADA1970E949B
:10365000F62FCB57DF4F688379838A839B83C558C6
:10366000D04065962CAD3DAD4EAD5FAD6597CA01BE
:10367000B9010E94F62FCF55DF4F688379838A8383
:103680009B83C15AD04069962CAD3DAD4EAD5FAD28
:10369000699765966CAD7DAD8EAD9FAD65970E94C7
:1036A000F62F6B017C016D962CAD3DAD4EAD5FAD3F
:1036B0006D9765966CAD7DAD8EAD9FAD65970E94A3
:1036C000F62FC757DF4F688379838A839B83C95856
:1036D000D04069962CAD3DAD4EAD5FAD6997CA0146
:1036E000B9010E94F62FE9966CAF7DAF8EAF9FAF08
:1036F000E9976D962CAD3DAD4EAD5FAD6D9769967A
:103700006CAD7DAD8EAD9FAD69970E94F62FCB5508
:10371000DF4F688379838A839B83C55AD0406D9637
:103720002CAD3DAD4EAD5FAD6D97CA01B9010E94A4
:10373000F62FE5966CAF7DAF8EAF9FAFE597A501F5
:10374000940160E070E080E89FE30E94932A4B01BF
:103750005C019B01AC01A9966CAD7DAD8EAD9FADBA
:10376000A9970E94F62FA9966CAF7DAF8EAF9FAF41
:10377000A997A5019401AD966CAD7DAD8EAD9FADC1
:10378000AD970E94F62FAD966CAF7DAF8EAF9FAF19
:10379000AD97A5019401E1966CAD7DAD8EAD9FAD69
:1037A000E1970E94F62FE1966CAF7DAF8EAF9FAF91
:1037B000E197A9962CAD3DAD4EAD5FADA997CA017D
:1037C000B9010E949A29ED966CAF7DAF8EAF9FAF85
:1037D000ED97E9962CAD3DAD4EAD5FADE99760E05C
:1037E00070E080E09FE30E949929E5962CAD3DAD05
:1037F0004EAD5FADE5970E949929C755DF4F6883AD
:1038000079838A839B83C95AD040AD962CAD3DAD58
:103810004EAD5FADAD97CA01B9010E949A29C35858
:10382000DF4F688379838A839B83CD57D040CB5702
:10383000DF4F288139814A815B81C558D040C7015B
:10384000B6010E949929C355DF4F688379838A8323
:103850009B83CD5AD040E1962CAD3DAD4EAD5FADD2
:10386000E197CA01B9010E949A29CF56DF4F6883B8
:1038700079838A839B83C159D040A5962CAD3DADF9
:103880004EAD5FADA597C757DF4F688179818A81BB
:103890009B81C958D0400E949A29CF54DF4F68833A
:1038A00079838A839B83C15BD040C755DF4F2881D2
:1038B00039814A815B81C95AD040ED966CAD7DADAE
:1038C0008EAD9FADED970E94F62F4B015C01C35565
:1038D000DF4F288139814A815B81CD5AD040C3585E
:1038E000DF4F688179818A819B81CD57D0400E94CA
:1038F000F62F9B01AC01C501B4010E949A294B012E
:103900005C01CF54DF4F288139814A815B81C15BE3
:10391000D040CF56DF4F688179818A819B81C15920
:10392000D0400E94F62F9B01AC01C501B4010E945A
:103930009A292B013C01CF55DF4F288139814A81DB
:103940005B81C15AD04060E070E080E09FE30E945C
:1039500099294B015C01CB57DF4F288139814A817E
:103960005B81C558D040C701B6010E949A299B01CE
:10397000AC01ED966CAD7DAD8EAD9FADED970E9427
:10398000F62F6B017C01E5962CAD3DAD4EAD5FADE4
:10399000E597C501B4010E9499299B01AC01C35868
:1039A000DF4F688179818A819B81CD57D0400E9409
:1039B000F62F9B01AC01C701B6010E949A296B0149
:1039C0007C01CF57DF4F288139814A815B81C15803
:1039D000D040CB55DF4F688179818A819B81C55A60
:1039E000D0400E9499299B01AC01CF56DF4F6881DE
:1039F00079818A819B81C159D0400E94F62F9B0119
:103A0000AC01C701B6010E949A296B017C01A30198
:103A10009201C301B2010E94F62F2B013C01A701C4
:103A20009601C701B6010E94F62F9B01AC01C301AC
:103A3000B2010E949A290E94F92B6B017C01A59684
:103A40002CAD3DAD4EAD5FADA597C757DF4F68813B
:103A500079818A819B81C958D0400E949929A59675
:103A60006CAF7DAF8EAF9FAFA597CF57DF4F28814B
:103A700039814A815B81C158D040CB55DF4F688185
:103A800079818A819B81C55AD0400E949A292B0155
:103A90003C01E9962CAD3DAD4EAD5FADE997C5015A
:103AA000B4010E949929CF57DF4F688379838A83B5
:103AB0009B83C158D040A5962CAD3DAD4EAD5FADBA
:103AC000A597CA01B9010E949A29CB57DF4F688395
:103AD00079838A839B83C558D040A3019201C30197
:103AE000B2010E949A29C757DF4F688379838A837E
:103AF0009B83C958D040A1962CAD3DAD4EAD5FAD76
:103B0000A197CA01B9010E94F62FCF55DF4F288136
:103B100039814A815B81C15AD0400E949929E99636
:103B20002CAD3DAD4EAD5FADE9970E949929E5966C
:103B30002CAD3DAD4EAD5FADE5970E949A29E9965B
:103B40006CAF7DAF8EAF9FAFE997A7019601C7011C
:103B5000B6010E949A294B015C01A5962CAD3DADA2
:103B60004EAD5FADA597ED966CAD7DAD8EAD9FADC5
:103B7000ED970E94F62F6B017C01A3019201C358BF
:103B8000DF4F688179818A819B81CD57D0400E9427
:103B9000F62F9B01AC01C701B6010E949A296B0167
:103BA0007C01CF57DF4F288139814A815B81C15821
:103BB000D040CF56DF4F688179818A819B81C1597E
:103BC000D0400E94F62F9B01AC01C701B6010E94B4
:103BD0009A299B01AC010E949A296B017C01C7556F
:103BE000DF4F288139814A815B81C95AD040C501A4
:103BF000B4010E94F62FE5966CAF7DAF8EAF9FAFFC
:103C0000E597A5962CAD3DAD4EAD5FADA597C7012F
:103C1000B6010E94F62F9B01AC01E5966CAD7DAD1F
:103C20008EAD9FADE5970E949A29E5966CAF7DAF6A
:103C30008EAF9FAFE597C355DF4F288139814A8109
:103C40005B81CD5AD040C501B4010E94F62FA596E4
:103C50006CAF7DAF8EAF9FAFA597A3019201C70157
:103C6000B6010E94F62F9B01AC01A5966CAD7DAD0F
:103C70008EAD9FADA5970E949A29ED966CAF7DAF52
:103C80008EAF9FAFED97CF54DF4F288139814A81A6
:103C90005B81C15BD040C501B4010E94F62F4B018E
:103CA0005C01CF57DF4F288139814A815B81C15840
:103CB000D040C701B6010E94F62F9B01AC01C5019F
:103CC000B4010E949A29C358DF4F688379838A839D
:103CD0009B83CD57D0401092A1031092A203109263
:103CE000A3031092A4031092A5031092A6031092AE
:103CF000A7031092A8031092A9031092AA0310928E
:103D0000AB031092AC032BED3FE049E450E4C35405
:103D1000DF4F688179818A819B81CD5BD0400E9491
:103D2000F62F20E030E044E353E40E94932A6B0135
:103D30007C01E9962CAD3DAD4EAD5FADE997C75620
:103D4000DF4F688179818A819B81C959D0400E9467
:103D5000F62F4B015C01C757DF4F288139814A811B
:103D60005B81C958D040C356DF4F688179818A8111
:103D70009B81CD59D0400E94F62F9B01AC01C5011B
:103D8000B4010E9499294B015C01C358DF4F28817F
:103D900039814A815B81CD57D040AD966CAD7DAD08
:103DA0008EAD9FADAD970E94F62F2B013C01ED9695
:103DB0002CAD3DAD4EAD5FADED97E1966CAD7DADFB
:103DC0008EAD9FADE1970E94F62F9B01AC01C30120
:103DD000B2010E9499299B01AC01C501B4010E9466
:103DE0009A2920E030E040E251E40E94F62F9B0146
:103DF000AC01C701B6010E949A2920E030E0A90178
:103E00000E949A29A5966CAF7DAF8EAF9FAFA59704
:103E10002BED3FE049E450E4C754DF4F68817981DE
:103E20008A819B81C95BD0400E94F62F20E030E060
:103E300044E353E40E94932A6B017C01CB57DF4F8C
:103E4000288139814A815B81C558D040C356DF4FF4
:103E5000688179818A819B81CD59D0400E94F62F5B
:103E60004B015C01E9962CAD3DAD4EAD5FADE997E0
:103E7000CB56DF4F688179818A819B81C559D040BB
:103E80000E94F62F9B01AC01C501B4010E94992943
:103E90004B015C01E5962CAD3DAD4EAD5FADE597B8
:103EA000E1966CAD7DAD8EAD9FADE1970E94F62F92
:103EB0002B013C01C358DF4F288139814A815B8146
:103EC000CD57D040A9966CAD7DAD8EAD9FADA99775
:103ED0000E94F62F9B01AC01C301B2010E949929F7
:103EE0009B01AC01C501B4010E949A2920E030E099
:103EF00040E251E40E94F62F9B01AC01C701B601DC
:103F00000E949A2920E030E0A9010E949A29E196B6
:103F10006CAF7DAF8EAF9FAFE1972BED3FE049E4F3
:103F200050E4CB54DF4F688179818A819B81C55BE6
:103F3000D0400E94F62F20E030E044E353E40E949A
:103F4000932A6B017C01C757DF4F288139814A8151
:103F50005B81C958D040CB56DF4F688179818A8117
:103F60009B81C559D0400E94F62F4B015C01CB5775
:103F7000DF4F288139814A815B81C558D040C756BF
:103F8000DF4F688179818A819B81C959D0400E9425
:103F9000F62F9B01AC01C501B4010E9499294B0188
:103FA0005C01ED962CAD3DAD4EAD5FADED97A996A4
:103FB0006CAD7DAD8EAD9FADA9970E94F62F2B0104
:103FC0003C01E5962CAD3DAD4EAD5FADE597AD96B0
:103FD0006CAD7DAD8EAD9FADAD970E94F62F9B0170
:103FE000AC01C301B2010E9499299B01AC01C5013A
:103FF000B4010E949A2920E030E040E251E40E949E
:10400000F62F9B01AC01C701B6010E949A2920E05E
:1040100030E0A9010E949A294B015C0120E030E0C8
:1040200040E05FE3C357DF4F688179818A819B81DC
:10403000CD58D0400E94F62FA9966CAF7DAF8EAFC1
:104040009FAFA99765966CAD7DAD8EAD9FAD659721
:104050009058A5962CAD3DAD4EAD5FADA5970E9495
:10406000F62F6B017C01E1962CAD3DAD4EAD5FAD01
:10407000E19769966CAD7DAD8EAD9FAD69970E945D
:10408000F62F9B01AC01C701B6010E9499296B0173
:104090007C01A50194016D966CAD7DAD8EAD9FAD9B
:1040A0006D970E94F62F9B01AC01C701B6010E94DB
:1040B0009929A9962CAD3DAD4EAD5FADA9970E9453
:1040C000F62F9B01AC01A1966CAD7DAD8EAD9FAD81
:1040D000A1970E949A296B017C01A5962CAD3DAD5C
:1040E0004EAD5FADA5970E94F62F2B013C01A501B7
:1040F000940169966CAD7DAD8EAD9FAD69970E94C0
:10410000F62F9B01AC01C301B2010E949A292B0139
:104110003C01E1962CAD3DAD4EAD5FADE1976D96A6
:104120006CAD7DAD8EAD9FAD6D970E94F62F9B015E
:10413000AC01C301B2010E949929A9962CAD3DADF5
:104140004EAD5FADA9970E94F62F9B01AC0165961D
:104150006CAD7DAD8EAD9FAD65970E949A29A196FD
:104160006CAF7DAF8EAF9FAFA197E1962CAD3DAD0B
:104170004EAD5FADE197C701B6010E94F62F2B014E
:104180003C01A501940165966CAD7DAD8EAD9FADF2
:1041900065970E94F62F9B01AC01C301B2010E94FA
:1041A00099292B013C01A5962CAD3DAD4EAD5FADDF
:1041B000A5976D966CAD7DAD8EAD9FAD6D970E9450
:1041C000F62F9B01AC01C301B2010E949A29A99666
:1041D0002CAD3DAD4EAD5FADA9970E94F62F9B0172
:1041E000AC0169966CAD7DAD8EAD9FAD69970E94B7
:1041F0009A29AD966CAF7DAF8EAF9FAFAD97A501FD
:104200009401C701B6010E94F62F4B015C01E196B3
:104210002CAD3DAD4EAD5FADE19765966CAD7DAD1E
:104220008EAD9FAD65970E94F62F9B01AC01C50135
:10423000B4010E949A294B015C01A5962CAD3DADBD
:104240004EAD5FADA59769966CAD7DAD8EAD9FAD62
:1042500069970E94F62F9B01AC01C501B4010E9431
:104260009929A9962CAD3DAD4EAD5FADA9970E94A1
:10427000F62F9B01AC016D966CAD7DAD8EAD9FAD03
:104280006D970E949A292B013C01A7019601C70155
:10429000B6010E94F62F4B015C01A1962CAD3DADFD
:1042A0004EAD5FADA197CA01B9010E94F62F9B01E7
:1042B000AC01C501B4010E949A294B015C01AD9685
:1042C0002CAD3DAD4EAD5FADAD97CA01B9010E94B9
:1042D000F62F9B01AC01C501B4010E949A294B0144
:1042E0005C01A3019201C301B2010E94F62F9B0160
:1042F000AC01C501B4010E949A290E94F92B9B01CF
:10430000AC0160E070E080E89FE30E94932A4B01DB
:104310005C019B01AC01C701B6010E94F62F6093BE
:104320000001709301018093020190930301A501A4
:104330009401A1966CAD7DAD8EAD9FADA1970E940D
:10434000F62F60930401709305018093060190930A
:104350000701A5019401AD966CAD7DAD8EAD9FAD0D
:10436000AD970E94F62F6093080170930901809326
:104370000A0190930B01A5019401C301B2010E94AF
:10438000F62F60930C0170930D0180930E019093B2
:104390000F010E94EB05C090C903D090CA03E090C2
:1043A000CB03F090CC03DC01CB018C199D09AE0945
:1043B000BF098093C5039093C603A093C703B0932E
:1043C000C803853F9140A105B10508F4E8C22091DA
:1043D0000001309101014091020150910301659665
:1043E0002CAF3DAF4EAF5FAF6597CA01B9010E94D8
:1043F000F62F6D966CAF7DAF8EAF9FAF6D978091AE
:10440000040190910501A0910601B0910701699600
:104410008CAF9DAFAEAFBFAF69979C01AD01BC0142
:10442000CD010E94F62FA1966CAF7DAF8EAF9FAFEE
:10443000A197409008015090090160900A01709086
:104440000B01A3019201C301B2010E94F62FA996AC
:104450006CAF7DAF8EAF9FAFA997C0900C01D0908D
:104460000D01E0900E01F0900F01A7019601C70128
:10447000B6010E94F62FAD966CAF7DAF8EAF9FAFA9
:10448000AD97A1962CAD3DAD4EAD5FADA1976D96AC
:104490006CAD7DAD8EAD9FAD6D970E949A29A996AA
:1044A0002CAD3DAD4EAD5FADA9970E949929AD965B
:1044B0002CAD3DAD4EAD5FADAD970E9499294B013E
:1044C0005C01A301920169966CAD7DAD8EAD9FAD8F
:1044D00069970E94F62FE1966CAF7DAF8EAF9FAFCC
:1044E000E197A701960165966CAD7DAD8EAD9FAD50
:1044F00065970E94F62F9B01AC01E1966CAD7DADF6
:104500008EAD9FADE1970E949A299B01AC010E945C
:104510009A29A50194010E94342AE1966CAF7DAFDF
:104520008EAF9FAFE197A701960169966CAD7DAD07
:104530008EAD9FAD69970E94F62F4B015C01A301E0
:10454000920165966CAD7DAD8EAD9FAD65970E9475
:10455000F62F9B01AC01C501B4010E9499299B0172
:10456000AC010E949A290E94062AA5966CAF7DAFE5
:104570008EAF9FAFA597A1962CAD3DAD4EAD5FAD73
:10458000A1976D966CAD7DAD8EAD9FAD6D970E9480
:104590009929A9962CAD3DAD4EAD5FADA9970E946E
:1045A0009929AD962CAD3DAD4EAD5FADAD970E9456
:1045B0009A294B015C0169962CAD3DAD4EAD5FADC6
:1045C000699765966CAD7DAD8EAD9FAD65970E9488
:1045D000F62F65966CAF7DAF8EAF9FAF6597A70145
:1045E0009601C301B2010E94F62F9B01AC016596B2
:1045F0006CAD7DAD8EAD9FAD65970E949A299B01F4
:10460000AC010E949A29A50194010E94342A6B01F1
:104610007C01A5966CAD7DAD8EAD9FADA5979058F4
:1046200020EE3EE245E652E40E94F62F65966CAF1E
:104630007DAF8EAF9FAF65976093BD037093BE0350
:104640008093BF039093C00320EE3EE245E652E420
:10465000E1966CAD7DAD8EAD9FADE1970E94F62FDA
:104660002DEC3CEC4CE551E40E9499292B013C01D6
:104670006093C1037093C2038093C3039093C403F8
:1046800020EE3EE245E652E4C701B6010E94F62F55
:104690004B015C016093B9037093BA038093BB0331
:1046A0009093BC038EEE95E00E944B03813009F09D
:1046B0003EC1C8010E944F0B69817A818B819C8128
:1046C0000E94952F69966CAF7DAF8EAF9FAF6997B3
:1046D000C8010E944F0B69817A818B819C810E9465
:1046E000952F20E836EE45EC57E40E94932A2EEAF7
:1046F0003CED42E45EE30E94A32B9B01AC0160E031
:1047000070E080E89FE30E94992920E03AE24DE2C0
:1047100057E40E94F62F6093B5037093B60380931D
:10472000B7039093B80343E0B8018AEF0E94CD0A23
:10473000298130E0322F22278A81282BC901A0E06D
:10474000B0E024E0880F991FAA1FBB1F2A95D1F75C
:104750002B8130E044E0359527954A95E1F7A90192
:10476000330F660B770B482B592B6A2B7B2B8091D1
:10477000F2059091F305A0E0B0E06A017B01E4E06E
:10478000F594E794D794C794EA95D1F7C81AD90A53
:10479000EA0AFB0AF3E07595679557954795FA95F0
:1047A000D1F7880F991FAA1FBB1F9A01AB01281BC5
:1047B000390B4A0B5B0BA091F605B091F7050E94EF
:1047C000DE309B01AC016BE05595479537952795F9
:1047D0006A95D1F76D962CAF3DAF4EAF5FAF6D9739
:1047E000A7019601C701B6010E944F299B01AC01A8
:1047F0007CE055954795379527957A95D1F7A09107
:10480000F805B091F9050E94DE30DC01CB01EEE045
:10481000B595A79597958795EA95D1F76D962CADA7
:104820003DAD4EAD5FAD6D97280F391F4A1F5B1F21
:1048300020930A0630930B0640930C0650930D0606
:10484000A2E3B0E00E94D330DC01CB019B5FAF4F0D
:10485000BF4F692F7A2F8B2F992787FD9A950E943A
:10486000972F20E030E04AE754E40E94932A6093B7
:10487000B1037093B2038093B3039093B40320E029
:1048800030E040E251E46091AD037091AE0380915D
:10489000AF039091B0030E94F62F2091B5033091A1
:1048A000B6034091B7035091B8030E949A2920E0C3
:1048B00030E040E351E40E94932A6093AD0370938B
:1048C000AE038093AF039093B0038EEE95E00E9409
:1048D00061038091B5039091B603A091B703B091A5
:1048E000B8038093470490934804A0934904B0937D
:1048F0004A0469968CAD9DADAEADBFAD699780930E
:104900004B0490934C04A0934D04B0934E048091BB
:10491000B1039091B203A091B303B091B40380931B
:104920004F0490935004A0935104B093520480928A
:10493000430490924404A0924504B09246046596C4
:104940002CAD3DAD4EAD5FAD659720933B043093EC
:104950003C0440933D0450933E0440923F045092E7
:10496000400460924104709242040E94EB056093FF
:10497000C9037093CA038093CB039093CC03109226
:10498000CD031092CE031092CF031092D003109259
:10499000D1031092D2031092D3031092D40320E0DB
:1049A00030E048EC52E460914704709148048091F3
:1049B000490490914A040E94F62F0E94052BDC01C5
:1049C000CB011A8E198E1C8E1B8E1E8E1D8E4AE0F8
:1049D000B8010E945B2FF80101900020E9F73197A0
:1049E000AF01401B510BB801CE0149960E94200D2A
:1049F0001A8219821C821B821E821D82698D7A8D09
:104A00006115710529F04D8D5E8DC8010E94200D44
:104A1000ED80FE803FEFE31AF30AB701C8010E9460
:104A2000F90C882309F4F4C129813A818D819E8192
:104A30006DE573E0820F931F0E94542FFE82ED827A
:104A40001EA21DA218A61FA21AA619A669817A8104
:104A50006115710531F04D815E81CE0185960E9410
:104A6000200D89819A810E94E42D898D9A8D0E9462
:104A7000E42D49A55AA56DA17EA18DE495E00E9483
:104A8000410D8DE791E00E94C2096AEF70E080E07D
:104A900090E00E947704E12CF12C89A59AA5E816F4
:104AA000F906A0F4EDA1FEA1309729F41092A0031D
:104AB000E0EAF3E002C0EE0DFF1D60818FE096E0BA
:104AC0000E94F0014FEFE41AF40AE7CF8FE096E07E
:104AD0000E944402181619060CF043C078016E01BA
:104AE00056E0C50ED11C0E94EB056093170670932B
:104AF00018068093190690931A06E0910F06F0911C
:104B000010060680F781E02D8FE096E0099597FD6D
:104B10000AC0D7018D937D01AC15BD0521F7C801F1
:104B20000E94170A1EC00E94EB0580901706909005
:104B30001806A0901906B0901A06DC01CB0188195E
:104B40009909AA09BB098090130690901406A090B9
:104B50001506B090160688159905AA05BB0568F2DA
:104B6000DECF8DA19EA10E94E42DC12CD12CECE0C2
:104B7000EE2EC6018D5A994FFC013396D8012E2D89
:104B800001900D922A95E1F7FC01F3806480758015
:104B900056808090430490904404A0904504B090C7
:104BA000460420913B0430913C0440913D045091D7
:104BB0003E048B859C858130910509F4A9C0C4F51C
:104BC000892B09F0E5C06091540670915506072EB7
:104BD000000C880B990BCF53DF4F2883C15CD0406A
:104BE000CE53DF4F3883C25CD040CD53DF4F488374
:104BF000C35CD040CC53DF4F5883C45CD0400E948C
:104C0000972FCF53DF4F2881C15CD040CE53DF4F69
:104C10003881C25CD040CD53DF4F4881C35CD04067
:104C2000CC53DF4F5881C45CD0400E949A29A9C060
:104C300082309105C1F1039709F0AAC06091540632
:104C400070915506072E000C880B990BCF53DF4F40
:104C50002883C15CD040CE53DF4F3883C25CD04044
:104C6000CD53DF4F4883C35CD040CC53DF4F5883D4
:104C7000C45CD0400E94972FCF53DF4F2881C15C86
:104C8000D040CE53DF4F3881C25CD040CD53DF4F90
:104C90004881C35CD040CC53DF4F5881C45CD040C6
:104CA0000E94992969C06091540670915506072E9B
:104CB000000C880B990BCF53DF4F2883C15CD04089
:104CC000CE53DF4F3883C25CD040CD53DF4F488393
:104CD000C35CD040CC53DF4F5883C45CD0400E94AB
:104CE000972FCF53DF4F2881C15CD040CE53DF4F89
:104CF0003881C25CD040CD53DF4F4881C35CD04087
:104D0000CC53DF4F5881C45CD0400E94992939C0F0
:104D10006091540670915506072E000C880B990B74
:104D2000CF53DF4F2883C15CD040CE53DF4F388351
:104D3000C25CD040CD53DF4F4883C35CD040CC53DE
:104D4000DF4F5883C45CD0400E94972FCF53DF4F72
:104D50002881C15CD040CE53DF4F3881C25CD04047
:104D6000CD53DF4F4881C35CD040CC53DF4F5881D7
:104D7000C45CD0400E949A29A50194010E949A29FE
:104D800004C0A50194010E9499290E940C2B1B01CB
:104D9000552091F1FBE0FF1578F188E890E0861945
:104DA000910967FC9395880F991F880F991F281602
:104DB00039067CF028E532E02719310977FC339574
:104DC000220F331F220F331FC101221533050CF4AC
:104DD000C90102979C01220F331F4FB7F8948F2D02
:104DE00090E0FC01EE0FFF1F8E0F9F1FFC01E25DA4
:104DF000F94F328321834FBF2CE0C20ED11C30E328
:104E0000C316D10409F0B5CE0E94C5010C948717D2
:104E1000C8010E946C0D14CECF93DF931F92CDB7C3
:104E2000DEB791E090932B0580934C051092EB0533
:104E30001092EA0586E896E049830E9403034981BF
:104E4000642F86E896E00E94030381E00F90DF91D3
:104E5000CF910C94250A84E491E0909310068093FE
:104E60000F068FE096E00C946008CF92DF92EF92ED
:104E7000FF921092500510924F0598EEC92E93E0C4
:104E8000D92EE12CF12CC0925105D0925205E0921E
:104E90005305F09254058EE191E090934E05809376
:104EA0004D0585EC90E090935A058093590584EC6C
:104EB00090E090935C0580935B0580EC90E090938C
:104EC0005E0580935D0581EC90E090936005809392
:104ED0005F0582EC90E0909362058093610586EC1B
:104EE00090E090936405809363051092660510929C
:104EF000670510926805109269051092ED051092F1
:104F0000EC051092EB051092EA050E94A409449A60
:104F1000459A8CE08093B8008EE097ECAAE1BFE35D
:104F20008093960690939706A0939806B09399065F
:104F30001092920610929306109294061092950683
:104F40008EE291E09093EF058093EE058EE391E081
:104F50009093F1058093F0051092F3051092F205FD
:104F60001092F5051092F4051092F7051092F605CF
:104F70001092F9051092F8051092FB051092FA05AF
:104F80001092FD051092FC051092FF051092FE058F
:104F9000109201061092000610920306109202066B
:104FA000109205061092040610920706109206064B
:104FB000109209061092080610920A0610920B062B
:104FC00010920C0610920D06109212061092110605
:104FD000C0921306D0921406E0921506F0921606BF
:104FE00084E491E09093100680930F0610922606B9
:104FF00010922506109228061092270610922A0673
:105000001092290610922C0610922B0660912D0604
:105010006E7F6D7F60932D066695617081E06827D5
:1050200080E10E94CA0361E080E10E941604EAEA7E
:10503000F1E0E491E0931F06E6E9F1E0E491F0E0AD
:10504000EE0FFF1FEE58FE4F85919491909321062D
:105050008093200660E081E10E94160480912D0675
:1050600081FD04C061E081E10E94CA0381E1809377
:105070001B06EBEAF1E0E491E0931C06E7E9F1E0BE
:10508000E491F0E0EE0FFF1FE458FE4F85919491FC
:1050900090931E0680931D0681E08093530688EE50
:1050A00093E090935506809354068091520640E019
:1050B00050E09FEF68EB7BE0DA01AD5AB94F8C30DE
:1050C00088F413968C931397282F30E0F901EE0F94
:1050D000FF1F2E0F3F1FF901E25DF94F72836183BD
:1050E0008F5F03C013969C93139716961C92445F90
:1050F0005F4F4033510501F78093520610928906A5
:105100001092880688EE93E0A0E0B0E080938A06D3
:1051100090938B06A0938C06B0938D0684E591E066
:105120009093870680938606FF90EF90DF90CF9054
:1051300008958F929F92AF92BF92CF92DF92EF929B
:10514000FF92CF93DF936B017C019B01AC010E9426
:105150003D2C882319F08FE593E027C046015701C5
:10516000E894B7F82FEF3FEF4FE75FE7C501B401D1
:105170000E943D2C81110DC02FEF3FEF4FE75FE7FD
:10518000C501B4010E94902F18161CF483E693E029
:105190000CC02FEF3FEF4FE75FE4C701B6010E945D
:1051A000962B181674F487E693E0DF91CF91FF9069
:1051B000EF90DF90CF90BF90AF909F908F900C9426
:1051C000C2092FEF3FEF4FE75FECC701B6010E9426
:1051D000902F87FDE8CF20E030E0A901C701B6019C
:1051E0000E94902F87FF11C0E0914D05F0914E0570
:1051F0000190F081E02D6DE28DE495E00995EC01E0
:10520000F7FAF094F7F8F09402C0C0E0D0E02DEC8B
:105210003CEC4CE45DE3C701B6010E949A294B01C6
:105220005C010E940C2B6B017C010E94952F9B015D
:10523000AC01C501B4010E9499294B015C014AE00F
:10524000C701B6010E94D409C80FD91FE0914D05CE
:10525000F0914E050190F081E02D6EE28DE495E035
:105260000995C80FD91F20E030E040E251E4C501A4
:10527000B4010E94F62F0E940C2B80E090E04AE0DF
:105280000E94D4098C0F9D1FDF91CF91FF90EF906A
:10529000DF90CF90BF90AF909F908F900895DB01EB
:1052A0008F939F930E94D330BF91AF91A29F800DA7
:1052B000911DA39F900DB29F900D11240895991BED
:1052C00079E004C0991F961708F0961B881F7A95FD
:1052D000C9F780950895AA1BBB1B51E107C0AA1FFF
:1052E000BB1FA617B70710F0A61BB70B881F991F87
:1052F0005A95A9F780959095BC01CD01089597FB2B
:10530000072E16F4009407D077FD09D00E946B2970
:1053100007FC05D03EF4909581959F4F08957095B8
:1053200061957F4F0895EE0FFF1F0590F491E02DDA
:1053300009945058BB27AA270E94B1290C947A30AF
:105340000E946C3038F00E94733020F039F49F3F97
:1053500019F426F40C9469300EF4E095E7FB0C94F4
:105360006330E92F0E948B3058F3BA176207730736
:105370008407950720F079F4A6F50C94AD300EF46F
:10538000E0950B2EBA2FA02D0B01B90190010C0155
:10539000CA01A0011124FF27591B99F0593F50F46D
:1053A000503E68F11A16F040A22F232F342F4427C5
:1053B000585FF3CF469537952795A795F0405395BD
:1053C000C9F77EF41F16BA0B620B730B840BBAF08D
:1053D0009150A1F0FF0FBB1F661F771F881FC2F7F8
:1053E0000EC0BA0F621F731F841F48F4879577950C
:1053F0006795B795F7959E3F08F0B0CF9395880FC6
:1054000008F09927EE0F9795879508959F939F77BA
:10541000EEE389379E0728F4E8E6F0E00E94822B4D
:105420000CC00E943B2B9058A2EA2AED3FE049ECC9
:105430005FE30E94B1290E947A300F9007FC9058D8
:1054400008950E946C3060F080E891E009F49EEFCE
:105450000E94733028F040E851E071F45EEF0CC018
:105460000C9469300C94AD30E92FE0780E948B30B9
:1054700040F3092E052AB1F32617370748075907C5
:1054800038F00E2E07F8E02569F0E025E0640AC048
:10549000EF6307F8009407FADB01B9019D01DC0115
:1054A000CA01AD01EF930E94AA2A0E947A300E949D
:1054B000642A5F91552339F02BED3FE049E450FD1C
:1054C00049EC0C949A290895DF93DD27B92FBF7713
:1054D00040E85FE31616170648075B0718F4D92F54
:1054E0000E949B2B9F938F937F936F930E94392CE5
:1054F000ECE7F0E00E945B2B0E947A302F913F9105
:105500004F915F910E940930DD2351F09058A2EA3B
:105510002AED3FE049EC5FE3D0785D270E94B12996
:10552000DF910C947A300E94A72A0C947A300E9462
:10553000733058F00E946C3040F029F45F3F29F03E
:105540000C94633051110C94AE300C9469300E946D
:105550008B3068F39923B1F3552391F3951B550BC9
:10556000BB27AA2762177307840738F09F5F5F4F36
:10557000220F331F441FAA1FA9F335D00E2E3AF075
:10558000E0E832D091505040E695001CCAF72BD08D
:10559000FE2F29D0660F771F881FBB1F26173707DE
:1055A0004807AB07B0E809F0BB0B802DBF01FF2710
:1055B00093585F4F3AF09E3F510578F00C9463305A
:1055C0000C94AE305F3FE4F3983ED4F38695779524
:1055D0006795B795F7959F5FC9F7880F911D9695C9
:1055E000879597F90895E1E0660F771F881FBB1F25
:1055F000621773078407BA0720F0621B730B840BD2
:10560000BA0BEE1F88F7E09508950E940C2B689462
:10561000B1110C94AE3008950E94933088F09F57DA
:1056200098F0B92F9927B751B0F0E1F0660F771FC6
:10563000881F991F1AF0BA95C9F714C0B13091F0BC
:105640000E94AD30B1E008950C94AD30672F782FF3
:105650008827B85F39F0B93FCCF386957795679581
:10566000B395D9F73EF490958095709561957F4FED
:105670008F4F9F4F0895DF93CF931F930F938B010D
:10568000EC01E9EAF0E00E945B2B0E947A3098017D
:10569000AE018B01EC0160E070E080E89FE30E94C6
:1056A00099290E94F92B9801AE010F911F91CF917A
:1056B000DF910C940930DF93CF931F930F93FF92E8
:1056C000EF92DF927B018C01689406C0DA2EEF0125
:1056D0000E940930FE01E894A591259135914591EC
:1056E0005591A6F3EF010E94B129FE019701A8018F
:1056F000DA9469F7DF90EF90FF900F911F91CF91AF
:10570000DF9108959F938F937F936F93FF93EF9310
:105710009B01AC010E94F62FEF91FF910E945B2B41
:105720002F913F914F915F910C94F62F0E94D22FB1
:1057300008F48FEF08959B01AC0160E070E080E811
:105740009FE30C94932AFA01EE0FFF1F3096210578
:105750003105A1F16115710561F48038BFE39B0744
:1057600049F168949038810561F08038BFEF9B075C
:1057700041F099234AF5FF3FE1053105210519F173
:10578000E8940894E795D901AA2329F4AB2FBE2FFA
:10579000F85FD0F310C0FF5F70F4A695E0F7F7391B
:1057A00050F019F0FF3A38F49F779F930DD00F9087
:1057B00007FC9058089546F00C94693060E070E062
:1057C00080E89FE308954FE79F775F934F933F9360
:1057D0002F930E94D32C2F913F914F915F910E9464
:1057E000F62F0C944A2C19F416F40C9469300C948E
:1057F0007C2C0E949330B8F39923C9F3B6F39F57DA
:10580000550B87FF0E948A2C0024A0E640EA9001F5
:1058100080585695979528F4805C660F771F881FEF
:1058200020F026173707480730F4621B730B840BF0
:10583000202931294A2BA695179407942025312534
:105840004A2758F7660F771F881F20F0261737075B
:10585000480730F4620B730B840B200D311D411D82
:10586000A09581F7B901842F9158880F9695879557
:1058700008959B01AC010C94F62F0E94D22F880B47
:10588000990B089529F416F00C9463300C94AD3004
:105890000C9469300E949330A8F39638A0F707F86B
:1058A0000F92E8942BE33AEA48EB5FE70E940C3052
:1058B0000F920F920F924DB75EB70F920E941B2D61
:1058C000E1EDF0E00E945B2B4F915F91EF91FF9132
:1058D000E595EE1FFF1F49F0FE57E0684427EE0FE5
:1058E000441FFA95E1F74195550B0E94952C0F90B6
:1058F00007FE0C949B2B08959F3F31F0915020F4AC
:10590000879577956795B795880F911D969587959B
:1059100097F9089591505040660F771F881FD2F76E
:1059200008950C9463300C947C2C0E949330D8F32F
:105930009923C9F3940F511DA3F39150504094F053
:1059400059F0882332F0660F771F881F915050401E
:10595000C1F79E3F51052CF7880F911D96958795AD
:1059600097F908955F3FACF0983E9CF0BB27869571
:1059700077956795B79508F4B1609395C1F7BB0F1C
:1059800058F711F460FFE8CF6F5F7F4F8F4F9F4F45
:10599000E3CF0C94AE3016F00C947C2C0C94693050
:1059A00068940C9463300E949330A8F39923C1F358
:1059B000AEF3DF93CF931F930F93FF92C92FDD2791
:1059C00088232AF02197660F771F881FDAF720E0D7
:1059D00030E040E85FEB9FE3883920F0803E38F00C
:1059E00021968F770E949A29E9EFF0E004C00E9487
:1059F0009A29E6E2F1E00E945B2B8B01BE01EC01EB
:105A0000FB2E6F5771097595771F880B990B0E94B4
:105A1000972F28E132E741E35FE30E940930AF2D81
:105A20009801AE01FF900F911F91CF91DF910E94DD
:105A3000B1290C947A30FA01DC01AA0FBB1F9B013B
:105A4000AC01BF5728F4222733274427507820C0C1
:105A5000B75190F4AB2F0024469537952795011C3C
:105A6000A395D2F3002071F0220F331F441FB3958A
:105A7000DAF30ED00C94992961307105A0E88A07F9
:105A8000B94630F49B01AC016627772788279078C8
:105A9000309621F020833183428353830895CF933E
:105AA000DF938230910510F482E090E0E0919C0653
:105AB000F0919D0620E030E0C0E0D0E0309711F199
:105AC0004081518148175907C0F04817590761F4C0
:105AD00082819381209719F09B838A832BC09093B6
