:100000000C94D3000C94FB000C94FB000C94FB00AC
:100010000C94FB000C94FB000C94FB000C94FB0074
:100020000C94FB000C94FB000C94FB000C944C050E
:100030000C94FB000C94FB000C94FB000C94FB0054
:100040000C948B030C94FB000C94AE020C9488026D
:100050000C94FB000C94FB000C94FB000C94FB0034
:100060000C940D060C94FB00036EDB363D9A9999B7
:10007000993DABAAAA2A3E000000803F084AD73B20
:100080003BCE016E84BCBFFDC12F3D6C74319ABD67
:1000900056833DDA3D00C77F11BED9E4BB4C3E918B
:1000A0006BAAAABE000000803F072C7AA5BA6CC5D7
:1000B00090DA3B9365FC8BBC53F810FD3C56928361
:1000C0004DBD879D3AB63DCBC9BF5BBE73DA0FC944
:1000D0003F07634236B79BD8A71A39685618AEBA9D
:1000E000AB558C1D3CB7CC5763BD6DEDFD753EF631
:1000F000177231BF000000803F08000000BE92244C
:1001000049123EABAAAA2ABECDCCCC4C3E00000080
:1001100080BEABAAAAAA3E00000000BF000000807B
:100120003F0000000000084178D3BB4387D1133D56
:10013000190E3CC3BD4282AD2B3E68EC8276BED91F
:100140008FE1A93E4C80EFFFBE01C4FF7F3F00005E
:100150000000000000000000250028002B00000027
:100160000000240027002A000404040404040404FA
:100170000202020202020303030303030102040852
:100180001020408001020408102001020408102001
:100190000000000800020100000304070000000046
:1001A00000000000291F11241FBECFEFD8E0DEBFE2
:1001B000CDBF13E0A0E0B1E0ECE5F0E502C00590B2
:1001C0000D92AE34B107D9F725E0AEE4B3E001C03B
:1001D0001D92AF3CB207E1F710E0C3EDD0E004C0E0
:1001E0002197FE010E949A20C23DD107C9F70E94C3
:1001F00006090C942C280C940000FC01918D828D32
:10020000981761F0828DDF01A80FB11D5D968C916A
:10021000928D9F5F9F73928F90E008958FEF9FEF75
:100220000895FC01918D828D981731F0828DE80F31
:10023000F11D858D90E008958FEF9FEF0895FC01EB
:10024000918D228D892F90E0805C9F4F821B9109B8
:100250008F739927089586ED94E00E941F0121E095
:10026000892B09F420E0822F0895FC01848DDF01A1
:10027000A80FB11DA35ABF4F2C91848D90E0019619
:100280008F739927848FA689B7892C93A089B18908
:100290008C9180648C93938D848D981306C0028812
:1002A000F389E02D80818F7D80830895EF92FF9206
:1002B0000F931F93CF93DF93EC0181E0888F9B8D89
:1002C0008C8D981305C0E889F989808185FD24C04B
:1002D000F62E0B8D10E00F5F1F4F0F731127E02ECE
:1002E0008C8DE8120CC00FB607FCFACFE889F989AB
:1002F000808185FFF5CFCE010E943501F1CF8B8D36
:10030000FE01E80FF11DE35AFF4FF0820B8FEA89DF
:10031000FB898081806207C0EE89FF896083E8895C
:10032000F98980818064808381E090E0DF91CF91C2
:100330001F910F91FF90EF900895CF93DF93EC0101
:10034000888D8823C9F0EA89FB89808185FD05C0F5
:10035000A889B9898C9186FD0FC00FB607FCF5CF2F
:10036000808185FFF2CFA889B9898C9185FFEDCF77
:10037000CE010E943501E7CFDF91CF91089580E053
:1003800090E0892B29F00E942B0181110C94000030
:10039000089580914E0390E020914F03821B9109B4
:1003A000089585ED8093BC008091BC0084FDFCCF56
:1003B0001092B104089540914004262F30E0240F9C
:1003C000311D21323105DCF42091B1042430C9F40F
:1003D000FC0180E090E0861758F4309140042191B0
:1003E000DC01A25EBB4FA30FB11D2C930196F3CF8E
:1003F00080914004680F6093400480E0089581E09C
:10040000089582E008950895E0914F0380914E038E
:10041000E81730F4F0E0E559FB4F808190E0089553
:100420008FEF9FEF089590914F0380914E0398179F
:1004300050F4E92FF0E0E559FB4F208130E09F5F59
:1004400090934F0302C02FEF3FEFC9010895CF9261
:10045000DF92EF92FF920F931F93CF93DF937C0174
:10046000262F972F8A018091B204882391F0C62FFE
:10047000D72F6E01C40ED51ECC15DD0571F0699124
:10048000D701ED91FC910190F081E02DC701099514
:10049000F3CF642F822F0E94DB01C801DF91CF913F
:1004A0001F910F91FF90EF90DF90CF900895CF9321
:1004B000DF931F92CDB7DEB769832091B204222368
:1004C000D1F02091D504203240F021E030E0FC0151
:1004D0003383228380E090E015C08091B304E82F3D
:1004E000F0E0EC54FB4F998190838F5F8093B304CD
:1004F0008093D50405C061E0CE0101960E94DB0126
:1005000081E090E00F90DF91CF9108950E94462600
:100510001F920F920FB60F9211242F933F934F9378
:100520005F936F937F938F939F93AF93BF93EF935B
:10053000FF9386ED94E00E943501FF91EF91BF910A
:10054000AF919F918F917F916F915F914F913F916B
:100550002F910F900FBE0F901F9018951F920F9222
:100560000FB60F9211242F938F939F93EF93FF93C6
:10057000E091E604F091E7048081E091EC04F091D1
:10058000ED0482FD12C090818091EF048F5F8F7324
:100590002091F004821751F0E091EF04F0E0EA526C
:1005A000FB4F958F8093EF0401C08081FF91EF9105
:1005B0009F918F912F910F900FBE0F901F901895C4
:1005C00090E0FC01E057FE4F3491FC01E458FE4FEF
:1005D0002491FC01E859FE4FE491EE2309F43BC05D
:1005E000332339F1333091F038F43130A9F032301F
:1005F00001F584B58F7D12C0373091F03830A1F00D
:100600003430B9F4809180008F7D03C080918000E8
:100610008F77809380000DC084B58F7784BD09C02B
:100620008091B0008F7703C08091B0008F7D809360
:10063000B000F0E0EE0FFF1FEC5AFE4FA591B49111
:100640008FB7F894EC91611103C020952E2301C05F
:100650002E2B2C938FBF08953FB7F8948091670499
:1006600090916804A0916904B0916A0426B5A89B92
:1006700005C02F3F19F00196A11DB11D3FBFBA2F34
:10068000A92F982F8827820F911DA11DB11DBC0194
:10069000CD0142E0660F771F881F991F4A95D1F759
:1006A00008958F929F92AF92BF92CF92DF92EF9276
:1006B000FF926B017C010E942C034B015C01C11471
:1006C000D104E104F104F1F00E942C03DC01CB0120
:1006D00088199909AA09BB09883E9340A105B1056B
:1006E00070F321E0C21AD108E108F10888EE880E03
:1006F00083E0981EA11CB11CC114D104E104F104D3
:1007000019F7DDCFFF90EF90DF90CF90BF90AF90C3
:100710009F908F9008951F920F920FB60F92112401
:100720002F933F938F939F93AF93BF9380915003E9
:1007300090915103A0915203B091530330916604FC
:1007400023E0230F2D3720F40196A11DB11D05C014
:1007500026E8230F0296A11DB11D20936604809305
:10076000500390935103A0935203B093530380918D
:10077000670490916804A0916904B0916A0401969D
:10078000A11DB11D8093670490936804A093690430
:10079000B0936A04BF91AF919F918F913F912F9138
:1007A0000F900FBE0F901F901895DF92EF92FF925F
:1007B0000F931F93CF93DF931F92CDB7DEB7F82E21
:1007C000890181E08093B204F092D4041092B304C2
:1007D0001092D50487EB95E049830E94570280E090
:1007E0000E94F7074981642F413208F060E28F2DA3
:1007F0000E94540810924F0380934E0380E0309182
:100800004E0390914F03391771F0DD24D394D80E25
:100810007801E80EF11C87EB95E00E941302F701C6
:1008200080838D2DECCF0F90DF91CF911F910F9191
:10083000FF90EF90DF900895CF93C82F81E08093D1
:10084000B204C093D4041092B3041092D50487EB81
:1008500095E00E94570280E00E94F70761E08C2F2C
:100860000E94540810924F0380934E0387EB95E04B
:100870000E941302CF910895CF93DF93EC01FB0107
:10088000858196818130910589F02CF4892B99F42A
:1008900063E273E00DC08230910529F0039759F4AB
:1008A00069E173E005C060E173E002C06DE273E0EE
:1008B000CE010E94F108CE01DF91CF910895EF9211
:1008C000FF920F931F93CF93DF93CDB7DEB72C9793
:1008D0000FB6F894DEBF0FBECDBFDC018091970547
:1008E0008C3098F491E0980F909397058C9390E05A
:1008F000FC01EE0FFF1F8E0F9F1FFC01ED58FA4FFA
:1009000088EB9BE09283818302C08FEF8C931496D7
:100910001C921E92139716965C934E9315978C918A
:10092000062F10E08C3008F06CC0F801E458FE4F40
:100930004491F801E859FE4F24912223A1F030E0C0
:10094000220F331FF901E25AFE4F85919491F9016C
:10095000EC5AFE4F259134912FB7F894FC01308169
:10096000342B30832FBF8C91E82FF0E09F01220FB2
:10097000331FE20FF31FED58FA4F6F739081907C95
:10098000692B608311961C92119712961C921297F4
:100990006CE00E947A20FCE08F9FB001112440E0BF
:1009A00050E09A01260F371FF901EE0FFF1F2E0F9F
:1009B0003F1FF901ED58FA4F908196FD16C04F5F29
:1009C0005F4F4C30510569F781110FC010928000C4
:1009D00082E0809381001092850010928400B19A89
:1009E00080916F00826080936F00EC91F0E0CF0106
:1009F000880F991FE80FF91FED58FA4F8081806426
:100A000080837E0187E0E80EF11CBD01C7010E94D2
:100A10003C0448E050E068E373E0C7010E94980896
:100A20001A8219821C821B821E821D826F81788528
:100A30006115710531F04B855C85CE0101960E94F0
:100A4000C6088F8198850E94E4244AE0B701C80156
:100A50000E945B26F70101900020E9F73197AF0172
:100A60004E195F09B701CE0101960E949808CE0188
:100A700001960E949F0789819A810E94E4242C9606
:100A80000FB6F894DEBF0FBECDBFDF91CF911F919F
:100A90000F91FF90EF9008951F920F920FB60F9253
:100AA00011242F933F934F935F936F937F938F9373
:100AB0009F93AF93BF93EF93FF938091650487FF5C
:100AC00005C010928500109284001BC0209165041F
:100AD000022E000C330B8091970590E02817390700
:100AE00084F480916504082E000C990BFC01EE0F34
:100AF000FF1F8E0F9F1FFC01ED58FA4F808186FD6E
:100B000015C0809165048F5F809365042091650412
:100B1000022E000C330B8091970590E028173907BF
:100B2000C4F4809165048C3064F113C08091650435
:100B3000082E000C990BFC01EE0FFF1F8E0F9F1F5C
:100B4000FC01ED58FA4F808160E08F730E94E00253
:100B5000D8CF8091840090918500049680349C4980
:100B600018F480E49CE905C0809184009091850090
:100B7000049690938900809388008FEF809365049A
:100B80003BC0209184003091850080916504082E3F
:100B9000000C990BFC01EE0FFF1F8E0F9F1FFC0135
:100BA000ED58FA4F81819281820F931F90938900B3
:100BB0008093880080916504082E000C990BFC013D
:100BC000EE0FFF1F8E0F9F1FFC01ED58FA4F808123
:100BD00086FF12C080916504082E000C990BFC0161
:100BE000EE0FFF1F8E0F9F1FFC01ED58FA4F808103
:100BF00061E08F730E94E002FF91EF91BF91AF918E
:100C00009F918F917F916F915F914F913F912F9124
:100C10000F900FBE0F901F9018951F920F920FB656
:100C20000F9211242F933F934F935F936F937F9372
:100C30008F939F93AF93BF93EF93FF938091B900EE
:100C4000887F803609F49CC068F5883209F45BC05F
:100C500090F4803109F454C038F4882309F4F6C0C4
:100C6000883009F44DC0F6C0883109F44CC0803298
:100C700009F45DC0EFC0803409F468C048F48033E3
:100C800009F455C0883309F0E5C08093AF04D8C09B
:100C9000803509F44FC0883509F45DC0883409F007
:100CA000D9C0D6C0883909F4C7C0A8F4883709F478
:100CB00067C038F4883609F463C0803709F460C02F
:100CC000C9C0883809F4B8C0803909F45FC08038D9
:100CD00009F0C0C05BC0803B09F486C038F4803A9C
:100CE00009F466C0883A09F47FC0B4C0803C09F4B6
:100CF000A7C0883C09F4A4C0883B09F48AC0AAC0F4
:100D000080918C0410C09091AE048091AD0498172E
:100D100070F5E091AE0481E08E0F8093AE04F0E0B8
:100D2000E357FB4F80818093BB0085EC86C08093A6
:100D3000AF048EC0E091AE0481E08E0F8093AE04CC
:100D40008091BB00F0E0E357FB4F80839091AE04AD
:100D50008091AD046EC0E091AE0481E08E0F80936F
:100D6000AE048091BB00F0E0E357FB4F808380919D
:100D7000B00481116DC081E080938B0484EA61C06E
:100D800083E08093B10410926404CFCF8091640417
:100D9000803208F051C0E091640481E08E0F8093AE
:100DA00064048091BB00F0E0EC5BFB4F8083BDCF1F
:100DB00085EC8093BC001092B10480916404803271
:100DC00030F4E0916404F0E0EC5BFB4F1082609142
:100DD000640470E0E0914204F091430484E494E000
:100DE00009951092640436C084E08093B104109297
:100DF000410410924004E0913E04F0913F040995B3
:100E000080914004811105C081E0809340041092DC
:100E10001E04E091410481E08E0F80934104F0E0D4
:100E2000E25EFB4F80818093BB00909141048091F2
:100E30004004981708F479CF85E88093BC000AC075
:100E400085EC8093BC001092B10404C01092AF04F2
:100E50000E94D101FF91EF91BF91AF919F918F912E
:100E60007F916F915F914F913F912F910F900FBEA6
:100E70000F901F901895CF92DF92EF92FF920F93F1
:100E80001F93CF93DF936C017A018B01C0E0D0E018
:100E9000CE15DF0589F0D8016D918D01D601ED9158
:100EA000FC910190F081E02DC6010995892B11F488
:100EB0007E0102C02196ECCFC701DF91CF911F9137
:100EC0000F91FF90EF90DF90CF9008950F931F93B5
:100ED000CF93DF93EC0188819981009729F02A81D3
:100EE0003B812617370788F48B016F5F7F4F0E9485
:100EF0007C25009761F0998388831B830A832C816A
:100F00003D81232B11F4FC01108281E001C080E0BF
:100F1000DF91CF911F910F910895009769F0FC0127
:100F200001900020E9F73197AF01481B590BBC0134
:100F300086ED94E00C943B0780E090E00895CF9319
:100F4000DF93FC01448155816081718186ED94E0DD
:100F50000E943B07EC0187E591E00E948D078C0F12
:100F60009D1FDF91CF9108958F929F92AF92BF9274
:100F70000F931F93CF93DF93CDB7DEB7A1970FB633
:100F8000F894DEBF0FBECDBF19A2423008F44AE08C
:100F90008E010F5D1F4F842E912CA12CB12CA50129
:100FA00094010E940A28E62FB901CA0101501109D3
:100FB000EA3014F4E05D01C0E95CD801EC93232B26
:100FC000242B252B61F7C8010E948D07A1960FB62F
:100FD000F894DEBF0FBECDBFDF91CF911F910F916F
:100FE000BF90AF909F908F9008950C948D07382FED
:100FF0002091D5049091D404213208F049C0809109
:10100000B1048111FCCF42E04093B1043093B004AD
:101010003FEF3093AF041092AE042093AD04A4EBE5
:10102000B4E04DE854E0FA013E2F341B321718F4B7
:101030003D913193F9CF10928C0420918C04990F3B
:10104000922B90938C0490918B04913061F41092C8
:101050008B0490918C049093BB009091BC0093FD05
:10106000F8CF95EC01C095EE9093BC009091B1043F
:101070009230E1F39091AF049F3F79F08091AF04FB
:10108000803241F08091AF04803331F084E005C0BC
:1010900081E003C082E001C083E01092B3041092AB
:1010A000D5041092B20408959091B1049111FCCF2F
:1010B00091E09093B1049093B0042FEF2093AF048C
:1010C0001092AE04260F2093AD0490938C0490915F
:1010D0008C04880F892B80938C0480918B04813041
:1010E00061F410928B0480918C048093BB008091FA
:1010F000BC0083FDF8CF85EC01C085EE8093BC0079
:101100008091B1048130E1F38091AE04861710F430
:101110006091AE04ADE8B4E02BE634E0F9018E2F27
:10112000821B861718F48D918193F9CF862F08952D
:10113000EF92FF920F931F93CF93DF93FC012481D3
:1011400035816115710511F480E019C04115510513
:10115000A9F07B01EC018A01020F131FB8010E9464
:101160006607882389F3288139818C819D81B701A5
:10117000820F931F0E9454261D830C8381E0DF9110
:10118000CF911F910F91FF90EF900895EF92FF92F2
:101190000F931F93CF93DF93EC017B018A01BA0178
:1011A0000E9466072881398181110DC02115310502
:1011B00019F0C9010E94E424198218821D821C8240
:1011C0001B821A8206C01D830C83B701C9010E94CD
:1011D0005426CE01DF91CF911F910F91FF90EF9098
:1011E0000895FC01118210821382128215821482EA
:1011F0006115710551F0FB0101900020E9F731976D
:10120000AF01461B570B0C94C6080895CF93DF938C
:10121000CDB7DEB7C45CD1090FB6F894DEBF0FBE00
:10122000CDBF789484B5826084BD84B5816084BD6F
:1012300085B5826085BD85B5816085BD80916E0074
:10124000816080936E0010928100809181008260A5
:1012500080938100809181008160809381008091E2
:1012600080008160809380008091B10084608093D1
:10127000B1008091B00081608093B00080917A00CD
:10128000846080937A0080917A00826080937A00F3
:1012900080917A00816080937A0080917A008068E2
:1012A00080937A001092C100E091E604F091E70487
:1012B00082E08083E091E204F091E3041082E09107
:1012C000E404F091E5048FEC80831092EE04E09149
:1012D000EA04F091EB0486E08083E091E804F09169
:1012E000E904808180618083E091E804F091E90461
:1012F000808188608083E091E804F091E904808136
:1013000080688083E091E804F091E90480818F7D1A
:10131000808310924F0310924E031092B3041092E8
:10132000D5041092B10481E08093B00410928B0434
:1013300061E082E10E94E00261E083E10E94E0025C
:101340008091B9008E7F8093B9008091B9008D7F24
:101350008093B90088E48093B80085E48093BC0052
:10136000EEE7F1E02491EAE6F1E084918823C9F008
:1013700090E0880F991FFC01E25AFE4F459154916D
:10138000FC01EC5AFE4FA591B4919FB7F894FA0175
:1013900080812095822380838C91E22FE823EC9337
:1013A0009FBF60E082E00E94E00265E788E60E945D
:1013B0001C04182F8AE391E00E94F50783E491E072
:1013C0000E94F507C12ED12CE12CF12C40E1C70180
:1013D000B6010E94B40789E491E00E94F50740E15C
:1013E00061E770E080E090E00E94B40787E591E05B
:1013F0000E948D0768EE73E080E090E00E94510348
:10140000113711F00C9462128AE591E00E94BD1F21
:101410008E01075B1F4F86E0D8011D928A95E9F780
:101420008CE07E01BDE3EB0EF11CF701282F119239
:101430002A95E9F7AE014F5C5F4F61965FAF4EAF03
:101440006197DA01E82F1D92EA95E9F73E01F5E28E
:101450006F0E711CD301E82F1D92EA95E9F76E011A
:10146000F9E1CF0ED11CD6011D928A95E9F740E033
:1014700069E188E60E940A1F42E06AE188E60E946C
:101480000A1F41E06BE188E60E940A1F42E06DE11D
:1014900088E60E940A1F41E06CE188E60E940A1F6C
:1014A00068ECA62EB12C980146E06BE388E60E941A
:1014B000D503F801808190E0982F88272181822B25
:1014C000092E000CAA0BBB0B49A95AA96BA97CA930
:1014D000840F951FA61FB71F89AB9AABABABBCABF4
:1014E000828190E0982F88272381822B092E000C7F
:1014F000AA0BBB0B4DA95EA96FA978AD840F951FF0
:10150000A61FB71F8DAB9EABAFABB8AF848190E089
:10151000982F88272581822B092E000CAA0BBB0B44
:1015200049AD5AAD6BAD7CAD840F951FA61FB71F9B
:1015300089AF9AAFABAFBCAF980146E063E488E6F1
:101540000E94D503D8018C9190E0982F882711969E
:101550002C91822B092E000CAA0BBB0BF7014081AA
:10156000518162817381840F951FA61FB71F8083ED
:101570009183A283B383D80112968C91129790E045
:10158000982F882713962C91822B092E000CAA0BDA
:10159000BB0B25964CAD5DAD6EAD7FAD2597840F31
:1015A000951FA61FB71F25968CAF9DAFAEAFBFAFDF
:1015B0002597F801848190E0982F88272581822B38
:1015C000092E000CAA0BBB0B29964CAD5DAD6EAD80
:1015D0007FAD2997840F951FA61FB71F29968CAF43
:1015E0009DAFAEAFBFAF2997F1E0AF1AB10809F0D8
:1015F0005ACF9E012F5C3F4F63963FAF2EAF63974C
:101600006796FFAEEEAE679747015901F8EC2F2EB3
:10161000312C412C512CD5016D917D918D919C9156
:10162000A20191010E94B427F501219331934193C6
:1016300051935F01D4016D917D918D919C91A20197
:1016400091010E94B427F401219331934193519366
:101650004F01AE14BF04F9F640EE6CE188E60E943B
:101660000A1F40EE6BE188E60E940A1F69E170E004
:1016700080E090E00E945103E8ECEE2EF12C9801FE
:1016800046E06BE388E60E94D503D8018C9190E098
:10169000982F882711962C91822B092E000CAA0BCB
:1016A000BB0B4DA15EA16FA178A5840F951FA61F4E
:1016B000B71F8DA39EA3AFA3B8A7F801828190E0C6
:1016C000982F88272381822B092E000CAA0BBB0B95
:1016D00049A55AA56BA57CA5840F951FA61FB71F0A
:1016E00089A79AA7ABA7BCA7848190E0982F8827E9
:1016F0002581822B092E000CAA0BBB0B4DA55EA5E4
:101700006FA578A9840F951FA61FB71F8DA79EA749
:10171000AFA7B8AB980146E063E488E60E94D50322
:10172000D8018C9190E0982F882711962C91822BCC
:10173000092E000CAA0BBB0B498D5A8D6B8D7C8D2D
:10174000840F951FA61FB71F898F9A8FAB8FBC8FF1
:10175000F801828190E0982F88272381822B092E1F
:10176000000CAA0BBB0B4D8D5E8D6F8D78A1840F85
:10177000951FA61FB71F8D8F9E8FAF8FB8A3848133
:1017800090E0982F88272581822B092E000CAA0B28
:10179000BB0B49A15AA16BA17CA1840F951FA61F69
:1017A000B71F89A39AA3ABA3BCA3F1E0EF1AF1087A
:1017B00009F065CF460176018301A8EC2A2E312C71
:1017C000412C512CD8016D917D918D919C91A2015C
:1017D00091010E94B427F8012193319341935193D1
:1017E0008F01D7016D917D918D919C91A201910105
:1017F0000E94B427F70121933193419351937F01C4
:1018000061962EAD3FAD619702171307D9F640E000
:101810006CE188E60E940A1F40E06BE188E60E94C6
:101820000A1F69E170E080E090E00E9451036DE0E2
:1018300088E60E941C04A82E6EE088E60E941C0424
:10184000B82E6FE088E60E941C04E82E60E088E66F
:101850000E941C04F82E61E088E60E941C04082FF8
:1018600062E088E60E941C04182F6A2D70E080E078
:1018700090E00E94952620E030E040E85FE30E947F
:10188000A0209B01AC016EEA77E481E89FE30E940F
:10189000A32220E030EC43E255E40E94F62669835F
:1018A0007A838B839C836B2D70E080E090E00E94B4
:1018B000952620E030E040E85FE30E94A0209B01F5
:1018C000AC016EEA77E481E89FE30E94A32220E066
:1018D00030EC43E255E40E94F6266D837E838F83CD
:1018E00098876E2D70E080E090E00E94952620E0C1
:1018F00030E040E85FE30E94A0209B01AC016EEA6B
:1019000077E481E89FE30E94A32220E030EC43E2E9
:1019100055E40E94F62669877A878B879C876F2D0E
:1019200070E080E090E00E94952620E030E040E802
:101930005FE30E94A0209B01AC016EEA77E481E89E
:101940009FE30E94A32220E030EC43E255E40E9492
:10195000F6266D877E878F87988B602F70E080E0FA
:1019600090E00E94952620E030E040E85FE30E948E
:10197000A0209B01AC016EEA77E481E89FE30E941E
:10198000A32220E030EC43E255E40E94F626698B66
:101990007A8B8B8B9C8B612F70E080E090E00E94B3
:1019A000952620E030E040E85FE30E94A0209B0104
:1019B000AC016EEA77E481E89FE30E94A32220E075
:1019C00030EC43E255E40E94F6266D8B7E8B8F8BC4
:1019D000988FAE014F5F5F4F7A010CE613E0F3E0A2
:1019E000AF2EB12CF30181919191A191B1913F0161
:1019F0006396EEADFFAD6397219131914191519185
:101A00006396FFAFEEAF6397BC01CD01621B730B12
:101A1000840B950B0E94972620E030E048EC52E4BE
:101A20000E94F626D7012D913D914D915C910E9427
:101A30009A2120E030E048EC52E40E94A020F80116
:101A40006083718382839383F40181919191A19149
:101A5000B1914F016796EEADFFAD6797219131913E
:101A6000419151916796FFAFEEAF6797BC01CD01F1
:101A7000621B730B840B950B0E94972620E030E0CD
:101A800048EC52E40E94F626D7011C962D913D9118
:101A90004D915C911F970E949A2120E030E048EC24
:101AA00052E40E94A020F801648775878687978793
:101AB000F1E0AF1AB10824E0E20EF11C0C5F1F4FF9
:101AC000A114B10409F08ECF8FE691E00E94F507D2
:101AD00060916C0370916D0380916E0390916F0320
:101AE0000E94CB1F8DE991E00E94BD1F80EB91E029
:101AF0000E94F507609170037091710380917203E9
:101B0000909173030E94CB1F8DE991E00E94BD1F4D
:101B10008EED91E00E94F50760917403709175035A
:101B200080917603909177030E94CB1F8DE991E01D
:101B30000E94BD1F8CE092E00E94F507609178033F
:101B40007091790380917A0390917B030E94CB1F5F
:101B50008DE991E00E94BD1F86E392E00E94F507A7
:101B600060917C0370917D0380917E0390917F034F
:101B70000E94CB1F8DE991E00E94BD1F80E692E09C
:101B80000E94F50760918003709181038091820328
:101B9000909183030E94CB1F8DE991E00E94BD1FAD
:101BA00040E86BE688E60E940A1F64E670E080E089
:101BB00090E00E94510341E06BE688E60E940A1F14
:101BC00040E06CE688E60E940A1F68EC70E080E066
:101BD00090E00E94510340E068E388E60E940A1FFB
:101BE00040E063E288E60E940A1F40E06BE688E678
:101BF0000E940A1F40E064E288E60E940A1F40E05B
:101C00006AE688E60E940A1F4CE06AE688E60E94BF
:101C10000A1F6FE070E080E090E00E94510341E015
:101C20006AE188E60E940A1F40E069E188E60E94B6
:101C30000A1F40E06BE188E60E940A1F40E06CE169
:101C400088E60E940A1F40E46AE688E60E940A1FAE
:101C500048E763E288E60E940A1F68E270E080E0DD
:101C600090E00E94510340E063E288E60E940A1F70
:101C7000960142E062E788E60E94D503898D90E0F4
:101C8000982F88272A8D822B6CE070E00E94862096
:101C90008B01812C912C5401412C512C32016596E1
:101CA0001CAE1DAE1EAE1FAE65976D961CAE1DAE72
:101CB0001EAE1FAE6D97A1961CAE1DAE1EAE1FAE22
:101CC000A19769961CAE1DAE1EAE1FAE6997C12CC2
:101CD000D12CC016D10609F490C09E01275E3F4F5B
:101CE0004CE064E788E60E94D503898D90E0982F48
:101CF00088272A8D822B092E000CAA0BBB0B659618
:101D00002CAD3DAD4EAD5FAD6597280F391F4A1F15
:101D10005B1F65962CAF3DAF4EAF5FAF65978B8D68
:101D200090E0982F88272C8D822B092E000CAA0B6F
:101D3000BB0B480E591E6A1E7B1E8D8D90E0982F9E
:101D400088272E8D822B092E000CAA0BBB0B880E28
:101D5000991EAA1EBB1E8F8D90E0982F882728A160
:101D6000822B092E000CAA0BBB0B69962CAD3DAD46
:101D70004EAD5FAD6997280F391F4A1F5B1F6996EB
:101D80002CAF3DAF4EAF5FAF699789A190E0982F20
:101D900088272AA1822B092E000CAA0BBB0BA19627
:101DA0002CAD3DAD4EAD5FADA197280F391F4A1F39
:101DB0005B1FA1962CAF3DAF4EAF5FAFA1978BA13C
:101DC00090E0982F88272CA1822B092E000CAA0BBB
:101DD000BB0B6D962CAD3DAD4EAD5FAD6D97280F35
:101DE000391F4A1F5B1F6D962CAF3DAF4EAF5FAFE3
:101DF0006D973FEFC31AD30A6CCFE12CF12C659697
:101E00006CAD7DAD8EAD9FAD6597A70196010E942B
:101E1000B427A5962CAF3DAF4EAF5FAFA597C301DA
:101E2000B201A70196010E94B427A9962CAF3DAF3D
:101E30004EAF5FAFA997C501B401A70196010E94FB
:101E4000B42749015A0169966CAD7DAD8EAD9FAD49
:101E50006997A70196010E94B42729013A01A1962A
:101E60006CAD7DAD8EAD9FADA197A70196010E948F
:101E7000B42769962CAF3DAF4EAF5FAF69976D96B3
:101E80006CAD7DAD8EAD9FAD6D97A70196010E94A3
:101E9000B427A1962CAF3DAF4EAF5FAFA1971814FA
:101EA00019041A041B0464F4D501C4019054A10957
:101EB000B10965968CAF9DAFAEAFBFAF65970BC054
:101EC000A5019401305C4F4F5F4F65962CAF3DAF3D
:101ED0004EAF5FAF659774E0C72ED12CE12CF12C8B
:101EE000C301B201A70196010E94B4275095409505
:101EF000309521953F4F4F4F5F4FBB2757FDBA9508
:101F0000A52F942F832F6D968CAF9DAFAEAFBFAF33
:101F10006D97898F2A8F69966CAD7DAD8EAD9FAD23
:101F20006997A70196010E94B42750954095309576
:101F300021953F4F4F4F5F4F3B8F2C8FA1966CAD3C
:101F40007DAD8EAD9FADA197A70196010E94B427EC
:101F500050954095309521953F4F4F4F5F4F3D8FA6
:101F60002E8F6A964FAD6A9763E188E60E940A1F3A
:101F70004A8D64E188E60E940A1F4B8D65E188E680
:101F80000E940A1F4C8D66E188E60E940A1F4D8D53
:101F900067E188E60E940A1F4E8D68E188E60E948C
:101FA0000A1FC301B2010E94972620E030E043E0FF
:101FB00053E40E949A2160936003709361038093BD
:101FC00062039093630369966CAD7DAD8EAD9FAD5A
:101FD00069970E94972620E030E043E053E40E9496
:101FE0009A216093640370936503809366039093D2
:101FF0006703A1966CAD7DAD8EAD9FADA1970E949C
:10200000972620E030E043E053E40E949A21609359
:1020100068037093690380936A0390936B039E0136
:10202000275E3F4F42E067E788E60E94D503898C30
:10203000912C982C88248A8D882A092C000CAA08B7
:10204000BB0889829A82AB82BC829E01275E3F4F89
:1020500042E06AE788E60E94D503C98CD12CDC2CCB
:10206000CC248A8DC82A0D2C000CEE08FF08CD82E6
:10207000DE82EF82F8869E01275E3F4F42E06DE7E9
:1020800088E60E94D503898D90E0982F88272A8DB5
:10209000822B9C01990F440B550B69962CAF3DAFD9
:1020A0004EAF5FAF699729873A874B875C871DA240
:1020B0001EA21FA2FE013196DE019596CE010D965D
:1020C00021E0419151916191719140FD2C931196C4
:1020D000E817F907B1F748E0442E512C612C712C18
:1020E000A5966CAD7DAD8EAD9FADA597A301920178
:1020F0000E94B427821A930AA40AB50AA9966CAD65
:102100007DAD8EAD9FADA997A30192010E94B4272A
:10211000C21AD30AE40AF50A65966CAD7DAD8EADA0
:102120009FAD6597A30192010E94B42769968CAD7B
:102130009DADAEADBFAD6997821B930BA40BB50BE4
:102140007727B7FC7A956B2D5A2D492D498F2DA1F4
:10215000822A8A8EDB8E2EA1C22ACC8E9D8F2FA141
:10216000822B8E8F67E788E60E940A1F4A8D68E7F8
:1021700088E60E940A1F4B8D6AE788E60E940A1FC4
:102180004C8D6BE788E60E940A1F4D8D6DE788E64F
:102190000E940A1F4E8D6EE788E60E940A1FA596D0
:1021A0006CAD7DAD8EAD9FADA5970E94972620E0CA
:1021B00030E040E858E30E94F626609354037093A1
:1021C00055038093560390935703A9966CAD7DAD4C
:1021D0008EAD9FADA9970E94972620E030E040E8A1
:1021E00058E30E94F6266093580370935903809336
:1021F0005A0390935B0365966CAD7DAD8EAD9FAD3C
:1022000065970E94972620E030E040E858E30E945E
:10221000F62660935C0370935D0380935E03909356
:102220005F0340E06BE688E60E940A1F64E670E008
:1022300080E090E00E94510341E06BE688E60E9456
:102240000A1F68EC70E080E090E00E94510343E0D8
:102250006AE188E60E940A1F44E069E188E60E947C
:102260000A1F6BE188E60E941C04482F457E6BE143
:1022700088E60E940A1F6CE188E60E941C04482F31
:10228000477E6CE188E60E940A1F6DE188E60E94A5
:102290001C04807F482F43606DE188E60E940A1F7E
:1022A00042E267E388E60E940A1F41E068E388E6AD
:1022B0000E940A1F64E670E080E090E00E945103F3
:1022C0008AE892E00E94BD1F60E08CE00E941C043E
:1022D000182F87EB92E00E94F50783E491E00E94BB
:1022E000F507612F70E080E090E040E10E94B407C4
:1022F00089E491E00E94F50740E168E470E080E045
:1023000090E00E94B40787E591E00E948D0768EE97
:1023100073E080E090E00E94510340E06AE08CE0CE
:102320000E940A1F6AE070E080E090E00E94510382
:102330004FE06AE08CE00E940A1F6AE070E080E0F3
:1023400090E00E9451038E010F5F1F4F980143E000
:1023500060E18CE00E94D503698170E060587109EA
:10236000072E000C880B990B0E94972620E030E086
:1023700040E85BE30E94F62620E030E040E85FE3BF
:102380000E94A1206093C4037093C5038093C60389
:102390009093C7036A8170E060587109072E000CA2
:1023A000880B990B0E94972620E030E040E85BE321
:1023B0000E94F62620E030E040E85FE30E94A12082
:1023C0006093C8037093C9038093CA039093CB03AF
:1023D0006B8170E060587109072E000C880B990B17
:1023E0000E94972620E030E040E85BE30E94F6265A
:1023F00020E030E040E85FE30E94A1206093CC033E
:102400007093CD038093CE039093CF0340E06AE0B6
:102410008CE00E940A1F6AE070E080E090E00E9479
:10242000510342E16AE08CE00E940A1F6AE070E01A
:1024300080E090E00E9451038FEB92E00E94BD1F6C
:1024400068EE73E080E090E00E94510342E050E0CB
:1024500069E0C8010E945F0487E0F801ABE9B5E0DC
:1024600001900D928A95E1F743E050E069E0C801E0
:102470000E945F0487E0F801A2EAB5E001900D92A6
:102480008A95E1F740E050E069E0C8010E945F04EE
:1024900087E0F801A9EAB5E001900D928A95E1F78D
:1024A00041E050E069E0C8010E945F0487E0F80164
:1024B000A0EBB5E001900D928A95E1F768E8262E31
:1024C000312C1FC58BEE92E00E94F50740E1C70159
:1024D000B6010E94B40787E591E00E948D07FFCF07
:1024E000980146E06BE388E60E94D503698170E0BD
:1024F000762F66278A81682B70930D0460930C04F5
:10250000CB80D12CDC2CCC248C81C82AD0920F0417
:10251000C0920E04ED80F12CFE2CEE248E81E82A70
:10252000F0921104E092100480E090E0A0E8B8E39B
:102530008093080490930904A0930A04B0930B04B9
:10254000072E000C880B990B0E94972620E030E0A4
:1025500040E858E30E94F626609304047093050453
:102560008093060490930704B601DD0C880B990B49
:102570000E94972620E030E040E858E30E94F626CB
:102580006093000470930104809302049093030409
:10259000B701FF0C880B990B0E94972620E030E0D2
:1025A00040E858E30E94F6266093FC037093FD0315
:1025B0008093FE039093FF03980146E063E488E66E
:1025C0000E94D503698170E0762F66278A81682B87
:1025D0007093F7036093F603CB80D12CDC2CCC24D2
:1025E0008C81C82AD092F903C092F803ED80F12CB7
:1025F000FE2CEE248E81E82AF092FB03E092FA038F
:1026000020E030E04AEF5BE32093F2033093F303E2
:102610004093F4035093F503072E000C880B990B9D
:102620000E94972620E030E04AEF5BE30E94F62606
:102630006093EE037093EF038093F0039093F103A4
:10264000B601DD0C880B990B0E94972620E030E044
:102650004AEF5BE30E94F6266093EA037093EB0374
:102660008093EC039093ED03B701FF0C880B990B5B
:102670000E94972620E030E04AEF5BE30E94F626B6
:102680006093E6037093E7038093E8039093E90374
:1026900062E08CE00E941C0480FD3AC48FEF9BEE48
:1026A000AFEBBFE38093D0039093D103A093D20309
:1026B000B093D30320E030E04BEE53E42093D403F7
:1026C0003093D5034093D6035093D70380E090E036
:1026D000A0EFB2E48093D8039093D903A093DA03D8
:1026E000B093DB0320E030E04AEF52E42093DC03B8
:1026F0003093DD034093DE035093DF036091E003EA
:102700007091E103072E000C880B990B0E9497260D
:102710002FEF3BEE4FEB5FE30E94F6262091C403C0
:102720003091C5034091C6035091C7030E94F6261D
:1027300020E030E04BEE53E40E94A0206093C00301
:102740007093C1038093C2039093C3036091E2032B
:102750007091E303072E000C880B990B0E949726BB
:102760002FEF3BEE4FEB5FE30E94F6262091C8036C
:102770003091C9034091CA035091CB030E94F626C1
:1027800020E030E040EF52E40E94A0206093BC03C0
:102790007093BD038093BE039093BF036091E403E5
:1027A0007091E503072E000C880B990B0E94972669
:1027B0002FEF3BEE4FEB5FE30E94F6262091CC0318
:1027C0003091CD034091CE035091CF030E94F62665
:1027D00020E030E04AEF52E40E94A0206093B8036A
:1027E0007093B9038093BA039093BB030E942C03A8
:1027F0006B017C016093B4037093B5038093B603BF
:102800009093B7038091B0039091B103A091B2036C
:10281000B091B303A7019601281B390B4A0B5B0B40
:10282000CA01B9010E94952620E034E244E759E448
:102830000E949A21C357DF4F688379838A839B83E1
:10284000CD58D0406093AC037093AD038093AE033A
:102850009093AF03C092B003D092B103E092B20361
:10286000F092B3039B01AC016091A8037091A9039E
:102870008091AA039091AB030E94A1206093A803CA
:102880007093A9038093AA039093AB038091A40350
:102890009091A503A091A603B091A7030196A11D55
:1028A000B11D8093A4039093A503A093A603B093B6
:1028B000A7034090B8035090B9036090BA0370909A
:1028C000BB038091C0039091C103A091C203B0915A
:1028D000C303A9968CAF9DAFAEAFBFAFA9972091B0
:1028E000BC033091BD034091BE035091BF03A59638
:1028F0002CAF3DAF4EAF5FAFA5978091E6039091AF
:10290000E703A091E803B091E903C754DF4F888340
:102910009983AA83BB83C95BD0402091EA0330919D
:10292000EB034091EC035091ED03C354DF4F288338
:1029300039834A835B83CD5BD0408091EE039091D5
:10294000EF03A091F003B091F103CF53DF4F8883E1
:102950009983AA83BB83C15CD0402091FC03309152
:10296000FD034091FE035091FF03AD962CAF3DAFA8
:102970004EAF5FAFAD978091000490910104A0919C
:102980000204B0910304E1968CAF9DAFAEAFBFAF30
:10299000E197209104043091050440910604509180
:1029A0000704E5962CAF3DAF4EAF5FAFE597809142
:1029B000000190910101A0910201B09103016D9677
:1029C0008CAF9DAFAEAFBFAF6D972091040130913A
:1029D0000501409106015091070165962CAF3DAF6E
:1029E0004EAF5FAF65978091080190910901A0916A
:1029F0000A01B0910B0169968CAF9DAFAEAFBFAF2E
:102A0000699720910C0130910D0140910E01509178
:102A10000F01A1962CAF3DAF4EAF5FAFA197E596EA
:102A20002CAD3DAD4EAD5FADE597CA01B9010E9439
:102A3000F6266B017C01E1962CAD3DAD4EAD5FAD50
:102A4000E197CA01B9010E94F6269B01AC01C701BA
:102A5000B6010E94A1206B017C01AD962CAD3DAD6D
:102A60004EAD5FADAD97CA01B9010E94F6269B013C
:102A7000AC01C701B6010E94A1200E94F9224B01BE
:102A80005C0120E030E0A9010E949026811168C21B
:102A90002FB7F8948091500390915103A091520365
:102AA000B09153032FBF4091A0035091A1036091B7
:102AB000A2037091A303841B950BA60BB70B809305
:102AC0009C0390939D03A0939E03B0939F03853F27
:102AD0009140A105B10508F4A0C180910001909139
:102AE0000101A0910201B091030165968CAF9DAFE9
:102AF000AEAFBFAF65979C01AD01BC01CD010E9497
:102B0000F626A1966CAF7DAF8EAF9FAFA1972091B7
:102B10000401309105014091060150910701699629
:102B20002CAF3DAF4EAF5FAF6997CA01B9010E94AC
:102B3000F6266D966CAF7DAF8EAF9FAF6D974090D0
:102B400008015090090160900A0170900B01A301E7
:102B50009201C301B2010E94F626A5966CAF7DAF2B
:102B60008EAF9FAFA597C0900C01D0900D01E09063
:102B70000E01F0900F01A7019601C701B6010E9456
:102B8000F626A9966CAF7DAF8EAF9FAFA9976D96D5
:102B90002CAD3DAD4EAD5FAD6D97A1966CAD7DADED
:102BA0008EAD9FADA1970E94A120A5962CAD3DAD05
:102BB0004EAD5FADA5970E94A020A9962CAD3DAD6E
:102BC0004EAD5FADA9970E94A0204B015C01A3010F
:102BD000920169966CAD7DAD8EAD9FAD69970E94F7
:102BE000F626AD966CAF7DAF8EAF9FAFAD97A701C8
:102BF000960165966CAD7DAD8EAD9FAD65970E94DB
:102C0000F6269B01AC01AD966CAD7DAD8EAD9FAD52
:102C1000AD970E94A1209B01AC010E94A120A501BB
:102C200094010E943B21AD966CAF7DAF8EAF9FAFFC
:102C3000AD97A701960169966CAD7DAD8EAD9FAD48
:102C400069970E94F6264B015C01A30192016596EB
:102C50006CAD7DAD8EAD9FAD65970E94F6269B0154
:102C6000AC01C501B4010E94A0209B01AC010E94EF
:102C7000A1200E940D21E1966CAF7DAF8EAF9FAF7A
:102C8000E1976D962CAD3DAD4EAD5FAD6D97A196C4
:102C90006CAD7DAD8EAD9FADA1970E94A020A59695
:102CA0002CAD3DAD4EAD5FADA5970E94A020A9967D
:102CB0002CAD3DAD4EAD5FADA9970E94A1204B015B
:102CC0005C0169962CAD3DAD4EAD5FAD69976596E3
:102CD0006CAD7DAD8EAD9FAD65970E94F626659675
:102CE0006CAF7DAF8EAF9FAF6597A7019601C30113
:102CF000B2010E94F6269B01AC0165966CAD7DADDC
:102D00008EAD9FAD65970E94A1209B01AC010E94F2
:102D1000A120A50194010E943B216B017C01E19659
:102D20006CAD7DAD8EAD9FADE197905820EE3EE24B
:102D300045E652E40E94F6264B015C016093940341
:102D400070939503809396039093970320EE3EE251
:102D500045E652E4AD966CAD7DAD8EAD9FADAD97C1
:102D60000E94F6262DEC3CEC4CE551E40E94A0209C
:102D70002B013C01609398037093990380939A030D
:102D800090939B0320EE3EE245E652E4C701B60174
:102D90000E94F626609390037093910380939203B0
:102DA0009093930360931A0470931B0480931C0404
:102DB00090931D048092120490921304A092140424
:102DC000B0921504409216045092170460921804B1
:102DD000709219042FB7F894809150039091510389
:102DE000A0915203B09153032FBF8093A0039093FF
:102DF000A103A093A203B093A3031092A403109283
:102E0000A5031092A6031092A7031092A803109294
:102E1000A9031092AA031092AB03E12CF12C67E0F6
:102E2000D62EF701E556FA4FDE0159968D2D019009
:102E30000D928A95E1F71D8E1C8E898D8C30D0F411
:102E40009A8D9101291B310997FD339593E0220F4B
:102E5000331F9A95E1F7245031094FB7F89490E069
:102E6000FC01EE0FFF1FE80FF91FED58FA4F3283F8
:102E700021834FBFBE01675E7F4FC8010E943C04A3
:102E800043E050E06CE073E0C8010E9498081EA285
:102E90001DA218A61FA21AA619A669817A8161151A
:102EA000710531F04D815E81CE0185960E94C60884
:102EB00089819A810E94E4244AE0B8018C8D9D8D1D
:102EC0000E946626F80101900020E9F73197AF01D2
:102ED000401B510BB801CE0185960E949808CE0187
:102EE00085960E949F078DA19EA10E94E42437E051
:102EF000E30EF11C4CE1E416F10409F092CF0E94BC
:102F0000BF016AE388E60E941C0480FF6FCCE8CA18
:102F1000980147E063E08CE00E94D5038F8183FD38
:102F2000BDCB8A8190E0982F88272981822B9093AE
:102F3000E1038093E0038C8190E0982F88272B8118
:102F4000822B9093E3038093E2038E8190E0982F8D
:102F500088272D81822B9093E5038093E4039ECBF9
:102F6000A5962CAD3DAD4EAD5FADA597CA01B9019B
:102F70000E94F6266B017C01A9962CAD3DAD4EADAD
:102F80005FADA997CA01B9010E94F6269B01AC0169
:102F9000C701B6010E94A1206B017C01A30192012F
:102FA000C301B2010E94F6269B01AC01C701B60124
:102FB0000E94A1200E94F922E9966CAF7DAF8EAFEE
:102FC0009FAFE99720E030E0A9010E949026882376
:102FD00009F45ECD65962CAD3DAD4EAD5FAD659708
:102FE0006D966CAD7DAD8EAD9FAD6D970E94F62652
:102FF000CF57DF4F688379838A839B83C158D04042
:1030000069962CAD3DAD4EAD5FAD69976D966CADDB
:103010007DAD8EAD9FAD6D970E94F626CB57DF4FED
:10302000688379838A839B83C558D040A1962CAD51
:103030003DAD4EAD5FADA1976D966CAD7DAD8EADE6
:103040009FAD6D970E94F626C757DF4F688379833F
:103050008A839B83C958D04065962CAD3DAD4EAD5B
:103060005FAD6597CA01B9010E94F626CB56DF4FC6
:10307000688379838A839B83C559D04069962CAD38
:103080003DAD4EAD5FAD699765966CAD7DAD8EADD6
:103090009FAD65970E94F6266B017C01A1962CAD31
:1030A0003DAD4EAD5FADA19765966CAD7DAD8EAD7E
:1030B0009FAD65970E94F626C756DF4F68837983D8
:1030C0008A839B83C959D04069962CAD3DAD4EADE6
:1030D0005FAD6997CA01B9010E94F626ED966CAF03
:1030E0007DAF8EAF9FAFED97A1962CAD3DAD4EADB0
:1030F0005FADA19769966CAD7DAD8EAD9FAD6997C3
:103100000E94F626C356DF4F688379838A839B83A8
:10311000CD59D040A1962CAD3DAD4EAD5FADA19740
:10312000CA01B9010E94F626C358DF4F688379832C
:103130008A839B83CD57D040A501940160E070E065
:1031400080E89FE30E949A214B015C019B01AC0146
:10315000E5966CAD7DAD8EAD9FADE5970E94F626F0
:10316000CF55DF4F688379838A839B83C15AD040D0
:10317000A5019401E1966CAD7DAD8EAD9FADE1975B
:103180000E94F626CB55DF4F688379838A839B8321
:10319000C55AD040A5019401AD966CAD7DAD8EAD04
:1031A0009FADAD970E94F626C755DF4F68837983A0
:1031B0008A839B83C95AD040E9962CAD3DAD4EAD74
:1031C0005FADE99760E070E080E89FE30E949A219C
:1031D0004B015C019B01AC01A5966CAD7DAD8EAD44
:1031E0009FADA5970E94F626A5966CAF7DAF8EAFDA
:1031F0009FAFA597A5019401A9966CAD7DAD8EAD4D
:103200009FADA9970E94F626A9966CAF7DAF8EAFB1
:103210009FAFA997A5019401C301B2010E94F626B0
:10322000AD966CAF7DAF8EAF9FAFAD97A5962CAD31
:103230003DAD4EAD5FADA597CA01B9010E94A12079
:10324000E5966CAF7DAF8EAF9FAFE597ED962CAD59
:103250003DAD4EAD5FADED9760E070E080E09FE387
:103260000E94A020C358DF4F288139814A815B81A9
:10327000CD57D0400E94A020C355DF4F688379838B
:103280008A839B83CD5AD040A9962CAD3DAD4EADDF
:103290005FADA997CA01B9010E94A120E9966CAF60
:1032A0007DAF8EAF9FAFE997C757DF4F2881398138
:1032B0004A815B81C958D040C701B6010E94A02055
:1032C000CF54DF4F688379838A839B83C15BD0406F
:1032D000AD962CAD3DAD4EAD5FADAD97CA01B90118
:1032E0000E94A120CF56DF4F688379838A839B8316
:1032F000C159D040CB57DF4F288139814A815B814A
:10330000C558D040C756DF4F688179818A819B813B
:10331000C959D0400E94A120CB54DF4F68837983E4
:103320008A839B83C55BD040C355DF4F2881398199
:103330004A815B81CD5AD040E5966CAD7DAD8EADB6
:103340009FADE5970E94F6264B015C01CF54DF4FFD
:10335000288139814A815B81C15BD040E9966CAD9F
:103360007DAD8EAD9FADE9970E94F6269B01AC0125
:10337000C501B4010E94A1204B015C01CB54DF4F79
:10338000288139814A815B81C55BD040CF56DF4FB0
:10339000688179818A819B81C159D0400E94F6263B
:1033A0009B01AC01C501B4010E94A1202B013C018D
:1033B000CB56DF4F288139814A815B81C559D04086
:1033C00060E070E080E09FE30E94A0204B015C0180
:1033D000C757DF4F288139814A815B81C958D04066
:1033E000C701B6010E94A1209B01AC01E5966CAD1E
:1033F0007DAD8EAD9FADE5970E94F6266B017C01F9
:10340000C358DF4F288139814A815B81CD57D04035
:10341000C501B4010E94A0209B01AC01E9966CADEE
:103420007DAD8EAD9FADE9970E94F6269B01AC0164
:10343000C701B6010E94A1206B017C01CF57DF4F6D
:10344000288139814A815B81C158D040C356DF4F02
:10345000688179818A819B81CD59D0400E94A020CA
:103460009B01AC01CF56DF4F688179818A819B81B6
:10347000C159D0400E94F6269B01AC01C701B6019C
:103480000E94A1206B017C01A3019201C301B20142
:103490000E94F6262B013C01A7019601C701B60147
:1034A0000E94F6269B01AC01C301B2010E94A1203B
:1034B0000E94F9226B017C01CB57DF4F28813981B3
:1034C0004A815B81C558D040C756DF4F68817981FA
:1034D0008A819B81C959D0400E94A020E1966CAF9F
:1034E0007DAF8EAF9FAFE197CF57DF4F28813981F6
:1034F0004A815B81C158D040C356DF4F68817981D2
:103500008A819B81CD59D0400E94A1202B013C0192
:10351000ED962CAD3DAD4EAD5FADED97C501B4015F
:103520000E94A020CF57DF4F688379838A839B83D3
:10353000C158D040E1962CAD3DAD4EAD5FADE197A9
:10354000CA01B9010E94A120CB57DF4F688379835C
:103550008A839B83C558D040A3019201C301B20165
:103560000E94A120C757DF4F688379838A839B839A
:10357000C958D0406D962CAD3DAD4EAD5FAD6D9749
:10358000CA01B9010E94F626CB56DF4F2881398146
:103590004A815B81C559D0400E94A020ED962CAD98
:1035A0003DAD4EAD5FADED970E94A020C358DF4FFB
:1035B000288139814A815B81CD57D0400E94A1206A
:1035C000ED966CAF7DAF8EAF9FAFED97A7019601E3
:1035D000C701B6010E94A1204B015C01E1962CAD10
:1035E0003DAD4EAD5FADE197E5966CAD7DAD8EAD79
:1035F0009FADE5970E94F6266B017C01A301920125
:10360000E9966CAD7DAD8EAD9FADE9970E94F62633
:103610009B01AC01C701B6010E94A1206B017C0196
:10362000CF57DF4F288139814A815B81C158D04013
:10363000CF56DF4F688179818A819B81C159D04003
:103640000E94F6269B01AC01C701B6010E94A12091
:103650009B01AC010E94A1206B017C01C355DF4F8F
:10366000288139814A815B81CD5AD040C501B4019E
:103670000E94F626E5966CAF7DAF8EAF9FAFE597C3
:10368000E1962CAD3DAD4EAD5FADE197C701B60102
:103690000E94F6269B01AC01E5966CAD7DAD8EAD2A
:1036A0009FADE5970E94A120E5966CAF7DAF8EAFF0
:1036B0009FAFE597CF54DF4F288139814A815B81E5
:1036C000C15BD040C501B4010E94F626E1966CAF03
:1036D0007DAF8EAF9FAFE197A3019201C701B60105
:1036E0000E94F6269B01AC01E1966CAD7DAD8EADDE
:1036F0009FADE1970E94A120C358DF4F6883798373
:103700008A839B83CD57D040CB54DF4F28813981AA
:103710004A815B81C55BD040C501B4010E94F62699
:103720004B015C01CF57DF4F288139814A815B8192
:10373000C158D040C701B6010E94F6269B01AC01DA
:10374000C501B4010E94A120E9966CAF7DAF8EAF98
:103750009FAFE9971092840310928503109286031D
:1037600010928703109288031092890310928A03A3
:1037700010928B0310928C0310928D0310928E0383
:1037800010928F032BED3FE049E450E4CF53DF4F1D
:10379000688179818A819B81C15CD0400E94F62634
:1037A00020E030E044E353E40E949A216B017C0165
:1037B000ED962CAD3DAD4EAD5FADED97CB55DF4FEA
:1037C000688179818A819B81C55AD0400E94F62602
:1037D0004B015C01C757DF4F288139814A815B81EA
:1037E000C958D040C755DF4F688179818A819B8154
:1037F000C95AD0400E94F6269B01AC01C501B40114
:103800000E94A0204B015C01E9962CAD3DAD4EAD70
:103810005FADE997A9966CAD7DAD8EAD9FADA997D3
:103820000E94F6262B013C01C358DF4F28813981C5
:103830004A815B81CD57D040AD966CAD7DAD8EADEC
:103840009FADAD970E94F6269B01AC01C301B2016A
:103850000E94A0209B01AC01C501B4010E94A120DF
:1038600020E030E040E251E40E94F6269B01AC01EA
:10387000C701B6010E94A12020E030E0A9010E940A
:10388000A120E1966CAF7DAF8EAF9FAFE1972BED9E
:103890003FE049E450E4C354DF4F688179818A8175
:1038A0009B81CD5BD0400E94F62620E030E044E3CF
:1038B00053E40E949A216B017C01CB57DF4F288192
:1038C00039814A815B81C558D040C755DF4F688137
:1038D00079818A819B81C95AD0400E94F6264B018A
:1038E0005C01ED962CAD3DAD4EAD5FADED97CF5586
:1038F000DF4F688179818A819B81C15AD0400E94C3
:10390000F6269B01AC01C501B4010E94A0204B0129
:103910005C01E5962CAD3DAD4EAD5FADE597AD9646
:103920006CAD7DAD8EAD9FADAD970E94F6262B019F
:103930003C01E9962CAD3DAD4EAD5FADE997A59646
:103940006CAD7DAD8EAD9FADA5970E94F6269B0117
:10395000AC01C301B2010E94A0209B01AC01C501D2
:10396000B4010E94A12020E030E040E251E40E9436
:10397000F6269B01AC01C701B6010E94A12020E000
:1039800030E0A9010E94A120AD966CAF7DAF8EAF53
:103990009FAFAD972BED3FE049E450E4C754DF4FB4
:1039A000688179818A819B81C95BD0400E94F6261B
:1039B00020E030E044E353E40E949A216B017C0153
:1039C000C757DF4F288139814A815B81C958D04070
:1039D000CF55DF4F688179818A819B81C15AD04060
:1039E0000E94F6264B015C01CB57DF4F28813981BD
:1039F0004A815B81C558D040CB55DF4F68817981C2
:103A00008A819B81C55AD0400E94F6269B01AC0159
:103A1000C501B4010E94A0204B015C01C358DF4FD7
:103A2000288139814A815B81CD57D040A5966CAD04
:103A30007DAD8EAD9FADA5970E94F6262B013C0172
:103A4000E5962CAD3DAD4EAD5FADE597A9966CAD5D
:103A50007DAD8EAD9FADA9970E94F6269B01AC016E
:103A6000C301B2010E94A0209B01AC01C501B401B9
:103A70000E94A12020E030E040E251E40E94F626BE
:103A80009B01AC01C701B6010E94A12020E030E0FB
:103A9000A9010E94A1204B015C0120E030E040E040
:103AA0005FE3C357DF4F688179818A819B81CD585D
:103AB000D0400E94F626A5966CAF7DAF8EAF9FAF2B
:103AC000A59765966CAD7DAD8EAD9FAD6597905811
:103AD000E1962CAD3DAD4EAD5FADE1970E94F6266F
:103AE0006B017C01AD962CAD3DAD4EAD5FADAD979C
:103AF00069966CAD7DAD8EAD9FAD69970E94F6263F
:103B00009B01AC01C701B6010E94A0206B017C01A2
:103B1000A5019401A1966CAD7DAD8EAD9FADA19731
:103B20000E94F6269B01AC01C701B6010E94A020AD
:103B3000A5962CAD3DAD4EAD5FADA5970E94F62686
:103B40009B01AC016D966CAD7DAD8EAD9FAD6D975B
:103B50000E94A1206B017C01E1962CAD3DAD4EADE4
:103B60005FADE1970E94F6262B013C01A50194016F
:103B700069966CAD7DAD8EAD9FAD69970E94F626BE
:103B80009B01AC01C301B2010E94A1202B013C01A9
:103B9000AD962CAD3DAD4EAD5FADAD97A1966CAD84
:103BA0007DAD8EAD9FADA1970E94F6269B01AC0125
:103BB000C301B2010E94A020A5962CAD3DAD4EAD33
:103BC0005FADA5970E94F6269B01AC0165966CAD92
:103BD0007DAD8EAD9FAD65970E94A1206D966CAFB7
:103BE0007DAF8EAF9FAF6D97AD962CAD3DAD4EAD19
:103BF0005FADAD97C701B6010E94F6262B013C01CF
:103C0000A501940165966CAD7DAD8EAD9FAD6597B8
:103C10000E94F6269B01AC01C301B2010E94A020C4
:103C20002B013C01E1962CAD3DAD4EAD5FADE19772
:103C3000A1966CAD7DAD8EAD9FADA1970E94F6268D
:103C40009B01AC01C301B2010E94A120A5962CAD3D
:103C50003DAD4EAD5FADA5970E94F6269B01AC0130
:103C600069966CAD7DAD8EAD9FAD69970E94A12028
:103C7000A9966CAF7DAF8EAF9FAFA997A5019401B8
:103C8000C701B6010E94F6264B015C01AD962CAD32
:103C90003DAD4EAD5FADAD9765966CAD7DAD8EAD76
:103CA0009FAD65970E94F6269B01AC01C501B4014A
:103CB0000E94A1204B015C01E1962CAD3DAD4EADC3
:103CC0005FADE19769966CAD7DAD8EAD9FAD6997A7
:103CD0000E94F6269B01AC01C501B4010E94A02000
:103CE000A5962CAD3DAD4EAD5FADA5970E94F626D5
:103CF0009B01AC01A1966CAD7DAD8EAD9FADA19742
:103D00000E94A1202B013C01A7019601C701B60129
:103D10000E94F6264B015C016D962CAD3DAD4EAD7B
:103D20005FAD6D97CA01B9010E94F6269B01AC01F7
:103D3000C501B4010E94A1204B015C01A9962CADE4
:103D40003DAD4EAD5FADA997CA01B9010E94F626FF
:103D50009B01AC01C501B4010E94A1204B015C0193
:103D6000A3019201C301B2010E94F6269B01AC019E
:103D7000C501B4010E94A1200E94F9229B01AC015F
:103D800060E070E080E89FE30E949A214B015C01B3
:103D90009B01AC01C701B6010E94F62660930001A9
:103DA000709301018093020190930301A501940196
:103DB0006D966CAD7DAD8EAD9FAD6D970E94F62674
:103DC00060930401709305018093060190930701AD
:103DD000A5019401A9966CAD7DAD8EAD9FADA9975F
:103DE0000E94F626609308017093090180930A01EE
:103DF00090930B01A5019401C301B2010E94F62624
:103E000060930C0170930D0180930E0190930F014C
:103E10000C944815CF93DF931F92CDB7DEB791E096
:103E20009093B2048093D4041092B3041092D504FA
:103E300087EB95E049830E9457024981642F87EB05
:103E400095E00E94570281E00F90DF91CF910C9492
:103E5000F7071092D9041092D80488EE93E0A0E0FE
:103E6000B0E08093DA049093DB04A093DC04B09379
:103E7000DD048EE191E09093D7048093D60485EC25
:103E800090E09093E3048093E20484EC90E09093BC
:103E9000E5048093E40480EC90E09093E704809341
:103EA000E60481EC90E09093E9048093E80482ECCE
:103EB00090E09093EB048093EA0486EC90E090937A
:103EC000ED048093EC041092EF041092F004109231
:103ED000F1041092F2048EE097ECAAE1BFE3809324
:103EE000C7059093C805A093C905B093CA05109261
:103EF000C3051092C4051092C5051092C60581E055
:103F00008093980510929A051092990580919705D3
:103F1000ABE9B5E09FEF48EB5BE08C3078F48C9335
:103F2000282F30E0F901EE0FFF1F2E0F3F1FF90180
:103F3000ED58FA4F528341838F5F01C09C931796CF
:103F400025E0A73BB20749F7809397051092BA0581
:103F50001092B90588EE93E0A0E0B0E08093BB0535
:103F60009093BC05A093BD05B093BE058EE291E091
:103F70009093B8058093B7050895CF93DF930E947F
:103F80008D07EC0187E591E00E948D078C0F9D1F46
:103F9000DF91CF9108958F929F92AF92BF92CF926F
:103FA000DF92EF92FF92CF93DF936B017C019B0135
:103FB000AC010E943D23882319F081E493E027C0DF
:103FC00046015701E894B7F82FEF3FEF4FE75FE75F
:103FD000C501B4010E943D2381110DC02FEF3FEFB9
:103FE0004FE75FE7C501B4010E94902618161CF444
:103FF00085E493E00CC02FEF3FEF4FE75FE4C7018C
:10400000B6010E949622181674F489E493E0DF91B9
:10401000CF91FF90EF90DF90CF90BF90AF909F90A7
:104020008F900C948D072FEF3FEF4FE75FECC701A8
:10403000B6010E94902687FDE8CF20E030E0A9017C
:10404000C701B6010E94902687FF11C0E091D604F7
:10405000F091D7040190F081E02D6DE286ED94E0BF
:104060000995EC01F7FAF094F7F8F09402C0C0E07B
:10407000D0E02DEC3CEC4CE45DE3C701B6010E94BE
:10408000A1204B015C010E940C226B017C010E946B
:1040900095269B01AC01C501B4010E94A0204B01F3
:1040A0005C014AE0C701B6010E94B407C80FD91FDE
:1040B00085EB92E00E948D07C80FD91F20E030E009
:1040C00040E251E4C501B4010E94F6260E940C2290
:1040D00080E090E04AE00E94B4078C0F9D1FDF91C2
:1040E000CF91FF90EF90DF90CF90BF90AF909F90D7
:1040F0008F900895991B79E004C0991F961708F0D6
:10410000961B881F7A95C9F780950895AA1BBB1B3B
:1041100051E107C0AA1FBB1FA617B70710F0A61BC7
:10412000B70B881F991F5A95A9F780959095BC01E8
:10413000CD010895EE0FFF1F0590F491E02D099435
:104140005058BB27AA270E94B8200C947A270E94B7
:104150006C2738F00E94732720F039F49F3F19F440
:1041600026F40C9469270EF4E095E7FB0C94632782
:10417000E92F0E948B2758F3BA1762077307840749
:10418000950720F079F4A6F50C94AD270EF4E09590
:104190000B2EBA2FA02D0B01B90190010C01CA0101
:1041A000A0011124FF27591B99F0593F50F4503EAC
:1041B00068F11A16F040A22F232F342F4427585F9E
:1041C000F3CF469537952795A795F0405395C9F7B6
:1041D0007EF41F16BA0B620B730B840BBAF091506E
:1041E000A1F0FF0FBB1F661F771F881FC2F70EC00D
:1041F000BA0F621F731F841F48F4879577956795E0
:10420000B795F7959E3F08F0B0CF9395880F08F0CB
:104210009927EE0F9795879508959F939F77EEE3E3
:1042200089379E0728F4E8E6F0E00E9482220CC05D
:104230000E943B229058A2EA2AED3FE049EC5FE35E
:104240000E94B8200E947A270F9007FC905808958A
:104250000E946C2760F080E891E009F49EEF0E94D4
:10426000732728F040E851E071F45EEF0CC00C9425
:1042700069270C94AD27E92FE0780E948B2740F343
:10428000092E052AB1F3261737074807590738F0D2
:104290000E2E07F8E02569F0E025E0640AC0EF6320
:1042A00007F8009407FADB01B9019D01DC01CA019E
:1042B000AD01EF930E94B1210E947A270E946B21E9
:1042C0005F91552339F02BED3FE049E450FD49EC77
:1042D0000C94A1200895DF93DD27B92FBF7740E824
:1042E0005FE31616170648075B0718F4D92F0E94DC
:1042F0009B229F938F937F936F930E943923ECE7C8
:10430000F0E00E945B220E947A272F913F914F910B
:104310005F910E940927DD2351F09058A2EA2AED0F
:104320003FE049EC5FE3D0785D270E94B820DF9141
:104330000C947A270E94AE210C947A270E9473274E
:1043400058F00E946C2740F029F45F3F29F00C944C
:10435000632751110C94AE270C9469270E948B2778
:1043600068F39923B1F3552391F3951B550BBB27A4
:10437000AA2762177307840738F09F5F5F4F220FE9
:10438000331F441FAA1FA9F335D00E2E3AF0E0E8E0
:1043900032D091505040E695001CCAF72BD0FE2F2A
:1043A00029D0660F771F881FBB1F261737074807BE
:1043B000AB07B0E809F0BB0B802DBF01FF27935876
:1043C0005F4F3AF09E3F510578F00C9463270C94B0
:1043D000AE275F3FE4F3983ED4F3869577956795D3
:1043E000B795F7959F5FC9F7880F911D96958795AB
:1043F00097F90895E1E0660F771F881FBB1F6217CA
:1044000073078407BA0720F0621B730B840BBA0B87
:10441000EE1F88F7E09508950E94932788F09F5734
:1044200098F0B92F9927B751B0F0E1F0660F771FD8
:10443000881F991F1AF0BA95C9F714C0B13091F0CE
:104440000E94AD27B1E008950C94AD27672F782F17
:104450008827B85F39F0B93FCCF386957795679593
:10446000B395D9F73EF490958095709561957F4FFF
:104470008F4F9F4F0895DF93CF931F930F938B011F
:10448000EC01E9EAF0E00E945B220E947A279801A1
:10449000AE018B01EC0160E070E080E89FE30E94D8
:1044A000A0200E94F9229801AE010F911F91CF9197
:1044B000DF910C940927DF93CF931F930F93FF9203
:1044C000EF92DF927B018C01689406C0DA2EEF0137
:1044D0000E940927FE01E894A59125913591459107
:1044E0005591A6F3EF010E94B820FE019701A801A3
:1044F000DA9469F7DF90EF90FF900F911F91CF91C1
:10450000DF9108959F938F937F936F93FF93EF9322
:104510009B01AC010E94F626EF91FF910E945B2265
:104520002F913F914F915F910C94F6260E94D226D5
:1045300008F48FEF08959B01AC0160E070E080E823
:104540009FE30C949A21FA01EE0FFF1F309621058C
:104550003105A1F16115710561F48038BFE39B0756
:1045600049F168949038810561F08038BFEF9B076E
:1045700041F099234AF5FF3FE1053105210519F185
:10458000E8940894E795D901AA2329F4AB2FBE2F0C
:10459000F85FD0F310C0FF5F70F4A695E0F7F7392D
:1045A00050F019F0FF3A38F49F779F930DD00F9099
:1045B00007FC9058089546F00C94692760E070E07D
:1045C00080E89FE308954FE79F775F934F933F9372
:1045D0002F930E94D3232F913F914F915F910E947F
:1045E000F6260C944A2319F416F40C9469270C94BB
:1045F0007C230E949327B8F39923C9F3B6F39F57FE
:10460000550B87FF0E948A230024A0E640EA900110
:1046100080585695979528F4805C660F771F881F01
:1046200020F026173707480730F4621B730B840B02
:10463000202931294A2BA695179407942025312546
:104640004A2758F7660F771F881F20F0261737076D
:10465000480730F4620B730B840B200D311D411D94
:10466000A09581F7B901842F9158880F9695879569
:1046700008959B01AC010C94F6260E94D226880B6B
:10468000990B089529F416F00C9463270C94AD2728
:104690000C9469270E949327A8F39638A0F707F88F
:1046A0000F92E8942BE33AEA48EB5FE70E940C276D
:1046B0000F920F920F924DB75EB70F920E941B247C
:1046C000E1EDF0E00E945B224F915F91EF91FF914D
:1046D000E595EE1FFF1F49F0FE57E0684427EE0FF7
:1046E000441FFA95E1F74195550B0E9495230F90D1
:1046F00007FE0C949B2208959F3F31F0915020F4C7
:10470000879577956795B795880F911D96958795AD
:1047100097F9089591505040660F771F881FD2F780
:1047200008950C9463270C947C230E949327D8F35C
:104730009923C9F3940F511DA3F39150504094F065
:1047400059F0882332F0660F771F881F9150504030
:10475000C1F79E3F51052CF7880F911D96958795BF
:1047600097F908955F3FACF0983E9CF0BB27869583
:1047700077956795B79508F4B1609395C1F7BB0F2E
:1047800058F711F460FFE8CF6F5F7F4F8F4F9F4F57
:10479000E3CF0C94AE2716F00C947C230C9469277D
:1047A00068940C9463270E949327A8F39923C1F37C
:1047B000AEF3DF93CF931F930F93FF92C92FDD27A3
:1047C00088232AF02197660F771F881FDAF720E0E9
:1047D00030E040E85FEB9FE3883920F0803E38F01E
:1047E00021968F770E94A120E9EFF0E004C00E949B
:1047F000A120E6E2F1E00E945B228B01BE01EC0108
:10480000FB2E6F5771097595771F880B990B0E94C6
:10481000972628E132E741E35FE30E940927AF2DA5
:104820009801AE01FF900F911F91CF91DF910E94EF
:10483000B8200C947A27FA01DC01AA0FBB1F9B0158
:10484000AC01BF5728F4222733274427507820C0D3
:10485000B75190F4AB2F0024469537952795011C4E
:10486000A395D2F3002071F0220F331F441FB3959C
:10487000DAF30ED00C94A02061307105A0E88A070D
:10488000B94630F49B01AC016627772788279078DA
:10489000309621F020833183428353830895CF9350
:1048A000DF938230910510F482E090E0E091CD0535
:1048B000F091CE0520E030E0C0E0D0E0309711F17B
:1048C0004081518148175907C0F04817590761F4D2
:1048D00082819381209719F09B838A832BC09093C8
:1048E000CE058093CD0526C02115310519F042175C
:1048F000530718F49A01BE01DF01EF010280F38132
:10490000E02DDCCF2115310509F1281B390B2430AE
:10491000310590F412968D919C9113976115710554
:1049200021F0FB019383828304C09093CE05809392
:10493000CD05FD01329644C0FD01E20FF31F8193C6
:104940009193225031092D933C933AC02091CB058D
:104950003091CC05232B41F42091120130911301A9
:104960003093CC052093CB0520911001309111019B
:104970002115310541F42DB73EB7409114015091F6
:104980001501241B350BE091CB05F091CC05E21706
:10499000F307A0F42E1B3F0B2817390778F0AC0162
:1049A0004E5F5F4F2417350748F04E0F5F1F50933F
:1049B000CC054093CB058193919302C0E0E0F0E0F9
:1049C000CF01DF91CF9108950F931F93CF93DF9382
:1049D000009709F48CC0FC01329713821282009177
:1049E000CD051091CE050115110581F4208131818D
:1049F000820F931F2091CB053091CC0528173907E2
:104A000079F5F093CC05E093CB0571C0D80140E077
:104A100050E0AE17BF0750F412962D913C911397BA
:104A2000AD012115310509F1D901F3CF9D01DA015D
:104A30003383228360817181860F971F82179307CA
:104A400069F4EC0128813981260F371F2E5F3F4F13
:104A5000318320838A819B8193838283452B29F430
:104A6000F093CE05E093CD0542C01396FC93EE93F0
:104A70001297ED01499159919E01240F351FE217BC
:104A8000F30771F480819181840F951F029611962E
:104A90009C938E938281938113969C938E9312970D
:104AA000E0E0F0E0D80112968D919C911397009769
:104AB00019F0F8018C01F6CF8D919C9198012E5F31
:104AC0003F4F820F931F2091CB053091CC052817C3
:104AD000390769F4309729F41092CE051092CD056C
:104AE00002C0138212821093CC050093CB05DF9194
:104AF000CF911F910F910895A0E0B0E0E2E8F5E2B8
:104B00000C94D727EC01009721F4CB010E944F248D
:104B1000B8C0FC01E60FF71F9C0122503109E217D3
:104B2000F30708F4ACC0D9010D911C911197061739
:104B30001707B0F00530110508F49FC0C8010497AD
:104B40008617970708F499C002501109061B170B26
:104B5000019311936D937C93CF010E94E4248DC047
:104B60005B01A01AB10A4C01800E911EA091CD05E7
:104B7000B091CE0540E050E0E12CF12C109709F403
:104B80004AC0A815B905D1F56D907C9011976301C5
:104B900082E0C80ED11CCA14DB0480F1A3014A19BB
:104BA0005B096A0182E0C80ED11C1296BC90129774
:104BB0001396AC91B5E0CB16D10440F0B282A3833A
:104BC00051834083D9016D937C930AC00E5F1F4FC0
:104BD000C301800F911FF90191838083EB2DFA2F80
:104BE000E114F10431F0D7011396FC93EE93129780
:104BF00044C0F093CE05E093CD053FC08D919C91CC
:104C000011974817590708F4AC017D0112960D90D1
:104C1000BC91A02DB3CF8091CB059091CC05881588
:104C20009905E1F446175707C8F480911001909157
:104C30001101009741F48DB79EB740911401509136
:104C40001501841B950BE817F907C8F4F093CC0500
:104C5000E093CB05F901718360830FC0CB010E9403
:104C60004F247C01009759F0A801BE010E944B26F9
:104C7000CE010E94E424C70104C0CE0102C080E03E
:104C800090E0CDB7DEB7EEE00C94F32781E090E042
:104C9000F8940C942C28FB01DC0102C001900D92C9
:104CA00041505040D8F70895FB01DC0101900D926E
:104CB0000020E1F70895BB274A3031F4992322F40C
:104CC000BDE2909581959F4F0C946726BB27FB0111
:104CD0005527AA27880F991FAA1FA41710F0A41BF5
:104CE00083955051B9F7A05DAA3308F0A95DA1934F
:104CF000009779F7B111B1931192CB010C948026F2
:104D0000DC01FC01672F71917723E1F7329704C032
:104D10007C916D9370836291AE17BF07C8F30895BD
:104D20000E94D22608F481E00895E89409C097FB18
:104D30003EF490958095709561957F4F8F4F9F4F72
:104D40009923A9F0F92F96E9BB279395F6958795B6
:104D500077956795B795F111F8CFFAF4BB0F11F479
:104D600060FF1BC06F5F7F4F8F4F9F4F16C0882320
:104D700011F096E911C0772321F09EE8872F762F56
:104D800005C0662371F096E8862F70E060E02AF097
:104D90009A95660F771F881FDAF7880F9695879583
:104DA00097F90895990F0008550FAA0BE0E8FEEF58
:104DB00016161706E807F907C0F012161306E407DF
:104DC000F50798F0621B730B840B950B39F40A26D8
:104DD00061F0232B242B252B21F408950A2609F4B6
:104DE000A140A6958FEF811D811D08950E9409277E
:104DF0000C947A270E946C2738F00E94732720F0C9
:104E0000952311F00C9463270C94692711240C94BA
:104E1000AE270E948B2770F3959FC1F3950F50E04A
:104E2000551F629FF001729FBB27F00DB11D639F5C
:104E3000AA27F00DB11DAA1F649F6627B00DA11D02
:104E4000661F829F2227B00DA11D621F739FB00DA8
:104E5000A11D621F839FA00D611D221F749F332718
:104E6000A00D611D231F849F600D211D822F762FB1
:104E70006A2F11249F5750409AF0F1F088234AF08E
:104E8000EE0FFF1FBB1F661F771F881F91505040FA
:104E9000A9F79E3F510580F00C9463270C94AE2730
:104EA0005F3FE4F3983ED4F3869577956795B79581
:104EB000F795E7959F5FC1F7FE2B880F911D96959B
:104EC000879597F9089597F99F6780E870E060E00B
:104ED00008959FEF80EC089500240A941616170693
:104EE00018060906089500240A94121613061406DB
:104EF00005060895092E0394000C11F4882352F03E
:104F0000BB0F40F4BF2B11F460FF04C06F5F7F4FF5
:104F10008F4F9F4F089557FD9058440F551F59F0DC
:104F20005F3F71F04795880F97FB991F61F09F3F96
:104F300079F087950895121613061406551FF2CFBF
:104F40004695F1DF08C0161617061806991FF1CF0F
:104F500086957105610508940895E894BB27662736
:104F60007727CB0197F90895052E97FB1EF400943F
:104F70000E94CB2757FD07D00E940A2807FC03D0C8
:104F80004EF40C94CB2750954095309521953F4F8A
:104F90004F4F5F4F089590958095709561957F4F25
:104FA0008F4F9F4F08952F923F924F925F926F9233
:104FB0007F928F929F92AF92BF92CF92DF92EF92A9
:104FC000FF920F931F93CF93DF93CDB7DEB7CA1B2A
:104FD000DB0B0FB6F894DEBF0FBECDBF09942A8855
:104FE000398848885F846E847D848C849B84AA84FD
:104FF000B984C884DF80EE80FD800C811B81AA818A
:10500000B981CE0FD11D0FB6F894DEBF0FBECDBF54
:10501000ED010895A1E21A2EAA1BBB1BFD010DC0D4
:10502000AA1FBB1FEE1FFF1FA217B307E407F50758
:1050300020F0A21BB30BE40BF50B661F771F881F34
:10504000991F1A9469F760957095809590959B01CA
:0C505000AC01BD01CF010895F894FFCF22
:10505C000000803F00000000000000000000000085
:10506C000000CF0580000100000000000000560188
:10507C003B071F01FD0011019D01000000005702BC
:10508C002702C9011302040203024D50553932356F
:10509C003020004920414D200020492073686F7555
:1050AC006C6420626520000D0A004D505539323574
:1050BC0030206973206F6E6C696E652E2E2E007811
:1050CC002D617869732073656C6620746573743A0E
:1050DC0020616363656C65726174696F6E207472B4
:1050EC00696D2077697468696E203A200025206FFD
:1050FC006620666163746F72792076616C756500E9
:10510C00792D617869732073656C6620746573748E
:10511C003A20616363656C65726174696F6E2074AB
:10512C0072696D2077697468696E203A20007A2D57
:10513C00617869732073656C6620746573743A20AA
:10514C00616363656C65726174696F6E20747269FA
:10515C006D2077697468696E203A2000782D61782B
:10516C0069732073656C6620746573743A20677973
:10517C00726174696F6E207472696D2077697468DE
:10518C00696E203A2000792D617869732073656C03
:10519C006620746573743A206779726174696F6EF6
:1051AC00207472696D2077697468696E203A2000EA
:1051BC007A2D617869732073656C662074657374DD
:1051CC003A206779726174696F6E207472696D2010
:1051DC0077697468696E203A20004D505539323524
:1051EC003020696E697469616C697A656420666FD8
:1051FC0072206163746976652064617461206D6FDF
:10520C0064652E2E2E2E00414B383936332000414A
:10521C004B3839363320696E697469616C697A650B
:10522C006420666F722061637469766520646174B2
:10523C0061206D6F64652E2E2E2E00436F756C648D
:10524C00206E6F7420636F6E6E65637420746F20B4
:10525C004D5055393235303A20307800203D200001
:10526C00526561724C656674005265617252696771
:10527C0068740046726F6E744C6566740046726F8B
:10528C006E74526967687400202D2070696E3A2024
:0E529C00006E616E00696E66006F766600003F
:00000001FF
