:100000000C94D3000C94FB000C94FB000C94FB00AC
:100010000C94FB000C94FB000C94FB000C94FB0074
:100020000C94FB000C94FB000C94FB000C944C060D
:100030000C94FB000C94FB000C94FB000C94FB0054
:100040000C9403050C94FB000C94EC020C94C60277
:100050000C94FB000C94FB000C94FB000C94FB0034
:100060000C940D070C94FB00036EDB363D9A9999B6
:10007000993DABAAAA2A3E000000803F084AD73B20
:100080003BCE016E84BCBFFDC12F3D6C74319ABD67
:1000900056833DDA3D00C77F11BED9E4BB4C3E918B
:1000A0006BAAAABE000000803F072C7AA5BA6CC5D7
:1000B00090DA3B9365FC8BBC53F810FD3C56928361
:1000C0004DBD879D3AB63DCBC9BF5BBE73DA0FC944
:1000D0003F07634236B79BD8A71A39685618AEBA9D
:1000E000AB558C1D3CB7CC5763BD6DEDFD753EF631
:1000F000177231BF000000803F08000000BE92244C
:1001000049123EABAAAA2ABECDCCCC4C3E00000080
:1001100080BEABAAAAAA3E00000000BF000000807B
:100120003F0000000000084178D3BB4387D1133D56
:10013000190E3CC3BD4282AD2B3E68EC8276BED91F
:100140008FE1A93E4C80EFFFBE01C4FF7F3F00005E
:100150000000000000000000250028002B00000027
:100160000000240027002A000404040404040404FA
:100170000202020202020303030303030102040852
:100180001020408001020408102001020408102001
:100190000000000800020100000304070000000046
:1001A000000000001C2511241FBECFEFD8E0DEBFE9
:1001B000CDBF13E0A0E0B1E0E2E0F7E502C00590BA
:1001C0000D92A638B107D9F726E0A6E8B3E001C042
:1001D0001D92A034B207E1F710E0C3EDD0E004C0F7
:1001E0002197FE010E943E26C23DD107C9F70E9419
:1001F0009F0C0C947F2B0C940000FC01918D828D40
:10020000981761F0828DDF01A80FB11D5D968C916A
:10021000928D9F5F9F73928F90E008958FEF9FEF75
:100220000895FC01918D828D981731F0828DE80F31
:10023000F11D858D90E008958FEF9FEF0895FC01EB
:10024000918D228D892F90E0805C9F4F821B9109B8
:100250008F739927089582E195E00E941F0121E0A4
:10026000892B09F420E0822F0895FC01848DDF01A1
:10027000A80FB11DA35ABF4F2C91848D90E0019619
:100280008F739927848FA689B7892C93A089B18908
:100290008C9180648C93938D848D981306C0028812
:1002A000F389E02D80818F7D80830895EF92FF9206
:1002B0000F931F93CF93DF93EC0181E0888F9B8D89
:1002C0008C8D981305C0E889F989808185FD24C04B
:1002D000F62E0B8D10E00F5F1F4F0F731127E02ECE
:1002E0008C8DE8120CC00FB607FCFACFE889F989AB
:1002F000808185FFF5CFCE010E943501F1CF8B8D36
:10030000FE01E80FF11DE35AFF4FF0820B8FEA89DF
:10031000FB898081806207C0EE89FF896083E8895C
:10032000F98980818064808381E090E0DF91CF91C2
:100330001F910F91FF90EF900895CF93DF93EC0101
:10034000888D8823C9F0EA89FB89808185FD05C0F5
:10035000A889B9898C9186FD0FC00FB607FCF5CF2F
:10036000808185FFF2CFA889B9898C9185FFEDCF77
:10037000CE010E943501E7CFDF91CF91089580E053
:1003800090E0892B29F00E942B0181110C94000030
:1003900008958091B10590E02091B205821B9109EA
:1003A000089585ED8093BC008091BC0084FDFCCF56
:1003B0001092EF04089540917E04262F30E0240F20
:1003C000311D21323105DCF42091EF042430C9F4D1
:1003D000FC0180E090E0861758F430917E04219172
:1003E000DC01A45ABB4FA30FB11D2C930196F3CF90
:1003F00080917E04680F60937E0480E0089581E020
:10040000089582E008950895E091B2058091B105C4
:10041000E81730F4F0E0E755FB4F808190E0089555
:100420008FEF9FEF08959091B2058091B1059817D5
:1004300050F4E92FF0E0E755FB4F208130E09F5F5B
:100440009093B20502C02FEF3FEFC9010895CF92FC
:10045000DF92EF92FF920F931F93CF93DF937C0174
:10046000262F972F8A018091F004882391F0C62FC0
:10047000D72F6E01C40ED51ECC15DD0571F0699124
:10048000D701ED91FC910190F081E02DC701099514
:10049000F3CF642F822F0E94DB01C801DF91CF913F
:1004A0001F910F91FF90EF90DF90CF900895CF9321
:1004B000DF931F92CDB7DEB769832091F00422232A
:1004C000D1F02091AF05203240F021E030E0FC0176
:1004D0003383228380E090E015C08091B005E82F3F
:1004E000F0E0EF50FB4F998190838F5F8093B005D0
:1004F0008093AF0505C061E0CE0101960E94DB014B
:1005000081E090E00F90DF91CF9108950E94F32950
:1005100081E08093F00486E7809311051092B00586
:100520001092AF0560EE8CE296E00E94570266EBF7
:100530008CE296E00E94570281E00C94E708CF938A
:10054000DF931F92CDB7DEB741E0BE016F5F7F4FF3
:1005500083EF0E948F09898183FB882780F991E0CE
:1005600089270F90DF91CF91089541E063E084EFF8
:100570000C94DA0902970C94B502611102C040E0B4
:1005800001C043E063E084EF0C94DA091F920F92FC
:100590000FB60F9211242F933F934F935F936F9356
:1005A0007F938F939F93AF93BF93EF93FF9382E1DA
:1005B00095E00E943501FF91EF91BF91AF919F911E
:1005C0008F917F916F915F914F913F912F910F90FC
:1005D0000FBE0F901F9018951F920F920FB60F929B
:1005E00011242F938F939F93EF93FF93E091220514
:1005F000F09123058081E0912805F091290582FD85
:1006000012C0908180912B058F5F8F7320912C05F4
:10061000821751F0E0912B05F0E0EE5EFA4F958FD6
:1006200080932B0501C08081FF91EF919F918F9165
:100630002F910F900FBE0F901F90189590E0FC0126
:10064000E057FE4F3491FC01E458FE4F2491FC0129
:10065000E859FE4FE491EE2309F43BC0332339F10E
:10066000333091F038F43130A9F0323001F584B5EF
:100670008F7D12C0373091F03830A1F03430B9F4AA
:10068000809180008F7D03C0809180008F77809360
:1006900080000DC084B58F7784BD09C08091B00003
:1006A0008F7703C08091B0008F7D8093B000F0E021
:1006B000EE0FFF1FEC5AFE4FA591B4918FB7F8943F
:1006C000EC91611103C020952E2301C02E2B2C9399
:1006D0008FBF08953FB7F8948091A5049091A60428
:1006E000A091A704B091A80426B5A89B05C02F3FF0
:1006F00019F00196A11DB11D3FBFBA2FA92F982F48
:100700008827820F911DA11DB11DBC01CD0142E0C2
:10071000660F771F881F991F4A95D1F708958F920A
:100720009F92AF92BF92CF92DF92EF92FF926B01B6
:100730007C010E946A034B015C01C114D104E104F5
:10074000F104F1F00E946A03DC01CB0188199909D8
:10075000AA09BB09883E9340A105B10570F321E0C9
:10076000C21AD108E108F10888EE880E83E0981ECD
:10077000A11CB11CC114D104E104F10419F7DDCFAF
:10078000FF90EF90DF90CF90BF90AF909F908F90B1
:1007900008950F931F93CF938C01CBEFD801ED9168
:1007A000FC910680F781E02DC8010995811109C0EF
:1007B000C15041F062E070E080E090E00E948F0361
:1007C000EDCFC1E08C2FCF911F910F9108950F9322
:1007D0001F93CF93DF9300D0CDB7DEB78C0181E0BC
:1007E0008093F00486E7809311051092B005109273
:1007F000AF0581E00E94E708882311F080E0FCC08B
:10080000D801ED91FC910280F381E02DC80109959A
:1008100064E070E080E090E00E948F0344E16CE1CE
:1008200084EF0E94DA0940E460EE84EF0E94DA0966
:1008300040E06CE185EF0E94DA0940E060EE85EF70
:100840000E94DA0940E061E085EF0E94DA0942E0A7
:10085000BE016F5F7F4F88E80E948F098A8190E018
:10086000982F88272981822BF8019583848342E081
:10087000BE016F5F7F4F8AE80E948F098A8190E0F6
:10088000982F88272981822BD80119969C938E93C3
:10089000189742E0BE016F5F7F4F8CE80E948F097E
:1008A0008A8190E0982F88272981822BF8019387ED
:1008B000828742E0BE016F5F7F4F8EE80E948F0902
:1008C0008A8190E0982F88272981822BD80117965A
:1008D0009C938E93169742E0BE016F5F7F4F80E935
:1008E0000E948F098A8190E0982F88272981822B86
:1008F000F8019587848742E0BE016F5F7F4F82E9F0
:100900000E948F098A8190E0982F88272981822B65
:10091000D8011F969C938E931E9742E0BE016F5F95
:100920007F4F84E90E948F098A8190E0982F882761
:100930002981822BF801918B808B42E0BE016F5F91
:100940007F4F86E90E948F098A8190E0982F88273F
:100950002981822BD80153969C938E93529742E023
:10096000BE016F5F7F4F88E90E948F098A8190E006
:10097000982F88272981822BF801958B848B42E060
:10098000BE016F5F7F4F8AE90E948F098A8190E0E4
:10099000982F88272981822BD80157969C938E9374
:1009A000569742E0BE016F5F7F4F8CE90E948F092E
:1009B0008A8190E0982F88272981822BF801918FD6
:1009C000808F42E0BE016F5F7F4F8EE90E948F09EA
:1009D0008A8190E0982F88272981822BD8015B9605
:1009E0009C938E935A97ED91FC910190F081E02DAC
:1009F00061E0C801099581E00F900F90DF91CF91E0
:100A00001F910F9108951F920F920FB60F9211240C
:100A10002F933F938F939F93AF93BF9380918603C0
:100A200090918703A0918803B09189033091A40429
:100A300023E0230F2D3720F40196A11DB11D05C021
:100A400026E8230F0296A11DB11D2093A4048093D4
:100A5000860390938703A0938803B09389038091C2
:100A6000A5049091A604A091A704B091A8040196B2
:100A7000A11DB11D8093A5049093A604A093A70483
:100A8000B093A804BF91AF919F918F913F912F9107
:100A90000F900FBE0F901F901895DF92EF92FF926C
:100AA0000F931F93CF93DF931F92CDB7DEB7F82E2E
:100AB000890181E08093F004F09211051092B00555
:100AC0001092AF058CE296E049830E94570280E0C5
:100AD0000E94E7084981642F8F2D0E94440980E01D
:100AE0003091B1059091B205391771F0DD24D3949E
:100AF000D80E7801E80EF11C8CE296E00E941302F9
:100B0000F70180838D2DECCF0F90DF91CF911F9156
:100B10000F91FF90EF90DF900895CF93C82F81E061
:100B20008093F004C09311051092B0051092AF05A8
:100B30008CE296E00E94570280E00E94E70861E0A4
:100B40008C2F0E9444098CE296E00E941302CF9100
:100B50000895CF93DF93DC018091F8058C3098F4F1
:100B600091E0980F9093F8058C9390E0FC01EE0FC4
:100B7000FF1F8E0F9F1FFC01EC52FA4F88EB9BE08A
:100B80009283818302C08FEF8C9313961C921397EC
:100B900015961C921E92149717961C921E921697E9
:100BA00019961C921E9218971B965C934E931A9757
:100BB0008C918C3008F06DC0262F30E0F901E4589C
:100BC000FE4F8491F901E859FE4F2491222399F0B8
:100BD00030E0220F331FF901E25AFE4FC591D49144
:100BE000F901EC5AFE4F259134919FB7F894E881B2
:100BF000E82BE8839FBF8C91E82FF0E09F01220F44
:100C0000331FE20FF31FEC52FA4F6F739081907C09
:100C1000692B608311961C92119712961C92129761
:100C20006CE00E941E269CE0899FB001112440E0E8
:100C300050E09A01260F371FF901EE0FFF1F2E0F0C
:100C40003F1FF901EC52FA4F908196FD16C04F5F9D
:100C50005F4F4C30510569F781110FC01092800031
:100C600082E0809381001092850010928400B19AF6
:100C700080916F00826080936F00EC91F0E0CF0173
:100C8000880F991FE80FF91FEC52FA4F808180649A
:100C90008083DF91CF9108951F920F920FB60F922C
:100CA00011242F933F934F935F936F937F938F9371
:100CB0009F93AF93BF93EF93FF938091A30487FF1C
:100CC00005C010928500109284001BC02091A304DF
:100CD000022E000C330B8091F80590E0281739079D
:100CE00084F48091A304082E000C990BFC01EE0FF4
:100CF000FF1F8E0F9F1FFC01EC52FA4F808186FD73
:100D000015C08091A3048F5F8093A3042091A30456
:100D1000022E000C330B8091F80590E0281739075C
:100D2000C4F48091A3048C3064F113C08091A304B7
:100D3000082E000C990BFC01EE0FFF1F8E0F9F1F5A
:100D4000FC01EC52FA4F808160E08F730E941E0319
:100D5000D8CF8091840090918500049680349C497E
:100D600018F480E49CE905C080918400909185008E
:100D7000049690938900809388008FEF8093A3045A
:100D80003BC020918400309185008091A304082EFF
:100D9000000C990BFC01EE0FFF1F8E0F9F1FFC0133
:100DA000EC52FA4F81819281820F931F90938900B8
:100DB000809388008091A304082E000C990BFC01FD
:100DC000EE0FFF1F8E0F9F1FFC01EC52FA4F808128
:100DD00086FF12C08091A304082E000C990BFC0121
:100DE000EE0FFF1F8E0F9F1FFC01EC52FA4F808108
:100DF00061E08F730E941E03FF91EF91BF91AF914D
:100E00009F918F917F916F915F914F913F912F9122
:100E10000F900FBE0F901F9018951F920F920FB654
:100E20000F9211242F933F934F935F936F937F9370
:100E30008F939F93AF93BF93EF93FF938091B900EC
:100E4000887F803609F49CC068F5883209F45BC05D
:100E500090F4803109F454C038F4882309F4F6C0C2
:100E6000883009F44DC0F6C0883109F44CC0803296
:100E700009F45DC0EFC0803409F468C048F48033E1
:100E800009F455C0883309F0E5C08093ED04D8C05B
:100E9000803509F44FC0883509F45DC0883409F005
:100EA000D9C0D6C0883909F4C7C0A8F4883709F476
:100EB00067C038F4883609F463C0803709F460C02D
:100EC000C9C0883809F4B8C0803909F45FC08038D7
:100ED00009F0C0C05BC0803B09F486C038F4803A9A
:100EE00009F466C0883A09F47FC0B4C0803C09F4B4
:100EF000A7C0883C09F4A4C0883B09F48AC0AAC0F2
:100F00008091CA0410C09091EC048091EB04981772
:100F100070F5E091EC0481E08E0F8093EC04F0E03A
:100F2000E553FB4F80818093BB0085EC86C08093A6
:100F3000ED048EC0E091EC0481E08E0F8093EC0410
:100F40008091BB00F0E0E553FB4F80839091EC046F
:100F50008091EB046EC0E091EC0481E08E0F8093F1
:100F6000EC048091BB00F0E0E553FB4F808380915F
:100F7000EE0481116DC081E08093C90484EA61C0F0
:100F800083E08093EF041092A204CFCF8091A2045B
:100F9000803208F051C0E091A20481E08E0F80936E
:100FA000A2048091BB00F0E0EE57FB4F8083BDCFE1
:100FB00085EC8093BC001092EF048091A2048032F3
:100FC00030F4E091A204F0E0EE57FB4F1082609104
:100FD000A20470E0E0918004F091810482E894E042
:100FE00009951092A20436C084E08093EF04109219
:100FF0007F0410927E04E0917C04F0917D040995B9
:1010000080917E04811105C081E080937E0410925E
:101010005C04E0917F0481E08E0F80937F04F0E018
:10102000E45AFB4F80818093BB0090917F048091B4
:101030007E04981708F479CF85E88093BC000AC035
:1010400085EC8093BC001092EF0404C01092ED0474
:101050000E94D101FF91EF91BF91AF919F918F912C
:101060007F916F915F914F913F912F910F900FBEA4
:101070000F901F9018951092EF0481E08093EE047A
:101080001092C90461E082E10E941E0361E083E1E5
:101090000E941E03E9EBF0E080818E7F80838081D7
:1010A0008D7F808388E48093B80085E48093BC00C2
:1010B0000895CF92DF92EF92FF920F931F93CF93F9
:1010C000DF936C017A018B01C0E0D0E0CE15DF0523
:1010D00089F0D8016D918D01D601ED91FC910190BF
:1010E000F081E02DC6010995892B11F47E0102C023
:1010F0002196ECCFC701DF91CF911F910F91FF9007
:10110000EF90DF90CF900895009769F0FC01019077
:101110000020E9F73197AF01481B590BBC0182E170
:1011200095E00C94590880E090E008958F929F928A
:10113000AF92BF920F931F93CF93DF93CDB7DEB7DC
:10114000A1970FB6F894DEBF0FBECDBF19A24230F3
:1011500008F44AE08E010F5D1F4F842E912CA12CC4
:10116000B12CA50194010E944E2BE62FB901CA01B2
:1011700001501109EA3014F4E05D01C0E95CD801C6
:10118000EC93232B242B252B61F7C8010E948408A4
:10119000A1960FB6F894DEBF0FBECDBFDF91CF9101
:1011A0001F910F91BF90AF909F908F9008950C94D6
:1011B0008408CF93DF930E948408EC0187E691E0D6
:1011C0000E9484088C0F9D1FDF91CF910895382FC6
:1011D0002091AF0590911105213208F049C080910E
:1011E000EF048111FCCF42E04093EF043093EE0412
:1011F0003FEF3093ED041092EC042093EB04A1EF49
:10120000B4E04BEC54E0FA013E2F341B321718F4D3
:101210003D913193F9CF1092CA042091CA04990FDD
:10122000922B9093CA049091C904913061F410926A
:10123000C9049091CA049093BB009091BC0093FDA7
:10124000F8CF95EC01C095EE9093BC009091EF041F
:101250009230E1F39091ED049F3F79F08091ED049D
:10126000803241F08091ED04803331F084E005C09C
:1012700081E003C082E001C083E01092B0051092CB
:10128000AF051092F00408959091EF049111FCCFF6
:10129000613208F060E291E09093EF049093EE04E5
:1012A0002FEF2093ED041092EC04260F2093EB0413
:1012B0009093CA049091CA04880F892B8093CA0422
:1012C0008091C904813061F41092C9048091CA04EC
:1012D0008093BB008091BC0083FDF8CF85EC01C0FA
:1012E00085EE8093BC008091EF048130E1F3809122
:1012F000EC04861710F46091EC04ABECB4E029EA3E
:1013000034E0F9018E2F821B861718F48D9181939A
:10131000F9CF1092B2056093B105862F0895DF9240
:10132000EF92FF920F931F93CF93DF931F92CDB74E
:10133000DEB78B0191E09093F00496E7909311054E
:101340001092B0051092AF05682F8CE296E04983A9
:101350000E94570280E00E94E7084981442309F176
:10136000642F86E70E944409D12C9091B1058091A9
:10137000B205981759F07801ED0CF11C8CE296E05B
:101380000E941302F7018083D394EFCF81E00F9086
:10139000DF91CF911F910F91FF90EF90DF900C9410
:1013A000E7080F90DF91CF911F910F91FF90EF9081
:1013B000DF900895FF920F931F93CF93DF931F92B7
:1013C000CDB7DEB7F82E162F042F41E0BE016F5FB8
:1013D0007F4F0E948F09812F809599819823012347
:1013E000192F102B198381E08093F00486E78093F6
:1013F00011051092B0051092AF056F2D8CE296E0AA
:101400000E945702612F8CE296E00E94570281E011
:101410000E94E7080F90DF91CF911F910F91FF90ED
:1014200008954F925F926F927F928F929F92AF92A8
:10143000BF92CF92DF92EF92FF926B017C01B42EAC
:101440009B01AC010E94E128882319F089E793E011
:1014500027C026013701E89477F82FEF3FEF4FE7D9
:101460005FE7C301B2010E94E12881110DC02FEF97
:101470003FEF4FE75FE7C301B2010E94F82918165A
:101480001CF48DE793E00CC02FEF3FEF4FE75FE4D4
:10149000C701B6010E943A28181684F481E893E047
:1014A000FF90EF90DF90CF90BF90AF909F908F9084
:1014B0007F906F905F904F900C9484082FEF3FEFD8
:1014C0004FE75FECC701B6010E94F82987FDE6CF20
:1014D00020E030E0A901C701B6010E94F82987FF8A
:1014E00011C0E0911205F09113050190F081E02DFB
:1014F0006DE282E195E009954C01F7FAF094F7F876
:10150000F09402C0812C912CA12C60E070E080E06E
:101510009FE3AB1440F420E030E040E251E40E944D
:101520003E27A394F6CF9B01AC01C701B6010E94F0
:1015300045262B013C010E94B0276B017C010E94D3
:10154000FD299B01AC01C301B2010E9444262B017D
:101550003C014AE0C701B6010E9496087C01E80CF4
:10156000F91CBB2069F0E0911205F0911305019080
:10157000F081E02D6EE282E195E00995E80EF91E1A
:10158000DB2CDD2021F120E030E040E251E4C3011A
:10159000B2010E945E2A2B013C010E94B0274B0140
:1015A000A12CB12C4AE0C501B4010E949608E80EB6
:1015B000F91EC501B4010E94FD299B01AC01C301C4
:1015C000B2010E9444262B013C01DA94DACFC70114
:1015D000FF90EF90DF90CF90BF90AF909F908F9053
:1015E0007F906F905F904F9008952F923F924F920F
:1015F0005F926F927F928F929F92AF92BF92CF92A3
:10160000DF92EF92FF920F931F93CF93DF93CDB7AB
:10161000DEB728970FB6F894DEBF0FBECDBF8C01A2
:1016200043E0BE016F5F7F4F87EF0E948F09E98122
:10163000EC83FA81FD83EB81EE83C090CF05D090DF
:10164000D005E090D105F090D205F594E794D794B9
:10165000C794FAEFDF1AE108F108C701B60152E0BA
:1016600095958795779567955A95D1F79B01AC012C
:101670000E940E262B013C01E091C705F091C805A0
:101680002090C5053090C6052091C3053091C40552
:1016900038872F83A091C105B091C2059B01AC0191
:1016A0006DE055954795379527956A95D1F70E9436
:1016B000462B4B015C0173E0B594A79497948794F3
:1016C0007A95D1F7A091BF05B091C005A701960109
:1016D0000E94462BDC01CB01B595A7959795879580
:1016E000880D991DAA1DBB1D32E1B595A79597954B
:1016F00087953A95D1F79C01AD0130584F4F5F4F18
:10170000A091B905B091BA050E943B2B4B015C0139
:101710004FE0B594A794979487944A95D1F7811494
:101720009104A104B10409F4F1C0A30192016BE09A
:1017300055954795379527956A95D1F7DF010E9412
:10174000462B2B013C01D101A70196010E94462B9B
:10175000DC01CB01880F991FAA1FBB1F480E591E21
:101760006A1E7B1EE2E07594679457944794EA954D
:10177000D1F7ED81CE2ED12CFC81DF2AE12CF12C8A
:10178000F4E0CC0CDD1CEE1CFF1CFA95D1F7EE81C9
:101790004E2F50E0CA01A4E095958795AA95E1F7F0
:1017A000092E000CAA0BBB0BC82AD92AEA2AFB2A4D
:1017B00044275527BA014C195D096E097F09EF814D
:1017C000F885CF01FF0FAA0BBB0BDC0199278827F7
:1017D000480E591E6A1E7B1E3CE075946794579410
:1017E00047943A95D1F79A01AB0124193509460976
:1017F0005709A5E3BCE00E943B2B805B9C43F801AA
:10180000608371838283938397FD0EC0660F771F79
:10181000881F991FA50194010E944E2BF801208377
:101820003183428353830FC0A50194010E944E2B44
:10183000DA01C901880F991FAA1FBB1FF801808315
:101840009183A283B383F801C080D180E280F380CA
:10185000C701B60123E096958795779567952A95F8
:10186000D1F7E091CD05F091CE059B01AC010E942E
:101870000E269B01AC016DE056954795379527954F
:101880006A95D1F7DF010E94462B4B015C017CE099
:10189000B594A794979487947A95D1F7A701960168
:1018A000E2E05695479537952795EA95D1F7A091AF
:1018B000CB05B091CC050E94462BDC01CB01FDE0AD
:1018C000B595A79597958795FA95D1F7880D991DA8
:1018D000AA1DBB1D4091C9055091CA05052E000CDB
:1018E000660B770B840F951FA61FB71F24E0B595D5
:1018F000A795979587952A95D1F78C0D9D1DAE1DBF
:10190000BF1DF80180839183A283B38328960FB60D
:10191000F894DEBF0FBECDBFDF91CF911F910F9125
:10192000FF90EF90DF90CF90BF90AF909F908F90FF
:101930007F906F905F904F903F902F900895CF933E
:10194000DF93CDB7DEB7C85CD1090FB6F894DEBF20
:101950000FBECDBF789484B5826084BD84B58160AC
:1019600084BD85B5826085BD85B5816085BD80916A
:101970006E00816080936E001092810080918100E2
:1019800082608093810080918100816080938100DA
:10199000809180008160809380008091B10084609C
:1019A0008093B1008091B00081608093B0008091FD
:1019B0007A00846080937A0080917A0082608093BC
:1019C0007A0080917A00816080937A0080917A0019
:1019D000806880937A001092C100E0912205F09116
:1019E000230582E08083E0911E05F0911F0510829F
:1019F000E0912005F09121058FEC808310922A055B
:101A0000E0912605F091270586E08083E09124058A
:101A1000F0912505808180618083E0912405F0911B
:101A20002505808188608083E0912405F09125055B
:101A3000808180688083E0912405F0912505808174
:101A40008F7D80831092B2051092B1051092B0057F
:101A50001092AF050E943B08EEE7F1E02491EAE620
:101A6000F1E084918823C9F090E0880F991FFC0170
:101A7000E25AFE4FA591B491FC01EC5AFE4F4591FC
:101A800054919FB7F8948C91E22FE0958E238C931C
:101A9000DA018C91E823EC939FBF60E082E00E9422
:101AA0001E0365E788E60E948D05182F8AE491E001
:101AB0000E94D70883E591E00E94D708C12ED12C5F
:101AC000E12CF12C40E1C701B6010E94960889E59E
:101AD00091E00E94D70840E161E770E080E090E08B
:101AE0000E94960887E691E00E94840868EE73E001
:101AF00080E090E00E948F03113711F00C941B16C8
:101B00008AE691E00E94D9088E01075B1F4F86E0AC
:101B1000F80111928A95E9F78CE06E01FDE3CF0E92
:101B2000D11CD601E82F1D92EA95E9F72E01F1E3C9
:101B30004F0E511CD201E82F1D92EA95E9F79E0144
:101B40002B5D3F4F61963FAF2EAF6197D901E82FD4
:101B50001D92EA95E9F77E01F9E1EF0EF11CD7013C
:101B60001D928A95E9F740E069E188E60E94FD242C
:101B700042E06AE188E60E94FD2441E06BE188E6EC
:101B80000E94FD2442E06DE188E60E94FD2441E0D0
:101B90006CE188E60E94FD2468ECA62EB12C980129
:101BA00046E06BE388E60E944D05F801808190E0F5
:101BB000982F88272181822B092E000CAA0BBB0BA2
:101BC00049A95AA96BA97CA9840F951FA61FB71F05
:101BD00089AB9AABABABBCAB828190E0982F8827E6
:101BE0002381822B092E000CAA0BBB0B4DA95EA9E9
:101BF0006FA978AD840F951FA61FB71F8DAB9EAB45
:101C0000AFABB8AF848190E0982F88272581822BD5
:101C1000092E000CAA0BBB0B49AD5AAD6BAD7CADC8
:101C2000840F951FA61FB71F89AF9AAFABAFBCAF8C
:101C3000980146E063E488E60E944D05D8018C9146
:101C400090E0982F882711962C91822B092E000C5A
:101C5000AA0BBB0BF6014081518162817381840F15
:101C6000951FA61FB71F80839183A283B383D801DA
:101C700012968C91129790E0982F882713962C91AA
:101C8000822B092E000CAA0BBB0B25964CAD5DAD2B
:101C90006EAD7FAD2597840F951FA61FB71F2596A4
:101CA0008CAF9DAFAEAFBFAF2597F801848190E0B8
:101CB000982F88272581822B092E000CAA0BBB0B9D
:101CC00029964CAD5DAD6EAD7FAD2997840F951F04
:101CD000A61FB71F29968CAF9DAFAEAFBFAF299798
:101CE000F1E0AF1AB10809F05ACF67965FAE4EAE79
:101CF00067976B96DFAECEAE6B976396DFAECEAED8
:101D000063975201F8EC6F2E712C812C912CD50128
:101D10006D917D918D919C91A40193010E941C2B4A
:101D2000F50121933193419351935F016396AEADD9
:101D3000BFAD63976D917D918D919C91A4019301AD
:101D40000E941C2B6396EEADFFAD639721933193F8
:101D5000419351936396FFAFEEAF6397AC14BD040C
:101D6000B1F640EE6CE188E60E94FD2440EE6BE1A6
:101D700088E60E94FD2469E170E080E090E00E9426
:101D80008F03E8ECCE2ED12C980146E06BE388E679
:101D90000E944D05D8018C9190E0982F88271196CC
:101DA0002C91822B092E000CAA0BBB0B4DA15EA11E
:101DB0006FA178A5840F951FA61FB71F8DA39EA3A3
:101DC000AFA3B8A7F801828190E0982F88272381DC
:101DD000822B092E000CAA0BBB0B49A55AA56BA59B
:101DE0007CA5840F951FA61FB71F89A79AA7ABA72D
:101DF000BCA7848190E0982F88272581822B092E0B
:101E0000000CAA0BBB0B4DA55EA56FA578A9840F8E
:101E1000951FA61FB71F8DA79EA7AFA7B8AB9801A8
:101E200046E063E488E60E944D05D8018C9190E07D
:101E3000982F882711962C91822B092E000CAA0B23
:101E4000BB0B498D5A8D6B8D7C8D840F951FA61F02
:101E5000B71F898F9A8FAB8FBC8FF801828190E07A
:101E6000982F88272381822B092E000CAA0BBB0BED
:101E70004D8D5E8D6F8D78A1840F951FA61FB71FA6
:101E80008D8F9E8FAF8FB8A3848190E0982F882785
:101E90002581822B092E000CAA0BBB0B49A15AA14C
:101EA0006BA17CA1840F951FA61FB71F89A39AA3BE
:101EB000ABA3BCA3F1E0CF1AD10809F065CF8E0126
:101EC0000B5D1F4F37016396FFAEEEAE639768015F
:101ED000A8EC8A2E912CA12CB12CD6016D917D916C
:101EE0008D919C91A50194010E941C2BF6012193D8
:101EF0003193419351936F016396AEADBFAD63973C
:101F00006D917D918D919C91A50194010E941C2B56
:101F10006396EEADFFAD6397219331934193519357
:101F20006396FFAFEEAF6397C414D504B1F640E0FB
:101F30006CE188E60E94FD2440E06BE188E60E94A7
:101F4000FD2469E170E080E090E00E948F036DE085
:101F500088E60E948D05882E6EE088E60E948D0539
:101F6000982E6FE088E60E948D05A82E60E088E636
:101F70000E948D05B82E61E088E60E948D05C82E6E
:101F800062E088E60E948D05D82E682D70E080E022
:101F900090E00E94FD2920E030E040E85FE30E94ED
:101FA00044269B01AC016EEA77E481E89FE30E943E
:101FB000472820E030EC43E255E40E945E2A698322
:101FC0007A838B839C83692D70E080E090E00E948F
:101FD000FD2920E030E040E85FE30E9444269B01B9
:101FE000AC016EEA77E481E89FE30E94472820E095
:101FF00030EC43E255E40E945E2A6D837E838F833A
:1020000098876A2D70E080E090E00E94FD2920E032
:1020100030E040E85FE30E9444269B01AC016EEA99
:1020200077E481E89FE30E94472820E030EC43E218
:1020300055E40E945E2A69877A878B879C876B2D7F
:1020400070E080E090E00E94FD2920E030E040E870
:102050005FE30E9444269B01AC016EEA77E481E8CD
:102060009FE30E94472820E030EC43E255E40E94C1
:102070005E2A6D877E878F87988B6C2D70E080E05D
:1020800090E00E94FD2920E030E040E85FE30E94FC
:1020900044269B01AC016EEA77E481E89FE30E944D
:1020A000472820E030EC43E255E40E945E2A698B29
:1020B0007A8B8B8B9C8B6D2D70E080E090E00E9482
:1020C000FD2920E030E040E85FE30E9444269B01C8
:1020D000AC016EEA77E481E89FE30E94472820E0A4
:1020E00030EC43E255E40E945E2A6D8B7E8B8F8B31
:1020F000988F9E012F5F3F4F5901F2EACF2EF3E0F8
:10210000DF2E812C912CF80181919191A191B191B7
:102110008F016796EEADFFAD6797219131914191A7
:1021200051916796FFAFEEAF6797BC01CD01621B7F
:10213000730B840B950B0E94FF2920E030E048ECE4
:1021400052E40E945E2AD5012D913D914D915C9102
:102150000E943E2720E030E048EC52E40E944426F2
:10216000F6016083718382839383F301819191915E
:10217000A191B1913F016B96EEADFFAD6B972191AF
:102180003191419151916B96FFAFEEAF6B97BC01CE
:10219000CD01621B730B840B950B0E94FF2920E07D
:1021A00030E048EC52E40E945E2AD5011C962D9145
:1021B0003D914D915C911F970E943E2720E030E0B9
:1021C00048EC52E40E944426F601648775878687AE
:1021D0009787FFEF8F1A9F0A24E0A20EB11C34E00C
:1021E000C30ED11C43E08416910409F08CCF8FE715
:1021F00091E00E94D7086091A2037091A30380919F
:10220000A4039091A50341E050E00E94110A8DEAD9
:1022100091E00E94D90880EC91E00E94D70860917B
:10222000A6037091A7038091A8039091A90341E0B0
:1022300050E00E94110A8DEA91E00E94D9088EEECA
:1022400091E00E94D7086091AA037091AB0380913E
:10225000AC039091AD0341E050E00E94110A8DEA79
:1022600091E00E94D9088CE192E00E94D708609129
:10227000AE037091AF038091B0039091B10341E040
:1022800050E00E94110A8DEA91E00E94D90886E48C
:1022900092E00E94D7086091B2037091B3038091DD
:1022A000B4039091B50341E050E00E94110A8DEA19
:1022B00091E00E94D90880E792E00E94D7086091DF
:1022C000B6037091B7038091B8039091B90341E0D0
:1022D00050E00E94110A8DEA91E00E94D90840E87E
:1022E0006BE688E60E94FD2464E670E080E090E002
:1022F0000E948F0341E06BE688E60E94FD2440E0E7
:102300006CE688E60E94FD2468EC70E080E090E0D6
:102310000E948F0340E068E388E60E94FD2440E0CD
:1023200063E288E60E94FD2440E06BE688E60E94B6
:10233000FD2440E064E288E60E94FD2440E06AE675
:1023400088E60E94FD244CE06AE688E60E94FD24AF
:102350006FE070E080E090E00E948F0341E06AE16E
:1023600088E60E94FD2440E069E188E60E94FD24A1
:1023700040E06BE188E60E94FD2440E06CE188E6E5
:102380000E94FD2440E46AE688E60E94FD2448E7B6
:1023900063E288E60E94FD2468E270E080E090E05D
:1023A0000E948F0340E063E288E60E94FD249701CB
:1023B00042E062E788E60E944D05898D90E0982F03
:1023C00088272A8D822B6CE070E00E942A268B01E0
:1023D000412C512C3201812C912C540165961CAE5C
:1023E0001DAE1EAE1FAE6597A1961CAE1DAE1EAEF5
:1023F0001FAEA1976D961CAE1DAE1EAE1FAE6D97A3
:1024000069961CAE1DAE1EAE1FAE6997C12CD12CB5
:10241000C016D10609F490C09E01275E3F4F4CE0E4
:1024200064E788E60E944D05898D90E0982F882703
:102430002A8D822B092E000CAA0BBB0B65962CADA6
:102440003DAD4EAD5FAD6597280F391F4A1F5B1F2D
:1024500065962CAF3DAF4EAF5FAF65978B8D90E02B
:10246000982F88272C8D822B092E000CAA0BBB0BD2
:10247000880E991EAA1EBB1E8D8D90E0982F88276E
:102480002E8D822B092E000CAA0BBB0B480E591E59
:102490006A1E7B1E8F8D90E0982F882728A1822BA3
:1024A000092E000CAA0BBB0B69962CAD3DAD4EADB1
:1024B0005FAD6997280F391F4A1F5B1F69962CAFC4
:1024C0003DAF4EAF5FAF699789A190E0982F882705
:1024D0002AA1822B092E000CAA0BBB0B6D962CADEA
:1024E0003DAD4EAD5FAD6D97280F391F4A1F5B1F85
:1024F0006D962CAF3DAF4EAF5FAF6D978BA190E067
:10250000982F88272CA1822B092E000CAA0BBB0B1D
:10251000A1962CAD3DAD4EAD5FADA197280F391FF3
:102520004A1F5B1FA1962CAF3DAF4EAF5FAFA19787
:102530003FEFC31AD30A6CCFE12CF12C65966CAD3A
:102540007DAD8EAD9FAD6597A70196010E941C2BB6
:10255000A5962CAF3DAF4EAF5FAFA597C501B401B7
:10256000A70196010E941C2BA9962CAF3DAF4EAF40
:102570005FAFA997C301B201A70196010E941C2B6E
:1025800049015A0169966CAD7DAD8EAD9FAD6997DD
:10259000A70196010E941C2B29013A016D966CAD92
:1025A0007DAD8EAD9FAD6D97A70196010E941C2B4E
:1025B00069962CAF3DAF4EAF5FAF6997A1966CADFA
:1025C0007DAD8EAD9FADA197A70196010E941C2BFA
:1025D0006D962CAF3DAF4EAF5FAF6D9718141904D9
:1025E0001A041B0464F4D501C4019054A109B10973
:1025F00065968CAF9DAFAEAFBFAF65970BC0A50121
:102600009401305C4F4F5F4F65962CAF3DAF4EAF9E
:102610005FAF6597E4E0CE2ED12CE12CF12CC30105
:10262000B201A70196010E941C2B50954095309550
:1026300021953F4F4F4F5F4FBB2757FDBA95A52FB1
:10264000942F832FA1968CAF9DAFAEAFBFAFA19754
:10265000898F2A8F69966CAD7DAD8EAD9FAD6997E0
:10266000A70196010E941C2B50954095309521950D
:102670003F4F4F4F5F4F3B8F2C8F6D966CAD7DADB5
:102680008EAD9FAD6D97A70196010E941C2B5095B2
:102690004095309521953F4F4F4F5F4F3D8F2E8F87
:1026A0006E964FAD6E9763E188E60E94FD244A8DD9
:1026B00064E188E60E94FD244B8D65E188E60E9476
:1026C000FD244C8D66E188E60E94FD244D8D67E176
:1026D00088E60E94FD244E8D68E188E60E94FD2474
:1026E000C301B2010E94FF2920E030E043E053E43F
:1026F0000E943E27609396037093970380939803FC
:102700009093990369966CAD7DAD8EAD9FAD699741
:102710000E94FF2920E030E043E053E40E943E277E
:1027200060939A0370939B0380939C0390939D0303
:102730006D966CAD7DAD8EAD9FAD6D970E94FF29FE
:1027400020E030E043E053E40E943E2760939E0384
:1027500070939F038093A0039093A1039E01275E33
:102760003F4F42E067E788E60E944D05498C512CB7
:10277000542C44248A8D482A052C000C66087708BE
:1027800049825A826B827C829E01275E3F4F42E0E3
:102790006AE788E60E944D05C98CD12CDC2CCC243C
:1027A0008A8DC82A0D2C000CEE08FF08CD82DE822F
:1027B000EF82F8869E01275E3F4F42E06DE788E694
:1027C0000E944D05898D90E0982F88272A8D822BB5
:1027D0009C01990F440B550B69962CAF3DAF4EAF42
:1027E0005FAF699729873A874B875C871DA21EA236
:1027F0001FA2FE013196DE019596CE010D9621E0D5
:10280000419151916191719140FD2C931196E8177E
:10281000F907B1F768E0862E912CA12CB12CA59672
:102820006CAD7DAD8EAD9FADA597A50194010E94C5
:102830001C2B421A530A640A750AA9966CAD7DAD29
:102840008EAD9FADA997A50194010E941C2BC21AC1
:10285000D30AE40AF50A65966CAD7DAD8EAD9FADE9
:102860006597A50194010E941C2B69968CAD9DADC6
:10287000AEADBFAD6997821B930BA40BB50B772749
:1028800077FC7A95672D562D452D498F2DA1422A2B
:102890004A8EDB8E2EA1C22ACC8E9D8F2FA1822B39
:1028A0008E8F67E788E60E94FD244A8D68E788E6F8
:1028B0000E94FD244B8D6AE788E60E94FD244C8D22
:1028C0006BE788E60E94FD244D8D6DE788E60E9447
:1028D000FD244E8D6EE788E60E94FD24A5966CAD22
:1028E0007DAD8EAD9FADA5970E94FF2920E030E021
:1028F00040E858E30E945E2A60938A0370938B033A
:1029000080938C0390938D03A9966CAD7DAD8EADB5
:102910009FADA9970E94FF2920E030E040E858E3EE
:102920000E945E2A60938E0370938F0380939003BE
:102930009093910365966CAD7DAD8EAD9FAD65971F
:102940000E94FF2920E030E040E858E30E945E2A20
:1029500060939203709393038093940390939503F1
:1029600040E06BE688E60E94FD2464E670E080E0CB
:1029700090E00E948F0341E06BE688E60E94FD2410
:1029800068EC70E080E090E00E948F0343E06AE131
:1029900088E60E94FD2444E069E188E60E94FD2467
:1029A0006BE188E60E948D05482F457E6BE188E645
:1029B0000E94FD246CE188E60E948D05482F477E29
:1029C0006CE188E60E94FD246DE188E60E948D0599
:1029D000807F482F43606DE188E60E94FD2442E23B
:1029E00067E388E60E94FD2441E068E388E60E94F0
:1029F000FD2464E670E080E090E00E948F038AE9A5
:102A000092E00E94D90860E08CE00E948D05182FAA
:102A100087EC92E00E94D70883E591E00E94D708F6
:102A2000612F70E080E090E040E10E94960889E527
:102A300091E00E94D70840E168E470E080E090E017
:102A40000E94960887E691E00E94840868EE73E091
:102A500080E090E00E948F0340E06AE08CE00E94FA
:102A6000FD246AE070E080E090E00E948F034FE078
:102A70006AE08CE00E94FD246AE070E080E090E073
:102A80000E948F038E010F5F1F4F980143E060E1AA
:102A90008CE00E944D05698170E060587109072E35
:102AA000000C880B990B0E94FF2920E030E040E8E1
:102AB0005BE30E945E2A20E030E040E85FE30E9492
:102AC000452660930204709303048093040490935A
:102AD00005046A8170E060587109072E000C880BAC
:102AE000990B0E94FF2920E030E040E85BE30E9460
:102AF0005E2A20E030E040E85FE30E9445266093D4
:102B000006047093070480930804909309046B8172
:102B100070E060587109072E000C880B990B0E9419
:102B2000FF2920E030E040E85BE30E945E2A20E0DD
:102B300030E040E85FE30E94452660930A0470930A
:102B40000B0480930C0490930D0440E06AE08CE049
:102B50000E94FD246AE070E080E090E00E948F0314
:102B600042E16AE08CE00E94FD246AE070E080E0CF
:102B700090E00E948F038FEC92E00E94D90868EEEB
:102B800073E080E090E00E948F038BEF92E00E9460
:102B9000D70883EB95E00E94E703882309F446C039
:102BA0008AE093E00E94D90860E083EB95E00E9400
:102BB000BD0283EB95E00E94B50242E050E069E07F
:102BC000C8010E94A9058CE0F801ACEFB5E00190C6
:102BD0000D928A95E1F743E050E069E0C8010E9458
:102BE000A9058CE0F801A8E0B6E001900D928A9565
:102BF000E1F740E050E069E0C8010E94A9058CE0DF
:102C0000F801A4E1B6E001900D928A95E1F741E068
:102C100050E069E0C8010E94A9058CE0F801A0E23B
:102C2000B6E001900D928A95E1F795C387E193E0B4
:102C30000E94D908FFCF86E293E00E94D70840E1C6
:102C4000C701B6010E94960887E691E00E948408B9
:102C5000FFCF980146E06BE388E60E944D0569814D
:102C600070E0762F66278A81682B70934B046093FF
:102C70004A04CB80D12CDC2CCC248C81C82AD09265
:102C80004D04C0924C04ED80F12CFE2CEE248E817C
:102C9000E82AF0924F04E0924E0480E090E0A0E831
:102CA000B8E38093460490934704A0934804B093FC
:102CB0004904072E000C880B990B0E94FF2920E085
:102CC00030E040E858E30E945E2A6093420470932B
:102CD00043048093440490934504B601DD0C880BB3
:102CE000990B0E94FF2920E030E040E858E30E9461
:102CF0005E2A60933E0470933F0480934004909357
:102D00004104B701FF0C880B990B0E94FF2920E0BA
:102D100030E040E858E30E945E2A60933A047093E2
:102D20003B0480933C0490933D04980146E063E4A7
:102D300088E60E944D05698170E0762F66278A81BA
:102D4000682B7093350460933404CB80D12CDC2C39
:102D5000CC248C81C82AD0923704C0923604ED80EE
:102D6000F12CFE2CEE248E81E82AF0923904E092B8
:102D7000380420E030E04AEF5BE3209330043093E6
:102D800031044093320450933304072E000C880B17
:102D9000990B0E94FF2920E030E04AEF5BE30E949C
:102DA0005E2A60932C0470932D0480932E049093DC
:102DB0002F04B601DD0C880B990B0E94FF2920E03F
:102DC00030E04AEF5BE30E945E2A60932804709330
:102DD000290480932A0490932B04B701FF0C880BDD
:102DE000990B0E94FF2920E030E04AEF5BE30E944C
:102DF0005E2A6093240470932504809326049093A4
:102E0000270462E08CE00E948D0580FDABC28FEF4D
:102E10009BEEAFEBBFE380930E0490930F04A0935F
:102E20001004B093110420E030E04BEE53E4209303
:102E3000120430931304409314045093150480E05B
:102E400090E0A0EFB2E48093160490931704A0934F
:102E50001804B093190420E030E04AEF52E42093C4
:102E60001A0430931B0440931C0450931D0460917A
:102E70001E0470911F04072E000C880B990B0E94F2
:102E8000FF292FEF3BEE4FEB5FE30E945E2A20917C
:102E900002043091030440910404509105040E94FF
:102EA0005E2A20E030E04BEE53E40E94442660931B
:102EB000FE037093FF0380930004909301046091DC
:102EC000200470912104072E000C880B990B0E949E
:102ED000FF292FEF3BEE4FEB5FE30E945E2A20912C
:102EE00006043091070440910804509109040E949F
:102EF0005E2A20E030E040EF52E40E9444266093D6
:102F0000FA037093FB038093FC039093FD0360919D
:102F1000220470912304072E000C880B990B0E9449
:102F2000FF292FEF3BEE4FEB5FE30E945E2A2091DB
:102F30000A0430910B0440910C0450910D040E943E
:102F40005E2A20E030E04AEF52E40E94442660937B
:102F5000F6037093F7038093F8039093F9030E94AC
:102F60006A036B017C016093F2037093F303809317
:102F7000F4039093F5038091EE039091EF03A091F9
:102F8000F003B091F103A7019601281B390B4A0BFE
:102F90005B0BCA01B9010E94FD2920E034E244E73D
:102FA00059E40E943E27C357DF4F688379838A83A1
:102FB0009B83CD58D0406093EA037093EB038093DA
:102FC000EC039093ED03C092EE03D092EF03E092F6
:102FD000F003F092F1039B01AC016091E603709164
:102FE000E7038091E8039091E9030E9445266093EE
:102FF000E6037093E7038093E8039093E9038091DD
:10300000E2039091E303A091E403B091E5030196FC
:10301000A11DB11D8093E2039093E303A093E40309
:10302000B093E5034090F6035090F7036090F803E7
:103030007090F9038091FE039091FF03A09100042A
:10304000B0910104A9968CAF9DAFAEAFBFAFA99769
:103050002091FA033091FB034091FC035091FD0352
:10306000A5962CAF3DAF4EAF5FAFA59780912404DE
:1030700090912504A0912604B0912704C754DF4FF6
:1030800088839983AA83BB83C95BD040209128049D
:103090003091290440912A0450912B04C354DF4FEE
:1030A000288339834A835B83CD5BD04080912C0495
:1030B00090912D04A0912E04B0912F04CF53DF4F97
:1030C00088839983AA83BB83C15CD04020913A0452
:1030D00030913B0440913C0450913D04AD962CAF9F
:1030E0003DAF4EAF5FAFAD9780913E0490913F04EE
:1030F000A0914004B0914104E1968CAF9DAFAEAF7A
:10310000BFAFE197209142043091430440914404C1
:1031100050914504E5962CAF3DAF4EAF5FAFE597BC
:103120008091000190910101A0910201B0910301F1
:10313000A1968CAF9DAFAEAFBFAFA1972091040118
:1031400030910501409106015091070165962CAF21
:103150003DAF4EAF5FAF6597809108019091090137
:10316000A0910A01B0910B0169968CAF9DAFAEAFF3
:10317000BFAF699720910C0130910D0140910E0174
:1031800050910F016D962CAF3DAF4EAF5FAF6D9775
:10319000E5962CAD3DAD4EAD5FADE597CA01B901E9
:1031A0000E945E2A6B017C01E1962CAD3DAD4EADD7
:1031B0005FADE197CA01B9010E945E2A9B01AC0193
:1031C000C701B6010E9445266B017C01AD962CAD6E
:1031D0003DAD4EAD5FADAD97CA01B9010E945E2A0B
:1031E0009B01AC01C701B6010E9445260E949D28A3
:1031F0004B015C0120E030E0A9010E94F829811117
:10320000D9C02FB7F8948091860390918703A0913D
:103210008803B09189032FBF4091DE035091DF03F3
:103220006091E0037091E103841B950BA60BB70B33
:103230008093DA039093DB03A093DC03B093DD0368
:10324000853F9140A105B10510F00C943421C12CAB
:10325000D12CECE0EE2EC60187509A4FFC0133963C
:10326000D8012E2D01900D922A95E1F7DC011396DD
:10327000FC90139714966C90149715967C90159764
:1032800016965C908090580490905904A0905A042F
:10329000B0905B042091500430915104409152044D
:1032A000509153048B859C858130910511F40C94C9
:1032B0008B2414F40C941D248230910511F40C9489
:1032C00056240397D9F56091FA057091FB05072EF6
:1032D000000C880B990BCB53DF4F2883C55CD04083
:1032E000CA53DF4F3883C65CD040C953DF4F488391
:1032F000C75CD040C853DF4F5883C85CD0400E94A1
:10330000FF29CB53DF4F2881C55CD040CA53DF4F24
:103310003881C65CD040C953DF4F4881C75CD0407C
:10332000C853DF4F5881C85CD0400E944426A50195
:1033300094010E9445260E94B0271B0151100C9455
:10334000C724ECE0CE0ED11CF0E3CF16D10409F077
:1033500082CF0E94BF016AE388E60E948D0580FF4C
:10336000FECD77CC980147E063E08CE00E944D05EC
:103370008F8183FD4CCD8A8190E0982F8827298109
:10338000822B90931F0480931E048C8190E0982FD1
:1033900088272B81822B90932104809320048E8197
:1033A00090E0982F88272D81822B9093230480937F
:1033B00022042DCDA5962CAD3DAD4EAD5FADA597AC
:1033C000CA01B9010E945E2A6B017C01A9962CAD4D
:1033D0003DAD4EAD5FADA997CA01B9010E945E2A0D
:1033E0009B01AC01C701B6010E9445266B017C011F
:1033F000A3019201C301B2010E945E2A9B01AC01AC
:10340000C701B6010E9445260E949D28E9966CAF2F
:103410007DAF8EAF9FAFE99720E030E0A9010E9419
:10342000F829882309F4EDCE65962CAD3DAD4EAD5F
:103430005FAD6597A1966CAD7DAD8EAD9FADA1974B
:103440000E945E2ACF57DF4F688379838A839B83EC
:10345000C158D04069962CAD3DAD4EAD5FAD69977A
:10346000A1966CAD7DAD8EAD9FADA1970E945E2AF9
:10347000CB57DF4F688379838A839B83C558D040BD
:103480006D962CAD3DAD4EAD5FAD6D97A1966CAD1B
:103490007DAD8EAD9FADA1970E945E2AC757DF4FCD
:1034A000688379838A839B83C958D04065962CAD05
:1034B0003DAD4EAD5FAD6597CA01B9010E945E2A70
:1034C000CB56DF4F688379838A839B83C559D0406D
:1034D00069962CAD3DAD4EAD5FAD699765966CAD0F
:1034E0007DAD8EAD9FAD65970E945E2A6B017C011C
:1034F0006D962CAD3DAD4EAD5FAD6D9765966CADE7
:103500007DAD8EAD9FAD65970E945E2AC756DF4F99
:10351000688379838A839B83C959D04069962CAD8F
:103520003DAD4EAD5FAD6997CA01B9010E945E2AFB
:10353000ED966CAF7DAF8EAF9FAFED976D962CADD6
:103540003DAD4EAD5FAD6D9769966CAD7DAD8EAD09
:103550009FAD69970E945E2AC356DF4F68837983C7
:103560008A839B83CD59D0406D962CAD3DAD4EAD39
:103570005FAD6D97CA01B9010E945E2AC358DF4F43
:10358000688379838A839B83CD57D040A5019401BA
:1035900060E070E080E89FE30E943E274B015C0101
:1035A0009B01AC01E5966CAD7DAD8EAD9FADE59711
:1035B0000E945E2ACF55DF4F688379838A839B837D
:1035C000C15AD040A5019401E1966CAD7DAD8EADA0
:1035D0009FADE1970E945E2ACB55DF4F68837983C8
:1035E0008A839B83C55AD040A5019401AD966CADEA
:1035F0007DAD8EAD9FADAD970E945E2AC755DF4F62
:10360000688379838A839B83C95AD040E9962CAD1D
:103610003DAD4EAD5FADE99760E070E080E89FE3BF
:103620000E943E274B015C019B01AC01A5966CAD4D
:103630007DAD8EAD9FADA5970E945E2AA5966CAF1D
:103640007DAF8EAF9FAFA597A5019401A9966CADF4
:103650007DAD8EAD9FADA9970E945E2AA9966CAFF5
:103660007DAF8EAF9FAFA997A5019401C301B201B1
:103670000E945E2AAD966CAF7DAF8EAF9FAFAD97C7
:10368000A5962CAD3DAD4EAD5FADA597CA01B90174
:103690000E944526E5966CAF7DAF8EAF9FAFE59754
:1036A000ED962CAD3DAD4EAD5FADED9760E070E0B9
:1036B00080E09FE30E944426C358DF4F2881398170
:1036C0004A815B81CD57D0400E944426C355DF4FCD
:1036D000688379838A839B83CD5AD040A9962CAD89
:1036E0003DAD4EAD5FADA997CA01B9010E94452617
:1036F000E9966CAF7DAF8EAF9FAFE997C757DF4FAD
:10370000288139814A815B81C958D040C701B601FF
:103710000E944426CF54DF4F688379838A839B833A
:10372000C15BD040AD962CAD3DAD4EAD5FADAD971C
:10373000CA01B9010E944526CF56DF4F68837983BD
:103740008A839B83C159D040CB57DF4F2881398171
:103750004A815B81C558D040C756DF4F6881798167
:103760008A819B81C959D0400E944526CB54DF4FA6
:10377000688379838A839B83C55BD040C355DF4FC1
:10378000288139814A815B81CD5AD040E5966CAD64
:103790007DAD8EAD9FADE5970E945E2A4B015C0129
:1037A000CF54DF4F288139814A815B81C15BD04092
:1037B000E9966CAD7DAD8EAD9FADE9970E945E2A16
:1037C0009B01AC01C501B4010E9445264B015C017F
:1037D000CB54DF4F288139814A815B81C55BD04062
:1037E000CF56DF4F688179818A819B81C159D04052
:1037F0000E945E2A9B01AC01C501B4010E944526CE
:103800002B013C01CB56DF4F288139814A815B81F6
:10381000C559D04060E070E080E09FE30E944426FC
:103820004B015C01C757DF4F288139814A815B8199
:10383000C958D040C701B6010E9445269B01AC0182
:10384000E5966CAD7DAD8EAD9FADE5970E945E2A8D
:103850006B017C01C358DF4F288139814A815B812C
:10386000CD57D040C501B4010E9444269B01AC0154
:10387000E9966CAD7DAD8EAD9FADE9970E945E2A55
:103880009B01AC01C701B6010E9445266B017C017A
:10389000CF57DF4F288139814A815B81C158D040A1
:1038A000C356DF4F688179818A819B81CD59D04091
:1038B0000E9444269B01AC01CF56DF4F688179817D
:1038C0008A819B81C159D0400E945E2A9B01AC0134
:1038D000C701B6010E9445266B017C01A30192013C
:1038E000C301B2010E945E2A2B013C01A70196018F
:1038F000C701B6010E945E2A9B01AC01C301B2015F
:103900000E9445260E949D286B017C01CB57DF4F0A
:10391000288139814A815B81C558D040C756DF4F25
:10392000688179818A819B81C959D0400E9444264F
:10393000E1966CAF7DAF8EAF9FAFE197CF57DF4F72
:10394000288139814A815B81C158D040C356DF4FFD
:10395000688179818A819B81CD59D0400E9445261A
:103960002B013C01ED962CAD3DAD4EAD5FADED971D
:10397000C501B4010E944426CF57DF4F6883798385
:103980008A839B83C158D040E1962CAD3DAD4EADAE
:103990005FADE197CA01B9010E944526CB57DF4FC1
:1039A000688379838A839B83C558D040A3019201A1
:1039B000C301B2010E944526C757DF4F6883798350
:1039C0008A839B83C958D040A1962CAD3DAD4EADA6
:1039D0005FADA197CA01B9010E945E2ACB56DF4FA5
:1039E000288139814A815B81C559D0400E94442693
:1039F000ED962CAD3DAD4EAD5FADED970E944426EA
:103A0000C358DF4F288139814A815B81CD57D0402F
:103A10000E944526ED966CAF7DAF8EAF9FAFED97C0
:103A2000A7019601C701B6010E9445264B015C0122
:103A3000E1962CAD3DAD4EAD5FADE197E5966CAD39
:103A40007DAD8EAD9FADE5970E945E2A6B017C0136
:103A5000A3019201E9966CAD7DAD8EAD9FADE99766
:103A60000E945E2A9B01AC01C701B6010E94452657
:103A70006B017C01CF57DF4F288139814A815B81FF
:103A8000C158D040CF56DF4F688179818A819B81B0
:103A9000C159D0400E945E2A9B01AC01C701B6010A
:103AA0000E9445269B01AC010E9445266B017C01CA
:103AB000C355DF4F288139814A815B81CD5AD0407F
:103AC000C501B4010E945E2AE5966CAF7DAF8EAF52
:103AD0009FAFE597E1962CAD3DAD4EAD5FADE19763
:103AE000C701B6010E945E2A9B01AC01E5966CAD50
:103AF0007DAD8EAD9FADE5970E944526E5966CAFF6
:103B00007DAF8EAF9FAFE597CF54DF4F28813981CE
:103B10004A815B81C15BD040C501B4010E945E2A2D
:103B2000E1966CAF7DAF8EAF9FAFE197A30192019D
:103B3000C701B6010E945E2A9B01AC01E1966CAD03
:103B40007DAD8EAD9FADE1970E944526C358DF4FF6
:103B5000688379838A839B83CD57D040CB54DF4FD2
:103B6000288139814A815B81C55BD040C501B401A0
:103B70000E945E2A4B015C01CF57DF4F28813981BB
:103B80004A815B81C158D040C701B6010E945E2ABC
:103B90009B01AC01C501B4010E944526E9966CAFBA
:103BA0007DAF8EAF9FAFE9971092BA031092BB031F
:103BB0001092BC031092BD031092BE031092BF037B
:103BC0001092C0031092C1031092C2031092C3035B
:103BD0001092C4031092C5032BED3FE049E450E47A
:103BE000CF53DF4F688179818A819B81C15CD0404E
:103BF0000E945E2A20E030E044E353E40E943E2726
:103C00006B017C01ED962CAD3DAD4EAD5FADED97FA
:103C1000CB55DF4F688179818A819B81C55AD0401D
:103C20000E945E2A4B015C01C757DF4F2881398112
:103C30004A815B81C958D040C755DF4F688179817F
:103C40008A819B81C95AD0400E945E2A9B01AC01A7
:103C5000C501B4010E9444264B015C01E9962CADDC
:103C60003DAD4EAD5FADE997A9966CAD7DAD8EAD26
:103C70009FADA9970E945E2A2B013C01C358DF4FDC
:103C8000288139814A815B81CD57D040AD966CAD9A
:103C90007DAD8EAD9FADAD970E945E2A9B01AC01BC
:103CA000C301B2010E9444269B01AC01C501B401CD
:103CB0000E94452620E030E040E251E40E945E2A66
:103CC0009B01AC01C701B6010E94452620E030E00F
:103CD000A9010E944526E1966CAF7DAF8EAF9FAFE4
:103CE000E1972BED3FE049E450E4C354DF4F688196
:103CF00079818A819B81CD5BD0400E945E2A20E041
:103D000030E044E353E40E943E276B017C01CB5733
:103D1000DF4F288139814A815B81C558D040C75522
:103D2000DF4F688179818A819B81C95AD0400E9486
:103D30005E2A4B015C01ED962CAD3DAD4EAD5FAD05
:103D4000ED97CF55DF4F688179818A819B81C15A78
:103D5000D0400E945E2A9B01AC01C501B4010E94C3
:103D600044264B015C01E5962CAD3DAD4EAD5FADFB
:103D7000E597AD966CAD7DAD8EAD9FADAD970E94D4
:103D80005E2A2B013C01E9962CAD3DAD4EAD5FADF9
:103D9000E997A5966CAD7DAD8EAD9FADA5970E94C0
:103DA0005E2A9B01AC01C301B2010E9444269B0123
:103DB000AC01C501B4010E94452620E030E040E29C
:103DC00051E40E945E2A9B01AC01C701B6010E942A
:103DD000452620E030E0A9010E944526AD966CAF53
:103DE0007DAF8EAF9FAFAD972BED3FE049E450E440
:103DF000C754DF4F688179818A819B81C95BD0403C
:103E00000E945E2A20E030E044E353E40E943E2713
:103E10006B017C01C757DF4F288139814A815B8163
:103E2000C958D040CF55DF4F688179818A819B8105
:103E3000C15AD0400E945E2A4B015C01CB57DF4F34
:103E4000288139814A815B81C558D040CB55DF4FED
:103E5000688179818A819B81C55AD0400E945E2AFF
:103E60009B01AC01C501B4010E9444264B015C01D9
:103E7000C358DF4F288139814A815B81CD57D040BB
:103E8000A5966CAD7DAD8EAD9FADA5970E945E2AC7
:103E90002B013C01E5962CAD3DAD4EAD5FADE597F8
:103EA000A9966CAD7DAD8EAD9FADA9970E945E2A9F
:103EB0009B01AC01C301B2010E9444269B01AC01ED
:103EC000C501B4010E94452620E030E040E251E403
:103ED0000E945E2A9B01AC01C701B6010E944526E3
:103EE00020E030E0A9010E9445264B015C0120E062
:103EF00030E040E05FE3C357DF4F688179818A811A
:103F00009B81CD58D0400E945E2AA5966CAF7DAFB4
:103F10008EAF9FAFA59765966CAD7DAD8EAD9FAD15
:103F200065979058E1962CAD3DAD4EAD5FADE197F4
:103F30000E945E2A6B017C01AD962CAD3DAD4EAD6D
:103F40005FADAD9769966CAD7DAD8EAD9FAD699758
:103F50000E945E2A9B01AC01C701B6010E94442663
:103F60006B017C01A50194016D966CAD7DAD8EADAC
:103F70009FAD6D970E945E2A9B01AC01C701B601FF
:103F80000E944426A5962CAD3DAD4EAD5FADA597E4
:103F90000E945E2A9B01AC01A1966CAD7DAD8EADF9
:103FA0009FADA1970E9445266B017C01E1962CAD47
:103FB0003DAD4EAD5FADE1970E945E2A2B013C0105
:103FC000A501940169966CAD7DAD8EAD9FAD6997ED
:103FD0000E945E2A9B01AC01C301B2010E944526EA
:103FE0002B013C01AD962CAD3DAD4EAD5FADAD9717
:103FF0006D966CAD7DAD8EAD9FAD6D970E945E2AC6
:104000009B01AC01C301B2010E944426A5962CADD0
:104010003DAD4EAD5FADA5970E945E2A9B01AC0100
:1040200065966CAD7DAD8EAD9FAD65970E944526C2
:10403000A1966CAF7DAF8EAF9FAFA197AD962CAD23
:104040003DAD4EAD5FADAD97C701B6010E945E2A92
:104050002B013C01A501940165966CAD7DAD8EAD43
:104060009FAD65970E945E2A9B01AC01C301B2011E
:104070000E9444262B013C01E1962CAD3DAD4EAD96
:104080005FADE1976D966CAD7DAD8EAD9FAD6D97DB
:104090000E945E2A9B01AC01C301B2010E94452629
:1040A000A5962CAD3DAD4EAD5FADA5970E945E2AA5
:1040B0009B01AC0169966CAD7DAD8EAD9FAD6997EE
:1040C0000E944526A9966CAF7DAF8EAF9FAFA99792
:1040D000A5019401C701B6010E945E2A4B015C0153
:1040E000AD962CAD3DAD4EAD5FADAD9765966CAD6B
:1040F0007DAD8EAD9FAD65970E945E2A9B01AC01A0
:10410000C501B4010E9445264B015C01E1962CAD2E
:104110003DAD4EAD5FADE19769966CAD7DAD8EADB9
:104120009FAD69970E945E2A9B01AC01C501B40155
:104130000E944426A5962CAD3DAD4EAD5FADA59732
:104140000E945E2A9B01AC016D966CAD7DAD8EAD7B
:104150009FAD6D970E9445262B013C01A70196015A
:10416000C701B6010E945E2A4B015C01A1962CADED
:104170003DAD4EAD5FADA197CA01B9010E945E2A67
:104180009B01AC01C501B4010E9445264B015C01B5
:10419000A9962CAD3DAD4EAD5FADA997CA01B90151
:1041A0000E945E2A9B01AC01C501B4010E94452614
:1041B0004B015C01A3019201C301B2010E945E2A7E
:1041C0009B01AC01C501B4010E9445260E949D28B7
:1041D0009B01AC0160E070E080E89FE30E943E2715
:1041E0004B015C019B01AC01C701B6010E945E2A34
:1041F0006093000170930101809302019093030189
:10420000A5019401A1966CAD7DAD8EAD9FADA1973A
:104210000E945E2A60930401709305018093060159
:1042200090930701A5019401A9966CAD7DAD8EAD6B
:104230009FADA9970E945E2A6093080170930901BF
:1042400080930A0190930B01A5019401C301B2016F
:104250000E945E2A60930C0170930D0180930E0101
:1042600090930F010C94011980910001909101012C
:10427000A0910201B091030165968CAF9DAFAEAFE6
:10428000BFAF65979C01AD01BC01CD010E945E2AC4
:104290006D966CAF7DAF8EAF9FAF6D97209104018F
:1042A00030910501409106015091070169962CAFAC
:1042B0003DAF4EAF5FAF6997CA01B9010E945E2A58
:1042C000A1966CAF7DAF8EAF9FAFA19740900801D4
:1042D0005090090160900A0170900B01A3019201B6
:1042E000C301B2010E945E2AA5966CAF7DAF8EAF6E
:1042F0009FAFA597C0900C01D0900D01E0900E01EA
:10430000F0900F01A7019601C701B6010E945E2A35
:10431000A9966CAF7DAF8EAF9FAFA997A1962CAD3C
:104320003DAD4EAD5FADA1976D966CAD7DAD8EADE3
:104330009FAD6D970E944526A5962CAD3DAD4EAD27
:104340005FADA5970E944426A9962CAD3DAD4EAD1C
:104350005FADA9970E9444264B015C01A301920125
:1043600069966CAD7DAD8EAD9FAD69970E945E2A5A
:10437000AD966CAF7DAF8EAF9FAFAD97A7019601A5
:1043800065966CAD7DAD8EAD9FAD65970E945E2A42
:104390009B01AC01AD966CAD7DAD8EAD9FADAD9783
:1043A0000E9445269B01AC010E944526A50194016F
:1043B0000E94DF26AD966CAF7DAF8EAF9FAFAD97FD
:1043C000A701960169966CAD7DAD8EAD9FAD6997E5
:1043D0000E945E2A4B015C01A301920165966CADBF
:1043E0007DAD8EAD9FAD65970E945E2A9B01AC01AD
:1043F000C501B4010E9444269B01AC010E944526E0
:104400000E94B126E1966CAF7DAF8EAF9FAFE19772
:10441000A1962CAD3DAD4EAD5FADA1976D966CAD47
:104420007DAD8EAD9FAD6D970E944426A5962CADB7
:104430003DAD4EAD5FADA5970E944426A9962CAD2B
:104440003DAD4EAD5FADA9970E9445264B015C0185
:1044500069962CAD3DAD4EAD5FAD699765966CAD7F
:104460007DAD8EAD9FAD65970E945E2A65966CAF5F
:104470007DAF8EAF9FAF6597A7019601C301B201D3
:104480000E945E2A9B01AC0165966CAD7DAD8EAD40
:104490009FAD65970E9445269B01AC010E94452671
:1044A000A50194010E94DF266B017C01E1966CADB1
:1044B0007DAD8EAD9FADE197905820EE3EE245E692
:1044C00052E40E945E2A6093D2037093D3038093D8
:1044D000D4039093D50320EE3EE245E652E4AD9638
:1044E0006CAD7DAD8EAD9FADAD970E945E2A2DEC7B
:1044F0003CEC4CE551E40E9444266093D603709353
:10450000D7038093D8039093D90320EE3EE245E68B
:1045100052E4C701B6010E945E2A6093CE037093F5
:10452000CF038093D0039093D10383EB95E00E9457
:104530009F02813009F02CC143E0B8018AEF0E944C
:104540008F09298130E0322F22278A81282BC90147
:10455000A0E0B0E024E0880F991FAA1FBB1F2A9596
:10456000D1F72B8130E044E0359527954A95E1F766
:10457000A901330F660B770B482B592B6A2B7B2B2A
:104580008091B7059091B805A0E0B0E04A015B01C9
:10459000E4E0B594A79497948794EA95D1F7881AA4
:1045A000990AAA0ABB0AF3E075956795579547954E
:1045B000FA95D1F7880F991FAA1FBB1F9A01AB016B
:1045C000281B390B4A0B5B0BA091BB05B091BC05B6
:1045D0000E94462B2B013C013BE075946794579455
:1045E00047943A95D1F7A5019401C501B4010E9401
:1045F0000E269B01AC016CE05595479537952795A4
:104600006A95D1F7A091BD05B091BE050E94462BD9
:104610006B017C017EE0F594E794D794C7947A957A
:10462000D1F7C40CD51CE61CF71CC092CF05D09264
:10463000D005E092D105F092D205C8010E94F50A9A
:1046400069817A818B819C810E94FD292B013C012B
:10465000C8010E94F50A69817A818B819C810E9440
:10466000FD2920E836EE45EC57E40E943E272EEA6D
:104670003CED42E45EE30E9447289B01AC0160E010
:1046800070E080E89FE30E94442620E03AE24DE299
:1046900057E40E945E2A4B015C016093CA03709349
:1046A000CB038093CC039093CD0320E030E040E235
:1046B00051E46091C6037091C7038091C803909143
:1046C000C9030E945E2AA50194010E94452620E0AC
:1046D00030E040E351E40E943E276093C6037093AC
:1046E000C7038093C8039093C90383EB95E00E94AE
:1046F000B50287E493E00E94D7086091C6037091E9
:10470000C7038091C8039091C90342E050E00E9422
:10471000110A84E593E00E94D7086091CA03709162
:10472000CB038091CC039091CD0342E050E00E94F6
:10473000110A81E693E00E94D70842E050E0C301ED
:10474000B2010E94110A8DE693E00E94D708A2E30D
:10475000B0E0A70196010E943B2BDC01CB019B5FDF
:10476000AF4FBF4F692F7A2F8B2F992787FD9A95CF
:104770000E94FF2920E030E04AE754E40E943E27EF
:1047800042E050E00E94110A86E793E00E94D908B7
:104790008091CE039091CF03A091D003B091D1032B
:1047A0008093580490935904A0935A04B0935B04E7
:1047B0008091D2039091D303A091D403B091D503FB
:1047C0008093500490935104A0935204B0935304E7
:1047D0008091D6039091D703A091D803B091D903CB
:1047E0008093540490935504A0935604B0935704B7
:1047F0002FB7F8948091860390918703A091880346
:10480000B09189032FBF8093DE039093DF03A093C1
:10481000E003B093E1031092E2031092E3031092DD
:10482000E4031092E5031092E6031092E70310925E
:10483000E8031092E9030C942719892B11F00C94CA
:104840009E196091FA057091FB05072E000C880BEC
:10485000990BCB53DF4F2883C55CD040CA53DF4F41
:104860003883C65CD040C953DF4F4883C75CD04013
:10487000C853DF4F5883C85CD0400E94FF29CB53F8
:10488000DF4F2881C55CD040CA53DF4F3881C65CFA
:10489000D040C953DF4F4881C75CD040C853DF4F79
:1048A0005881C85CD0400E9445266BC06091FA05D3
:1048B0007091FB05072E000C880B990BCB53DF4F33
:1048C0002883C55CD040CA53DF4F3883C65CD040D4
:1048D000C953DF4F4883C75CD040C853DF4F58836C
:1048E000C85CD0400E94FF29CB53DF4F2881C55CB4
:1048F000D040CA53DF4F3881C65CD040C953DF4F28
:104900004881C75CD040C853DF4F5881C85CD04055
:104910000E94442636C06091FA057091FB05072E6F
:10492000000C880B990BCB53DF4F2883C55CD0401C
:10493000CA53DF4F3883C65CD040C953DF4F48832A
:10494000C75CD040C853DF4F5883C85CD0400E943A
:10495000FF29CB53DF4F2881C55CD040CA53DF4FBE
:104960003881C65CD040C953DF4F4881C75CD04016
:10497000C853DF4F5881C85CD0400E9445260C9434
:104980009719A50194010E9444260C949B19BBE041
:10499000BF1510F40C94A11988E890E086199109CC
:1049A00067FC9395880F991F880F991F2816390661
:1049B0007CF028E532E02719310977FC3395220F86
:1049C000331F220F331FC101221533050CF4C90117
:1049D00002979C01220F331F4FB7F8948F2D90E060
:1049E000FC01EE0FFF1F8E0F9F1FFC01EC52FA4FD0
:1049F000328321834FBF0C94A119CF93DF931F9271
:104A0000CDB7DEB791E09093F0048093110510923A
:104A1000B0051092AF058CE296E049830E945702E0
:104A20004981642F8CE296E00E94570281E00F904A
:104A3000DF91CF910C94E7081092150510921405A0
:104A400088EE93E0A0E0B0E0809316059093170500
:104A5000A0931805B093190588E191E09093130590
:104A60008093120585EC90E090931F0580931E05BE
:104A700084EC90E0909321058093200580EC90E0F9
:104A8000909323058093220581EC90E09093250577
:104A90008093240582EC90E090932705809326056F
:104AA00086EC90E0909329058093280510922B05C1
:104AB00010922C0510922D0510922E051092B20521
:104AC0001092B1051092B0051092AF050E943B08FC
:104AD000449A459A8CE08093B8008EE097ECAAE166
:104AE000BFE380933C0690933D06A0933E06B093AF
:104AF0003F06109238061092390610923A0610922C
:104B00003B0688E291E09093B4058093B30588E377
:104B100091E09093B6058093B5051092B805109278
:104B2000B7051092BA051092B9051092BC05109203
:104B3000BB051092BE051092BD051092C0051092E3
:104B4000BF051092C2051092C1051092C4051092C3
:104B5000C3051092C6051092C5051092C8051092A3
:104B6000C7051092CA051092C9051092CC05109283
:104B7000CB051092CE051092CD051092CF05109264
:104B8000D0051092D1051092D20581E08093F905ED
:104B900088EE93E09093FB058093FA058091F805E9
:104BA00040E050E09FEF68EB7BE0DA01A750BA4F9E
:104BB0008C3088F413968C931397282F30E0F901EA
:104BC000EE0FFF1F2E0F3F1FF901EC52FA4F7283B9
:104BD00061838F5F03C013969C93139716961C9264
:104BE000445F5F4F4033510501F78093F805109201
:104BF0002F0610922E0688EE93E0A0E0B0E080939E
:104C0000300690933106A0933206B09333068EE3BC
:104C100091E090932D0680932C060895DB018F93ED
:104C20009F930E943B2BBF91AF91A29F800D911D3E
:104C3000A39F900DB29F900D11240895991B79E0C8
:104C400004C0991F961708F0961B881F7A95C9F71C
:104C500080950895AA1BBB1B51E107C0AA1FBB1F6B
:104C6000A617B70710F0A61BB70B881F991F5A95F8
:104C7000A9F780959095BC01CD010895EE0FFF1F17
:104C80000590F491E02D09945058BB27AA270E9463
:104C90005C260C94E22A0E94D42A38F00E94DB2A77
:104CA00020F039F49F3F19F426F40C94D12A0EF425
:104CB000E095E7FB0C94CB2AE92F0E94F32A58F3E6
:104CC000BA17620773078407950720F079F4A6F5F1
:104CD0000C94152B0EF4E0950B2EBA2FA02D0B0182
:104CE000B90190010C01CA01A0011124FF27591B31
:104CF00099F0593F50F4503E68F11A16F040A22F37
:104D0000232F342F4427585FF3CF469537952795A7
:104D1000A795F0405395C9F77EF41F16BA0B620BA6
:104D2000730B840BBAF09150A1F0FF0FBB1F661FED
:104D3000771F881FC2F70EC0BA0F621F731F841F30
:104D400048F4879577956795B795F7959E3F08F056
:104D5000B0CF9395880F08F09927EE0F9795879518
:104D600008959F939F77EEE389379E0728F4E8E63E
:104D7000F0E00E9426280CC00E94DF279058A2EA8B
:104D80002AED3FE049EC5FE30E945C260E94E22AA4
:104D90000F9007FC905808950E94D42A60F080E894
:104DA00091E009F49EEF0E94DB2A28F040E851E0F0
:104DB00071F45EEF0CC00C94D12A0C94152BE92FE2
:104DC000E0780E94F32A40F3092E052AB1F3261752
:104DD00037074807590738F00E2E07F8E02569F025
:104DE000E025E0640AC0EF6307F8009407FADB01EE
:104DF000B9019D01DC01CA01AD01EF930E94552765
:104E00000E94E22A0E940F275F91552339F02BED73
:104E10003FE049E450FD49EC0C9445260895DF93AA
:104E2000DD27B92FBF7740E85FE31616170648075E
:104E30005B0718F4D92F0E943F289F938F937F938D
:104E40006F930E94DD28ECE7F0E00E94FF270E94AC
:104E5000E22A2F913F914F915F910E94712ADD23A9
:104E600051F09058A2EA2AED3FE049EC5FE3D07898
:104E70005D270E945C26DF910C94E22A0E94522753
:104E80000C94E22A0E94DB2A58F00E94D42A40F0B7
:104E900029F45F3F29F00C94CB2A51110C94162B66
:104EA0000C94D12A0E94F32A68F39923B1F3552375
:104EB00091F3951B550BBB27AA276217730784072D
:104EC00038F09F5F5F4F220F331F441FAA1FA9F3C3
:104ED00035D00E2E3AF0E0E832D091505040E695B1
:104EE000001CCAF72BD0FE2F29D0660F771F881F12
:104EF000BB1F261737074807AB07B0E809F0BB0B05
:104F0000802DBF01FF2793585F4F3AF09E3F510518
:104F100078F00C94CB2A0C94162B5F3FE4F3983E68
:104F2000D4F3869577956795B795F7959F5FC9F701
:104F3000880F911D9695879597F90895E1E0660F82
:104F4000771F881FBB1F621773078407BA0720F0FB
:104F5000621B730B840BBA0BEE1F88F7E095089564
:104F60000E94FB2A88F09F5798F0B92F9927B751D4
:104F7000B0F0E1F0660F771F881F991F1AF0BA95FD
:104F8000C9F714C0B13091F00E94152BB1E008951B
:104F90000C94152B672F782F8827B85F39F0B93F0D
:104FA000CCF3869577956795B395D9F73EF49095B0
:104FB0008095709561957F4F8F4F9F4F0895DF9338
:104FC000CF931F930F938B01EC01E9EAF0E00E946D
:104FD000FF270E94E22A9801AE018B01EC0160E0FC
:104FE00070E080E89FE30E9444260E949D2898017B
:104FF000AE010F911F91CF91DF910C94712ADF9335
:10500000CF931F930F93FF92EF92DF927B018C015E
:10501000689406C0DA2EEF010E94712AFE01E8941E
:10502000A5912591359145915591A6F3EF010E94E7
:105030005C26FE019701A801DA9469F7DF90EF90F2
:10504000FF900F911F91CF91DF9108959F938F93C0
:105050007F936F93FF93EF939B01AC010E945E2AB5
:10506000EF91FF910E94FF272F913F914F915F9108
:105070000C945E2A0E943A2A08F48FEF08959B014F
:10508000AC0160E070E080E89FE30C943E27FA01F9
:10509000EE0FFF1F309621053105A1F16115710555
:1050A00061F48038BFE39B0749F16894903881052B
:1050B00061F08038BFEF9B0741F099234AF5FF3F2D
:1050C000E1053105210519F1E8940894E795D90126
:1050D000AA2329F4AB2FBE2FF85FD0F310C0FF5FD7
:1050E00070F4A695E0F7F73950F019F0FF3A38F46C
:1050F0009F779F930DD00F9007FC9058089546F02E
:105100000C94D12A60E070E080E89FE308954FE7B7
:105110009F775F934F933F932F930E9477292F910F
:105120003F914F915F910E945E2A0C94EE2819F4F2
:1051300016F40C94D12A0C9420290E94FB2AB8F36F
:105140009923C9F3B6F39F57550B87FF0E942E2969
:105150000024A0E640EA900180585695979528F4DF
:10516000805C660F771F881F20F0261737074807D7
:1051700030F4621B730B840B202931294A2BA6952E
:1051800017940794202531254A2758F7660F771F73
:10519000881F20F026173707480730F4620B730B7F
:1051A000840B200D311D411DA09581F7B901842F7D
:1051B0009158880F9695879508959B01AC010C94A2
:1051C0005E2A0E943A2A880B990B089529F416F05A
:1051D0000C94CB2A0C94152B0C94D12A0E94FB2AF8
:1051E000A8F39638A0F707F80F92E8942BE33AEA71
:1051F00048EB5FE70E94742A0F920F920F924DB70F
:105200005EB70F920E94BF29E1EDF0E00E94FF27F8
:105210004F915F91EF91FF91E595EE1FFF1F49F0D0
:10522000FE57E0684427EE0F441FFA95E1F74195D9
:10523000550B0E9439290F9007FE0C943F280895C2
:105240009F3F31F0915020F4879577956795B795FA
:10525000880F911D9695879597F908959150504024
:10526000660F771F881FD2F708950C94CB2A0C94F1
:1052700020290E94FB2AD8F39923C9F3940F511DCA
:10528000A3F39150504094F059F0882332F0660F08
:10529000771F881F91505040C1F79E3F51052CF752
:1052A000880F911D9695879597F908955F3FACF00B
:1052B000983E9CF0BB27869577956795B79508F43F
:1052C000B1609395C1F7BB0F58F711F460FFE8CFB9
:1052D0006F5F7F4F8F4F9F4FE3CF0C94162B16F0CD
:1052E0000C9420290C94D12A68940C94CB2A0E9407
:1052F000FB2AA8F39923C1F3AEF3DF93CF931F9357
:105300000F93FF92C92FDD2788232AF02197660F7C
:10531000771F881FDAF720E030E040E85FEB9FE37B
:10532000883920F0803E38F021968F770E944526FC
:10533000E9EFF0E004C00E944526E6E2F1E00E94B9
:10534000FF278B01BE01EC01FB2E6F57710975958C
:10535000771F880B990B0E94FF2928E132E741E370
:105360005FE30E94712AAF2D9801AE01FF900F916B
:105370001F91CF91DF910E945C260C94E22AFA01E2
:10538000DC01AA0FBB1F9B01AC01BF5728F42227E9
:1053900033274427507820C0B75190F4AB2F002416
:1053A000469537952795011CA395D2F3002071F0FF
:1053B000220F331F441FB395DAF30ED00C9444260A
:1053C00061307105A0E88A07B94630F49B01AC0151
:1053D0006627772788279078309621F020833183BD
:1053E00042835383089581E090E0F8940C947F2BDE
:1053F0000E943A2A08F481E00895E89409C097FBD6
:105400003EF490958095709561957F4F8F4F9F4F9B
:105410009923A9F0F92F96E9BB279395F6958795DF
:1054200077956795B795F111F8CFFAF4BB0F11F4A2
:1054300060FF1BC06F5F7F4F8F4F9F4F16C0882349
:1054400011F096E911C0772321F09EE8872F762F7F
:1054500005C0662371F096E8862F70E060E02AF0C0
:105460009A95660F771F881FDAF7880F96958795AC
:1054700097F90895990F0008550FAA0BE0E8FEEF81
:1054800016161706E807F907C0F012161306E40708
:10549000F50798F0621B730B840B950B39F40A2601
:1054A00061F0232B242B252B21F408950A2609F4DF
:1054B000A140A6958FEF811D811D08950E94712A3C
:1054C0000C94E22A0E94D42A38F00E94DB2A20F0B1
:1054D000952311F00C94CB2A0C94D12A11240C940E
:1054E000162B0E94F32A70F3959FC1F3950F50E09D
:1054F000551F629FF001729FBB27F00DB11D639F86
:10550000AA27F00DB11DAA1F649F6627B00DA11D2B
:10551000661F829F2227B00DA11D621F739FB00DD1
:10552000A11D621F839FA00D611D221F749F332741
:10553000A00D611D231F849F600D211D822F762FDA
:105540006A2F11249F5750409AF0F1F088234AF0B7
:10555000EE0FFF1FBB1F661F771F881F9150504023
:10556000A9F79E3F510580F00C94CB2A0C94162B82
:105570005F3FE4F3983ED4F3869577956795B795AA
:10558000F795E7959F5FC1F7FE2B880F911D9695C4
:10559000879597F9089597F99F6780E870E060E034
:1055A00008959FEF80EC089500240A9416161706BC
:1055B00018060906089500240A9412161306140604
:1055C00005060895092E0394000C11F4882352F067
:1055D000BB0F40F4BF2B11F460FF04C06F5F7F4F1F
:1055E0008F4F9F4F089557FD9058440F551F59F006
:1055F0005F3F71F04795880F97FB991F61F09F3FC0
:1056000079F087950895121613061406551FF2CFE8
:105610004695F1DF08C0161617061806991FF1CF38
:1056200086957105610508940895E894BB2766275F
:105630007727CB0197F90895052E97FB1EF4009468
:105640000E94332B57FD07D00E944E2B07FC03D03E
:105650004EF40C94332B50954095309521953F4F47
:105660004F4F5F4F089590958095709561957F4F4E
:105670008F4F9F4F08950E94702BA59F900DB49F50
:10568000900DA49F800D911D11240895B7FF0C94D7
:105690003B2B0E943B2B821B930B0895A1E21A2EF9
:1056A000AA1BBB1BFD010DC0AA1FBB1FEE1FFF1FC6
:1056B000A217B307E407F50720F0A21BB30BE40B16
:1056C000F50B661F771F881F991F1A9469F760955D
:1056D0007095809590959B01AC01BD01CF01089517
:1056E000A29FB001B39FC001A39F700D811D112423
:1056F000911DB29F700D811D1124911D0895F89484
:02570000FFCFD9
:105702000000803F000000000000000000000000D8
:105712000100000000000000560159081F01FD00B1
:1057220011019D0100000000BD028802E7039F02F3
:10573200C903B502FEFF0000BA02000000005702D2
:105742002702C9011302040203024D5055393235B2
:105752003020004920414D200020492073686F7598
:105762006C6420626520000D0A004D5055393235B7
:1057720030206973206F6E6C696E652E2E2E007854
:105782002D617869732073656C6620746573743A51
:1057920020616363656C65726174696F6E207472F7
:1057A200696D2077697468696E203A200025206F40
:1057B2006620666163746F72792076616C7565002C
:1057C200792D617869732073656C662074657374D2
:1057D2003A20616363656C65726174696F6E2074EF
:1057E20072696D2077697468696E203A20007A2D9B
:1057F200617869732073656C6620746573743A20EE
:10580200616363656C65726174696F6E207472693D
:105812006D2077697468696E203A2000782D61786E
:1058220069732073656C6620746573743A206779B6
:10583200726174696F6E207472696D207769746821
:10584200696E203A2000792D617869732073656C46
:105852006620746573743A206779726174696F6E39
:10586200207472696D2077697468696E203A20002D
:105872007A2D617869732073656C66207465737420
:105882003A206779726174696F6E207472696D2053
:1058920077697468696E203A20004D505539323567
:1058A2003020696E697469616C697A656420666F1B
:1058B20072206163746976652064617461206D6F22
:1058C20064652E2E2E2E00414B383936332000418E
:1058D2004B3839363320696E697469616C697A654F
:1058E2006420666F722061637469766520646174F6
:1058F20061206D6F64652E2E2E2E0050726F6265D0
:1059020020424D503238303A200053656E736F7228
:1059120020666F756E640053656E736F72206D69D9
:105922007373696E6700436F756C64206E6F7420C9
:10593200636F6E6E65637420746F204D50553932FB
:1059420035303A20307800204865696768745054D1
:10595200313A2000206D3B204865696768743A201F
:10596200002050726573737572653A200020506191
:105972003B20543A20002043006E616E00696E663F
:06598200006F76660000D4
:107800000C94343C0C94513C0C94513C0C94513CE1
:107810000C94513C0C94513C0C94513C0C94513CB4
:107820000C94513C0C94513C0C94513C0C94513CA4
:107830000C94513C0C94513C0C94513C0C94513C94
:107840000C94513C0C94513C0C94513C0C94513C84
:107850000C94513C0C94513C0C94513C0C94513C74
:107860000C94513C0C94513C11241FBECFEFD8E036
:10787000DEBFCDBF11E0A0E0B1E0ECE9FFE702C060
:1078800005900D92A230B107D9F712E0A2E0B1E065
:1078900001C01D92AD30B107E1F70E942D3D0C945F
:1078A000CC3F0C94003C982F959595959595959582
:1078B000905D8F708A307CF0282F295A8091C0000B
:1078C00085FFFCCF9093C6008091C00085FFFCCF60
:1078D0002093C6000895282F205DF0CF982F809127
:1078E000C00085FFFCCF9093C6000895EF92FF92F1
:1078F0000F931F93EE24FF2487018091C00087FD22
:1079000017C00894E11CF11C011D111D81E4E8164B
:1079100082E4F8068FE0080780E0180770F3E09132
:107920000401F091050109958091C00087FFE9CF1E
:107930008091C6001F910F91FF90EF9008950E94D3
:10794000763C982F8091C00085FFFCCF9093C600B5
