:100000000C9435000C945D000C945D000C945D0024
:100010000C945D000C945D000C945D000C945D00EC
:100020000C945D000C945D000C945D000C945D00DC
:100030000C945D000C945D000C945D000C945D00CC
:100040000C94DE020C945D000C94AC020C948602BD
:100050000C945D000C945D000C945D000C945D00AC
:100060000C9428030C945D00560411241FBECFEF9E
:10007000D8E0DEBFCDBF11E0A0E0B1E0EAE3FDE0F3
:1000800002C005900D92A635B107D9F722E0A6E58A
:10009000B1E001C01D92AE3BB207E1F710E0C5E34D
:1000A000D0E004C02197FE010E946E06C433D10740
:1000B000C9F70E94A3040C949B060C940000CF92F5
:1000C000DF92EF92FF920F931F93CF93DF936C0118
:1000D0007A018B01C0E0D0E0CE15DF0589F0D801B0
:1000E0006D918D01D601ED91FC910190F081E02D93
:1000F000C6010995892B11F47E0102C02196ECCF2F
:10010000C701DF91CF911F910F91FF90EF90DF908A
:10011000CF900895FC01918D828D981761F0828DAA
:10012000DF01A80FB11D5D968C91928D9F5F9F732B
:10013000928F90E008958FEF9FEF0895FC01918DCD
:10014000828D981731F0828DE80FF11D858D90E03A
:1001500008958FEF9FEF0895FC01918D228D892FD7
:1001600090E0805C9F4F821B91098F7399270895BF
:100170008DE092E00E94AC0021E0892B09F420E0A0
:10018000822F0895FC01848DDF01A80FB11DA35AB1
:10019000BF4F2C91848D90E001968F739927848FA7
:1001A000A689B7892C93A089B1898C9180648C939E
:1001B000938D848D981306C00288F389E02D808189
:1001C0008F7D80830895EF92FF920F931F93CF93BB
:1001D000DF93EC0181E0888F9B8D8C8D981305C097
:1001E000E889F989808185FD24C0F62E0B8D10E009
:1001F0000F5F1F4F0F731127E02E8C8DE8120CC07C
:100200000FB607FCFACFE889F989808185FFF5CF21
:10021000CE010E94C200F1CF8B8DFE01E80FF11DCF
:10022000E35AFF4FF0820B8FEA89FB89808180625D
:1002300007C0EE89FF896083E889F989808180643D
:10024000808381E090E0DF91CF911F910F91FF902B
:10025000EF900895CF93DF93EC01888D8823C9F048
:10026000EA89FB89808185FD05C0A889B9898C91BF
:1002700086FD0FC00FB607FCF5CF808185FFF2CF5A
:10028000A889B9898C9185FFEDCFCE010E94C2006B
:10029000E7CFDF91CF91089580E090E0892B29F09E
:1002A0000E94B80081110C94000008953FB7F894A3
:1002B0008091CA019091CB01A091CC01B091CD0168
:1002C00026B5A89B05C02F3F19F00196A11DB11DB1
:1002D0003FBFBA2FA92F982F8827820F911DA11DEC
:1002E000B11DBC01CD0142E0660F771F881F991F29
:1002F0004A95D1F708958F929F92AF92BF92CF9275
:10030000DF92EF92FF926B017C010E9456014B013C
:100310005C01C114D104E104F104F1F00E94560122
:10032000DC01CB0188199909AA09BB09883E9340D1
:10033000A105B10570F321E0C21AD108E108F10866
:1003400088EE880E83E0981EA11CB11CC114D10454
:10035000E104F10419F7DDCFFF90EF90DF90CF902B
:10036000BF90AF909F908F9008952FB7F8946091B1
:10037000C6017091C7018091C8019091C9012FBF3A
:10038000089585ED8093BC008091BC0084FDFCCF76
:1003900010929F01089540917901262F30E0240F9B
:1003A000311D21323105DCF420919F012430C9F444
:1003B000FC0180E090E0861758F43091790121919A
:1003C000DC01A95ABE4FA30FB11D2C930196F3CFA8
:1003D00080917901680F6093790180E0089581E050
:1003E000089582E0089508958FEF9FEF08958FEFAD
:1003F0009FEF08958091560190E091958195910924
:100400000895CF93DF9300D0CDB7DEB7CB01642F33
:1004100049835A830E94CB014981842F5A81952FA9
:100420000F900F90DF91CF910895CF93DF931F929C
:10043000CDB7DEB7698361E0CE0101960E94CB01A2
:1004400081E090E00F90DF91CF91089561157105E3
:1004500079F0FB0101900020E9F73197AF01461BCD
:10046000570BDC01ED91FC910280F381E02D0994A2
:1004700080E090E008954F925F926F927F92EF92AA
:10048000FF920F931F93CF93DF93CDB7DEB7A19762
:100490000FB6F894DEBF0FBECDBF7C01FA01CB01D1
:1004A00019A2223008F42AE08E010F5D1F4F422E60
:1004B000512C612C712CBF01A30192010E9479067D
:1004C000F901CA01015011096A3014F4605D01C0DC
:1004D000695CD8016C93232B242B252B61F7B80181
:1004E000C7010E942602A1960FB6F894DEBF0FBE88
:1004F000CDBFDF91CF911F910F91FF90EF907F9033
:100500006F905F904F9008950E9474061F920F9213
:100510000FB60F9211242F933F934F935F936F93D6
:100520007F938F939F93AF93BF93EF93FF938DE050
:1005300092E00E94C200FF91EF91BF91AF919F9115
:100540008F917F916F915F914F913F912F910F907C
:100550000FBE0F901F9018951F920F920FB60F921B
:1005600011242F938F939F93EF93FF93E0911D029C
:10057000F0911E028081E0912302F091240282FD1D
:1005800012C09081809126028F5F8F732091270285
:10059000821751F0E0912602F0E0E35FFD4F958F66
:1005A0008093260201C08081FF91EF919F918F91EE
:1005B0002F910F900FBE0F901F9018951F920F92C2
:1005C0000FB60F9211242F933F938F939F93AF9366
:1005D000BF938091C6019091C701A091C801B091CD
:1005E000C9013091C50123E0230F2D3720F4019676
:1005F000A11DB11D05C026E8230F0296A11DB11D46
:100600002093C5018093C6019093C701A093C801B0
:10061000B093C9018091CA019091CB01A091CC0106
:10062000B091CD010196A11DB11D8093CA01909397
:10063000CB01A093CC01B093CD01BF91AF919F911D
:100640008F913F912F910F900FBE0F901F90189593
:100650001F920F920FB60F9211242F933F934F9337
:100660005F936F937F938F939F93AF93BF93EF931A
:10067000FF938091B900887F803609F49CC068F5AB
:10068000883209F45BC090F4803109F454C038F426
:10069000882309F4F6C0883009F44DC0F6C08831CB
:1006A00009F44CC0803209F45DC0EFC0803409F415
:1006B00068C048F4803309F455C0883309F0E5C0B8
:1006C00080939E01D8C0803509F44FC0883509F465
:1006D0005DC0883409F0D9C0D6C0883909F4C7C0D4
:1006E000A8F4883709F467C038F4883609F463C081
:1006F000803709F460C0C9C0883809F4B8C08039AF
:1007000009F45FC0803809F0C0C05BC0803B09F4C9
:1007100086C038F4803A09F466C0883A09F47FC08C
:10072000B4C0803C09F4A7C0883C09F4A4C0883B4D
:1007300009F48AC0AAC08091C40110C09091C3017D
:100740008091C201981770F5E091C30181E08E0F8E
:100750008093C301F0E0EE55FE4F80818093BB0093
:1007600085EC86C080939E018EC0E091C30181E03C
:100770008E0F8093C3018091BB00F0E0EE55FE4FD9
:1007800080839091C3018091C2016EC0E091C3014A
:1007900081E08E0F8093C3018091BB00F0E0EE55A5
:1007A000FE4F80838091A10181116DC081E0809313
:1007B000A00184EA61C083E080939F0110929D01B3
:1007C000CFCF80919D01803208F051C0E0919D0112
:1007D00081E08E0F80939D018091BB00F0E0E35893
:1007E000FE4F8083BDCF85EC8093BC0010929F01AB
:1007F00080919D01803230F4E0919D01F0E0E3585A
:10080000FE4F108260919D0170E0E0917B01F091BC
:100810007C018DE791E0099510929D0136C084E03E
:1008200080939F0110927A0110927901E0917701F3
:10083000F0917801099580917901811105C081E0DD
:100840008093790110925701E0917A0181E08E0F37
:1008500080937A01F0E0E95AFE4F80818093BB00DB
:1008600090917A0180917901981708F479CF85E801
:100870008093BC000AC085EC8093BC0010929F015D
:1008800004C010929E010E94C101FF91EF91BF919F
:10089000AF919F918F917F916F915F914F913F9118
:1008A0002F910F900FBE0F901F901895EDE0F2E082
:1008B0001382128288EE93E0A0E0B0E084839583F7
:1008C000A683B78324E031E03183208325EC30E038
:1008D0003587248724EC30E03787268720EC30E00A
:1008E000318B208B21EC30E0338B228B22EC30E0FB
:1008F000358B248B26EC30E0378B268B118E128EB5
:10090000138E148E4EE057EC6AE17FE34093AE0203
:100910005093AF026093B0027093B1021092AA029A
:100920001092AB021092AC021092AD02E2EBF2E038
:100930001382128284839583A683B78384E191E036
:10094000918380830895789484B5826084BD84B552
:10095000816084BD85B5826085BD85B5816085BDBA
:1009600080916E00816080936E0010928100809172
:1009700081008260809381008091810081608093FA
:100980008100809180008160809380008091B1001F
:1009900084608093B1008091B00081608093B0004A
:1009A00080917A00846080937A0080917A008260DE
:1009B00080937A0080917A00816080937A008091A0
:1009C0007A00806880937A001092C1001092010230
:1009D0001092020210920302109204021092CF01B0
:1009E0001092D0011092D1011092D20160ED77E007
:1009F00080E090E00E947B018DE092E09093000205
:100A00008093FF01E0911D02F0911E0282E080833D
:100A1000E0911902F0911A021082E0911B02F0910C
:100A20001C0280E1808310922502E0912102F09166
:100A3000220286E08083E0911F02F09120028081F3
:100A400080618083E0911F02F091200280818860A4
:100A50008083E0911F02F091200280818068808372
:100A6000E0911F02F091200280818F7D80830E949F
:100A7000B5010091CF011091D0012091D1013091A9
:100A8000D201DC01CB01801B910BA20BB30B84368E
:100A90009105A105B10538F463E070E080E090E0D5
:100AA0000E947B01E4CF0E94B5016093CF01709357
:100AB000D0018093D1019093D20160E271E08091E6
:100AC000FF01909100020E9426026AE070E080E03F
:100AD00090E00E947B0181E08093D3010E94B501E8
:100AE000672B682B692B09F049C00E94B501623061
:100AF00071058105910508F041C03DC00E94B50116
:100B00006093CF017093D0018093D1019093D20173
:100B100062E371E08091FF01909100020E94260241
:100B20006AE371E08091FF01909100020E94260229
:100B30000E94B501AB01BC012AE08091FF019091B8
:100B400000020E943B026CE371E08091FF019091F2
:100B500000020E94260265E070E080E090E00E94C2
:100B60007B016AE070E080E090E00E947B01809170
:100B7000D30181115CC00E944C01B0CF0E94B5012D
:100B80006093090270930A0280930B0290930C0207
:100B9000009105021091060220910702309108028F
:100BA000601771078207930740F460930502709302
:100BB00006028093070290930802009105021091AB
:100BC000060220910702309108026B017C01C01AD5
:100BD000D10AE20AF30A970186010A3F11052105AD
:100BE000310548F260930502709306028093070274
:100BF000909308020E94B5010091CF011091D0019D
:100C00002091D1013091D201DC01CB01801B910BED
:100C1000A20BB30B84369105A105B10508F06ECF88
:100C200063E070E080E090E00E947B01E3CF809180
:100C3000FF0190910002DC01ED91FC910480F581AF
:100C4000E02D0995892B99F38091FF019091000285
:100C5000DC01ED91FC910480F581E02D09951816D9
:100C600019060CF088CF8091FF0190910002DC0101
:100C7000ED91FC910680F781E02D09959927833647
:100C8000910551F08637910509F475CF88359105A6
:100C9000D9F61092D301D8CF65E471E08091FF01BD
:100CA000909100020E9426022AE041E050E060E0BC
:100CB00070E08091FF01909100020E943B026CE481
:100CC00071E08091FF01909100020E94260262E390
:100CD00070E080E090E00E947B014DCFEE0FFF1F9F
:100CE0000590F491E02D099481E090E0F8940C9443
:100CF0009B06A1E21A2EAA1BBB1BFD010DC0AA1F59
:100D0000BB1FEE1FFF1FA217B307E407F50720F074
:100D1000A21BB30BE40BF50B661F771F881F991FEF
:100D20001A9469F760957095809590959B01AC0138
:0A0D3000BD01CF010895F894FFCF34
:100D3A0000000000E3005F00AC008A009E002A0168
:100D4A000000000015020102FA01F701F401F301A3
:100D5A00564D4450565F317C315F564D4450560DC6
:100D6A000A00564D4450455F31007C005F564D44A1
:100D7A0050450D0A00564D4450435F005F564D449E
:060D8A0050430D0A0000B9
:00000001FF
