:100000000C94D3000C94FB000C94FB000C94FB00AC
:100010000C94FB000C94FB000C94FB000C94FB0074
:100020000C94FB000C94FB000C94FB000C94480413
:100030000C94FB000C94FB000C94FB000C94FB0054
:100040000C9497030C94FB000C94AE020C94880261
:100050000C94FB000C94FB000C94FB000C94FB0034
:100060000C94AC040C94FB00036EDB363D9A99991A
:10007000993DABAAAA2A3E000000803F084AD73B20
:100080003BCE016E84BCBFFDC12F3D6C74319ABD67
:1000900056833DDA3D00C77F11BED9E4BB4C3E918B
:1000A0006BAAAABE000000803F072C7AA5BA6CC5D7
:1000B00090DA3B9365FC8BBC53F810FD3C56928361
:1000C0004DBD879D3AB63DCBC9BF5BBE73DA0FC944
:1000D0003F07634236B79BD8A71A39685618AEBA9D
:1000E000AB558C1D3CB7CC5763BD6DEDFD753EF631
:1000F000177231BF000000803F08000000BE92244C
:1001000049123EABAAAA2ABECDCCCC4C3E00000080
:1001100080BEABAAAAAA3E00000000BF000000807B
:100120003F0000000000084178D3BB4387D1133D56
:10013000190E3CC3BD4282AD2B3E68EC8276BED91F
:100140008FE1A93E4C80EFFFBE01C4FF7F3F00005E
:100150000000000000000000250028002B00000027
:100160000000240027002A000404040404040404FA
:100170000202020202020303030303030102040852
:100180001020408001020408102001020408102001
:100190000000000800020100000304070000000046
:1001A00000000000011E11241FBECFEFD8E0DEBF0B
:1001B000CDBF13E0A0E0B1E0ECE9F8E402C00590A7
:1001C0000D92A434B107D9F725E0A4E4B3E001C04F
:1001D0001D92A03EB207E1F710E0C3EDD0E004C0ED
:1001E0002197FE010E942D1FC23DD107C9F70E9431
:1001F00006070C944C240C940000FC01918D828D18
:10020000981761F0828DDF01A80FB11D5D968C916A
:10021000928D9F5F9F73928F90E008958FEF9FEF75
:100220000895FC01918D828D981731F0828DE80F31
:10023000F11D858D90E008958FEF9FEF0895FC01EB
:10024000918D228D892F90E0805C9F4F821B9109B8
:100250008F73992708958FE295E00E941F0121E096
:10026000892B09F420E0822F0895FC01848DDF01A1
:10027000A80FB11DA35ABF4F2C91848D90E0019619
:100280008F739927848FA689B7892C93A089B18908
:100290008C9180648C93938D848D981306C0028812
:1002A000F389E02D80818F7D80830895EF92FF9206
:1002B0000F931F93CF93DF93EC0181E0888F9B8D89
:1002C0008C8D981305C0E889F989808185FD24C04B
:1002D000F62E0B8D10E00F5F1F4F0F731127E02ECE
:1002E0008C8DE8120CC00FB607FCFACFE889F989AB
:1002F000808185FFF5CFCE010E943501F1CF8B8D36
:10030000FE01E80FF11DE35AFF4FF0820B8FEA89DF
:10031000FB898081806207C0EE89FF896083E8895C
:10032000F98980818064808381E090E0DF91CF91C2
:100330001F910F91FF90EF900895CF93DF93EC0101
:10034000888D8823C9F0EA89FB89808185FD05C0F5
:10035000A889B9898C9186FD0FC00FB607FCF5CF2F
:10036000808185FFF2CFA889B9898C9185FFEDCF77
:10037000CE010E943501E7CFDF91CF91089580E053
:1003800090E0892B29F00E942B0181110C94000030
:1003900008958091440390E020914503821B9109C8
:1003A000089585ED8093BC008091BC0084FDFCCF56
:1003B00010920A05089540917104262F30E0240F11
:1003C000311D21323105DCF420910A052430C9F4B5
:1003D000FC0180E090E0861758F43091710421917F
:1003E000DC01A15BBB4FA30FB11D2C930196F3CF92
:1003F00080917104680F6093710480E0089581E03A
:10040000089582E008950895E091450380914403A2
:10041000E81730F4F0E0EC53FB4F808190E0089552
:100420008FEF9FEF089590914503809144039817B3
:1004300050F4E92FF0E0EC53FB4F208130E09F5F58
:100440009093450302C02FEF3FEFC9010895CF926B
:10045000DF92EF92FF920F931F93CF93DF937C0174
:10046000262F972F8A0180910B05882391F0C62FA4
:10047000D72F6E01C40ED51ECC15DD0571F0699124
:10048000D701ED91FC910190F081E02DC701099514
:10049000F3CF642F822F0E94DB01C801DF91CF913F
:1004A0001F910F91FF90EF90DF90CF900895CF9321
:1004B000DF931F92CDB7DEB7698320910B0522230E
:1004C000D1F020912E05203240F021E030E0FC01F7
:1004D0003383228380E090E015C080910C05E82FE3
:1004E000F0E0E35FFA4F998190838F5F80930C0572
:1004F00080932E0505C061E0CE0101960E94DB01CC
:1005000081E090E00F90DF91CF9108950E94E22268
:100510001F920F920FB60F9211242F933F934F9378
:100520005F936F937F938F939F93AF93BF93EF935B
:10053000FF938FE295E00E943501FF91EF91BF910B
:10054000AF919F918F917F916F915F914F913F916B
:100550002F910F900FBE0F901F9018951F920F9222
:100560000FB60F9211242F938F939F93EF93FF93C6
:10057000E0913F05F09140058081E0914505F091C3
:10058000460582FD12C09081809148058F5F8F7370
:1005900020914905821751F0E0914805F0E0E15DB6
:1005A000FA4F958F8093480501C08081FF91EF91AC
:1005B0009F918F912F910F900FBE0F901F901895C4
:1005C00090E0FC01E057FE4F3491FC01E458FE4FEF
:1005D0002491FC01E859FE4FE491EE2309F43BC05D
:1005E000332339F1333091F038F43130A9F032301F
:1005F00001F584B58F7D12C0373091F03830A1F00D
:100600003430B9F4809180008F7D03C080918000E8
:100610008F77809380000DC084B58F7784BD09C02B
:100620008091B0008F7703C08091B0008F7D809360
:10063000B000F0E0EE0FFF1FEC5AFE4FA591B49111
:100640008FB7F894EC91611103C020952E2301C05F
:100650002E2B2C938FBF08953FB7F8948091C00440
:100660009091C104A091C204B091C30426B5A89B87
:1006700005C02F3F19F00196A11DB11D3FBFBA2F34
:10068000A92F982F8827820F911DA11DB11DBC0194
:10069000CD0142E0660F771F881F991F4A95D1F759
:1006A00008958F929F92AF92BF92CF92DF92EF9276
:1006B000FF926B017C010E942C034B015C01C11471
:1006C000D104E104F104F1F00E942C03DC01CB0120
:1006D00088199909AA09BB09883E9340A105B1056B
:1006E00070F321E0C21AD108E108F10888EE880E03
:1006F00083E0981EA11CB11CC114D104E104F104D3
:1007000019F7DDCFFF90EF90DF90CF90BF90AF90C3
:100710009F908F9008952FB7F8946091BC047091CA
:10072000BD048091BE049091BF042FBF08951F9215
:100730000F920FB60F9211242F933F938F939F9395
:10074000AF93BF938091BC049091BD04A091BE046F
:10075000B091BF043091BB0423E0230F2D3720F468
:100760000196A11DB11D05C026E8230F0296A11D0B
:10077000B11D2093BB048093BC049093BD04A0934F
:10078000BE04B093BF048091C0049091C104A091B5
:10079000C204B091C3040196A11DB11D8093C00491
:1007A0009093C104A093C204B093C304BF91AF91CE
:1007B0009F918F913F912F910F900FBE0F901F909F
:1007C0001895DF92EF92FF920F931F93CF93DF93D1
:1007D0001F92CDB7DEB7F82E890181E080930B051B
:1007E000F0922D0510920C0510922E058CEC95E0E0
:1007F00049830E94570280E00E9405064981642FC8
:10080000413208F060E28F2D0E946206109245038B
:100810008093440380E0309144039091450339175D
:1008200071F0DD24D394D80E7801E80EF11C8CEC25
:1008300095E00E941302F70180838D2DECCF0F907D
:10084000DF91CF911F910F91FF90EF90DF9008956E
:10085000CF93C82F81E080930B05C0932D05109294
:100860000C0510922E058CEC95E00E94570280E05A
:100870000E94050661E08C2F0E94620610924503DB
:10088000809344038CEC95E00E941302CF9108956D
:100890001F920F920FB60F9211242F933F938F93B5
:1008A0009F93EF93FF938091BA0487FF05C0109246
:1008B00085001092840005C08091BA0487FD809164
:1008C000BA048091BA048F5F8093BA048091BA040D
:1008D00087FF20C08091BA048C30E4F4209184001A
:1008E000309185008091BA04082E000C990BFC0110
:1008F000EE0FFF1F8E0F9F1FFC01EA56FB4F8181F9
:100900009281820F931F9093890080938800809139
:10091000BA0417C0809184009091850004968034B9
:100920009C4918F480E49CE905C080918400909172
:100930008500049690938900809388008FEF8093C0
:10094000BA04FF91EF919F918F913F912F910F905A
:100950000FBE0F901F9018951F920F920FB60F9217
:1009600011242F933F934F935F936F937F938F93B4
:100970009F93AF93BF93EF93FF938091B900887FCC
:10098000803609F49CC068F5883209F45BC090F4A5
:10099000803109F454C038F4882309F4F6C0883053
:1009A00009F44DC0F6C0883109F44CC0803209F416
:1009B0005DC0EFC0803409F468C048F4803309F4A6
:1009C00055C0883309F0E5C080930805D8C080354C
:1009D00009F44FC0883509F45DC0883409F0D9C0E6
:1009E000D6C0883909F4C7C0A8F4883709F467C0AD
:1009F00038F4883609F463C0803709F460C0C9C090
:100A0000883809F4B8C0803909F45FC0803809F02B
:100A1000C0C05BC0803B09F486C038F4803A09F45A
:100A200066C0883A09F47FC0B4C0803C09F4A7C00E
:100A3000883C09F4A4C0883B09F48AC0AAC080910C
:100A4000E50410C09091070580910605981770F590
:100A5000E091070581E08E0F80930705F0E0EA51F1
:100A6000FB4F80818093BB0085EC86C08093080596
:100A70008EC0E091070581E08E0F8093070580917D
:100A8000BB00F0E0EA51FB4F808390910705809115
:100A900006056EC0E091070581E08E0F8093070583
:100AA0008091BB00F0E0EA51FB4F80838091090503
:100AB00081116DC081E08093E40484EA61C083E029
:100AC00080930A0510929504CFCF809195048032CF
:100AD00008F051C0E091950481E08E0F8093950459
:100AE0008091BB00F0E0EB58FB4F8083BDCF85ECDD
:100AF0008093BC0010920A0580919504803230F4F6
:100B0000E0919504F0E0EB58FB4F10826091950462
:100B100070E0E0917304F091740485E794E0099526
:100B20001092950436C084E080930A0510927204F6
:100B300010927104E0916F04F09170040995809116
:100B40007104811105C081E08093710410924F04FB
:100B5000E091720481E08E0F80937204F0E0E15B1B
:100B6000FB4F80818093BB0090917204809171044F
:100B7000981708F479CF85E88093BC000AC085EC0B
:100B80008093BC0010920A0504C0109208050E94D0
:100B9000D101FF91EF91BF91AF919F918F917F9183
:100BA0006F915F914F913F912F910F900FBE0F90DA
:100BB0001F901895CF92DF92EF92FF920F931F93A1
:100BC000CF93DF936C017A018B01C0E0D0E0CE15AA
:100BD000DF0589F0D8016D918D01D601ED91FC9171
:100BE0000190F081E02DC6010995892B11F47E0159
:100BF00002C02196ECCFC701DF91CF911F910F91D9
:100C0000FF90EF90DF90CF900895382F20912E0520
:100C100090912D05213208F049C080910A0581117B
:100C2000FCCF42E040930A05309309053FEF309333
:100C300008051092070520930605ADE0B5E046EEE5
:100C400054E0FA013E2F341B321718F43D913193D2
:100C5000F9CF1092E5042091E504990F922B90931F
:100C6000E5049091E404913061F41092E4049091D1
:100C7000E5049093BB009091BC0093FDF8CF95ECF8
:100C800001C095EE9093BC0090910A059230E1F37B
:100C9000909108059F3F79F080910805803241F0DE
:100CA00080910805803331F084E005C081E003C005
:100CB00082E001C083E010920C0510922E05109284
:100CC0000B05089590910A059111FCCF91E0909346
:100CD0000A05909309052FEF209308051092070548
:100CE000260F209306059093E5049091E504880F64
:100CF000892B8093E5048091E404813061F41092A3
:100D0000E4048091E5048093BB008091BC0083FDE6
:100D1000F8CF85EC01C085EE8093BC0080910A0578
:100D20008130E1F380910705861710F46091070583
:100D3000A6EEB4E024EC34E0F9018E2F821B861776
:100D400018F48D918193F9CF862F0895611571055F
:100D500079F0FB0101900020E9F73197AF01461BC4
:100D6000570BDC01ED91FC910280F381E02D099499
:100D700080E090E008954F925F926F927F92EF92A1
:100D8000FF920F931F93CF93DF93CDB7DEB7A19759
:100D90000FB6F894DEBF0FBECDBF7C01FA01CB01C8
:100DA00019A2223008F42AE08E010F5D1F4F422E57
:100DB000512C612C712CBF01A30192010E940B24C4
:100DC000F901CA01015011096A3014F4605D01C0D3
:100DD000695CD8016C93232B242B252B61F7B80178
:100DE000C7010E94A606A1960FB6F894DEBF0FBEFB
:100DF000CDBFDF91CF911F910F91FF90EF907F902A
:100E00006F905F904F9008950C94A606CF93DF9358
:100E1000CDB7DEB7C45CD1090FB6F894DEBF0FBE04
:100E2000CDBF789484B5826084BD84B5816084BD73
:100E300085B5826085BD85B5816085BD80916E0078
:100E4000816080936E0010928100809181008260A9
:100E500080938100809181008160809381008091E6
:100E600080008160809380008091B10084608093D5
:100E7000B1008091B00081608093B00080917A00D1
:100E8000846080937A0080917A00826080937A00F7
:100E900080917A00816080937A0080917A008068E6
:100EA00080937A001092C10010924304109244047F
:100EB00010924504109246041092110410921204EC
:100EC000109213041092140460ED77E080E090E03B
:100ED0000E9451038FE295E0909342048093410475
:100EE000E0913F05F091400582E08083E0913B0571
:100EF000F0913C051082E0913D05F0913E0580E1C6
:100F0000808310924705E0914305F091440586E007
:100F10008083E0914105F09142058081806180836A
:100F2000E0914105F0914205808188608083E091E5
:100F30004105F0914205808180688083E091410500
:100F4000F091420580818F7D80830E948B03009108
:100F50001104109112042091130430911404DC0147
:100F6000CB01801B910BA20BB30B84369105A1051D
:100F7000B10538F463E070E080E090E00E94510336
:100F8000E4CF0E948B03609311047093120480934A
:100F900013049093140464E371E0809141049091F0
:100FA00042040E9404076AE070E080E090E00E9442
:100FB000510381E08093150410924503109244037D
:100FC00010920C0510922E0510920A0580930905C7
:100FD0001092E40461E082E10E94E00261E083E1BA
:100FE0000E94E0028091B9008E7F8093B9008091C9
:100FF000B9008D7F8093B90088E48093B80085E4C0
:101000008093BC00EEE7F1E02491EAE6F1E0849100
:101010008823C9F090E0880F991FFC01E25AFE4F27
:1010200045915491FC01EC5AFE4FA591B4919FB7A4
:10103000F894FA0180812095822380838C91E22F9D
:10104000E823EC939FBF60E082E00E94E00265E746
:1010500088E60E942804182F66E471E08FE295E08C
:101060000E9404076FE471E08FE295E00E9404079C
:10107000C12ED12CE12CF12C20E1B701A6018FE289
:1010800095E00E94BB0665E571E08FE295E00E9465
:10109000040720E141E750E060E070E08FE295E076
:1010A0000E94BB0665E373E08FE295E00E94A6060E
:1010B00068EE73E080E090E00E945103113711F078
:1010C0000C949D1083E691E00E944E1E8E01075BFA
:1010D0001F4F86E0D8011D928A95E9F78CE07E01CA
:1010E000BDE3EB0EF11CF701282F11922A95E9F7C9
:1010F000AE014F5C5F4F61965FAF4EAF6197DA0113
:10110000E82F1D92EA95E9F73E01F5E26F0E711C9A
:10111000D301E82F1D92EA95E9F76E01F9E1CF0EB0
:10112000D11CD6011D928A95E9F740E069E188E675
:101130000E94E21D42E06AE188E60E94E21D41E071
:101140006BE188E60E94E21D42E06DE188E60E94C4
:10115000E21D41E06CE188E60E94E21D58ECA52EFC
:10116000B12C980146E06BE388E60E94E103F801A8
:10117000808190E0982F88272181822B092E000CF6
:10118000AA0BBB0B49A95AA96BA97CA9840F951F6F
:10119000A61FB71F89AB9AABABABBCAB828190E00B
:1011A000982F88272381822B092E000CAA0BBB0BBA
:1011B0004DA95EA96FA978AD840F951FA61FB71F13
:1011C0008DAB9EABAFABB8AF848190E0982F8827F2
:1011D0002581822B092E000CAA0BBB0B49AD5AAD01
:1011E0006BAD7CAD840F951FA61FB71F89AF9AAF5B
:1011F000ABAFBCAF980146E063E488E60E94E10330
:10120000D8018C9190E0982F882711962C91822BF1
:10121000092E000CAA0BBB0BF701408151816281A2
:101220007381840F951FA61FB71F80839183A283AC
:10123000B383D80112968C91129790E0982F88274B
:1012400013962C91822B092E000CAA0BBB0B259612
:101250004CAD5DAD6EAD7FAD2597840F951FA61F7C
:10126000B71F25968CAF9DAFAEAFBFAF2597F801E6
:10127000848190E0982F88272581822B092E000CED
:10128000AA0BBB0B29964CAD5DAD6EAD7FAD29971A
:10129000840F951FA61FB71F29968CAF9DAFAEAFC9
:1012A000BFAF2997F1E0AF1AB10809F05ACF9E01FC
:1012B0002F5C3F4F63963FAF2EAF63976796FFAEAD
:1012C000EEAE67974701590168EC262E312C412C70
:1012D000512CD5016D917D918D919C91A20191012F
:1012E0000E942D24F50121933193419351935F0185
:1012F000D4016D917D918D919C91A20191010E94EB
:101300002D24F40121933193419351934F01AE1455
:10131000BF04F9F640EE6CE188E60E94E21D40EE63
:101320006BE188E60E94E21D69E170E080E090E0F8
:101330000E94510358ECE52EF12C980146E06BE336
:1013400088E60E94E103D8018C9190E0982F8827CD
:1013500011962C91822B092E000CAA0BBB0B4DA1D0
:101360005EA16FA178A5840F951FA61FB71F8DA33F
:101370009EA3AFA3B8A7F801828190E0982F882799
:101380002381822B092E000CAA0BBB0B49A55AA561
:101390006BA57CA5840F951FA61FB71F89A79AA7C9
:1013A000ABA7BCA7848190E0982F88272581822B4A
:1013B000092E000CAA0BBB0B4DA55EA56FA578A945
:1013C000840F951FA61FB71F8DA79EA7AFA7B8AB09
:1013D000980146E063E488E60E94E103D8018C911D
:1013E00090E0982F882711962C91822B092E000CC3
:1013F000AA0BBB0B498D5A8D6B8D7C8D840F951F6D
:10140000A61FB71F898F9A8FAB8FBC8FF80182817F
:1014100090E0982F88272381822B092E000CAA0B9D
:10142000BB0B4D8D5E8D6F8D78A1840F951FA61F10
:10143000B71F8D8F9E8FAF8FB8A3848190E0982FB8
:1014400088272581822B092E000CAA0BBB0B49A1F2
:101450005AA16BA17CA1840F951FA61FB71F89A35A
:101460009AA3ABA3BCA3F1E0EF1AF10809F065CF92
:1014700046017601830178EC272E312C412C512C2A
:10148000D8016D917D918D919C91A20191010E9455
:101490002D24F80121933193419351938F01D7016A
:1014A0006D917D918D919C91A20191010E942D24BD
:1014B000F70121933193419351937F0161962EADB2
:1014C0003FAD619702171307D9F640E06CE188E65B
:1014D0000E94E21D40E06BE188E60E94E21D69E1A6
:1014E00070E080E090E00E9451036DE088E60E9489
:1014F0002804A82E6EE088E60E942804B82E6FE02B
:1015000088E60E942804E82E60E088E60E9428040D
:10151000F82E61E088E60E942804082F62E088E641
:101520000E942804182F6A2D70E080E090E00E944D
:10153000EC2220E030E040E85FE30E94331F9B0193
:10154000AC016EEA77E481E89FE30E94362120E057
:1015500030EC43E255E40E944D2369837A838B8308
:101560009C836B2D70E080E090E00E94EC2220E0F4
:1015700030E040E85FE30E94331F9B01AC016EEA5C
:1015800077E481E89FE30E94362120E030EC43E2DB
:1015900055E40E944D236D837E838F8398876E2D43
:1015A00070E080E090E00E94EC2220E030E040E833
:1015B0005FE30E94331F9B01AC016EEA77E481E890
:1015C0009FE30E94362120E030EC43E255E40E9484
:1015D0004D2369877A878B879C876F2D70E080E029
:1015E00090E00E94EC2220E030E040E85FE30E94BF
:1015F000331F9B01AC016EEA77E481E89FE30E9410
:10160000362120E030EC43E255E40E944D236D8703
:101610007E878F87988B602F70E080E090E00E943B
:10162000EC2220E030E040E85FE30E94331F9B01A2
:10163000AC016EEA77E481E89FE30E94362120E066
:1016400030EC43E255E40E944D23698B7A8B8B8BFF
:101650009C8B612F70E080E090E00E94EC2220E003
:1016600030E040E85FE30E94331F9B01AC016EEA6B
:1016700077E481E89FE30E94362120E030EC43E2EA
:1016800055E40E944D236D8B7E8B8F8B988FAE011E
:101690004F5F5F4F7A010EE513E0A12CB12CF301EF
:1016A00081919191A191B1913F016396EEADFFAD12
:1016B000639721913191419151916396FFAFEEAFC4
:1016C0006397BC01CD01621B730B840B950B0E94C9
:1016D000EE2220E030E048EC52E40E944D23D70196
:1016E0002D913D914D915C910E942D2020E030E0A4
:1016F00048EC52E40E94331FF801608371838283B7
:101700009383F40181919191A191B1914F016796D9
:10171000EEADFFAD6797219131914191519167965F
:10172000FFAFEEAF6797BC01CD01621B730B840B5B
:10173000950B0E94EE2220E030E048EC52E40E943B
:101740004D23D7011C962D913D914D915C911F9792
:101750000E942D2020E030E048EC52E40E94331F2C
:10176000F8016487758786879787FFEFAF1ABF0AEE
:1017700024E0E20EF11C0C5F1F4F33E0A316B1040E
:1017800009F08DCF68E771E08FE295E00E940407D1
:1017900060915E0370915F0380916003909161039B
:1017A0000E94611E86EA91E00E944E1E69EB71E084
:1017B0008FE295E00E9404076091620370916303D9
:1017C00080916403909165030E94611E86EA91E016
:1017D0000E944E1E67EE71E08FE295E00E940407C2
:1017E000609166037091670380916803909169032B
:1017F0000E94611E86EA91E00E944E1E65E172E041
:101800008FE295E00E94040760916A0370916B0378
:1018100080916C0390916D030E94611E86EA91E0B5
:101820000E944E1E6FE372E08FE295E00E94040773
:1018300060916E0370916F038091700390917103BA
:101840000E94611E86EA91E00E944E1E69E672E0E7
:101850008FE295E00E940407609172037091730318
:1018600080917403909175030E94611E86EA91E055
:101870000E944E1E40E86BE688E60E94E21D64E688
:1018800070E080E090E00E94510341E06BE688E662
:101890000E94E21D40E06CE688E60E94E21D68ECD2
:1018A00070E080E090E00E94510340E068E388E649
:1018B0000E94E21D40E063E288E60E94E21D40E0F3
:1018C0006BE688E60E94E21D40E064E288E60E9442
:1018D000E21D40E06AE688E60E94E21D4CE06AE60E
:1018E00088E60E94E21D6FE070E080E090E00E94D8
:1018F000510341E06AE188E60E94E21D40E069E1AF
:1019000088E60E94E21D40E06BE188E60E94E21D4D
:1019100040E06CE188E60E94E21D40E46AE688E669
:101920000E94E21D48E763E288E60E94E21D68E249
:1019300070E080E090E00E94510340E063E288E6BE
:101940000E94E21D960142E062E788E60E94E10300
:10195000898D90E0982F88272A8D822B6CE070E08B
:101960000E94191F8B01812C912C5401412C512C68
:10197000320165961CAE1DAE1EAE1FAE65976D960C
:101980001CAE1DAE1EAE1FAE6D97A1961CAE1DAE59
:101990001EAE1FAEA19769961CAE1DAE1EAE1FAE49
:1019A0006997C12CD12CC016D10609F490C09E01B4
:1019B000275E3F4F4CE064E788E60E94E103898D93
:1019C00090E0982F88272A8D822B092E000CAA0BD5
:1019D000BB0B65962CAD3DAD4EAD5FAD6597280F49
:1019E000391F4A1F5B1F65962CAF3DAF4EAF5FAFEF
:1019F00065978B8D90E0982F88272C8D822B092E50
:101A0000000CAA0BBB0B480E591E6A1E7B1E8D8D47
:101A100090E0982F88272E8D822B092E000CAA0B80
:101A2000BB0B880E991EAA1EBB1E8F8D90E0982FAF
:101A3000882728A1822B092E000CAA0BBB0B6996C4
:101A40002CAD3DAD4EAD5FAD6997280F391F4A1FD4
:101A50005B1F69962CAF3DAF4EAF5FAF699789A111
:101A600090E0982F88272AA1822B092E000CAA0B20
:101A7000BB0BA1962CAD3DAD4EAD5FADA197280F30
:101A8000391F4A1F5B1FA1962CAF3DAF4EAF5FAF12
:101A9000A1978BA190E0982F88272CA1822B092E4B
:101AA000000CAA0BBB0B6D962CAD3DAD4EAD5FADE2
:101AB0006D97280F391F4A1F5B1F6D962CAF3DAFE6
:101AC0004EAF5FAF6D973FEFC31AD30A6CCFE12CD7
:101AD000F12C65966CAD7DAD8EAD9FAD6597A70180
:101AE00096010E942D24A5962CAF3DAF4EAF5FAF5F
:101AF000A597C301B201A70196010E942D24A996C2
:101B00002CAF3DAF4EAF5FAFA997C501B401A701A0
:101B100096010E942D2449015A0169966CAD7DAD54
:101B20008EAD9FAD6997A70196010E942D242901D2
:101B30003A01A1966CAD7DAD8EAD9FADA197A70189
:101B400096010E942D2469962CAF3DAF4EAF5FAF3A
:101B500069976D966CAD7DAD8EAD9FAD6D97A7010C
:101B600096010E942D24A1962CAF3DAF4EAF5FAFE2
:101B7000A197181419041A041B0464F4D501C401B4
:101B80009054A109B10965968CAF9DAFAEAFBFAFC0
:101B900065970BC0A5019401305C4F4F5F4F659670
:101BA0002CAF3DAF4EAF5FAF659734E0C32ED12C65
:101BB000E12CF12CC301B201A70196010E942D2452
:101BC00050954095309521953F4F4F4F5F4FBB2724
:101BD00057FDBA95A52F942F832F6D968CAF9DAF8F
:101BE000AEAFBFAF6D97898F2A8F69966CAD7DAD13
:101BF0008EAD9FAD6997A70196010E942D24509547
:101C00004095309521953F4F4F4F5F4F3B8F2C8F25
:101C1000A1966CAD7DAD8EAD9FADA197A70196014C
:101C20000E942D2450954095309521953F4F4F4F60
:101C30005F4F3D8F2E8F6A964FAD6A9763E188E6BE
:101C40000E94E21D4A8D64E188E60E94E21D4B8DF0
:101C500065E188E60E94E21D4C8D66E188E60E94FF
:101C6000E21D4D8D67E188E60E94E21D4E8D68E120
:101C700088E60E94E21DC301B2010E94EE2220E02C
:101C800030E043E053E40E942D20609352037093B0
:101C90005303809354039093550369966CAD7DADC7
:101CA0008EAD9FAD69970E94EE2220E030E043E0C8
:101CB00053E40E942D206093560370935703809342
:101CC000580390935903A1966CAD7DAD8EAD9FAD39
:101CD000A1970E94EE2220E030E043E053E40E940E
:101CE0002D2060935A0370935B0380935C03909361
:101CF0005D039E01275E3F4F42E067E788E60E9452
:101D0000E103898C912C982C88248A8D882A092CAF
:101D1000000CAA08BB0889829A82AB82BC829E0111
:101D2000275E3F4F42E06AE788E60E94E103C98CE4
:101D3000D12CDC2CCC248A8DC82A0D2C000CEE086A
:101D4000FF08CD82DE82EF82F8869E01275E3F4F3C
:101D500042E06DE788E60E94E103898D90E0982FCC
:101D600088272A8D822B9C01990F440B550B69966D
:101D70002CAF3DAF4EAF5FAF699729873A874B874E
:101D80005C871DA21EA21FA2FE013196DE01959660
:101D9000CE010D9621E0419151916191719140FDEB
:101DA0002C931196E817F907B1F798E0492E512CBA
:101DB000612C712CA5966CAD7DAD8EAD9FADA597B8
:101DC000A30192010E942D24821A930AA40AB50A43
:101DD000A9966CAD7DAD8EAD9FADA997A301920183
:101DE0000E942D24C21AD30AE40AF50A65966CAD46
:101DF0007DAD8EAD9FAD6597A30192010E942D240C
:101E000069968CAD9DADAEADBFAD6997821B930B4E
:101E1000A40BB50B7727B7FC7A956B2D5A2D492D5E
:101E2000498F2DA1822A8A8EDB8E2EA1C22ACC8ECA
:101E30009D8F2FA1822B8E8F67E788E60E94E21D7F
:101E40004A8D68E788E60E94E21D4B8D6AE788E6C6
:101E50000E94E21D4C8D6BE788E60E94E21D4D8DCD
:101E60006DE788E60E94E21D4E8D6EE788E60E94CF
:101E7000E21DA5966CAD7DAD8EAD9FADA5970E9480
:101E8000EE2220E030E040E858E30E944D236093CA
:101E90004603709347038093480390934903A996A0
:101EA0006CAD7DAD8EAD9FADA9970E94EE2220E076
:101EB00030E040E858E30E944D2360934A0370935A
:101EC0004B0380934C0390934D0365966CAD7DADB1
:101ED0008EAD9FAD65970E94EE2220E030E040E895
:101EE00058E30E944D2360934E0370934F038093F9
:101EF00050039093510340E06BE688E60E94E21D98
:101F000064E670E080E090E00E94510341E06BE6FF
:101F100088E60E94E21D68EC70E080E090E00E949C
:101F2000510343E06AE188E60E94E21D44E069E172
:101F300088E60E94E21D6BE188E60E942804482F93
:101F4000457E6BE188E60E94E21D6CE188E60E9416
:101F50002804482F477E6CE188E60E94E21D6DE16F
:101F600088E60E942804807F482F43606DE188E660
:101F70000E94E21D42E267E388E60E94E21D41E022
:101F800068E388E60E94E21D64E670E080E090E08D
:101F90000E94510383E992E00E944E1E60E08CE0B3
:101FA0000E942804182F60EC72E08FE295E00E94F6
:101FB00004076FE471E08FE295E00E940407412F6F
:101FC00050E060E070E020E18FE295E00E94BB0607
:101FD00065E571E08FE295E00E94040720E148E4A6
:101FE00050E060E070E08FE295E00E94BB0665E3A0
:101FF00073E08FE295E00E94A60668EE73E080E051
:1020000090E00E94510340E06AE08CE00E94E21DF3
:102010006AE070E080E090E00E9451034FE06AE0E7
:102020008CE00E94E21D6AE070E080E090E00E9497
:1020300051038E010F5F1F4F980143E060E18CE078
:102040000E94E103698170E060587109072E000C5D
:10205000880B990B0E94EE2220E030E040E85BE321
:102060000E944D2320E030E040E85FE30E94341FEF
:102070006093AA037093AB038093AC039093AD037A
:102080006A8170E060587109072E000C880B990B6B
:102090000E94EE2220E030E040E85BE30E944D2306
:1020A00020E030E040E85FE30E94341F6093AE031D
:1020B0007093AF038093B0039093B1036B8170E092
:1020C00060587109072E000C880B990B0E94EE22B4
:1020D00020E030E040E85BE30E944D2320E030E068
:1020E00040E85FE30E94341F6093B2037093B30330
:1020F0008093B4039093B50340E06AE08CE00E94C3
:10210000E21D6AE070E080E090E00E94510342E14D
:102110006AE08CE00E94E21D6AE070E080E090E0FE
:102120000E94510388EC92E00E944E1E68EE73E01C
:1021300080E090E00E94510340C364EF72E08FE2C0
:1021400095E00E94040720E1B701A6018FE295E027
:102150000E94BB0665E373E08FE295E00E94A6064D
:10216000FFCF0E948B03623071058105910510F04D
:102170000C94EE1C6AE388E60E94280480FD26C3C6
:102180000E942C036B017C0160939A0370939B0364
:1021900080939C0390939D03809196039091970365
:1021A000A0919803B0919903A7019601281B390BC0
:1021B0004A0B5B0BCA01B9010E94EC2220E034E219
:1021C00044E759E40E942D20C357DF4F6883798389
:1021D0008A839B83CD58D04060939203709393037E
:1021E0008093940390939503C0929603D0929703A3
:1021F000E0929803F09299039B01AC0160918E03E9
:1022000070918F0380919003909191030E94341FED
:1022100060938E0370938F03809390039093910348
:1022200080918A0390918B03A0918C03B0918D03D0
:102230000196A11DB11D80938A0390938B03A093F7
:102240008C03B0938D0340909E0350909F03609049
:10225000A0037090A1038091A6039091A703A09181
:10226000A803B091A903A9968CAF9DAFAEAFBFAF45
:10227000A9972091A2033091A3034091A403509108
:10228000A503A5962CAF3DAF4EAF5FAFA59780914C
:10229000CC039091CD03A091CE03B091CF03C7544E
:1022A000DF4F88839983AA83BB83C95BD040209189
:1022B000D0033091D1034091D2035091D303C35442
:1022C000DF4F288339834A835B83CD5BD040809185
:1022D000D4039091D503A091D603B091D703CF53E7
:1022E000DF4F88839983AA83BB83C15CD040209150
:1022F000E2033091E3034091E4035091E503AD968E
:102300002CAF3DAF4EAF5FAFAD978091E60390919C
:10231000E703A091E803B091E903E1968CAF9DAF8C
:10232000AEAFBFAFE1972091EA033091EB0340914C
:10233000EC035091ED03E5962CAF3DAF4EAF5FAF90
:10234000E5978091000190910101A0910201B09167
:1023500003016D968CAF9DAFAEAFBFAF6D9720916F
:1023600004013091050140910601509107016596E5
:102370002CAF3DAF4EAF5FAF659780910801909154
:102380000901A0910A01B0910B0169968CAF9DAF34
:10239000AEAFBFAF699720910C0130910D01409114
:1023A0000E0150910F01A1962CAF3DAF4EAF5FAF24
:1023B000A197E5962CAD3DAD4EAD5FADE597CA0159
:1023C000B9010E944D236B017C01E1962CAD3DAD1E
:1023D0004EAD5FADE197CA01B9010E944D239B014B
:1023E000AC01C701B6010E94341F6B017C01AD96A0
:1023F0002CAD3DAD4EAD5FADAD97CA01B9010E94A8
:102400004D239B01AC01C701B6010E94341F0E94FD
:102410008C214B015C0120E030E0A9010E94E72201
:10242000811182C30E948B03C0908603D0908703E2
:10243000E0908803F0908903DC01CB018C199D09A1
:10244000AE09BF098093820390938303A093840312
:10245000B0938503853F9140A105B10508F47BC188
:102460008091000190910101A0910201B0910301BE
:1024700065968CAF9DAFAEAFBFAF65979C01AD01C8
:10248000BC01CD010E944D23A1966CAF7DAF8EAFF4
:102490009FAFA19720910401309105014091060161
:1024A0005091070169962CAF3DAF4EAF5FAF699772
:1024B000CA01B9010E944D236D966CAF7DAF8EAFFE
:1024C0009FAF6D97409008015090090160900A01FC
:1024D00070900B01A3019201C301B2010E944D2330
:1024E000A5966CAF7DAF8EAF9FAFA597C0900C0146
:1024F000D0900D01E0900E01F0900F01A701960120
:10250000C701B6010E944D23A9966CAF7DAF8EAF77
:102510009FAFA9976D962CAD3DAD4EAD5FAD6D975C
:10252000A1966CAD7DAD8EAD9FADA1970E94341F7D
:10253000A5962CAD3DAD4EAD5FADA5970E94331F66
:10254000A9962CAD3DAD4EAD5FADA9970E94331F4E
:102550004B015C01A301920169966CAD7DAD8EAD1E
:102560009FAD69970E944D23AD966CAF7DAF8EAF46
:102570009FAFAD97A701960165966CAD7DAD8EAD11
:102580009FAD65970E944D239B01AC01AD966CAD4C
:102590007DAD8EAD9FADAD970E94341F9B01AC0108
:1025A0000E94341FA50194010E94CE1FAD966CAF0E
:1025B0007DAF8EAF9FAFAD97A701960169966CADC9
:1025C0007DAD8EAD9FAD69970E944D234B015C019F
:1025D000A301920165966CAD7DAD8EAD9FAD659703
:1025E0000E944D239B01AC01C501B4010E94331F21
:1025F0009B01AC010E94341F0E94A01FE1966CAFAA
:102600007DAF8EAF9FAFE1976D962CAD3DAD4EADDA
:102610005FAD6D97A1966CAD7DAD8EAD9FADA19771
:102620000E94331FA5962CAD3DAD4EAD5FADA59775
:102630000E94331FA9962CAD3DAD4EAD5FADA9975D
:102640000E94341F4B015C0169962CAD3DAD4EAD2F
:102650005FAD699765966CAD7DAD8EAD9FAD6597AD
:102660000E944D2365966CAF7DAF8EAF9FAF65978F
:10267000A7019601C301B2010E944D239B01AC0149
:1026800065966CAD7DAD8EAD9FAD65970E94341F94
:102690009B01AC010E94341FA50194010E94CE1F32
:1026A0006B017C01E1966CAD7DAD8EAD9FADE19788
:1026B000905820EE3EE245E652E40E944D2360939E
:1026C000F8037093F9038093FA039093FB0320EED1
:1026D0003EE245E652E4AD966CAD7DAD8EAD9FAD6C
:1026E000AD970E944D232DEC3CEC4CE551E40E944B
:1026F000331F6093FC037093FD038093FE0390935C
:10270000FF0320EE3EE245E652E4C701B6010E9417
:102710004D2360930004709301048093020490930E
:1027200003040E948B036093860370938703809356
:1027300088039093890310928A0310928B0310925E
:102740008C0310928D0310928E0310928F031092BF
:102750009003109291038091F8039091F903A09156
:10276000FA03B091FB038093040490930504A093B3
:102770000604B09307048091000490910104A09195
:102780000204B09103048093080490930904A09379
:102790000A04B0930B048091FC039091FD03A09177
:1027A000FE03B091FF0380930C0490930D04A0935B
:1027B0000E04B0930F040E94BF010E948B03672B8D
:1027C000682B692B11F00C94EE1CCBCC980146E0E1
:1027D0006BE388E60E94E103698170E0762F66274B
:1027E0008A81682B7093F3036093F203CB80D12C22
:1027F000DC2CCC248C81C82AD092F503C092F4033F
:10280000ED80F12CFE2CEE248E81E82AF092F70365
:10281000E092F60320E030E040E858E32093EE0336
:102820003093EF034093F0035093F103072E000C15
:10283000880B990B0E94EE2220E030E040E858E33C
:102840000E944D236093EA037093EB038093EC03A3
:102850009093ED03B601DD0C880B990B0E94EE22DC
:1028600020E030E040E858E30E944D236093E60307
:102870007093E7038093E8039093E903B701FF0C9B
:10288000880B990B0E94EE2220E030E040E858E3EC
:102890000E944D236093E2037093E3038093E4036B
:1028A0009093E503980146E063E488E60E94E10323
:1028B000698170E0762F66278A81682B7093DD032B
:1028C0006093DC03CB80D12CDC2CCC248C81C82AF7
:1028D000D092DF03C092DE03ED80F12CFE2CEE24BB
:1028E0008E81E82AF092E103E092E00380E090E03C
:1028F000AAEFBBE38093D8039093D903A093DA03A4
:10290000B093DB03072E000C880B990B0E94EE227C
:1029100020E030E04AEF5BE30E944D236093D40354
:102920007093D5038093D6039093D703B601DD0C43
:10293000880B990B0E94EE2220E030E04AEF5BE327
:102940000E944D236093D0037093D1038093D203F0
:102950009093D303B701FF0C880B990B0E94EE22D2
:1029600020E030E04AEF5BE30E944D236093CC030C
:102970007093CD038093CE039093CF0362E08CE0FD
:102980000E94280480FF27C0980147E063E08CE0A4
:102990000E94E1038F8183FD1EC08A8190E0982F01
:1029A00088272981822B9093C7038093C6038C814B
:1029B00090E0982F88272B81822B9093C9038093D6
:1029C000C8038E8190E0982F88272D81822B9093C9
:1029D000CB038093CA032FEF3BEE4FEB5FE32093D3
:1029E000B6033093B7034093B8035093B90380E024
:1029F00090E0ABEEB3E48093BA039093BB03A09353
:102A0000BC03B093BD0320E030E040EF52E42093DC
:102A1000BE033093BF034093C0035093C10380E0D3
:102A200090E0AAEFB2E48093C2039093C303A09313
:102A3000C403B093C5036091C6037091C703072E0A
:102A4000000C880B990B0E94EE222FEF3BEE4FEB10
:102A50005FE30E944D232091AA033091AB03409184
:102A6000AC035091AD030E944D2320E030E04BEECB
:102A700053E40E94331F6093A6037093A7038093CF
:102A8000A8039093A9036091C8037091C903072E0E
:102A9000000C880B990B0E94EE222FEF3BEE4FEBC0
:102AA0005FE30E944D232091AE033091AF0340912C
:102AB000B0035091B1030E944D2320E030E040EF7D
:102AC00052E40E94331F6093A2037093A303809388
:102AD000A4039093A5036091CA037091CB03072EC2
:102AE000000C880B990B0E94EE222FEF3BEE4FEB70
:102AF0005FE30E944D232091B2033091B3034091D4
:102B0000B4035091B5030E944D2320E030E04AEF1A
:102B100052E40E94331F60939E0370939F0380933F
:102B2000A0039093A1032CCBA5962CAD3DAD4EAD4B
:102B30005FADA597CA01B9010E944D236B017C01CD
:102B4000A9962CAD3DAD4EAD5FADA997CA01B901B7
:102B50000E944D239B01AC01C701B6010E94341FA6
:102B60006B017C01A3019201C301B2010E944D23BC
:102B70009B01AC01C701B6010E94341F0E948C2149
:102B8000E9966CAF7DAF8EAF9FAFE99720E030E064
:102B9000A9010E94E722882309F444CC65962CAD54
:102BA0003DAD4EAD5FAD65976D966CAD7DAD8EADB7
:102BB0009FAD6D970E944D23CF57DF4F6883798378
:102BC0008A839B83C158D04069962CAD3DAD4EADF4
:102BD0005FAD69976D966CAD7DAD8EAD9FAD6D9718
:102BE0000E944D23CB57DF4F688379838A839B8371
:102BF000C558D040A1962CAD3DAD4EAD5FADA1976F
:102C00006D966CAD7DAD8EAD9FAD6D970E944D23E1
:102C1000C757DF4F688379838A839B83C958D04025
:102C200065962CAD3DAD4EAD5FAD6597CA01B9015E
:102C30000E944D23CB56DF4F688379838A839B8321
:102C4000C559D04069962CAD3DAD4EAD5FAD69978D
:102C500065966CAD7DAD8EAD9FAD65970E944D23A1
:102C60006B017C01A1962CAD3DAD4EAD5FADA19742
:102C700065966CAD7DAD8EAD9FAD65970E944D2381
:102C8000C756DF4F688379838A839B83C959D040B5
:102C900069962CAD3DAD4EAD5FAD6997CA01B901E6
:102CA0000E944D23ED966CAF7DAF8EAF9FAFED9739
:102CB000A1962CAD3DAD4EAD5FADA19769966CADC3
:102CC0007DAD8EAD9FAD69970E944D23C356DF4FFA
:102CD000688379838A839B83CD59D040A1962CAD9C
:102CE0003DAD4EAD5FADA197CA01B9010E944D2324
:102CF000C358DF4F688379838A839B83CD57D04045
:102D0000A501940160E070E080E89FE30E942D201F
:102D10004B015C019B01AC01E5966CAD7DAD8EADC8
:102D20009FADE5970E944D23CF55DF4F6883798390
:102D30008A839B83C15AD040A5019401E1966CAD72
:102D40007DAD8EAD9FADE1970E944D23CB55DF4FFA
:102D5000688379838A839B83C55AD040A5019401F7
:102D6000AD966CAD7DAD8EAD9FADAD970E944D2300
:102D7000C755DF4F688379838A839B83C95AD040C4
:102D8000E9962CAD3DAD4EAD5FADE99760E070E0EA
:102D900080E89FE30E942D204B015C019B01AC0168
:102DA000A5966CAD7DAD8EAD9FADA5970E944D23D0
:102DB000A5966CAF7DAF8EAF9FAFA597A50194018F
:102DC000A9966CAD7DAD8EAD9FADA9970E944D23A8
:102DD000A9966CAF7DAF8EAF9FAFA997A501940167
:102DE000C301B2010E944D23AD966CAF7DAF8EAF93
:102DF0009FAFAD97A5962CAD3DAD4EAD5FADA59700
:102E0000CA01B9010E94341FE5966CAF7DAF8EAF49
:102E10009FAFE597ED962CAD3DAD4EAD5FADED9717
:102E200060E070E080E09FE30E94331FC358DF4FF3
:102E3000288139814A815B81CD57D0400E94331F60
:102E4000C355DF4F688379838A839B83CD5AD040F3
:102E5000A9962CAD3DAD4EAD5FADA997CA01B901A4
:102E60000E94341FE9966CAF7DAF8EAF9FAFE9979C
:102E7000C757DF4F288139814A815B81C958D040CB
:102E8000C701B6010E94331FCF54DF4F6883798397
:102E90008A839B83C15BD040AD962CAD3DAD4EADDA
:102EA0005FADAD97CA01B9010E94341FCF56DF4F05
:102EB000688379838A839B83C159D040CB57DF4F86
:102EC000288139814A815B81C558D040C756DF4F80
:102ED000688179818A819B81C959D0400E94341FC1
:102EE000CB54DF4F688379838A839B83C55BD04053
:102EF000C355DF4F288139814A815B81CD5AD0404B
:102F0000E5966CAD7DAD8EAD9FADE5970E944D23EE
:102F10004B015C01CF54DF4F288139814A815B81AD
:102F2000C15BD040E9966CAD7DAD8EAD9FADE997AC
:102F30000E944D239B01AC01C501B4010E94341FC6
:102F40004B015C01CB54DF4F288139814A815B8181
:102F5000C55BD040CF56DF4F688179818A819B81E4
:102F6000C159D0400E944D239B01AC01C501B40161
:102F70000E94341F2B013C01CB56DF4F2881398141
:102F80004A815B81C559D04060E070E080E09FE3FA
:102F90000E94331F4B015C01C757DF4F28813981E5
:102FA0004A815B81C958D040C701B6010E94341FD5
:102FB0009B01AC01E5966CAD7DAD8EAD9FADE59707
:102FC0000E944D236B017C01C358DF4F288139815A
:102FD0004A815B81CD57D040C501B4010E94331FA7
:102FE0009B01AC01E9966CAD7DAD8EAD9FADE997CF
:102FF0000E944D239B01AC01C701B6010E94341F02
:103000006B017C01CF57DF4F288139814A815B8179
:10301000C158D040C356DF4F688179818A819B8136
:10302000CD59D0400E94331F9B01AC01CF56DF4FDA
:10303000688179818A819B81C159D0400E944D234A
:103040009B01AC01C701B6010E94341F6B017C01DA
:10305000A3019201C301B2010E944D232B013C0147
:10306000A7019601C701B6010E944D239B01AC0147
:10307000C301B2010E94341F0E948C216B017C01AC
:10308000CB57DF4F288139814A815B81C558D040B9
:10309000C756DF4F688179818A819B81C959D040A9
:1030A0000E94331FE1966CAF7DAF8EAF9FAFE1976B
:1030B000CF57DF4F288139814A815B81C158D04089
:1030C000C356DF4F688179818A819B81CD59D04079
:1030D0000E94341F2B013C01ED962CAD3DAD4EAD51
:1030E0005FADED97C501B4010E94331FCF57DF4F8D
:1030F000688379838A839B83C158D040E1962CAD45
:103100003DAD4EAD5FADE197CA01B9010E94341FDC
:10311000CB57DF4F688379838A839B83C558D04020
:10312000A3019201C301B2010E94341FC757DF4FB0
:10313000688379838A839B83C958D0406D962CAD70
:103140003DAD4EAD5FAD6D97CA01B9010E944D23F3
:10315000CB56DF4F288139814A815B81C559D040E8
:103160000E94331FED962CAD3DAD4EAD5FADED979A
:103170000E94331FC358DF4F288139814A815B8108
:10318000CD57D0400E94341FED966CAF7DAF8EAF0F
:103190009FAFED97A7019601C701B6010E94341FAA
:1031A0004B015C01E1962CAD3DAD4EAD5FADE197BD
:1031B000E5966CAD7DAD8EAD9FADE5970E944D233C
:1031C0006B017C01A3019201E9966CAD7DAD8EADE2
:1031D0009FADE9970E944D239B01AC01C701B60149
:1031E0000E94341F6B017C01CF57DF4F288139814A
:1031F0004A815B81C158D040CF56DF4F68817981C9
:103200008A819B81C159D0400E944D239B01AC0112
:10321000C701B6010E94341F9B01AC010E94341FFC
:103220006B017C01C355DF4F288139814A815B8165
:10323000CD5AD040C501B4010E944D23E5966CAF34
:103240007DAF8EAF9FAFE597E1962CAD3DAD4EAD16
:103250005FADE197C701B6010E944D239B01AC0110
:10326000E5966CAD7DAD8EAD9FADE5970E94341FA8
:10327000E5966CAF7DAF8EAF9FAFE597CF54DF4F34
:10328000288139814A815B81C15BD040C501B4018D
:103290000E944D23E1966CAF7DAF8EAF9FAFE1975B
:1032A000A3019201C701B6010E944D239B01AC010D
:1032B000E1966CAD7DAD8EAD9FADE1970E94341F60
:1032C000C358DF4F688379838A839B83CD57D0406F
:1032D000CB54DF4F288139814A815B81C55BD04067
:1032E000C501B4010E944D234B015C01CF57DF4F54
:1032F000288139814A815B81C158D040C701B6011C
:103300000E944D239B01AC01C501B4010E94341FF2
:10331000E9966CAF7DAF8EAF9FAFE99710927603C1
:1033200010927703109278031092790310927A0327
:1033300010927B0310927C0310927D0310927E0307
:1033400010927F0310928003109281032BED3FE0D7
:1033500049E450E4CF53DF4F688179818A819B81B2
:10336000C15CD0400E944D2320E030E044E353E4B0
:103370000E942D206B017C01ED962CAD3DAD4EAD34
:103380005FADED97CB55DF4F688179818A819B8155
:10339000C55AD0400E944D234B015C01C757DF4FF7
:1033A000288139814A815B81C958D040C755DF4F98
:1033B000688179818A819B81C95AD0400E944D23BE
:1033C0009B01AC01C501B4010E94331F4B015C019C
:1033D000E9962CAD3DAD4EAD5FADE997A9966CADCC
:1033E0007DAD8EAD9FADA9970E944D232B013C0171
:1033F000C358DF4F288139814A815B81CD57D04046
:10340000AD966CAD7DAD8EAD9FADAD970E944D2359
:103410009B01AC01C301B2010E94331F9B01AC01AF
:10342000C501B4010E94341F20E030E040E251E4C5
:103430000E944D239B01AC01C701B6010E94341FBD
:1034400020E030E0A9010E94341FE1966CAF7DAF0F
:103450008EAF9FAFE1972BED3FE049E450E4C354BA
:10346000DF4F688179818A819B81CD5BD0400E944A
:103470004D2320E030E044E353E40E942D206B0113
:103480007C01CB57DF4F288139814A815B81C55848
:10349000D040C755DF4F688179818A819B81C95AA5
:1034A000D0400E944D234B015C01ED962CAD3DAD0B
:1034B0004EAD5FADED97CF55DF4F688179818A8141
:1034C0009B81C15AD0400E944D239B01AC01C50194
:1034D000B4010E94331F4B015C01E5962CAD3DAD5C
:1034E0004EAD5FADE597AD966CAD7DAD8EAD9FAD4C
:1034F000AD970E944D232B013C01E9962CAD3DADCB
:103500004EAD5FADE997A5966CAD7DAD8EAD9FAD2F
:10351000A5970E944D239B01AC01C301B2010E94FB
:10352000331F9B01AC01C501B4010E94341F20E090
:1035300030E040E251E40E944D239B01AC01C70101
:10354000B6010E94341F20E030E0A9010E94341F20
:10355000AD966CAF7DAF8EAF9FAFAD972BED3FE0DB
:1035600049E450E4C754DF4F688179818A819B81A7
:10357000C95BD0400E944D2320E030E044E353E497
:103580000E942D206B017C01C757DF4F28813981B4
:103590004A815B81C958D040CF55DF4F688179811E
:1035A0008A819B81C15AD0400E944D234B015C010E
:1035B000CB57DF4F288139814A815B81C558D04084
:1035C000CB55DF4F688179818A819B81C55AD04074
:1035D0000E944D239B01AC01C501B4010E94331F21
:1035E0004B015C01C358DF4F288139814A815B81DF
:1035F000CD57D040A5966CAD7DAD8EAD9FADA59756
:103600000E944D232B013C01E5962CAD3DAD4EAD06
:103610005FADE597A9966CAD7DAD8EAD9FADA997D9
:103620000E944D239B01AC01C301B2010E94331FD4
:103630009B01AC01C501B4010E94341F20E030E0C1
:1036400040E251E40E944D239B01AC01C701B60149
:103650000E94341F20E030E0A9010E94341F4B017A
:103660005C0120E030E040E05FE3C357DF4F68815A
:1036700079818A819B81CD58D0400E944D23A596A7
:103680006CAF7DAF8EAF9FAFA59765966CAD7DADEE
:103690008EAD9FAD65979058E1962CAD3DAD4EAD8A
:1036A0005FADE1970E944D236B017C01AD962CAD7F
:1036B0003DAD4EAD5FADAD9769966CAD7DAD8EAD58
:1036C0009FAD69970E944D239B01AC01C701B601D4
:1036D0000E94331F6B017C01A5019401A1966CAD82
:1036E0007DAD8EAD9FADA1970E944D239B01AC0196
:1036F000C701B6010E94331FA5962CAD3DAD4EAD5E
:103700005FADA5970E944D239B01AC016D966CADFA
:103710007DAD8EAD9FAD6D970E94341F6B017C0116
:10372000E1962CAD3DAD4EAD5FADE1970E944D23CE
:103730002B013C01A501940169966CAD7DAD8EAD68
:103740009FAD69970E944D239B01AC01C301B2015B
:103750000E94341F2B013C01AD962CAD3DAD4EAD0A
:103760005FADAD97A1966CAD7DAD8EAD9FADA197D0
:103770000E944D239B01AC01C301B2010E94331F83
:10378000A5962CAD3DAD4EAD5FADA5970E944D23E6
:103790009B01AC0165966CAD7DAD8EAD9FAD65971F
:1037A0000E94341F6D966CAF7DAF8EAF9FAF6D974B
:1037B000AD962CAD3DAD4EAD5FADAD97C701B60139
:1037C0000E944D232B013C01A501940165966CAD2F
:1037D0007DAD8EAD9FAD65970E944D239B01AC01E1
:1037E000C301B2010E94331F2B013C01E1962CADB5
:1037F0003DAD4EAD5FADE197A1966CAD7DAD8EADAB
:103800009FADA1970E944D239B01AC01C301B20162
:103810000E94341FA5962CAD3DAD4EAD5FADA59772
:103820000E944D239B01AC0169966CAD7DAD8EADC0
:103830009FAD69970E94341FA9966CAF7DAF8EAF84
:103840009FAFA997A5019401C701B6010E944D231E
:103850004B015C01AD962CAD3DAD4EAD5FADAD976E
:1038600065966CAD7DAD8EAD9FAD65970E944D2385
:103870009B01AC01C501B4010E94341F4B015C01E6
:10388000E1962CAD3DAD4EAD5FADE19769966CAD67
:103890007DAD8EAD9FAD69970E944D239B01AC011C
:1038A000C501B4010E94331FA5962CAD3DAD4EADB0
:1038B0005FADA5970E944D239B01AC01A1966CAD15
:1038C0007DAD8EAD9FADA1970E94341F2B013C01B1
:1038D000A7019601C701B6010E944D234B015C016F
:1038E0006D962CAD3DAD4EAD5FAD6D97CA01B90182
:1038F0000E944D239B01AC01C501B4010E94341FFD
:103900004B015C01A9962CAD3DAD4EAD5FADA997C5
:10391000CA01B9010E944D239B01AC01C501B4014C
:103920000E94341F4B015C01A3019201C301B2014B
:103930000E944D239B01AC01C501B4010E94341FBC
:103940000E948C219B01AC0160E070E080E89FE365
:103950000E942D204B015C019B01AC01C701B60107
:103960000E944D2360930001709301018093020136
:1039700090930301A50194016D966CAD7DAD8EAD64
:103980009FAD6D970E944D236093040170930501D4
:103990008093060190930701A5019401A9966CAD4F
:1039A0007DAD8EAD9FADA9970E944D236093080118
:1039B0007093090180930A0190930B01A501940172
:1039C000C301B2010E944D2360930C0170930D015D
:1039D00080930E0190930F010C9412120E948B039E
:1039E00060934B0470934C0480934D0490934E0469
:1039F000C0904704D0904804E0904904F0904A04F5
:103A00006C157D058E059F0540F460934704709307
:103A100048048093490490934A04C0904704D0908E
:103A20004804E0904904F0904A049B01AC012C1931
:103A30003D094E095F0969017A013AEFC316D104C5
:103A4000E104F10410F40C94BA10609347047093ED
:103A500048048093490490934A040E948B03C090C9
:103A60001104D0901204E0901304F0901404DC01CF
:103A7000CB018C199D09AE09BF0984369105A105BA
:103A8000B10538F463E070E080E090E00E945103FB
:103A9000E4CF0E948B03609311047093120480930F
:103AA00013049093140465E173E0809141049091B4
:103AB00042040E9404076DE173E0809141049091FB
:103AC00042040E9404070E948B03AB01BC012AE060
:103AD00080914104909142040E94BB066FE173E023
:103AE00080914104909142040E94040765E070E0D7
:103AF00080E090E00E9451036AE070E080E090E096
:103B00000E94510380911504882311F40C94BA107B
:103B10008091410490914204DC01ED91FC9104807C
:103B2000F581E02D0995892B99F3809141049091BD
:103B30004204DC01ED91FC910480F581E02D0995B2
:103B40001816190614F00C94BA1080914104909143
:103B50004204DC01ED91FC910680F781E02D09958E
:103B600099278336910559F08637910511F40C9405
:103B7000BA1088359105C9F610921504D6CF68E2BF
:103B800073E080914104909142040E9404072AE06E
:103B900041E050E060E070E0809141049091420487
:103BA0000E94BB066FE273E0809141049091420451
:103BB0000E94040762E370E080E090E00E945103FD
:103BC0000C94BA10CF93DF931F92CDB7DEB791E07C
:103BD00090930B0580932D0510920C0510922E05E5
:103BE0008CEC95E049830E9457024981642F8CEC4C
:103BF00095E00E94570281E00F90DF91CF910C94E5
:103C00000506EFE2F5E01382128288EE93E0A0E071
:103C1000B0E084839583A683B78328E131E03183C4
:103C2000208325EC30E03587248724EC30E037878B
:103C3000268720EC30E0318B208B21EC30E0338B79
:103C4000228B22EC30E0358B248B26EC30E0378B56
:103C5000268B118E128E138E148E4EE057EC6AE175
:103C60007FE34093DC055093DD056093DE057093A0
:103C7000DF051092D8051092D9051092DA0510923E
:103C8000DB05ECECF5E01382128284839583A68336
:103C9000B78388E291E0918380830895CF93DF9387
:103CA000BC018FE295E00E94A606EC0165E373E09B
:103CB0008FE295E00E94A6068C0F9D1FDF91CF91A9
:103CC00008958F929F92AF92BF92CF92DF92EF9220
:103CD000FF92CF93DF936B017C019B01AC010E94AB
:103CE000D021882319F068E373E027C0460157010B
:103CF000E894B7F82FEF3FEF4FE75FE7C501B40156
:103D00000E94D02181110DC02FEF3FEF4FE75FE7F9
:103D1000C501B4010E94E72218161CF46CE373E09D
:103D20000CC02FEF3FEF4FE75FE4C701B6010E94E1
:103D30002921181684F460E473E08FE295E0DF91A6
:103D4000CF91FF90EF90DF90CF90BF90AF909F907A
:103D50008F900C94A6062FEF3FEF4FE75FECC70163
:103D6000B6010E94E72287FDE6CF20E030E0A901FE
:103D7000C701B6010E94E72287FF11C0E0912F051D
:103D8000F09130050190F081E02D6DE28FE295E039
:103D90000995EC01F7FAF094F7F8F09402C0C0E04E
:103DA000D0E02DEC3CEC4CE45DE3C701B6010E9491
:103DB000341F4B015C010E949F206B017C010E941B
:103DC000EC229B01AC01C501B4010E94331F4B01E1
:103DD0005C012AE0B701A6018FE295E00E94BB06D4
:103DE000C80FD91F6EEB72E08FE295E00E94A60625
:103DF000C80FD91F20E030E040E251E4C501B40112
:103E00000E944D230E949F20AB0160E070E02AE0F9
:103E10008FE295E00E94BB068C0F9D1FDF91CF9132
:103E2000FF90EF90DF90CF90BF90AF909F908F90DA
:103E30000895AA1BBB1B51E107C0AA1FBB1FA617F1
:103E4000B70710F0A61BB70B881F991F5A95A9F743
:103E500080959095BC01CD010895EE0FFF1F059050
:103E6000F491E02D09945058BB27AA270E944B1FBC
:103E70000C94D1230E94C32338F00E94CA2320F05F
:103E800039F49F3F19F426F40C94C0230EF4E09506
:103E9000E7FB0C94BA23E92F0E94E22358F3BA17E8
:103EA000620773078407950720F079F4A6F50C9450
:103EB00004240EF4E0950B2EBA2FA02D0B01B901AE
:103EC00090010C01CA01A0011124FF27591B99F090
:103ED000593F50F4503E68F11A16F040A22F232F9C
:103EE000342F4427585FF3CF469537952795A795EC
:103EF000F0405395C9F77EF41F16BA0B620B730B93
:103F0000840BBAF09150A1F0FF0FBB1F661F771F03
:103F1000881FC2F70EC0BA0F621F731F841F48F4B8
:103F2000879577956795B795F7959E3F08F0B0CF41
:103F30009395880F08F09927EE0F97958795089528
:103F40009F939F77EEE389379E0728F4E8E6F0E039
:103F50000E9415210CC00E94CE209058A2EA2AEDA2
:103F60003FE049EC5FE30E944B1F0E94D1230F907A
:103F700007FC905808950E94C32360F080E891E008
:103F800009F49EEF0E94CA2328F040E851E071F442
:103F90005EEF0CC00C94C0230C940424E92FE0784D
:103FA0000E94E22340F3092E052AB1F326173707B2
:103FB0004807590738F00E2E07F8E02569F0E0258C
:103FC000E0640AC0EF6307F8009407FADB01B90167
:103FD0009D01DC01CA01AD01EF930E9444200E94C3
:103FE000D1230E94FE1F5F91552339F02BED3FE056
:103FF00049E450FD49EC0C94341F0895DF93DD270C
:10400000B92FBF7740E85FE31616170648075B072E
:1040100018F4D92F0E942E219F938F937F936F9333
:104020000E94CC21ECE7F0E00E94EE200E94D12318
:104030002F913F914F915F910E946023DD2351F0BA
:104040009058A2EA2AED3FE049EC5FE3D0785D2783
:104050000E944B1FDF910C94D1230E9441200C94AD
:10406000D1230E94CA2358F00E94C32340F029F4B0
:104070005F3F29F00C94BA2351110C9405240C9441
:10408000C0230E94E22368F39923B1F3552391F3EF
:10409000951B550BBB27AA2762177307840738F0B7
:1040A0009F5F5F4F220F331F441FAA1FA9F335D014
:1040B0000E2E3AF0E0E832D091505040E695001CC8
:1040C000CAF72BD0FE2F29D0660F771F881FBB1F82
:1040D000261737074807AB07B0E809F0BB0B802D60
:1040E000BF01FF2793585F4F3AF09E3F510578F08C
:1040F0000C94BA230C9405245F3FE4F3983ED4F368
:10410000869577956795B795F7959F5FC9F7880F5F
:10411000911D9695879597F90895E1E0660F771FB1
:10412000881FBB1F621773078407BA0720F0621B42
:10413000730B840BBA0BEE1F88F7E09508950E946D
:10414000EA2388F09F5798F0B92F9927B751B0F01C
:10415000E1F0660F771F881F991F1AF0BA95C9F70B
:1041600014C0B13091F00E940424B1E008950C9481
:104170000424672F782F8827B85F39F0B93FCCF334
:10418000869577956795B395D9F73EF49095809588
:10419000709561957F4F8F4F9F4F0895DF93CF9319
:1041A0001F930F938B01EC01E9EAF0E00E94EE20EF
:1041B0000E94D1239801AE018B01EC0160E070E018
:1041C00080E89FE30E94331F0E948C219801AE017A
:1041D0000F911F91CF91DF910C946023DF93CF93C8
:1041E0001F930F93FF92EF92DF927B018C016894F3
:1041F00006C0DA2EEF010E946023FE01E894A5912B
:104200002591359145915591A6F3EF010E944B1FE1
:10421000FE019701A801DA9469F7DF90EF90FF9013
:104220000F911F91CF91DF9108959F938F937F936B
:104230006F93FF93EF939B01AC010E944D23EF918D
:10424000FF910E94EE202F913F914F915F910C942E
:104250004D230E94292308F48FEF08959B01AC01A0
:1042600060E070E080E89FE30C942D20FA01EE0FEF
:10427000FF1F309621053105A1F16115710561F42B
:104280008038BFE39B0749F168949038810561F05D
:104290008038BFEF9B0741F099234AF5FF3FE105C6
:1042A0003105210519F1E8940894E795D901AA236D
:1042B00029F4AB2FBE2FF85FD0F310C0FF5F70F46E
:1042C000A695E0F7F73950F019F0FF3A38F49F77E8
:1042D0009F930DD00F9007FC9058089546F00C94D2
:1042E000C02360E070E080E89FE308954FE79F7788
:1042F0005F934F933F932F930E9466222F913F919C
:104300004F915F910E944D230C94DD2119F416F416
:104310000C94C0230C940F220E94EA23B8F3992333
:10432000C9F3B6F39F57550B87FF0E941D22002447
:10433000A0E640EA900180585695979528F4805C55
:10434000660F771F881F20F026173707480730F4BD
:10435000621B730B840B202931294A2BA6951794D5
:104360000794202531254A2758F7660F771F881FA5
:1043700020F026173707480730F4620B730B840BC5
:10438000200D311D411DA09581F7B901842F915851
:10439000880F9695879508959B01AC010C944D2349
:1043A0000E942923880B990B089529F416F00C9488
:1043B000BA230C9404240C94C0230E94EA23A8F38B
:1043C0009638A0F707F80F92E8942BE33AEA48EB07
:1043D0005FE70E9463230F920F920F924DB75EB773
:1043E0000F920E94AE22E1EDF0E00E94EE204F918C
:1043F0005F91EF91FF91E595EE1FFF1F49F0FE578A
:10440000E0684427EE0F441FFA95E1F74195550BFC
:104410000E9428220F9007FE0C942E2108959F3FA2
:1044200031F0915020F4879577956795B795880F6F
:10443000911D9695879597F9089591505040660F74
:10444000771F881FD2F708950C94BA230C940F227B
:104450000E94EA23D8F39923C9F3940F511DA3F3C3
:104460009150504094F059F0882332F0660F771F36
:10447000881F91505040C1F79E3F51052CF7880F7F
:10448000911D9695879597F908955F3FACF0983EFA
:104490009CF0BB27869577956795B79508F4B16032
:1044A0009395C1F7BB0F58F711F460FFE8CF6F5F2A
:1044B0007F4F8F4F9F4FE3CF0C94052416F00C9441
:1044C0000F220C94C02368940C94BA230E94EA2310
:1044D000A8F39923C1F3AEF3DF93CF931F930F9308
:1044E000FF92C92FDD2788232AF02197660F771FB7
:1044F000881FDAF720E030E040E85FEB9FE388397F
:1045000020F0803E38F021968F770E94341FE9EF2B
:10451000F0E004C00E94341FE6E2F1E00E94EE20C9
:104520008B01BE01EC01FB2E6F5771097595771F4A
:10453000880B990B0E94EE2228E132E741E35FE30A
:104540000E946023AF2D9801AE01FF900F911F9143
:10455000CF91DF910E944B1F0C94D123FA01DC0113
:10456000AA0FBB1F9B01AC01BF5728F4222733279A
:104570004427507820C0B75190F4AB2F00244695C3
:1045800037952795011CA395D2F3002071F0220FD7
:10459000331F441FB395DAF30ED00C94331F6130F0
:1045A0007105A0E88A07B94630F49B01AC01662783
:1045B000772788279078309621F0208331834283B3
:1045C0005383089581E090E0F8940C944C240E9469
:1045D000292308F481E00895E89409C097FB3EF48C
:1045E00090958095709561957F4F8F4F9F4F992340
:1045F000A9F0F92F96E9BB279395F69587957795BE
:104600006795B795F111F8CFFAF4BB0F11F460FF7D
:104610001BC06F5F7F4F8F4F9F4F16C0882311F0D5
:1046200096E911C0772321F09EE8872F762F05C0E9
:10463000662371F096E8862F70E060E02AF09A9584
:10464000660F771F881FDAF7880F9695879597F979
:104650000895990F0008550FAA0BE0E8FEEF161613
:104660001706E807F907C0F012161306E407F50766
:1046700098F0621B730B840B950B39F40A2661F0DA
:10468000232B242B252B21F408950A2609F4A1407D
:10469000A6958FEF811D811D08950E9460230C94C3
:1046A000D1230E94C32338F00E94CA2320F095230F
:1046B00011F00C94BA230C94C02311240C940524FB
:1046C0000E94E22370F3959FC1F3950F50E0551FB0
:1046D000629FF001729FBB27F00DB11D639FAA2757
:1046E000F00DB11DAA1F649F6627B00DA11D661FA6
:1046F000829F2227B00DA11D621F739FB00DA11DC7
:10470000621F839FA00D611D221F749F3327A00D80
:10471000611D231F849F600D211D822F762F6A2F1C
:1047200011249F5750409AF0F1F088234AF0EE0F81
:10473000FF1FBB1F661F771F881F91505040A9F7AE
:104740009E3F510580F00C94BA230C9405245F3FE2
:10475000E4F3983ED4F3869577956795B795F795EA
:10476000E7959F5FC1F7FE2B880F911D9695879562
:1047700097F9089597F99F6780E870E060E00895E1
:104780009FEF80EC089500240A9416161706180669
:104790000906089500240A94121613061406050645
:1047A0000895092E0394000C11F4882352F0BB0FD6
:1047B00040F4BF2B11F460FF04C06F5F7F4F8F4F39
:1047C0009F4F089557FD9058440F551F59F05F3F74
:1047D00071F04795880F97FB991F61F09F3F79F023
:1047E00087950895121613061406551FF2CF4695A5
:1047F000F1DF08C0161617061806991FF1CF869527
:104800007105610508940895E894BB27662777270A
:10481000CB0197F90895A1E21A2EAA1BBB1BFD013B
:104820000DC0AA1FBB1FEE1FFF1FA217B307E4078F
:10483000F50720F0A21BB30BE40BF50B661F771FE7
:10484000881F991F1A9469F76095709580959095C7
:104850009B01AC01BD01CF010895052E97FB1EF40D
:1048600000940E94442457FD07D00E940B2407FCAB
:1048700003D04EF40C9444245095409530952195E6
:104880003F4F4F4F5F4F089590958095709561957C
:0C4890007F4F8F4F9F4F0895F894FFCF8B
:10489C000000803F0000000000000000000000004D
:1048AC0001000000000000005601DA051F01FD00A8
:1048BC0011019D010000000057022702C9011302DB
:1048CC0004020302564D4450565F317C315F564D05
:1048DC004450560D0A004D505539323530200049A0
:1048EC0020414D200020492073686F756C64206254
:1048FC006520004D505539323530206973206F6E6C
:10490C006C696E652E2E2E00782D6178697320737C
:10491C00656C6620746573743A20616363656C65BD
:10492C00726174696F6E207472696D207769746836
:10493C00696E203A200025206F6620666163746FD3
:10494C0072792076616C756500792D6178697320B8
:10495C0073656C6620746573743A20616363656C6F
:10496C0065726174696F6E207472696D20776974F9
:10497C0068696E203A20007A2D617869732073651E
:10498C006C6620746573743A20616363656C657240
:10499C006174696F6E207472696D207769746869CF
:1049AC006E203A2000782D617869732073656C66EF
:1049BC0020746573743A206779726174696F6E2024
:1049CC007472696D2077697468696E203A20007979
:1049DC002D617869732073656C6620746573743A05
:1049EC00206779726174696F6E207472696D2077BB
:1049FC00697468696E203A20007A2D617869732099
:104A0C0073656C6620746573743A2067797261748F
:104A1C00696F6E207472696D2077697468696E2095
:104A2C003A20004D50553932353020696E69746921
:104A3C00616C697A656420666F7220616374697653
:104A4C00652064617461206D6F64652E2E2E2E00BE
:104A5C00414B383936332000414B383936332069D5
:104A6C006E697469616C697A656420666F72206125
:104A7C0063746976652064617461206D6F64652E62
:104A8C002E2E2E00436F756C64206E6F7420636F36
:104A9C006E6E65637420746F204D5055393235300D
:104AAC003A20307800564D4450455F31007C005F11
:104ABC00564D4450450D0A00564D4450435F005F1F
:104ACC00564D4450430D0A006E616E00696E6600CF
:044ADC006F7666008B
:00000001FF
