:100000000C94D3000C94FB000C94FB000C94FB00AC
:100010000C94FB000C94FB000C94FB000C94FB0074
:100020000C94FB000C94FB000C94FB000C94480413
:100030000C94FB000C94FB000C94FB000C94FB0054
:100040000C9497030C94FB000C94AE020C94880261
:100050000C94FB000C94FB000C94FB000C94FB0034
:100060000C94AC040C94FB00036EDB363D9A99991A
:10007000993DABAAAA2A3E000000803F084AD73B20
:100080003BCE016E84BCBFFDC12F3D6C74319ABD67
:1000900056833DDA3D00C77F11BED9E4BB4C3E918B
:1000A0006BAAAABE000000803F072C7AA5BA6CC5D7
:1000B00090DA3B9365FC8BBC53F810FD3C56928361
:1000C0004DBD879D3AB63DCBC9BF5BBE73DA0FC944
:1000D0003F07634236B79BD8A71A39685618AEBA9D
:1000E000AB558C1D3CB7CC5763BD6DEDFD753EF631
:1000F000177231BF000000803F08000000BE92244C
:1001000049123EABAAAA2ABECDCCCC4C3E00000080
:1001100080BEABAAAAAA3E00000000BF000000807B
:100120003F0000000000084178D3BB4387D1133D56
:10013000190E3CC3BD4282AD2B3E68EC8276BED91F
:100140008FE1A93E4C80EFFFBE01C4FF7F3F00005E
:100150000000000000000000250028002B00000027
:100160000000240027002A000404040404040404FA
:100170000202020202020303030303030102040852
:100180001020408001020408102001020408102001
:100190000000000800020100000304070000000046
:1001A000000000000A1D11241FBECFEFD8E0DEBF03
:1001B000CDBF13E0A0E0B1E0E8E8F6E402C00590AE
:1001C0000D92A832B107D9F725E0A8E2B3E001C04B
:1001D0001D92AC3BB207E1F710E0C3EDD0E004C0E4
:1001E0002197FE010E94231EC23DD107C9F70E943C
:1001F00041070C9442230C940000FC01918D828DE8
:10020000981761F0828DDF01A80FB11D5D968C916A
:10021000928D9F5F9F73928F90E008958FEF9FEF75
:100220000895FC01918D828D981731F0828DE80F31
:10023000F11D858D90E008958FEF9FEF0895FC01EB
:10024000918D228D892F90E0805C9F4F821B9109B8
:100250008F73992708958BE095E00E941F0121E09C
:10026000892B09F420E0822F0895FC01848DDF01A1
:10027000A80FB11DA35ABF4F2C91848D90E0019619
:100280008F739927848FA689B7892C93A089B18908
:100290008C9180648C93938D848D981306C0028812
:1002A000F389E02D80818F7D80830895EF92FF9206
:1002B0000F931F93CF93DF93EC0181E0888F9B8D89
:1002C0008C8D981305C0E889F989808185FD24C04B
:1002D000F62E0B8D10E00F5F1F4F0F731127E02ECE
:1002E0008C8DE8120CC00FB607FCFACFE889F989AB
:1002F000808185FFF5CFCE010E943501F1CF8B8D36
:10030000FE01E80FF11DE35AFF4FF0820B8FEA89DF
:10031000FB898081806207C0EE89FF896083E8895C
:10032000F98980818064808381E090E0DF91CF91C2
:100330001F910F91FF90EF900895CF93DF93EC0101
:10034000888D8823C9F0EA89FB89808185FD05C0F5
:10035000A889B9898C9186FD0FC00FB607FCF5CF2F
:10036000808185FFF2CFA889B9898C9185FFEDCF77
:10037000CE010E943501E7CFDF91CF91089580E053
:1003800090E0892B29F00E942B0181110C94000030
:1003900008958091280390E020912903821B910900
:1003A000089585ED8093BC008091BC0084FDFCCF56
:1003B0001092E604089540914D04262F30E0240F5A
:1003C000311D21323105DCF42091E6042430C9F4DA
:1003D000FC0180E090E0861758F430914D042191A3
:1003E000DC01A55DBB4FA30FB11D2C930196F3CF8C
:1003F00080914D04680F60934D0480E0089581E082
:10040000089582E008950895E091290380912803DA
:10041000E81730F4F0E0E056FB4F808190E008955B
:100420008FEF9FEF089590912903809128039817EB
:1004300050F4E92FF0E0E056FB4F208130E09F5F61
:100440009093290302C02FEF3FEFC9010895CF9287
:10045000DF92EF92FF920F931F93CF93DF937C0174
:10046000262F972F8A018091E704882391F0C62FC9
:10047000D72F6E01C40ED51ECC15DD0571F0699124
:10048000D701ED91FC910190F081E02DC701099514
:10049000F3CF642F822F0E94DB01C801DF91CF913F
:1004A0001F910F91FF90EF90DF90CF900895CF9321
:1004B000DF931F92CDB7DEB769832091E704222333
:1004C000D1F020910A05203240F021E030E0FC011B
:1004D0003383228380E090E015C08091E804E82F08
:1004E000F0E0E751FB4F998190838F5F8093E804A0
:1004F00080930A0505C061E0CE0101960E94DB01F0
:1005000081E090E00F90DF91CF9108950E94D82173
:100510001F920F920FB60F9211242F933F934F9378
:100520005F936F937F938F939F93AF93BF93EF935B
:10053000FF938BE095E00E943501FF91EF91BF9111
:10054000AF919F918F917F916F915F914F913F916B
:100550002F910F900FBE0F901F9018951F920F9222
:100560000FB60F9211242F938F939F93EF93FF93C6
:10057000E0911B05F0911C058081E0912105F0912F
:10058000220582FD12C09081809124058F5F8F73B8
:1005900020912505821751F0E0912405F0E0E55FF8
:1005A000FA4F958F8093240501C08081FF91EF91D0
:1005B0009F918F912F910F900FBE0F901F901895C4
:1005C00090E0FC01E057FE4F3491FC01E458FE4FEF
:1005D0002491FC01E859FE4FE491EE2309F43BC05D
:1005E000332339F1333091F038F43130A9F032301F
:1005F00001F584B58F7D12C0373091F03830A1F00D
:100600003430B9F4809180008F7D03C080918000E8
:100610008F77809380000DC084B58F7784BD09C02B
:100620008091B0008F7703C08091B0008F7D809360
:10063000B000F0E0EE0FFF1FEC5AFE4FA591B49111
:100640008FB7F894EC91611103C020952E2301C05F
:100650002E2B2C938FBF08953FB7F89480919C0464
:1006600090919D04A0919E04B0919F0426B5A89BF3
:1006700005C02F3F19F00196A11DB11D3FBFBA2F34
:10068000A92F982F8827820F911DA11DB11DBC0194
:10069000CD0142E0660F771F881F991F4A95D1F759
:1006A00008958F929F92AF92BF92CF92DF92EF9276
:1006B000FF926B017C010E942C034B015C01C11471
:1006C000D104E104F104F1F00E942C03DC01CB0120
:1006D00088199909AA09BB09883E9340A105B1056B
:1006E00070F321E0C21AD108E108F10888EE880E03
:1006F00083E0981EA11CB11CC114D104E104F104D3
:1007000019F7DDCFFF90EF90DF90CF90BF90AF90C3
:100710009F908F9008952FB7F894609198047091EE
:10072000990480919A0490919B042FBF08951F9281
:100730000F920FB60F9211242F933F938F939F9395
:10074000AF93BF938091980490919904A0919A04DB
:10075000B0919B043091970423E0230F2D3720F4B0
:100760000196A11DB11D05C026E8230F0296A11D0B
:10077000B11D209397048093980490939904A093BB
:100780009A04B0939B0480919C0490919D04A09145
:100790009E04B0919F040196A11DB11D80939C04FD
:1007A00090939D04A0939E04B0939F04BF91AF913A
:1007B0009F918F913F912F910F900FBE0F901F909F
:1007C0001895DF92EF92FF920F931F93CF93DF93D1
:1007D0001F92CDB7DEB7F82E890181E08093E70440
:1007E000F09209051092E80410920A0588EA95E053
:1007F00049830E94570280E00E942D064981642FA0
:10080000413208F060E28F2D0E948A06109229037F
:100810008093280380E030912803909129033917B1
:1008200071F0DD24D394D80E7801E80EF11C88EA2B
:1008300095E00E941302F70180838D2DECCF0F907D
:10084000DF91CF911F910F91FF90EF90DF9008956E
:10085000CF93C82F81E08093E704C09309051092DD
:10086000E80410920A0588EA95E00E94570280E0A9
:100870000E942D0661E08C2F0E948A0610922903A7
:100880008093280388EA95E00E941302CF9108958F
:100890001F920F920FB60F9211242F933F938F93B5
:1008A0009F93EF93FF938091960487FF05C010926A
:1008B00085001092840005C08091960487FD809188
:1008C0009604809196048F5F80939604809196049D
:1008D00087FF20C0809196048C30E4F4209184003E
:1008E0003091850080919604082E000C990BFC0134
:1008F000EE0FFF1F8E0F9F1FFC01EE58FB4F8181F3
:100900009281820F931F9093890080938800809139
:10091000960417C0809184009091850004968034DD
:100920009C4918F480E49CE905C080918400909172
:100930008500049690938900809388008FEF8093C0
:100940009604FF91EF919F918F913F912F910F907E
:100950000FBE0F901F9018951F920F920FB60F9217
:1009600011242F933F934F935F936F937F938F93B4
:100970009F93AF93BF93EF93FF938091B900887FCC
:10098000803609F49CC068F5883209F45BC090F4A5
:10099000803109F454C038F4882309F4F6C0883053
:1009A00009F44DC0F6C0883109F44CC0803209F416
:1009B0005DC0EFC0803409F468C048F4803309F4A6
:1009C00055C0883309F0E5C08093E404D8C0803571
:1009D00009F44FC0883509F45DC0883409F0D9C0E6
:1009E000D6C0883909F4C7C0A8F4883709F467C0AD
:1009F00038F4883609F463C0803709F460C0C9C090
:100A0000883809F4B8C0803909F45FC0803809F02B
:100A1000C0C05BC0803B09F486C038F4803A09F45A
:100A200066C0883A09F47FC0B4C0803C09F4A7C00E
:100A3000883C09F4A4C0883B09F48AC0AAC080910C
:100A4000C10410C09091E3048091E204981770F5FE
:100A5000E091E30481E08E0F8093E304F0E0EE5335
:100A6000FB4F80818093BB0085EC86C08093E404BB
:100A70008EC0E091E30481E08E0F8093E3048091C7
:100A8000BB00F0E0EE53FB4F80839091E304809134
:100A9000E2046EC0E091E30481E08E0F8093E304F2
:100AA0008091BB00F0E0EE53FB4F80838091E50422
:100AB00081116DC081E08093C00484EA61C083E04D
:100AC0008093E60410927104CFCF8091710480323C
:100AD00008F051C0E091710481E08E0F80937104A1
:100AE0008091BB00F0E0EF5AFB4F8083BDCF85ECD7
:100AF0008093BC001092E60480917104803230F43F
:100B0000E0917104F0E0EF5AFB4F108260917104A4
:100B100070E0E0914F04F091500481E594E0099574
:100B20001092710436C084E08093E60410924E0463
:100B300010924D04E0914B04F0914C040995809182
:100B40004D04811105C081E080934D0410922B0467
:100B5000E0914E0481E08E0F80934E04F0E0E55D5D
:100B6000FB4F80818093BB0090914E0480914D0497
:100B7000981708F479CF85E88093BC000AC085EC0B
:100B80008093BC001092E60404C01092E4040E941A
:100B9000D101FF91EF91BF91AF919F918F917F9183
:100BA0006F915F914F913F912F910F900FBE0F90DA
:100BB0001F901895CF92DF92EF92FF920F931F93A1
:100BC000CF93DF936C017A018B01C0E0D0E0CE15AA
:100BD000DF0589F0D8016D918D01D601ED91FC9171
:100BE0000190F081E02DC6010995892B11F47E0159
:100BF00002C02196ECCFC701DF91CF911F910F91D9
:100C0000FF90EF90DF90CF900895EBE0F5E0A089A2
:100C1000B18982E08C93A485B5851C92A685B785A1
:100C20008FEC8C93108EA489B58986E08C93A28971
:100C3000B3898C9180618C93A289B3898C918860EF
:100C40008C93A289B3898C9180688C930288F389F4
:100C5000E02D80818F7D80830895382F20910A05B3
:100C600090910905213208F049C08091E604811174
:100C7000FCCF42E04093E6043093E5043FEF30932D
:100C8000E4041092E3042093E204A9EEB4E042EC01
:100C900054E0FA013E2F341B321718F43D91319382
:100CA000F9CF1092C1042091C104990F922B909317
:100CB000C1049091C004913061F41092C0049091ED
:100CC000C1049093BB009091BC0093FDF8CF95ECCC
:100CD00001C095EE9093BC009091E6049230E1F350
:100CE0009091E4049F3F79F08091E404803241F0D8
:100CF0008091E404803331F084E005C081E003C0DA
:100D000082E001C083E01092E80410920A0510927C
:100D1000E70408959091E6049111FCCF91E090933F
:100D2000E6049093E5042FEF2093E4041092E3048B
:100D3000260F2093E2049093C1049091C104880F80
:100D4000892B8093C1048091C004813061F410929A
:100D5000C0048091C1048093BB008091BC0083FDDE
:100D6000F8CF85EC01C085EE8093BC008091E6044D
:100D70008130E1F38091E304861710F46091E3047D
:100D8000A2ECB4E020EA34E0F9018E2F821B861732
:100D900018F48D918193F9CF862F0895611571050F
:100DA00079F0FB0101900020E9F73197AF01461B74
:100DB000570BDC01ED91FC910280F381E02D099449
:100DC00080E090E00895CF93DF93BC018BE095E045
:100DD0000E94CE06EC0163E471E08BE095E00E9496
:100DE000CE068C0F9D1FDF91CF9108954F925F9299
:100DF0006F927F92EF92FF920F931F93CF93DF93A7
:100E0000CDB7DEB7A1970FB6F894DEBF0FBECDBF4A
:100E10007C01FA01CB0119A2223008F42AE08E01EC
:100E20000F5D1F4F422E512C612C712CBF01A3016D
:100E300092010E940123F901CA01015011096A308F
:100E400014F4605D01C0695CD8016C93232B242BE2
:100E5000252B61F7B801C7010E94CE06A1960FB6F7
:100E6000F894DEBF0FBECDBFDF91CF911F910F91E0
:100E7000FF90EF907F906F905F904F9008950C944B
:100E8000CE06CF93DF93CDB7DEB7C45CD1090FB6E2
:100E9000F894DEBF0FBECDBF789484B5826084BD68
:100EA00084B5816084BD85B5826085BD85B581606E
:100EB00085BD80916E00816080936E0010928100EC
:100EC00080918100826080938100809181008160A7
:100ED0008093810080918000816080938000809168
:100EE000B10084608093B1008091B00081608093F4
:100EF000B00080917A00846080937A0080917A00BB
:100F0000826080937A0080917A00816080937A0079
:100F100080917A00806880937A001092C1001092CC
:100F20008D0310928E0310928F03109290031092F3
:100F30005B0310925C0310925D0310925E0360ED00
:100F400077E080E090E00E9451038BE095E0909381
:100F50008C0380938B030E9405060E948B030091F3
:100F60005B0310915C0320915D0330915E03DC0113
:100F7000CB01801B910BA20BB30B84369105A1050D
:100F8000B10538F463E070E080E090E00E94510326
:100F9000E4CF0E948B0360935B0370935C038093A8
:100FA0005D0390935E0364E371E080918B03909105
:100FB0008C030E943F076AE070E080E090E00E94AE
:100FC000510311E010935F030E940506109229035C
:100FD000109228031092E80410920A051092E60479
:100FE0001093E5041092C00461E082E10E94E002E7
:100FF00061E083E10E94E0028091B9008E7F8093DE
:10100000B9008091B9008D7F8093B90088E4809306
:10101000B80085E48093BC00EEE7F1E02491EAE6B5
:10102000F1E084918823C9F090E0880F991FFC01BA
:10103000E25AFE4F45915491FC01EC5AFE4FA591A6
:10104000B4919FB7F894FA01808120958223808320
:101050008C91E22FE823EC939FBF60E082E00E9436
:10106000E00265E788E60E942804182F66E471E034
:101070008BE095E00E943F076FE471E08BE095E024
:101080000E943F07C12ED12CE12CF12C20E1B701A9
:10109000A6018BE095E00E94F60665E571E08BE025
:1010A00095E00E943F0720E141E750E060E070E0FA
:1010B0008BE095E00E94F60663E471E08BE095E03A
:1010C0000E94CE0668EE73E080E090E00E9451033B
:1010D000113711F00C94A71083E691E00E94E3060B
:1010E0008E01075B1F4F86E0D8011D928A95E9F7B4
:1010F0008CE07E01BDE3EB0EF11CF701282F11926D
:101100002A95E9F7AE014F5C5F4F61965FAF4EAF36
:101110006197DA01E82F1D92EA95E9F73E01F5E2C1
:101120006F0E711CD301E82F1D92EA95E9F76E014D
:10113000F9E1CF0ED11CD6011D928A95E9F740E066
:1011400069E188E60E94EB1C42E06AE188E60E94C1
:10115000EB1C41E06BE188E60E94EB1C42E06DE194
:1011600088E60E94EB1C41E06CE188E60E94EB1CE3
:1011700058ECA52EB12C980146E06BE388E60E945E
:10118000E103F801808190E0982F88272181822B4C
:10119000092E000CAA0BBB0B49A95AA96BA97CA963
:1011A000840F951FA61FB71F89AB9AABABABBCAB27
:1011B000828190E0982F88272381822B092E000CB2
:1011C000AA0BBB0B4DA95EA96FA978AD840F951F23
:1011D000A61FB71F8DAB9EABAFABB8AF848190E0BD
:1011E000982F88272581822B092E000CAA0BBB0B78
:1011F00049AD5AAD6BAD7CAD840F951FA61FB71FCF
:1012000089AF9AAFABAFBCAF980146E063E488E624
:101210000E94E103D8018C9190E0982F88271196C5
:101220002C91822B092E000CAA0BBB0BF7014081DD
:10123000518162817381840F951FA61FB71F808320
:101240009183A283B383D80112968C91129790E078
:10125000982F882713962C91822B092E000CAA0B0D
:10126000BB0B25964CAD5DAD6EAD7FAD2597840F64
:10127000951FA61FB71F25968CAF9DAFAEAFBFAF12
:101280002597F801848190E0982F88272581822B6B
:10129000092E000CAA0BBB0B29964CAD5DAD6EADB3
:1012A0007FAD2997840F951FA61FB71F29968CAF76
:1012B0009DAFAEAFBFAF2997F1E0AF1AB10809F00B
:1012C0005ACF9E012F5C3F4F63963FAF2EAF63977F
:1012D0006796FFAEEEAE67974701590168EC262E80
:1012E000312C412C512CD5016D917D918D919C918A
:1012F000A20191010E942323F5012193319341938F
:1013000051935F01D4016D917D918D919C91A201CA
:1013100091010E942323F40121933193419351932E
:101320004F01AE14BF04F9F640EE6CE188E60E946E
:10133000EB1C40EE6BE188E60E94EB1C69E170E07B
:1013400080E090E00E94510358ECE52EF12C9801CA
:1013500046E06BE388E60E94E103D8018C9190E0BF
:10136000982F882711962C91822B092E000CAA0BFE
:10137000BB0B4DA15EA16FA178A5840F951FA61F81
:10138000B71F8DA39EA3AFA3B8A7F801828190E0F9
:10139000982F88272381822B092E000CAA0BBB0BC8
:1013A00049A55AA56BA57CA5840F951FA61FB71F3D
:1013B00089A79AA7ABA7BCA7848190E0982F88271C
:1013C0002581822B092E000CAA0BBB0B4DA55EA517
:1013D0006FA578A9840F951FA61FB71F8DA79EA77D
:1013E000AFA7B8AB980146E063E488E60E94E1034A
:1013F000D8018C9190E0982F882711962C91822B00
:10140000092E000CAA0BBB0B498D5A8D6B8D7C8D60
:10141000840F951FA61FB71F898F9A8FAB8FBC8F24
:10142000F801828190E0982F88272381822B092E52
:10143000000CAA0BBB0B4D8D5E8D6F8D78A1840FB8
:10144000951FA61FB71F8D8F9E8FAF8FB8A3848166
:1014500090E0982F88272581822B092E000CAA0B5B
:10146000BB0B49A15AA16BA17CA1840F951FA61F9C
:10147000B71F89A39AA3ABA3BCA3F1E0EF1AF108AD
:1014800009F065CF46017601830178EC272E312CD7
:10149000412C512CD8016D917D918D919C91A2018F
:1014A00091010E942323F801219331934193519399
:1014B0008F01D7016D917D918D919C91A201910138
:1014C0000E942323F70121933193419351937F018C
:1014D00061962EAD3FAD619702171307D9F640E034
:1014E0006CE188E60E94EB1C40E06BE188E60E941C
:1014F000EB1C69E170E080E090E00E9451036DE038
:1015000088E60E942804A82E6EE088E60E9428043F
:10151000B82E6FE088E60E942804E82E60E088E696
:101520000E942804F82E61E088E60E942804082F13
:1015300062E088E60E942804182F6A2D70E080E09F
:1015400090E00E94E22120E030E040E85FE30E946A
:10155000291E9B01AC016EEA77E481E89FE30E94BB
:101560002C2020E030EC43E255E40E9443226983C2
:101570007A838B839C836B2D70E080E090E00E94E7
:10158000E22120E030E040E85FE30E94291E9B0159
:10159000AC016EEA77E481E89FE30E942C2020E012
:1015A00030EC43E255E40E9443226D837E838F83B7
:1015B00098876E2D70E080E090E00E94E22120E0AC
:1015C00030E040E85FE30E94291E9B01AC016EEA17
:1015D00077E481E89FE30E942C2020E030EC43E296
:1015E00055E40E94432269877A878B879C876F2DF9
:1015F00070E080E090E00E94E22120E030E040E8EE
:101600005FE30E94291E9B01AC016EEA77E481E84A
:101610009FE30E942C2020E030EC43E255E40E943E
:1016200043226D877E878F87988B602F70E080E0E4
:1016300090E00E94E22120E030E040E85FE30E9479
:10164000291E9B01AC016EEA77E481E89FE30E94CA
:101650002C2020E030EC43E255E40E944322698BC9
:101660007A8B8B8B9C8B612F70E080E090E00E94E6
:10167000E22120E030E040E85FE30E94291E9B0168
:10168000AC016EEA77E481E89FE30E942C2020E021
:1016900030EC43E255E40E9443226D8B7E8B8F8BAE
:1016A000988FAE014F5F5F4F7A0102E413E0A12CE7
:1016B000B12CF30181919191A191B1913F01639678
:1016C000EEADFFAD639721913191419151916396B8
:1016D000FFAFEEAF6397BC01CD01621B730B840BB0
:1016E000950B0E94E42120E030E048EC52E40E9497
:1016F0004322D7012D913D914D915C910E94231F72
:1017000020E030E048EC52E40E94291EF80160839A
:10171000718382839383F40181919191A191B1911D
:101720004F016796EEADFFAD6797219131914191E1
:1017300051916796FFAFEEAF6797BC01CD01621B79
:10174000730B840B950B0E94E42120E030E048EC01
:1017500052E40E944322D7011C962D913D914D9158
:101760005C911F970E94231F20E030E048EC52E478
:101770000E94291EF8016487758786879787FFEF87
:10178000AF1ABF0A24E0E20EF11C0C5F1F4F33E0DA
:10179000A316B10409F08DCF68E771E08BE095E006
:1017A0000E943F076091420370914303809144037C
:1017B000909145030E94571D86EA91E00E94E3063E
:1017C00069EB71E08BE095E00E943F076091460372
:1017D0007091470380914803909149030E94571DDF
:1017E00086EA91E00E94E30667EE71E08BE095E007
:1017F0000E943F0760914A0370914B0380914C0314
:1018000090914D030E94571D86EA91E00E94E306E5
:1018100065E172E08BE095E00E943F0760914E0326
:1018200070914F0380915003909151030E94571D76
:1018300086EA91E00E94E3066FE372E08BE095E0B8
:101840000E943F07609152037091530380915403AB
:10185000909155030E94571D86EA91E00E94E3068D
:1018600069E672E08BE095E00E943F0760915603C5
:101870007091570380915803909159030E94571D0E
:1018800086EA91E00E94E30640E86BE688E60E9463
:10189000EB1C64E670E080E090E00E94510341E0C0
:1018A0006BE688E60E94EB1C40E06CE688E60E944E
:1018B000EB1C68EC70E080E090E00E94510340E097
:1018C00068E388E60E94EB1C40E063E288E60E9441
:1018D000EB1C40E06BE688E60E94EB1C40E064E213
:1018E00088E60E94EB1C40E06AE688E60E94EB1C5A
:1018F0004CE06AE688E60E94EB1C6FE070E080E056
:1019000090E00E94510341E06AE188E60E94EB1CEE
:1019100040E069E188E60E94EB1C40E06BE188E66C
:101920000E94EB1C40E06CE188E60E94EB1C40E466
:101930006AE688E60E94EB1C48E763E288E60E94BC
:10194000EB1C68E270E080E090E00E94510340E010
:1019500063E288E60E94EB1C960142E062E788E6BB
:101960000E94E103898D90E0982F88272A8D822B91
:101970006CE070E00E940F1E8B01812C912C5401B1
:10198000412C512C320165961CAE1DAE1EAE1FAE11
:1019900065976D961CAE1DAE1EAE1FAE6D97A196DF
:1019A0001CAE1DAE1EAE1FAEA19769961CAE1DAE3D
:1019B0001EAE1FAE6997C12CD12CC016D10609F4FA
:1019C00090C09E01275E3F4F4CE064E788E60E948E
:1019D000E103898D90E0982F88272A8D822B092E8C
:1019E000000CAA0BBB0B65962CAD3DAD4EAD5FADAB
:1019F0006597280F391F4A1F5B1F65962CAF3DAFB7
:101A00004EAF5FAF65978B8D90E0982F88272C8D18
:101A1000822B092E000CAA0BBB0B480E591E6A1E06
:101A20007B1E8D8D90E0982F88272E8D822B092E7E
:101A3000000CAA0BBB0B880E991EAA1EBB1E8F8D15
:101A400090E0982F882728A1822B092E000CAA0B42
:101A5000BB0B69962CAD3DAD4EAD5FAD6997280FC0
:101A6000391F4A1F5B1F69962CAF3DAF4EAF5FAF6A
:101A7000699789A190E0982F88272AA1822B092EA7
:101A8000000CAA0BBB0BA1962CAD3DAD4EAD5FADCE
:101A9000A197280F391F4A1F5B1FA1962CAF3DAF9E
:101AA0004EAF5FAFA1978BA190E0982F88272CA114
:101AB000822B092E000CAA0BBB0B6D962CAD3DADF5
:101AC0004EAD5FAD6D97280F391F4A1F5B1F6D9696
:101AD0002CAF3DAF4EAF5FAF6D973FEFC31AD30A48
:101AE0006CCFE12CF12C65966CAD7DAD8EAD9FADCC
:101AF0006597A70196010E942323A5962CAF3DAFC1
:101B00004EAF5FAFA597C301B201A70196010E9436
:101B10002323A9962CAF3DAF4EAF5FAFA997C50168
:101B2000B401A70196010E94232349015A01699635
:101B30006CAD7DAD8EAD9FAD6997A70196010E94FA
:101B4000232329013A01A1966CAD7DAD8EAD9FADE9
:101B5000A197A70196010E94232369962CAF3DAF60
:101B60004EAF5FAF69976D966CAD7DAD8EAD9FAD9D
:101B70006D97A70196010E942323A1962CAF3DAF3C
:101B80004EAF5FAFA197181419041A041B0464F434
:101B9000D501C4019054A109B10965968CAF9DAFE0
:101BA000AEAFBFAF65970BC0A5019401305C4F4F3E
:101BB0005F4F65962CAF3DAF4EAF5FAF659734E09A
:101BC000C32ED12CE12CF12CC301B201A701960147
:101BD0000E94232350954095309521953F4F4F4FBC
:101BE0005F4FBB2757FDBA95A52F942F832F6D9676
:101BF0008CAF9DAFAEAFBFAF6D97898F2A8F6996BF
:101C00006CAD7DAD8EAD9FAD6997A70196010E9429
:101C1000232350954095309521953F4F4F4F5F4F6F
:101C20003B8F2C8FA1966CAD7DAD8EAD9FADA197F6
:101C3000A70196010E942323509540953095219548
:101C40003F4F4F4F5F4F3D8F2E8F6A964FAD6A9734
:101C500063E188E60E94EB1C4A8D64E188E60E94FD
:101C6000EB1C4B8D65E188E60E94EB1C4C8D66E118
:101C700088E60E94EB1C4D8D67E188E60E94EB1C14
:101C80004E8D68E188E60E94EB1CC301B2010E9400
:101C9000E42120E030E043E053E40E94231F6093FE
:101CA0003603709337038093380390933903699612
:101CB0006CAD7DAD8EAD9FAD69970E94E42120E0B3
:101CC00030E043E053E40E94231F60933A03709393
:101CD0003B0380933C0390933D03A1966CAD7DAD97
:101CE0008EAD9FADA1970E94E42120E030E043E05B
:101CF00053E40E94231F60933E0370933F0380933D
:101D00004003909341039E01275E3F4F42E067E707
:101D100088E60E94E103898C912C982C88248A8D76
:101D2000882A092C000CAA08BB0889829A82AB82F7
:101D3000BC829E01275E3F4F42E06AE788E60E9430
:101D4000E103C98CD12CDC2CCC248A8DC82A0D2C23
:101D5000000CEE08FF08CD82DE82EF82F8869E013D
:101D6000275E3F4F42E06DE788E60E94E103898DE0
:101D700090E0982F88272A8D822B9C01990F440B85
:101D8000550B69962CAF3DAF4EAF5FAF6997298772
:101D90003A874B875C871DA21EA21FA2FE013196C7
:101DA000DE019596CE010D9621E041915191619110
:101DB000719140FD2C931196E817F907B1F798E05F
:101DC000492E512C612C712CA5966CAD7DAD8EAD3C
:101DD0009FADA597A30192010E942323821A930A23
:101DE000A40AB50AA9966CAD7DAD8EAD9FADA9973D
:101DF000A30192010E942323C21AD30AE40AF50A1E
:101E000065966CAD7DAD8EAD9FAD6597A3019201DA
:101E10000E94232369968CAD9DADAEADBFAD699791
:101E2000821B930BA40BB50B7727B7FC7A956B2D10
:101E30005A2D492D498F2DA1822A8A8EDB8E2EA103
:101E4000C22ACC8E9D8F2FA1822B8E8F67E788E6CA
:101E50000E94EB1C4A8D68E788E60E94EB1C4B8DC4
:101E60006AE788E60E94EB1C4C8D6BE788E60E94CF
:101E7000EB1C4D8D6DE788E60E94EB1C4E8D6EE7E6
:101E800088E60E94EB1CA5966CAD7DAD8EAD9FAD36
:101E9000A5970E94E42120E030E040E858E30E944A
:101EA000432260932A0370932B0380932C03909317
:101EB0002D03A9966CAD7DAD8EAD9FADA9970E9407
:101EC000E42120E030E040E858E30E9443226093A0
:101ED0002E0370932F038093300390933103659604
:101EE0006CAD7DAD8EAD9FAD65970E94E42120E085
:101EF00030E040E858E30E9443226093320370933D
:101F00003303809334039093350340E06BE688E617
:101F10000E94EB1C64E670E080E090E00E945103B8
:101F200041E06BE688E60E94EB1C68EC70E080E024
:101F300090E00E94510343E06AE188E60E94EB1CB6
:101F400044E069E188E60E94EB1C6BE188E60E94B0
:101F50002804482F457E6BE188E60E94EB1C6CE16B
:101F600088E60E942804482F477E6CE188E60E949C
:101F7000EB1C6DE188E60E942804807F482F4360B7
:101F80006DE188E60E94EB1C42E267E388E60E946E
:101F9000EB1C41E068E388E60E94EB1C64E670E01D
:101FA00080E090E00E94510383E992E00E94E30602
:101FB00060E08CE00E942804182F60EC72E08BE057
:101FC00095E00E943F076FE471E08BE095E00E948E
:101FD0003F07412F50E060E070E020E18BE095E0AA
:101FE0000E94F60665E571E08BE095E00E943F07F0
:101FF00020E148E450E060E070E08BE095E00E9472
:10200000F60663E471E08BE095E00E94CE0668EE90
:1020100073E080E090E00E94510340E06AE08CE0D1
:102020000E94EB1C6AE070E080E090E00E945103A7
:102030004FE06AE08CE00E94EB1C6AE070E080E018
:1020400090E00E9451038E010F5F1F4F980143E003
:1020500060E18CE00E94E103698170E060587109E1
:10206000072E000C880B990B0E94E42120E030E041
:1020700040E85BE30E94432220E030E040E85FE379
:102080000E942A1E6093C5037093C6038093C70302
:102090009093C8036A8170E060587109072E000CA4
:1020A000880B990B0E94E42120E030E040E85BE3DC
:1020B0000E94432220E030E040E85FE30E942A1EB5
:1020C0006093C9037093CA038093CB039093CC03AE
:1020D0006B8170E060587109072E000C880B990B1A
:1020E0000E94E42120E030E040E85BE30E944322CC
:1020F00020E030E040E85FE30E942A1E6093CD03B9
:102100007093CE038093CF039093D00340E06AE0B6
:102110008CE00E94EB1C6AE070E080E090E00E949E
:10212000510342E16AE08CE00E94EB1C6AE070E03F
:1021300080E090E00E94510388EC92E00E94E30668
:1021400068EE73E080E090E00E945103B7C464EF52
:1021500072E08BE095E00E943F0720E1B701A60105
:102160008BE095E00E94F60663E471E08BE095E079
:102170000E94CE06FFCF980146E06BE388E60E94FE
:10218000E103698170E0762F66278A81682B70935E
:102190000E0460930D04CB80D12CDC2CCC248C81DC
:1021A000C82AD0921004C0920F04ED80F12CFE2CAE
:1021B000EE248E81E82AF0921204E092110480E06D
:1021C00090E0A0E8B8E38093090490930A04A093F8
:1021D0000B04B0930C04072E000C880B990B0E9483
:1021E000E42120E030E040E858E30E94432260937D
:1021F0000504709306048093070490930804B601C5
:10220000DD0C880B990B0E94E42120E030E040E8CF
:1022100058E30E9443226093010470930204809368
:10222000030490930404B701FF0C880B990B0E94E0
:10223000E42120E030E040E858E30E94432260932C
:10224000FD037093FE038093FF03909300049801B5
:1022500046E063E488E60E94E103698170E0762F3E
:1022600066278A81682B7093F8036093F703CB800D
:10227000D12CDC2CCC248C81C82AD092FA03C092B9
:10228000F903ED80F12CFE2CEE248E81E82AF092E9
:10229000FC03E092FB0320E030E04AEF5BE3209395
:1022A000F3033093F4034093F5035093F603072EA2
:1022B000000C880B990B0E94E42120E030E04AEFEB
:1022C0005BE30E9443226093EF037093F0038093DB
:1022D000F1039093F203B601DD0C880B990B0E9479
:1022E000E42120E030E04AEF5BE30E944322609368
:1022F000EB037093EC038093ED039093EE03B7012F
:10230000FF0C880B990B0E94E42120E030E04AEF9B
:102310005BE30E9443226093E7037093E80380939A
:10232000E9039093EA0362E08CE00E94280480FDB8
:10233000D0C38FEF9BEEAFEBBFE38093D1039093BD
:10234000D203A093D303B093D40320E030E04BEE4C
:1023500053E42093D5033093D6034093D70350938F
:10236000D80380E090E0A0EFB2E48093D90390938B
:10237000DA03A093DB03B093DC0320E030E04AEF04
:1023800052E42093DD033093DE034093DF03509348
:10239000E0036091E1037091E203072E000C880BCB
:1023A000990B0E94E4212FEF3BEE4FEB5FE30E947D
:1023B00043222091C5033091C6034091C703509139
:1023C000C8030E94432220E030E04BEE53E40E9419
:1023D000291E6093C1037093C2038093C30390933B
:1023E000C4036091E3037091E403072E000C880B93
:1023F000990B0E94E4212FEF3BEE4FEB5FE30E942D
:1024000043222091C9033091CA034091CB035091DC
:10241000CC030E94432220E030E040EF52E40E94CF
:10242000291E6093BD037093BE038093BF039093F6
:10243000C0036091E5037091E603072E000C880B42
:10244000990B0E94E4212FEF3BEE4FEB5FE30E94DC
:1024500043222091CD033091CE034091CF03509180
:10246000D0030E94432220E030E04AEF52E40E9471
:10247000291E6093B9037093BA038093BB039093B2
:10248000BC030E942C036B017C016093B503709325
:10249000B6038093B7039093B8038091B1039091F2
:1024A000B203A091B303B091B403A7019601281B16
:1024B000390B4A0B5B0BCA01B9010E94E22120E0F3
:1024C00034E244E759E40E94231FC357DF4F688377
:1024D00079838A839B83CD58D0406093AD037093FA
:1024E000AE038093AF039093B003C092B103D09238
:1024F000B203E092B303F092B4039B01AC0160918C
:10250000A9037091AA038091AB039091AC030E9440
:102510002A1E6093A9037093AA038093AB03909340
:10252000AC038091A5039091A603A091A703B0915D
:10253000A8030196A11DB11D8093A5039093A60346
:10254000A093A703B093A8034090B9035090BA0397
:102550006090BB037090BC038091C1039091C20353
:10256000A091C303B091C403A9968CAF9DAFAEAF49
:10257000BFAFA9972091BD033091BE034091BF0327
:102580005091C003A5962CAF3DAF4EAF5FAFA5975E
:102590008091E7039091E803A091E903B091EA03E9
:1025A000C754DF4F88839983AA83BB83C95BD0401C
:1025B0002091EB033091EC034091ED035091EE0339
:1025C000C354DF4F288339834A835B83CD5BD0407C
:1025D0008091EF039091F003A091F103B091F20389
:1025E000CF53DF4F88839983AA83BB83C15CD040DC
:1025F0002091FD033091FE034091FF0350910004B0
:10260000AD962CAF3DAF4EAF5FAFAD97809101045B
:1026100090910204A0910304B0910404E1968CAF60
:102620009DAFAEAFBFAFE197209105043091060496
:102630004091070450910804E5962CAF3DAF4EAF92
:102640005FAFE5978091000190910101A091020197
:10265000B09103016D968CAF9DAFAEAFBFAF6D97DC
:10266000209104013091050140910601509107012C
:1026700065962CAF3DAF4EAF5FAF65978091080177
:1026800090910901A0910A01B0910B0169968CAF5C
:102690009DAFAEAFBFAF699720910C0130910D0196
:1026A00040910E0150910F01A1962CAF3DAF4EAF5E
:1026B0005FAFA197E5962CAD3DAD4EAD5FADE59713
:1026C000CA01B9010E9443226B017C01E1962CAD45
:1026D0003DAD4EAD5FADE197CA01B9010E94432205
:1026E0009B01AC01C701B6010E942A1E6B017C014F
:1026F000AD962CAD3DAD4EAD5FADAD97CA01B90104
:102700000E9443229B01AC01C701B6010E942A1E10
:102710000E9482204B015C0120E030E0A9010E9470
:10272000DD218111FEC10E948B03C090A103D090D6
:10273000A203E090A303F090A403DC01CB018C1969
:102740009D09AE09BF0980939D0390939E03A093BA
:102750009F03B093A003853F9140A105B10508F404
:102760007BC18091000190910101A0910201B09183
:10277000030165968CAF9DAFAEAFBFAF65979C016F
:10278000AD01BC01CD010E944322A1966CAF7DAF8B
:102790008EAF9FAFA1972091040130910501409128
:1027A00006015091070169962CAF3DAF4EAF5FAF68
:1027B0006997CA01B9010E9443226D966CAF7DAF43
:1027C0008EAF9FAF6D9740900801509009016090C7
:1027D0000A0170900B01A3019201C301B2010E9492
:1027E0004322A5966CAF7DAF8EAF9FAFA597C090EB
:1027F0000C01D0900D01E0900E01F0900F01A701A7
:102800009601C701B6010E944322A9966CAF7DAF25
:102810008EAF9FAFA9976D962CAD3DAD4EAD5FAD20
:102820006D97A1966CAD7DAD8EAD9FADA1970E94C9
:102830002A1EA5962CAD3DAD4EAD5FADA5970E946D
:10284000291EA9962CAD3DAD4EAD5FADA9970E9456
:10285000291E4B015C01A301920169966CAD7DAD0F
:102860008EAD9FAD69970E944322AD966CAF7DAF50
:102870008EAF9FAFAD97A701960165966CAD7DAD0C
:102880008EAD9FAD65970E9443229B01AC01AD9632
:102890006CAD7DAD8EAD9FADAD970E942A1E9B01A4
:1028A000AC010E942A1EA50194010E94C41EAD968F
:1028B0006CAF7DAF8EAF9FAFAD97A70196016996C4
:1028C0006CAD7DAD8EAD9FAD69970E9443224B01EB
:1028D0005C01A301920165966CAD7DAD8EAD9FAD9F
:1028E00065970E9443229B01AC01C501B4010E947F
:1028F000291E9B01AC010E942A1E0E94961EE19691
:102900006CAF7DAF8EAF9FAFE1976D962CAD3DADB7
:102910004EAD5FAD6D97A1966CAD7DAD8EAD9FADAB
:10292000A1970E94291EA5962CAD3DAD4EAD5FAD81
:10293000A5970E94291EA9962CAD3DAD4EAD5FAD69
:10294000A9970E942A1E4B015C0169962CAD3DADF2
:102950004EAD5FAD699765966CAD7DAD8EAD9FADAB
:1029600065970E94432265966CAF7DAF8EAF9FAF97
:102970006597A7019601C301B2010E9443229B0102
:10298000AC0165966CAD7DAD8EAD9FAD65970E9437
:102990002A1E9B01AC010E942A1EA50194010E94DF
:1029A000C41E6B017C01E1966CAD7DAD8EAD9FAD1B
:1029B000E197905820EE3EE245E652E40E94432221
:1029C0006093130470931404809315049093160479
:1029D00020EE3EE245E652E4AD966CAD7DAD8EADA7
:1029E0009FADAD970E9443222DEC3CEC4CE551E4A9
:1029F0000E94291E60931704709318048093190491
:102A000090931A0420EE3EE245E652E4C701B60177
:102A10000E94432260931B0470931C0480931D0446
:102A200090931E040E948B036093A1037093A203F2
:102A30008093A3039093A4031092A5031092A6037E
:102A40001092A7031092A8031092A9031092AA0350
:102A50001092AB031092AC03809113049091140474
:102A6000A0911504B091160480931F049093200444
:102A7000A0932104B093220480911B0490911C0424
:102A8000A0911D04B0911E0480932304909324040C
:102A9000A0932504B0932604809117049091180404
:102AA000A0911904B0911A048093270490932804EC
:102AB000A0932904B0932A040E94BF0185E193E00A
:102AC0000E94E3066AE388E60E94280480FFD9CCCE
:102AD00052CB980147E063E08CE00E94E1038F81D4
:102AE00083FD27CC8A8190E0982F88272981822B2B
:102AF0009093E2038093E1038C8190E0982F8827E4
:102B00002B81822B9093E4038093E3038E8190E0EA
:102B1000982F88272D81822B9093E6038093E503DD
:102B200008CCA5962CAD3DAD4EAD5FADA597CA01C5
:102B3000B9010E9443226B017C01A9962CAD3DADE9
:102B40004EAD5FADA997CA01B9010E9443229B0116
:102B5000AC01C701B6010E942A1E6B017C01A301D2
:102B60009201C301B2010E9443229B01AC01C70143
:102B7000B6010E942A1E0E948220E9966CAF7DAFAA
:102B80008EAF9FAFE99720E030E0A9010E94DD21E0
:102B9000882309F4C8CD65962CAD3DAD4EAD5FAD33
:102BA00065976D966CAD7DAD8EAD9FAD6D970E94B6
:102BB0004322CF57DF4F688379838A839B83C15831
:102BC000D04069962CAD3DAD4EAD5FAD69976D9629
:102BD0006CAD7DAD8EAD9FAD6D970E944322CB57FE
:102BE000DF4F688379838A839B83C558D040A19641
:102BF0002CAD3DAD4EAD5FADA1976D966CAD7DAD8D
:102C00008EAD9FAD6D970E944322C757DF4F6883FB
:102C100079838A839B83C958D04065962CAD3DAD9E
:102C20004EAD5FAD6597CA01B9010E944322CB56F4
:102C3000DF4F688379838A839B83C559D040699627
:102C40002CAD3DAD4EAD5FAD699765966CAD7DAD7C
:102C50008EAD9FAD65970E9443226B017C01A196CA
:102C60002CAD3DAD4EAD5FADA19765966CAD7DAD24
:102C70008EAD9FAD65970E944322C756DF4F688394
:102C800079838A839B83C959D04069962CAD3DAD29
:102C90004EAD5FAD6997CA01B9010E944322ED961E
:102CA0006CAF7DAF8EAF9FAFED97A1962CAD3DADD4
:102CB0004EAD5FADA19769966CAD7DAD8EAD9FAD0C
:102CC00069970E944322C356DF4F688379838A83C2
:102CD0009B83CD59D040A1962CAD3DAD4EAD5FAD9F
:102CE000A197CA01B9010E944322C358DF4F6883EC
:102CF00079838A839B83CD57D040A501940160E0FE
:102D000070E080E89FE30E94231F4B015C019B0160
:102D1000AC01E5966CAD7DAD8EAD9FADE5970E94A3
:102D20004322CF55DF4F688379838A839B83C15ABF
:102D3000D040A5019401E1966CAD7DAD8EAD9FAD07
:102D4000E1970E944322CB55DF4F688379838A83C2
:102D50009B83C55AD040A5019401AD966CAD7DAD65
:102D60008EAD9FADAD970E944322C755DF4F68835C
:102D700079838A839B83C95AD040E9962CAD3DADB7
:102D80004EAD5FADE99760E070E080E89FE30E94A0
:102D9000231F4B015C019B01AC01A5966CAD7DAD81
:102DA0008EAD9FADA5970E944322A5966CAF7DAFD7
:102DB0008EAF9FAFA597A5019401A9966CAD7DAD8F
:102DC0008EAD9FADA9970E944322A9966CAF7DAFAF
:102DD0008EAF9FAFA997A5019401C301B2010E94D4
:102DE0004322AD966CAF7DAF8EAF9FAFAD97A596EA
:102DF0002CAD3DAD4EAD5FADA597CA01B9010E94A6
:102E00002A1EE5966CAF7DAF8EAF9FAFE597ED962E
:102E10002CAD3DAD4EAD5FADED9760E070E080E074
:102E20009FE30E94291EC358DF4F288139814A81C0
:102E30005B81CD57D0400E94291EC355DF4F688368
:102E400079838A839B83CD5AD040A9962CAD3DAD22
:102E50004EAD5FADA997CA01B9010E942A1EE9963D
:102E60006CAF7DAF8EAF9FAFE997C757DF4F28811B
:102E700039814A815B81C958D040C701B6010E949F
:102E8000291ECF54DF4F688379838A839B83C15B7C
:102E9000D040AD962CAD3DAD4EAD5FADAD97CA0106
:102EA000B9010E942A1ECF56DF4F688379838A8337
:102EB0009B83C159D040CB57DF4F288139814A814C
:102EC0005B81C558D040C756DF4F688179818A81C0
:102ED0009B81C959D0400E942A1ECB54DF4F688382
:102EE00079838A839B83C55BD040C355DF4F28819C
:102EF00039814A815B81CD5AD040E5966CAD7DAD7C
:102F00008EAD9FADE5970E9443224B015C01CF54EB
:102F1000DF4F288139814A815B81C15BD040E996CE
:102F20006CAD7DAD8EAD9FADE9970E9443229B01B4
:102F3000AC01C501B4010E942A1E4B015C01CB54B7
:102F4000DF4F288139814A815B81C55BD040CF56F4
:102F5000DF4F688179818A819B81C159D0400E946D
:102F600043229B01AC01C501B4010E942A1E2B0122
:102F70003C01CB56DF4F288139814A815B81C5599D
:102F8000D04060E070E080E09FE30E94291E4B018A
:102F90005C01C757DF4F288139814A815B81C9585D
:102FA000D040C701B6010E942A1E9B01AC01E596E4
:102FB0006CAD7DAD8EAD9FADE5970E9443226B0158
:102FC0007C01C358DF4F288139814A815B81CD570D
:102FD000D040C501B4010E94291E9B01AC01E996B5
:102FE0006CAD7DAD8EAD9FADE9970E9443229B01F4
:102FF000AC01C701B6010E942A1E6B017C01CF57AC
:10300000DF4F288139814A815B81C158D040C35646
:10301000DF4F688179818A819B81CD59D0400E94A0
:10302000291E9B01AC01CF56DF4F688179818A81CF
:103030009B81C159D0400E9443229B01AC01C70132
:10304000B6010E942A1E6B017C01A3019201C301FB
:10305000B2010E9443222B013C01A7019601C70146
:10306000B6010E9443229B01AC01C301B2010E9440
:103070002A1E0E9482206B017C01CB57DF4F2881E2
:1030800039814A815B81C558D040C756DF4F68817E
:1030900079818A819B81C959D0400E94291EE1967D
:1030A0006CAF7DAF8EAF9FAFE197CF57DF4F2881D9
:1030B00039814A815B81C158D040C356DF4F688156
:1030C00079818A819B81CD59D0400E942A1E2B0193
:1030D0003C01ED962CAD3DAD4EAD5FADED97C5011C
:1030E000B4010E94291ECF57DF4F688379838A83FA
:1030F0009B83C158D040E1962CAD3DAD4EAD5FAD48
:10310000E197CA01B9010E942A1ECB57DF4F68839D
:1031100079838A839B83C558D040A3019201C30160
:10312000B2010E942A1EC757DF4F688379838A83C2
:103130009B83C958D0406D962CAD3DAD4EAD5FAD73
:103140006D97CA01B9010E944322CB56DF4F2881F7
:1031500039814A815B81C559D0400E94291EED9674
:103160002CAD3DAD4EAD5FADED970E94291EC3580D
:10317000DF4F288139814A815B81CD57D0400E9441
:103180002A1EED966CAF7DAF8EAF9FAFED97A70176
:103190009601C701B6010E942A1E4B015C01E1960F
:1031A0002CAD3DAD4EAD5FADE197E5966CAD7DAD1F
:1031B0008EAD9FADE5970E9443226B017C01A30178
:1031C0009201E9966CAD7DAD8EAD9FADE9970E9401
:1031D00043229B01AC01C701B6010E942A1E6B016C
:1031E0007C01CF57DF4F288139814A815B81C158EB
:1031F000D040CF56DF4F688179818A819B81C15948
:10320000D0400E9443229B01AC01C701B6010E943D
:103210002A1E9B01AC010E942A1E6B017C01C35532
:10322000DF4F288139814A815B81CD5AD040C50169
:10323000B4010E944322E5966CAF7DAF8EAF9FAF85
:10324000E597E1962CAD3DAD4EAD5FADE197C70181
:10325000B6010E9443229B01AC01E5966CAD7DADA9
:103260008EAD9FADE5970E942A1EE5966CAF7DAFAF
:103270008EAF9FAFE597CF54DF4F288139814A81C8
:103280005B81C15BD040C501B4010E944322E1963D
:103290006CAF7DAF8EAF9FAFE197A3019201C701E5
:1032A000B6010E9443229B01AC01E1966CAD7DAD5D
:1032B0008EAD9FADE1970E942A1EC358DF4F6883F1
:1032C00079838A839B83CD57D040CB54DF4F2881AD
:1032D00039814A815B81C55BD040C501B4010E9440
:1032E00043224B015C01CF57DF4F288139814A814E
:1032F0005B81C158D040C701B6010E9443229B01A7
:10330000AC01C501B4010E942A1EE9966CAF7DAFE5
:103310008EAF9FAFE9971092910310929203109293
:1033200093031092940310929503109296031092B7
:103330009703109298031092990310929A03109297
:103340009B0310929C032BED3FE049E450E4CF53E4
:10335000DF4F688179818A819B81C15CD0400E9466
:10336000432220E030E044E353E40E94231F6B013A
:103370007C01ED962CAD3DAD4EAD5FADED97CB55DF
:10338000DF4F688179818A819B81C55AD0400E9434
:1033900043224B015C01C757DF4F288139814A81A5
:1033A0005B81C958D040C755DF4F688179818A81D8
:1033B0009B81C95AD0400E9443229B01AC01C501A8
:1033C000B4010E94291E4B015C01E9962CAD3DAD74
:1033D0004EAD5FADE997A9966CAD7DAD8EAD9FAD5D
:1033E000A9970E9443222B013C01C358DF4F28813B
:1033F00039814A815B81CD57D040AD966CAD7DADB2
:103400008EAD9FADAD970E9443229B01AC01C301DD
:10341000B2010E94291E9B01AC01C501B4010E94AA
:103420002A1E20E030E040E251E40E9443229B014A
:10343000AC01C701B6010E942A1E20E030E0A901BC
:103440000E942A1EE1966CAF7DAF8EAF9FAFE197D1
:103450002BED3FE049E450E4C354DF4F68817981AC
:103460008A819B81CD5BD0400E94432220E030E0E6
:1034700044E353E40E94231F6B017C01CB57DF4FD1
:10348000288139814A815B81C558D040C755DF4FBB
:10349000688179818A819B81C95AD0400E944322E8
:1034A0004B015C01ED962CAD3DAD4EAD5FADED97A2
:1034B000CF55DF4F688179818A819B81C15AD04085
:1034C0000E9443229B01AC01C501B4010E94291E48
:1034D0004B015C01E5962CAD3DAD4EAD5FADE59782
:1034E000AD966CAD7DAD8EAD9FADAD970E94432284
:1034F0002B013C01E9962CAD3DAD4EAD5FADE9979A
:10350000A5966CAD7DAD8EAD9FADA5970E94432273
:103510009B01AC01C301B2010E94291E9B01AC01B9
:10352000C501B4010E942A1E20E030E040E251E4CF
:103530000E9443229B01AC01C701B6010E942A1ED2
:1035400020E030E0A9010E942A1EAD966CAF7DAF4D
:103550008EAF9FAFAD972BED3FE049E450E4C754E9
:10356000DF4F688179818A819B81C95BD0400E944D
:10357000432220E030E044E353E40E94231F6B0128
:103580007C01C757DF4F288139814A815B81C95847
:10359000D040CF55DF4F688179818A819B81C15AA4
:1035A000D0400E9443224B015C01CB57DF4F288162
:1035B00039814A815B81C558D040CB55DF4F688146
:1035C00079818A819B81C55AD0400E9443229B0108
:1035D000AC01C501B4010E94291E4B015C01C35816
:1035E000DF4F288139814A815B81CD57D040A59634
:1035F0006CAD7DAD8EAD9FADA5970E9443222B0192
:103600003C01E5962CAD3DAD4EAD5FADE597A9967D
:103610006CAD7DAD8EAD9FADA9970E9443229B01FD
:10362000AC01C301B2010E94291E9B01AC01C5017E
:10363000B4010E942A1E20E030E040E251E40E94E2
:1036400043229B01AC01C701B6010E942A1E20E063
:1036500030E0A9010E942A1E4B015C0120E030E00D
:1036600040E05FE3C357DF4F688179818A819B81A6
:10367000CD58D0400E944322A5966CAF7DAF8EAF4F
:103680009FAFA59765966CAD7DAD8EAD9FAD6597EF
:103690009058E1962CAD3DAD4EAD5FADE1970E94E7
:1036A00043226B017C01AD962CAD3DAD4EAD5FADBF
:1036B000AD9769966CAD7DAD8EAD9FAD69970E945B
:1036C00043229B01AC01C701B6010E94291E6B0178
:1036D0007C01A5019401A1966CAD7DAD8EAD9FAD31
:1036E000A1970E9443229B01AC01C701B6010E9431
:1036F000291EA5962CAD3DAD4EAD5FADA5970E94A0
:1037000043229B01AC016D966CAD7DAD8EAD9FAD3E
:103710006D970E942A1E6B017C01E1962CAD3DAD98
:103720004EAD5FADE1970E9443222B013C01A50104
:10373000940169966CAD7DAD8EAD9FAD69970E9489
:1037400043229B01AC01C301B2010E942A1E2B013E
:103750003C01AD962CAD3DAD4EAD5FADAD97A196A4
:103760006CAD7DAD8EAD9FADA1970E9443229B01B4
:10377000AC01C301B2010E94291EA5962CAD3DAD3E
:103780004EAD5FADA5970E9443229B01AC016596AB
:103790006CAD7DAD8EAD9FAD65970E942A1E6D9676
:1037A0006CAF7DAF8EAF9FAF6D97AD962CAD3DAD3D
:1037B0004EAD5FADAD97C701B6010E9443222B010C
:1037C0003C01A501940165966CAD7DAD8EAD9FADBC
:1037D00065970E9443229B01AC01C301B2010E9484
:1037E000291E2B013C01E1962CAD3DAD4EAD5FADE8
:1037F000E197A1966CAD7DAD8EAD9FADA1970E9476
:1038000043229B01AC01C301B2010E942A1EA5966E
:103810002CAD3DAD4EAD5FADA5970E9443229B01FF
:10382000AC0169966CAD7DAD8EAD9FAD69970E9480
:103830002A1EA9966CAF7DAF8EAF9FAFA997A50149
:103840009401C701B6010E9443224B015C01AD9671
:103850002CAD3DAD4EAD5FADAD9765966CAD7DAD1C
:103860008EAD9FAD65970E9443229B01AC01C501BF
:10387000B4010E942A1E4B015C01E1962CAD3DADC6
:103880004EAD5FADE19769966CAD7DAD8EAD9FADF0
:1038900069970E9443229B01AC01C501B4010E94BB
:1038A000291EA5962CAD3DAD4EAD5FADA5970E94EE
:1038B00043229B01AC01A1966CAD7DAD8EAD9FAD59
:1038C000A1970E942A1E2B013C01A7019601C70166
:1038D000B6010E9443224B015C016D962CAD3DADBB
:1038E0004EAD5FAD6D97CA01B9010E9443229B01A5
:1038F000AC01C501B4010E942A1E4B015C01A996CE
:103900002CAD3DAD4EAD5FADA997CA01B9010E9486
:1039100043229B01AC01C501B4010E942A1E4B0148
:103920005C01A3019201C301B2010E9443229B01E9
:10393000AC01C501B4010E942A1E0E9482209B0195
:10394000AC0160E070E080E89FE30E94231F4B0120
:103950005C019B01AC01C701B6010E944322609348
:103960000001709301018093020190930301A5016E
:1039700094016D966CAD7DAD8EAD9FAD6D970E943F
:103980004322609304017093050180930601909394
:103990000701A5019401A9966CAD7DAD8EAD9FADDB
:1039A000A9970E94432260930801709309018093B4
:1039B0000A0190930B01A5019401C301B2010E9479
:1039C000432260930C0170930D0180930E0190933C
:1039D0000F010C949313CF93DF931F92CDB7DEB7F3
:1039E00091E09093E704809309051092E804109207
:1039F0000A0588EA95E049830E9457024981642FAD
:103A000088EA95E00E94570281E00F90DF91CF9104
:103A10000C942D06EBE0F5E01382128288EE93E021
:103A2000A0E0B0E084839583A683B78328E131E0EA
:103A30003183208325EC30E03587248724EC30E087
:103A40003787268720EC30E0318B208B21EC30E06B
:103A5000338B228B22EC30E0358B248B26EC30E04C
:103A6000378B268B118E128E138E148E4EE057ECF0
:103A70006AE17FE34093B8055093B9056093BA05B6
:103A80007093BB051092B4051092B5051092B6055F
:103A90001092B705E8EAF5E01382128284839583D9
:103AA000A683B78388E291E09183808308958F9203
:103AB0009F92AF92BF92CF92DF92EF92FF92CF93FD
:103AC000DF936B017C019B01AC010E94C62088231F
:103AD00019F06CE173E027C046015701E894B7F88C
:103AE0002FEF3FEF4FE75FE7C501B4010E94C6200B
:103AF00081110DC02FEF3FEF4FE75FE7C501B40124
:103B00000E94DD2118161CF460E273E00CC02FEF58
:103B10003FEF4FE75FE4C701B6010E941F20181670
:103B200084F464E273E08BE095E0DF91CF91FF9045
:103B3000EF90DF90CF90BF90AF909F908F900C94BC
:103B4000CE062FEF3FEF4FE75FECC701B6010E94B3
:103B5000DD2187FDE6CF20E030E0A901C701B601F5
:103B60000E94DD2187FF11C0E0910B05F0910C054B
:103B70000190F081E02D6DE28BE095E00995EC017C
:103B8000F7FAF094F7F8F09402C0C0E0D0E02DEC22
:103B90003CEC4CE45DE3C701B6010E942A1E4B01D8
:103BA0005C010E94951F6B017C010E94E2219B0138
:103BB000AC01C501B4010E94291E4B015C012AE041
:103BC000B701A6018BE095E00E94F606C80FD91F49
:103BD0006EEB72E08BE095E00E94CE06C80FD91F15
:103BE00020E030E040E251E4C501B4010E944322EC
:103BF0000E94951FAB0160E070E02AE08BE095E049
:103C00000E94F6068C0F9D1FDF91CF91FF90EF90E1
:103C1000DF90CF90BF90AF909F908F900895AA1B98
:103C2000BB1B51E107C0AA1FBB1FA617B70710F0A7
:103C3000A61BB70B881F991F5A95A9F780959095D9
:103C4000BC01CD010895EE0FFF1F0590F491E02D0A
:103C500009945058BB27AA270E94411E0C94C722E2
:103C60000E94B92238F00E94C02220F039F49F3F10
:103C700019F426F40C94B6220EF4E095E7FB0C94AC
:103C8000B022E92F0E94D82258F3BA1762077307AF
:103C90008407950720F079F4A6F50C94FA220EF427
:103CA000E0950B2EBA2FA02D0B01B90190010C014C
:103CB000CA01A0011124FF27591B99F0593F50F464
:103CC000503E68F11A16F040A22F232F342F4427BC
:103CD000585FF3CF469537952795A795F0405395B4
:103CE000C9F77EF41F16BA0B620B730B840BBAF084
:103CF0009150A1F0FF0FBB1F661F771F881FC2F7EF
:103D00000EC0BA0F621F731F841F48F48795779502
:103D10006795B795F7959E3F08F0B0CF9395880FBC
:103D200008F09927EE0F9795879508959F939F77B1
:103D3000EEE389379E0728F4E8E6F0E00E940B20C6
:103D40000CC00E94C41F9058A2EA2AED3FE049EC43
:103D50005FE30E94411E0E94C7220F9007FC90580B
:103D600008950E94B92260F080E891E009F49EEF86
:103D70000E94C02228F040E851E071F45EEF0CC0D0
:103D80000C94B6220C94FA22E92FE0780E94D822F3
:103D900040F3092E052AB1F32617370748075907BC
:103DA00038F00E2E07F8E02569F0E025E0640AC03F
:103DB000EF6307F8009407FADB01B9019D01DC010C
:103DC000CA01AD01EF930E943A1F0E94C7220E94D0
:103DD000F41E5F91552339F02BED3FE049E450FD8F
:103DE00049EC0C942A1E0895DF93DD27B92FBF7785
:103DF00040E85FE31616170648075B0718F4D92F4B
:103E00000E9424209F938F937F936F930E94C220E0
:103E1000ECE7F0E00E94E41F0E94C7222F913F913F
:103E20004F915F910E945622DD2351F09058A2EAF3
:103E30002AED3FE049EC5FE3D0785D270E94411E08
:103E4000DF910C94C7220E94371F0C94C7220E9456
:103E5000C02258F00E94B92240F029F45F3F29F0B7
:103E60000C94B02251110C94FB220C94B6220E94A7
:103E7000D82268F39923B1F3552391F3951B550B81
:103E8000BB27AA2762177307840738F09F5F5F4F2D
:103E9000220F331F441FAA1FA9F335D00E2E3AF06C
:103EA000E0E832D091505040E695001CCAF72BD084
:103EB000FE2F29D0660F771F881FBB1F26173707D5
:103EC0004807AB07B0E809F0BB0B802DBF01FF2707
:103ED00093585F4F3AF09E3F510578F00C94B02212
:103EE0000C94FB225F3FE4F3983ED4F386957795DC
:103EF0006795B795F7959F5FC9F7880F911D9695C0
:103F0000879597F90895E1E0660F771F881FBB1F1B
:103F1000621773078407BA0720F0621B730B840BC8
:103F2000BA0BEE1F88F7E09508950E94E02288F012
:103F30009F5798F0B92F9927B751B0F0E1F0660F6D
:103F4000771F881F991F1AF0BA95C9F714C0B130AE
:103F500091F00E94FA22B1E008950C94FA22672FA2
:103F6000782F8827B85F39F0B93FCCF386957795DD
:103F70006795B395D9F73EF49095809570956195C6
:103F80007F4F8F4F9F4F0895DF93CF931F930F93D2
:103F90008B01EC01E9EAF0E00E94E41F0E94C722D5
:103FA0009801AE018B01EC0160E070E080E89FE3D6
:103FB0000E94291E0E9482209801AE010F911F913C
:103FC000CF91DF910C945622DF93CF931F930F93E1
:103FD000FF92EF92DF927B018C01689406C0DA2E8B
:103FE000EF010E945622FE01E894A591259135919A
:103FF00045915591A6F3EF010E94411EFE019701E4
:10400000A801DA9469F7DF90EF90FF900F911F916C
:10401000CF91DF9108959F938F937F936F93FF9339
:10402000EF939B01AC010E944322EF91FF910E940C
:10403000E41F2F913F914F915F910C9443220E9476
:104040001F2208F48FEF08959B01AC0160E070E03F
:1040500080E89FE30C94231FFA01EE0FFF1F3096B8
:1040600021053105A1F16115710561F48038BFE3C7
:104070009B0749F168949038810561F08038BFEF63
:104080009B0741F099234AF5FF3FE10531052105E2
:1040900019F1E8940894E795D901AA2329F4AB2FE4
:1040A000BE2FF85FD0F310C0FF5F70F4A695E0F765
:1040B000F73950F019F0FF3A38F49F779F930DD0FD
:1040C0000F9007FC9058089546F00C94B62260E0DB
:1040D00070E080E89FE308954FE79F775F934F93E9
:1040E0003F932F930E945C212F913F914F915F91BD
:1040F0000E9443220C94D32019F416F40C94B62297
:104100000C9405210E94E022B8F39923C9F3B6F379
:104110009F57550B87FF0E9413210024A0E640EA19
:10412000900180585695979528F4805C660F771F0C
:10413000881F20F026173707480730F4621B730BDF
:10414000840B202931294A2BA69517940794202502
:1041500031254A2758F7660F771F881F20F026174A
:104160003707480730F4620B730B840B200D311DA9
:10417000411DA09581F7B901842F9158880F96951C
:10418000879508959B01AC010C9443220E941F2245
:10419000880B990B089529F416F00C94B0220C9416
:1041A000FA220C94B6220E94E022A8F39638A0F7D7
:1041B00007F80F92E8942BE33AEA48EB5FE70E9496
:1041C00059220F920F920F924DB75EB70F920E9435
:1041D000A421E1EDF0E00E94E41F4F915F91EF9187
:1041E000FF91E595EE1FFF1F49F0FE57E068442759
:1041F000EE0F441FFA95E1F74195550B0E941E21E1
:104200000F9007FE0C94242008959F3F31F09150A9
:1042100020F4879577956795B795880F911D9695AA
:10422000879597F9089591505040660F771F881F22
:10423000D2F708950C94B0220C9405210E94E0223C
:10424000D8F39923C9F3940F511DA3F39150504013
:1042500094F059F0882332F0660F771F881F915031
:104260005040C1F79E3F51052CF7880F911D969540
:10427000879597F908955F3FACF0983E9CF0BB2777
:10428000869577956795B79508F4B1609395C1F7D2
:10429000BB0F58F711F460FFE8CF6F5F7F4F8F4F70
:1042A0009F4FE3CF0C94FB2216F00C9405210C9445
:1042B000B62268940C94B0220E94E022A8F39923BD
:1042C000C1F3AEF3DF93CF931F930F93FF92C92FE8
:1042D000DD2788232AF02197660F771F881FDAF7DA
:1042E00020E030E040E85FEB9FE3883920F0803E3B
:1042F00038F021968F770E942A1EE9EFF0E004C083
:104300000E942A1EE6E2F1E00E94E41F8B01BE013A
:10431000EC01FB2E6F5771097595771F880B990B70
:104320000E94E42128E132E741E35FE30E94562244
:10433000AF2D9801AE01FF900F911F91CF91DF91AA
:104340000E94411E0C94C722FA01DC01AA0FBB1F78
:104350009B01AC01BF5728F422273327442750780C
:1043600020C0B75190F4AB2F002446953795279580
:10437000011CA395D2F3002071F0220F331F441FBC
:10438000B395DAF30ED00C94291E61307105A0E8C4
:104390008A07B94630F49B01AC0166277727882746
:1043A0009078309621F0208331834283538308959F
:1043B00081E090E0F8940C9442230E941F2208F4BC
:1043C00081E00895E89409C097FB3EF490958095AC
:1043D000709561957F4F8F4F9F4F9923A9F0F92FCB
:1043E00096E9BB279395F695879577956795B79549
:1043F000F111F8CFFAF4BB0F11F460FF1BC06F5F2F
:104400007F4F8F4F9F4F16C0882311F096E911C040
:10441000772321F09EE8872F762F05C0662371F061
:1044200096E8862F70E060E02AF09A95660F771F75
:10443000881FDAF7880F9695879597F90895990F51
:104440000008550FAA0BE0E8FEEF16161706E8075E
:10445000F907C0F012161306E407F50798F0621B7F
:10446000730B840B950B39F40A2661F0232B242B54
:10447000252B21F408950A2609F4A140A6958FEF73
:10448000811D811D08950E9456220C94C7220E940E
:10449000B92238F00E94C02220F0952311F00C942C
:1044A000B0220C94B62211240C94FB220E94D82234
:1044B00070F3959FC1F3950F50E0551F629FF00177
:1044C000729FBB27F00DB11D639FAA27F00DB11D90
:1044D000AA1F649F6627B00DA11D661F829F222719
:1044E000B00DA11D621F739FB00DA11D621F839FA0
:1044F000A00D611D221F749F3327A00D611D231F76
:10450000849F600D211D822F762F6A2F11249F57C3
:1045100050409AF0F1F088234AF0EE0FFF1FBB1FC6
:10452000661F771F881F91505040A9F79E3F510585
:1045300080F00C94B0220C94FB225F3FE4F3983E91
:10454000D4F3869577956795B795F795E7959F5F2F
:10455000C1F7FE2B880F911D9695879597F90895C1
:1045600097F99F6780E870E060E008959FEF80EC26
:10457000089500240A9416161706180609060895C9
:1045800000240A9412161306140605060895092E2F
:104590000394000C11F4882352F0BB0F40F4BF2B9E
:1045A00011F460FF04C06F5F7F4F8F4F9F4F0895DE
:1045B00057FD9058440F551F59F05F3F71F04795D4
:1045C000880F97FB991F61F09F3F79F087950895B9
:1045D000121613061406551FF2CF4695F1DF08C0D8
:1045E000161617061806991FF1CF869571056105F5
:1045F00008940895E894BB2766277727CB0197F99D
:104600000895A1E21A2EAA1BBB1BFD010DC0AA1F13
:10461000BB1FEE1FFF1FA217B307E407F50720F02B
:10462000A21BB30BE40BF50B661F771F881F991FA6
:104630001A9469F760957095809590959B01AC01EF
:10464000BD01CF010895052E97FB1EF400940E9432
:104650003A2357FD07D00E94012307FC03D04EF4F4
:104660000C943A2350954095309521953F4F4F4FEC
:104670005F4F089590958095709561957F4F8F4F0E
:084680009F4F0895F894FFCF4D
:104688000000803F00000000000000000000000063
:1046980001000000000000005601DA051F01FD00BE
:1046A80011019D010000000057022702C9011302F1
:1046B80004020302564D4450565F317C315F564D1B
:1046C8004450560D0A004D505539323530200049B6
:1046D80020414D200020492073686F756C6420626A
:1046E8006520004D505539323530206973206F6E82
:1046F8006C696E652E2E2E00782D61786973207393
:10470800656C6620746573743A20616363656C65D3
:10471800726174696F6E207472696D20776974684C
:10472800696E203A200025206F6620666163746FE9
:1047380072792076616C756500792D6178697320CE
:1047480073656C6620746573743A20616363656C85
:1047580065726174696F6E207472696D207769740F
:1047680068696E203A20007A2D6178697320736534
:104778006C6620746573743A20616363656C657256
:104788006174696F6E207472696D207769746869E5
:104798006E203A2000782D617869732073656C6605
:1047A80020746573743A206779726174696F6E203A
:1047B8007472696D2077697468696E203A2000798F
:1047C8002D617869732073656C6620746573743A1B
:1047D800206779726174696F6E207472696D2077D1
:1047E800697468696E203A20007A2D6178697320AF
:1047F80073656C6620746573743A206779726174A6
:10480800696F6E207472696D2077697468696E20AB
:104818003A20004D50553932353020696E69746937
:10482800616C697A656420666F7220616374697669
:10483800652064617461206D6F64652E2E2E2E00D4
:10484800414B383936332000414B383936332069EB
:104858006E697469616C697A656420666F7220613B
:1048680063746976652064617461206D6F64652E78
:104878002E2E2E00436F756C64206E6F7420636F4C
:104888006E6E65637420746F204D50553932353023
:104898003A20307800555044415445006E616E000E
:0848A800696E66006F76660080
:00000001FF
