:100000000C9435000C945D000C945D000C945D0024
:100010000C945D000C945D000C945D000C945D00EC
:100020000C945D000C945D000C945D000C945D00DC
:100030000C945D000C945D000C945D000C945D00CC
:100040000C9479020C945D000C9447020C942102EC
:100050000C945D000C945D000C945D000C945D00AC
:100060000C945D000C945D008E0411241FBECFEF34
:10007000D8E0DEBFCDBF11E0A0E0B1E0E4EDF9E0F3
:1000800002C005900D92A634B107D9F722E0A6E48C
:10009000B1E001C01D92AB32B207E1F710E0C5E359
:1000A000D0E004C02197FE010E94BB04C433D107F5
:1000B000C9F70E94C3020C94E8040C940000CF928C
:1000C000DF92EF92FF920F931F93CF93DF936C0118
:1000D0007A018B01C0E0D0E0CE15DF0589F0D801B0
:1000E0006D918D01D601ED91FC910190F081E02D93
:1000F000C6010995892B11F47E0102C02196ECCF2F
:10010000C701DF91CF911F910F91FF90EF90DF908A
:10011000CF900895FC01918D828D981761F0828DAA
:10012000DF01A80FB11D5D968C91928D9F5F9F732B
:10013000928F90E008958FEF9FEF0895FC01918DCD
:10014000828D981731F0828DE80FF11D858D90E03A
:1001500008958FEF9FEF0895FC01918D228D892FD7
:1001600090E0805C9F4F821B91098F7399270895BF
:100170008FE491E00E94AC0021E0892B09F420E09B
:10018000822F0895FC01848DDF01A80FB11DA35AB1
:10019000BF4F2C91848D90E001968F739927848FA7
:1001A000A689B7892C93A089B1898C9180648C939E
:1001B000938D848D981306C00288F389E02D808189
:1001C0008F7D80830895EF92FF920F931F93CF93BB
:1001D000DF93EC0181E0888F9B8D8C8D981305C097
:1001E000E889F989808185FD24C0F62E0B8D10E009
:1001F0000F5F1F4F0F731127E02E8C8DE8120CC07C
:100200000FB607FCFACFE889F989808185FFF5CF21
:10021000CE010E94C200F1CF8B8DFE01E80FF11DCF
:10022000E35AFF4FF0820B8FEA89FB89808180625D
:1002300007C0EE89FF896083E889F989808180643D
:10024000808381E090E0DF91CF911F910F91FF902B
:10025000EF900895CF93DF93EC01888D8823C9F048
:10026000EA89FB89808185FD05C0A889B9898C91BF
:1002700086FD0FC00FB607FCF5CF808185FFF2CF5A
:10028000A889B9898C9185FFEDCFCE010E94C2006B
:10029000E7CFDF91CF91089580E090E0892B29F09E
:1002A0000E94B80081110C94000008953FB7F894A3
:1002B00080914B0190914C01A0914D01B0914E0164
:1002C00026B5A89B05C02F3F19F00196A11DB11DB1
:1002D0003FBFBA2FA92F982F8827820F911DA11DEC
:1002E000B11DBC01CD0142E0660F771F881F991F29
:1002F0004A95D1F708958F929F92AF92BF92CF9275
:10030000DF92EF92FF926B017C010E9456014B013C
:100310005C01C114D104E104F104F1F00E94560122
:10032000DC01CB0188199909AA09BB09883E9340D1
:10033000A105B10570F321E0C21AD108E108F10866
:1003400088EE880E83E0981EA11CB11CC114D10454
:10035000E104F10419F7DDCFFF90EF90DF90CF902B
:10036000BF90AF909F908F9008952FB7F8946091B1
:100370004701709148018091490190914A012FBF36
:1003800008950E94C1046115710579F0FB01019087
:100390000020E9F73197AF01461B570BDC01ED91C7
:1003A000FC910280F381E02D099480E090E00895B3
:1003B0004F925F926F927F92EF92FF920F931F93F3
:1003C000CF93DF93CDB7DEB7A1970FB6F894DEBF1A
:1003D0000FBECDBF7C01FA01CB0119A2223008F477
:1003E0002AE08E010F5D1F4F422E512C612C712C83
:1003F000BF01A30192010E94C604F901CA01015084
:1004000011096A3014F4605D01C0695CD8016C9315
:10041000232B242B252B61F7B801C7010E94C301B0
:10042000A1960FB6F894DEBF0FBECDBFDF91CF917E
:100430001F910F91FF90EF907F906F905F904F9082
:1004400008951F920F920FB60F9211242F933F938E
:100450004F935F936F937F938F939F93AF93BF93CC
:10046000EF93FF938FE491E00E94C200FF91EF9120
:10047000BF91AF919F918F917F916F915F914F91BC
:100480003F912F910F900FBE0F901F9018951F92C4
:100490000F920FB60F9211242F938F939F93EF9388
:1004A000FF93E0915F01F09160018081E09165012F
:1004B000F091660182FD12C09081809168018F5F8A
:1004C0008F7320916901821751F0E0916801F0E08B
:1004D000E15BFE4F958F8093680101C08081FF91A1
:1004E000EF919F918F912F910F900FBE0F901F90C2
:1004F00018951F920F920FB60F9211242F933F93CE
:100500008F939F93AF93BF93809147019091480140
:10051000A0914901B0914A013091460123E0230F97
:100520002D3720F40196A11DB11D05C026E8230F2B
:100530000296A11DB11D209346018093470190931F
:100540004801A0934901B0934A0180914B019091D9
:100550004C01A0914D01B0914E010196A11DB11D1C
:1005600080934B0190934C01A0934D01B0934E01A9
:10057000BF91AF919F918F913F912F910F900FBE9F
:100580000F901F901895789484B5826084BD84B5CF
:10059000816084BD85B5826085BD85B5816085BD7E
:1005A00080916E00816080936E0010928100809136
:1005B00081008260809381008091810081608093BE
:1005C0008100809180008160809380008091B100E3
:1005D00084608093B1008091B00081608093B0000E
:1005E00080917A00846080937A0080917A008260A2
:1005F00080937A0080917A00816080937A00809164
:100600007A00806880937A001092C10010921F02D5
:100610001092200210922102109222021092ED01FB
:100620001092EE011092EF011092F00160ED77E070
:1006300080E090E00E947B018FE491E090931E02A5
:1006400080931D02E0915F01F091600182E0808360
:10065000E0915B01F0915C011082E0915D01F0910D
:100660005E0180E1808310926701E0916301F09167
:10067000640186E08083E0916101F09162018081F4
:1006800080618083E0916101F091620180818860E6
:100690008083E0916101F0916201808180688083B4
:1006A000E0916101F091620180818F7D80830E94E1
:1006B000B5010091ED011091EE012091EF01309113
:1006C000F001DC01CB01801B910BA20BB30B843634
:1006D0009105A105B10538F463E070E080E090E099
:1006E0000E947B01E4CF0E94B5016093ED017093FD
:1006F000EE018093EF019093F00160E171E0809151
:100700001D0290911E020E94C3016AE070E080E029
:1007100090E00E947B0181E08093F1010E94B5018D
:10072000672B682B692B09F049C00E94B501623024
:1007300071058105910508F041C03DC00E94B501D9
:100740006093ED017093EE018093EF019093F001BF
:1007500062E271E080911D0290911E020E94C3012D
:100760006AE271E080911D0290911E020E94C30115
:100770000E94B501AB01BC012AE080911D0290915D
:100780001E020E94D8016CE271E080911D029091DE
:100790001E020E94C30165E070E080E090E00E94CC
:1007A0007B016AE070E080E090E00E947B01809134
:1007B000F10181115CC00E944C01B0CF0E94B501D3
:1007C00060932702709328028093290290932A0253
:1007D00000912302109124022091250230912602DB
:1007E000601771078207930740F4609323027093A8
:1007F00024028093250290932602009123021091F7
:10080000240220912502309126026B017C01C01A3E
:10081000D10AE20AF30A970186010A3F1105210570
:10082000310548F2609323027093240280932502DD
:10083000909326020E94B5010091ED011091EE0106
:100840002091EF013091F001DC01CB01801B910B75
:10085000A20BB30B84369105A105B10508F06ECF4C
:1008600063E070E080E090E00E947B01E3CF809144
:100870001D0290911E02DC01ED91FC910480F58136
:10088000E02D0995892B99F380911D0290911E020C
:10089000DC01ED91FC910480F581E02D099518169D
:1008A00019060CF088CF80911D0290911E02DC0188
:1008B000ED91FC910680F781E02D0995992783360B
:1008C000910551F08637910509F475CF883591056A
:1008D000D9F61092F101D8CF65E371E080911D0245
:1008E00090911E020E94C3012AE041E050E060E0C6
:1008F00070E080911D0290911E020E94D8016CE36D
:1009000071E080911D0290911E020E94C30162E37A
:1009100070E080E090E00E947B014DCFEFE4F1E0D9
:100920001382128288EE93E0A0E0B0E08483958386
:10093000A683B78384E091E09183808385EC90E087
:100940009587848784EC90E09787868780EC90E099
:10095000918B808B81EC90E0938B828B82EC90E08A
:10096000958B848B86EC90E0978B868B118E128E04
:10097000138E148E0895EE0FFF1F0590F491E02D55
:10098000099481E090E0F8940C94E804A1E21A2E16
:10099000AA1BBB1BFD010DC0AA1FBB1FEE1FFF1F23
:1009A000A217B307E407F50720F0A21BB30BE40B73
:1009B000F50B661F771F881F991F1A9469F76095BA
:1009C0007095809590959B01AC01BD01CF01089574
:0409D000F894FFCFC9
:1009D40000000000E3005F00AC008A009E002A01D2
:1009E400564D4450565F317C315F564D4450560D40
:1009F4000A00564D4450455F31007C005F564D441B
:100A040050450D0A00564D4450435F005F564D4417
:060A140050430D0A000032
:00000001FF
