:100000000C94D3000C94FB000C94FB000C94FB00AC
:100010000C94FB000C94FB000C94FB000C94FB0074
:100020000C94FB000C94FB000C94FB000C94FB0064
:100030000C94FB000C94FB000C94FB000C94FB0054
:100040000C9497030C94FB000C94AE020C94880261
:100050000C94FB000C94FB000C94FB000C94FB0034
:100060000C9448040C94FB00036EDB363D9A99997E
:10007000993DABAAAA2A3E000000803F084AD73B20
:100080003BCE016E84BCBFFDC12F3D6C74319ABD67
:1000900056833DDA3D00C77F11BED9E4BB4C3E918B
:1000A0006BAAAABE000000803F072C7AA5BA6CC5D7
:1000B00090DA3B9365FC8BBC53F810FD3C56928361
:1000C0004DBD879D3AB63DCBC9BF5BBE73DA0FC944
:1000D0003F07634236B79BD8A71A39685618AEBA9D
:1000E000AB558C1D3CB7CC5763BD6DEDFD753EF631
:1000F000177231BF000000803F08000000BE92244C
:1001000049123EABAAAA2ABECDCCCC4C3E00000080
:1001100080BEABAAAAAA3E00000000BF000000807B
:100120003F0000000000084178D3BB4387D1133D56
:10013000190E3CC3BD4282AD2B3E68EC8276BED91F
:100140008FE1A93E4C80EFFFBE01C4FF7F3F00005E
:100150000000000000000000250028002B00000027
:100160000000240027002A000404040404040404FA
:100170000202020202020303030303030102040852
:100180001020408001020408102001020408102001
:100190000000000800020100000304070000000046
:1001A000000000006D1D11241FBECFEFD8E0DEBFA0
:1001B000CDBF13E0A0E0B1E0E4E7F7E402C00590B2
:1001C0000D92A034B107D9F725E0A0E4B3E001C057
:1001D0001D92AB3AB207E1F710E0C3EDD0E004C0E6
:1001E0002197FE010E94B81EC23DD107C9F70E94A7
:1001F000A2060C94B8230C940000FC01918D828D12
:10020000981761F0828DDF01A80FB11D5D968C916A
:10021000928D9F5F9F73928F90E008958FEF9FEF75
:100220000895FC01918D828D981731F0828DE80F31
:10023000F11D858D90E008958FEF9FEF0895FC01EB
:10024000918D228D892F90E0805C9F4F821B9109B8
:100250008F73992708958AEF94E00E941F0121E08F
:10026000892B09F420E0822F0895FC01848DDF01A1
:10027000A80FB11DA35ABF4F2C91848D90E0019619
:100280008F739927848FA689B7892C93A089B18908
:100290008C9180648C93938D848D981306C0028812
:1002A000F389E02D80818F7D80830895EF92FF9206
:1002B0000F931F93CF93DF93EC0181E0888F9B8D89
:1002C0008C8D981305C0E889F989808185FD24C04B
:1002D000F62E0B8D10E00F5F1F4F0F731127E02ECE
:1002E0008C8DE8120CC00FB607FCFACFE889F989AB
:1002F000808185FFF5CFCE010E943501F1CF8B8D36
:10030000FE01E80FF11DE35AFF4FF0820B8FEA89DF
:10031000FB898081806207C0EE89FF896083E8895C
:10032000F98980818064808381E090E0DF91CF91C2
:100330001F910F91FF90EF900895CF93DF93EC0101
:10034000888D8823C9F0EA89FB89808185FD05C0F5
:10035000A889B9898C9186FD0FC00FB607FCF5CF2F
:10036000808185FFF2CFA889B9898C9185FFEDCF77
:10037000CE010E943501E7CFDF91CF91089580E053
:1003800090E0892B29F00E942B0181110C94000030
:1003900008958091400390E020914103821B9109D0
:1003A000089585ED8093BC008091BC0084FDFCCF56
:1003B0001092D504089540916104262F30E0240F57
:1003C000311D21323105DCF42091D5042430C9F4EB
:1003D000FC0180E090E0861758F43091610421918F
:1003E000DC01A15CBB4FA30FB11D2C930196F3CF91
:1003F00080916104680F6093610480E0089581E05A
:10040000089582E008950895E091410380914003AA
:10041000E81730F4F0E0E157FB4F808190E0089559
:100420008FEF9FEF089590914103809140039817BB
:1004300050F4E92FF0E0E157FB4F208130E09F5F5F
:100440009093410302C02FEF3FEFC9010895CF926F
:10045000DF92EF92FF920F931F93CF93DF937C0174
:10046000262F972F8A018091D604882391F0C62FDA
:10047000D72F6E01C40ED51ECC15DD0571F0699124
:10048000D701ED91FC910190F081E02DC701099514
:10049000F3CF642F822F0E94DB01C801DF91CF913F
:1004A0001F910F91FF90EF90DF90CF900895CF9321
:1004B000DF931F92CDB7DEB769832091D604222344
:1004C000D1F02091F904203240F021E030E0FC012D
:1004D0003383228380E090E015C08091D704E82F19
:1004E000F0E0E852FB4F998190838F5F8093D704AF
:1004F0008093F90405C061E0CE0101960E94DB0102
:1005000081E090E00F90DF91CF9108950E946D22DD
:100510001F920F920FB60F9211242F933F934F9378
:100520005F936F937F938F939F93AF93BF93EF935B
:10053000FF938AEF94E00E943501FF91EF91BF9104
:10054000AF919F918F917F916F915F914F913F916B
:100550002F910F900FBE0F901F9018951F920F9222
:100560000FB60F9211242F938F939F93EF93FF93C6
:10057000E0910A05F0910B058081E0911005F09162
:10058000110582FD12C09081809113058F5F8F73DA
:1005900020911405821751F0E0911305F0E0E65028
:1005A000FB4F958F8093130501C08081FF91EF91E0
:1005B0009F918F912F910F900FBE0F901F901895C4
:1005C00090E0FC01E057FE4F3491FC01E458FE4FEF
:1005D0002491FC01E859FE4FE491EE2309F43BC05D
:1005E000332339F1333091F038F43130A9F032301F
:1005F00001F584B58F7D12C0373091F03830A1F00D
:100600003430B9F4809180008F7D03C080918000E8
:100610008F77809380000DC084B58F7784BD09C02B
:100620008091B0008F7703C08091B0008F7D809360
:10063000B000F0E0EE0FFF1FEC5AFE4FA591B49111
:100640008FB7F894EC91611103C020952E2301C05F
:100650002E2B2C938FBF08953FB7F89480918B0475
:1006600090918C04A0918D04B0918E0426B5A89B26
:1006700005C02F3F19F00196A11DB11D3FBFBA2F34
:10068000A92F982F8827820F911DA11DB11DBC0194
:10069000CD0142E0660F771F881F991F4A95D1F759
:1006A00008958F929F92AF92BF92CF92DF92EF9276
:1006B000FF926B017C010E942C034B015C01C11471
:1006C000D104E104F104F1F00E942C03DC01CB0120
:1006D00088199909AA09BB09883E9340A105B1056B
:1006E00070F321E0C21AD108E108F10888EE880E03
:1006F00083E0981EA11CB11CC114D104E104F104D3
:1007000019F7DDCFFF90EF90DF90CF90BF90AF90C3
:100710009F908F9008952FB7F894609187047091FF
:1007200088048091890490918A042FBF08951F92B4
:100730000F920FB60F9211242F933F938F939F9395
:10074000AF93BF938091870490918804A09189040E
:10075000B0918A043091860423E0230F2D3720F4D2
:100760000196A11DB11D05C026E8230F0296A11D0B
:10077000B11D209386048093870490938804A093EE
:100780008904B0938A0480918B0490918C04A09189
:100790008D04B0918E040196A11DB11D80938B0430
:1007A00090938C04A0938D04B0938E04BF91AF916D
:1007B0009F918F913F912F910F900FBE0F901F909F
:1007C0001895DF92EF92FF920F931F93CF93DF93D1
:1007D0001F92CDB7DEB7F82E890181E08093D60451
:1007E000F092F8041092D7041092F90487E995E08A
:1007F00049830E94570280E00E94A1054981642F2D
:10080000413208F060E28F2D0E94FE0510924103F4
:100810008093400380E03091400390914103391769
:1008200071F0DD24D394D80E7801E80EF11C87E92D
:1008300095E00E941302F70180838D2DECCF0F907D
:10084000DF91CF911F910F91FF90EF90DF9008956E
:10085000CF93C82F81E08093D604C093F804109200
:10086000D7041092F90487E995E00E94570280E0CE
:100870000E94A10561E08C2F0E94FE0510924103A9
:100880008093400387E995E00E941302CF91089579
:100890001F920F920FB60F9211242F933F934F93F5
:1008A0005F936F937F938F939F93AF93BF93EF93D8
:1008B000FF938091B900887F803609F49CC068F569
:1008C000883209F45BC090F4803109F454C038F4E4
:1008D000882309F4F6C0883009F44DC0F6C0883189
:1008E00009F44CC0803209F45DC0EFC0803409F4D3
:1008F00068C048F4803309F455C0883309F0E5C076
:100900008093D304D8C0803509F44FC0883509F4EA
:100910005DC0883409F0D9C0D6C0883909F4C7C091
:10092000A8F4883709F467C038F4883609F463C03E
:10093000803709F460C0C9C0883809F4B8C080396C
:1009400009F45FC0803809F0C0C05BC0803B09F487
:1009500086C038F4803A09F466C0883A09F47FC04A
:10096000B4C0803C09F4A7C0883C09F4A4C0883B0B
:1009700009F48AC0AAC08091B00410C09091D2043A
:100980008091D104981770F5E091D20481E08E0F28
:100990008093D204F0E0EF54FB4F80818093BB0042
:1009A00085EC86C08093D3048EC0E091D20481E0B0
:1009B0008E0F8093D2048091BB00F0E0EF54FB4F88
:1009C00080839091D2048091D1046EC0E091D204D2
:1009D00081E08E0F8093D2048091BB00F0E0EF5451
:1009E000FB4F80838091D40481116DC081E080939E
:1009F000AF0484EA61C083E08093D504109285043B
:100A0000CFCF80918504803208F051C0E0918504F9
:100A100081E08E0F809385048091BB00F0E0EB595C
:100A2000FB4F8083BDCF85EC8093BC001092D50432
:100A300080918504803230F4E0918504F0E0EB5938
:100A4000FB4F10826091850470E0E0916304F091A7
:100A5000640485E694E009951092850436C084E02C
:100A60008093D5041092620410926104E0915F04B7
:100A7000F0916004099580916104811105C081E0C5
:100A80008093610410923F04E091620481E08E0F34
:100A900080936204F0E0E15CFB4F80818093BB00B7
:100AA0009091620480916104981708F479CF85E8E9
:100AB0008093BC000AC085EC8093BC001092D504E2
:100AC00004C01092D3040E94D101FF91EF91BF9115
:100AD000AF919F918F917F916F915F914F913F91D6
:100AE0002F910F900FBE0F901F901895CF92DF920D
:100AF000EF92FF920F931F93CF93DF936C017A01D4
:100B00008B01C0E0D0E0CE15DF0589F0D8016D91F2
:100B10008D01D601ED91FC910190F081E02DC6018F
:100B20000995892B11F47E0102C02196ECCFC701F3
:100B3000DF91CF911F910F91FF90EF90DF90CF90B9
:100B40000895382F2091F9049091F804213208F08B
:100B500049C08091D5048111FCCF42E04093D50477
:100B60003093D4043FEF3093D3041092D2042093F7
:100B7000D104A8EDB4E041EB54E0FA013E2F341B60
:100B8000321718F43D913193F9CF1092B0042091AF
:100B9000B004990F922B9093B0049091AF049130D0
:100BA00061F41092AF049091B0049093BB009091C7
:100BB000BC0093FDF8CF95EC01C095EE9093BC007E
:100BC0009091D5049230E1F39091D3049F3F79F056
:100BD0008091D304803241F08091D304803331F08E
:100BE00084E005C081E003C082E001C083E0109290
:100BF000D7041092F9041092D60408959091D50468
:100C00009111FCCF91E09093D5049093D4042FEFF1
:100C10002093D3041092D204260F2093D1049093F2
:100C2000B0049091B004880F892B8093B004809118
:100C3000AF04813061F41092AF048091B0048093CE
:100C4000BB008091BC0083FDF8CF85EC01C085EE30
:100C50008093BC008091D5048130E1F38091D2046F
:100C6000861710F46091D204A1EBB4E02FE834E0D1
:100C7000F9018E2F821B861718F48D918193F9CF7D
:100C8000862F08956115710579F0FB010190002010
:100C9000E9F73197AF01461B570BDC01ED91FC9151
:100CA0000280F381E02D099480E090E008954F9256
:100CB0005F926F927F92EF92FF920F931F93CF9369
:100CC000DF93CDB7DEB7A1970FB6F894DEBF0FBEA6
:100CD000CDBF7C01FA01CB0119A2223008F42AE031
:100CE0008E010F5D1F4F422E512C612C712CBF01C4
:100CF000A30192010E949623F901CA010150110932
:100D00006A3014F4605D01C0695CD8016C93232BD8
:100D1000242B252B61F7B801C7010E944206A1963A
:100D20000FB6F894DEBF0FBECDBFDF91CF911F91FC
:100D30000F91FF90EF907F906F905F904F9008958C
:100D40000C944206CF93DF93CDB7DEB7C45CD109D4
:100D50000FB6F894DEBF0FBECDBF789484B5826025
:100D600084BD84B5816084BD85B5826085BD85B54F
:100D7000816085BD80916E00816080936E001092CD
:100D80008100809181008260809381008091810048
:100D900081608093810080918000816080938000D9
:100DA0008091B10084608093B1008091B000816037
:100DB0008093B00080917A00846080937A00809163
:100DC0007A00826080937A0080917A0081608093BB
:100DD0007A0080917A00806880937A001092C10036
:100DE0001092330410923404109235041092360499
:100DF0001092010410920204109203041092040451
:100E000060ED77E080E090E00E9451038AEF94E08B
:100E10009093320480933104E0910A05F0910B0520
:100E200082E08083E0910605F09107051082E09151
:100E30000805F091090580E1808310921205E09188
:100E40000E05F0910F0586E08083E0910C05F0918E
:100E50000D05808180618083E0910C05F0910D0586
:100E6000808188608083E0910C05F0910D05808180
:100E700080688083E0910C05F0910D0580818F7D65
:100E800080830E948B030091010410910204209141
:100E9000030430910404DC01CB01801B910BA20BF5
:100EA000B30B84369105A105B10538F463E070E019
:100EB00080E090E00E945103E4CF0E948B03609396
:100EC000010470930204809303049093040460E38C
:100ED00071E080913104909132040E94A0066AE092
:100EE00070E080E090E00E94510381E0809305046F
:100EF00010924103109240031092D7041092F9040B
:100F00001092D5048093D4041092AF0461E082E182
:100F10000E94E00261E083E10E94E0028091B9005A
:100F20008E7F8093B9008091B9008D7F8093B90046
:100F300088E48093B80085E48093BC00EEE7F1E09C
:100F40002491EAE6F1E084918823C9F090E0880FCB
:100F5000991FFC01E25AFE4F45915491FC01EC5A55
:100F6000FE4FA591B4919FB7F894FA018081209526
:100F7000822380838C91E22FE823EC939FBF60E073
:100F800082E00E94E00265E788E60E942804182FAC
:100F900062E471E08AEF94E00E94A0066BE471E0E5
:100FA0008AEF94E00E94A006C12ED12CE12CF12CF6
:100FB00020E1B701A6018AEF94E00E94570661E59F
:100FC00071E08AEF94E00E94A00620E141E750E042
:100FD00060E070E08AEF94E00E94570661E373E0FE
:100FE0008AEF94E00E94420668EE73E080E090E0B1
:100FF0000E945103113711F00C9439108FE591E0E4
:101000000E94BA1D8E01075B1F4F86E0D8011D921A
:101010008A95E9F78CE07E01BDE3EB0EF11CF70148
:10102000282F11922A95E9F7AE014F5C5F4F619628
:101030005FAF4EAF6197DA01E82F1D92EA95E9F7AD
:101040003E01F5E26F0E711CD301E82F1D92EA9567
:10105000E9F76E01F9E1CF0ED11CD6011D928A95F8
:10106000E9F740E069E188E60E944E1D42E06AE14E
:1010700088E60E944E1D41E06BE188E60E944E1D0D
:1010800042E06DE188E60E944E1D41E06CE188E699
:101090000E944E1D58ECA52EB12C980146E06BE342
:1010A00088E60E94E103F801808190E0982F88276C
:1010B0002181822B092E000CAA0BBB0B49A95AA92E
:1010C0006BA97CA9840F951FA61FB71F89AB9AAB8C
:1010D000ABABBCAB828190E0982F88272381822B19
:1010E000092E000CAA0BBB0B4DA95EA96FA978AD08
:1010F000840F951FA61FB71F8DAB9EABAFABB8AFCC
:10110000848190E0982F88272581822B092E000C5E
:10111000AA0BBB0B49AD5AAD6BAD7CAD840F951FCF
:10112000A61FB71F89AF9AAFABAFBCAF980146E01F
:1011300063E488E60E94E103D8018C9190E0982F47
:10114000882711962C91822B092E000CAA0BBB0B21
:10115000F7014081518162817381840F951FA61F21
:10116000B71F80839183A283B383D80112968C9199
:10117000129790E0982F882713962C91822B092E96
:10118000000CAA0BBB0B25964CAD5DAD6EAD7FADD3
:101190002597840F951FA61FB71F25968CAF9DAF6F
:1011A000AEAFBFAF2597F801848190E0982F8827D4
:1011B0002581822B092E000CAA0BBB0B29964CAD66
:1011C0005DAD6EAD7FAD2997840F951FA61FB71F2C
:1011D00029968CAF9DAFAEAFBFAF2997F1E0AF1AA4
:1011E000B10809F05ACF9E012F5C3F4F63963FAF85
:1011F0002EAF63976796FFAEEEAE67974701590132
:1012000068EC262E312C412C512CD5016D917D910D
:101210008D919C91A20191010E94991EF50121934B
:101220003193419351935F01D4016D917D918D91E3
:101230009C91A20191010E94991EF4012193319386
:10124000419351934F01AE14BF04F9F640EE6CE1A7
:1012500088E60E944E1D40EE6BE188E60E944E1D1E
:1012600069E170E080E090E00E94510358ECE52EC7
:10127000F12C980146E06BE388E60E94E103D80177
:101280008C9190E0982F882711962C91822B092E13
:10129000000CAA0BBB0B4DA15EA16FA178A5840F1A
:1012A000951FA61FB71F8DA39EA3AFA3B8A7F801D4
:1012B000828190E0982F88272381822B092E000CB1
:1012C000AA0BBB0B49A55AA56BA57CA5840F951F3E
:1012D000A61FB71F89A79AA7ABA7BCA7848190E0D8
:1012E000982F88272581822B092E000CAA0BBB0B77
:1012F0004DA55EA56FA578A9840F951FA61FB71FE2
:101300008DA79EA7AFA7B8AB980146E063E488E637
:101310000E94E103D8018C9190E0982F88271196C4
:101320002C91822B092E000CAA0BBB0B498D5A8DD8
:101330006B8D7C8D840F951FA61FB71F898F9A8F89
:10134000AB8FBC8FF801828190E0982F8827238192
:10135000822B092E000CAA0BBB0B4D8D5E8D6F8D61
:1013600078A1840F951FA61FB71F8D8F9E8FAF8FFB
:10137000B8A3848190E0982F88272581822B092E9D
:10138000000CAA0BBB0B49A15AA16BA17CA1840F35
:10139000951FA61FB71F89A39AA3ABA3BCA3F1E017
:1013A000EF1AF10809F065CF46017601830178EC68
:1013B000272E312C412C512CD8016D917D918D918E
:1013C0009C91A20191010E94991EF80121933193F1
:1013D000419351938F01D7016D917D918D919C9196
:1013E000A20191010E94991EF7012193319341932B
:1013F00051937F0161962EAD3FAD619702171307A0
:10140000D9F640E06CE188E60E944E1D40E06BE1B9
:1014100088E60E944E1D69E170E080E090E00E9445
:1014200051036DE088E60E942804A82E6EE088E64D
:101430000E942804B82E6FE088E60E942804E82E57
:1014400060E088E60E942804F82E61E088E60E94A9
:101450002804082F62E088E60E942804182F6A2DCD
:1014600070E080E090E00E94772220E030E040E8E9
:101470005FE30E94BE1E9B01AC016EEA77E481E847
:101480009FE30E94C12020E030EC43E255E40E943B
:10149000D82269837A838B839C836B2D70E080E0F4
:1014A00090E00E94772220E030E040E85FE30E9475
:1014B000BE1E9B01AC016EEA77E481E89FE30E94C7
:1014C000C12020E030EC43E255E40E94D8226D8335
:1014D0007E838F8398876E2D70E080E090E00E947D
:1014E000772220E030E040E85FE30E94BE1E9B01CF
:1014F000AC016EEA77E481E89FE30E94C12020E01E
:1015000030EC43E255E40E94D82269877A878B87C2
:101510009C876F2D70E080E090E00E94772220E0B1
:1015200030E040E85FE30E94BE1E9B01AC016EEA22
:1015300077E481E89FE30E94C12020E030EC43E2A1
:1015400055E40E94D8226D877E878F87988B602F05
:1015500070E080E090E00E94772220E030E040E8F8
:101560005FE30E94BE1E9B01AC016EEA77E481E856
:101570009FE30E94C12020E030EC43E255E40E944A
:10158000D822698B7A8B8B8B9C8B612F70E080E0EB
:1015900090E00E94772220E030E040E85FE30E9484
:1015A000BE1E9B01AC016EEA77E481E89FE30E94D6
:1015B000C12020E030EC43E255E40E94D8226D8B3C
:1015C0007E8B8F8B988FAE014F5F5F4F7A010AE55C
:1015D00013E0A12CB12CF30181919191A191B191D2
:1015E0003F016396EEADFFAD63972191319141913B
:1015F00051916396FFAFEEAF6397BC01CD01621BC3
:10160000730B840B950B0E94792220E030E048ECAC
:1016100052E40E94D822D7012D913D914D915C91C9
:101620000E94B81F20E030E048EC52E40E94BE1E49
:10163000F8016083718382839383F4018191919196
:10164000A191B1914F016796EEADFFAD67972191E2
:101650003191419151916796FFAFEEAF6797BC0111
:10166000CD01621B730B840B950B0E94792220E045
:1016700030E048EC52E40E94D822D7011C962D910C
:101680003D914D915C911F970E94B81F20E030E082
:1016900048EC52E40E94BE1EF80164877587868775
:1016A0009787FFEFAF1ABF0A24E0E20EF11C0C5F30
:1016B0001F4F33E0A316B10409F08DCF64E771E04A
:1016C0008AEF94E00E94A00660915A0370915B0338
:1016D00080915C0390915D030E94CD1D82EA91E0B0
:1016E0000E94BA1D65EB71E08AEF94E00E94A006AB
:1016F00060915E0370915F0380916003909161033C
:101700000E94CD1D82EA91E00E94BA1D63EE71E055
:101710008AEF94E00E94A0066091620370916303D7
:1017200080916403909165030E94CD1D82EA91E04F
:101730000E94BA1D61E172E08AEF94E00E94A00667
:1017400060916603709167038091680390916903CB
:101750000E94CD1D82EA91E00E94BA1D6BE372E007
:101760008AEF94E00E94A00660916A0370916B0377
:1017700080916C0390916D030E94CD1D82EA91E0EF
:101780000E94BA1D65E672E08AEF94E00E94A0060E
:1017900060916E0370916F0380917003909171035B
:1017A0000E94CD1D82EA91E00E94BA1D40E86BE6DE
:1017B00088E60E944E1D64E670E080E090E00E94A2
:1017C000510341E06BE688E60E944E1D40E06CE666
:1017D00088E60E944E1D68EC70E080E090E00E9478
:1017E000510340E068E388E60E944E1D40E063E25A
:1017F00088E60E944E1D40E06BE688E60E944E1D82
:1018000040E064E288E60E944E1D40E06AE688E619
:101810000E944E1D4CE06AE688E60E944E1D6FE075
:1018200070E080E090E00E94510341E06AE188E6C8
:101830000E944E1D40E069E188E60E944E1D40E096
:101840006BE188E60E944E1D40E06CE188E60E9454
:101850004E1D40E46AE688E60E944E1D48E763E2BA
:1018600088E60E944E1D68E270E080E090E00E94F1
:10187000510340E063E288E60E944E1D960142E07B
:1018800062E788E60E94E103898D90E0982F88271F
:101890002A8D822B6CE070E00E94851E8B01812CCA
:1018A000912C5401412C512C320165961CAE1DAE79
:1018B0001EAE1FAE65976D961CAE1DAE1EAE1FAE62
:1018C0006D97A1961CAE1DAE1EAE1FAEA197699678
:1018D0001CAE1DAE1EAE1FAE6997C12CD12CC0161A
:1018E000D10609F490C09E01275E3F4F4CE064E7AB
:1018F00088E60E94E103898D90E0982F88272A8D41
:10190000822B092E000CAA0BBB0B65962CAD3DADAE
:101910004EAD5FAD6597280F391F4A1F5B1F659657
:101920002CAF3DAF4EAF5FAF65978B8D90E0982F9A
:1019300088272C8D822B092E000CAA0BBB0B480E7E
:10194000591E6A1E7B1E8D8D90E0982F88272E8D44
:10195000822B092E000CAA0BBB0B880E991EAA1E07
:10196000BB1E8F8D90E0982F882728A1822B092EEF
:10197000000CAA0BBB0B69962CAD3DAD4EAD5FAD17
:101980006997280F391F4A1F5B1F69962CAF3DAF1F
:101990004EAF5FAF699789A190E0982F88272AA161
:1019A000822B092E000CAA0BBB0BA1962CAD3DADD2
:1019B0004EAD5FADA197280F391F4A1F5B1FA1963F
:1019C0002CAF3DAF4EAF5FAFA1978BA190E0982FAA
:1019D00088272CA1822B092E000CAA0BBB0B6D961D
:1019E0002CAD3DAD4EAD5FAD6D97280F391F4A1F31
:1019F0005B1F6D962CAF3DAF4EAF5FAF6D973FEF66
:101A0000C31AD30A6CCFE12CF12C65966CAD7DAD79
:101A10008EAD9FAD6597A70196010E94991EA59670
:101A20002CAF3DAF4EAF5FAFA597C301B201A70189
:101A300096010E94991EA9962CAF3DAF4EAF5FAFA5
:101A4000A997C501B401A70196010E94991E4901F9
:101A50005A0169966CAD7DAD8EAD9FAD6997A701BA
:101A600096010E94991E29013A01A1966CAD7DADA7
:101A70008EAD9FADA197A70196010E94991E699610
:101A80002CAF3DAF4EAF5FAF69976D966CAD7DAD3E
:101A90008EAD9FAD6D97A70196010E94991EA196EC
:101AA0002CAF3DAF4EAF5FAFA197181419041A04C5
:101AB0001B0464F4D501C4019054A109B1096596D1
:101AC0008CAF9DAFAEAFBFAF65970BC0A5019401C2
:101AD000305C4F4F5F4F65962CAF3DAF4EAF5FAF61
:101AE000659734E0C32ED12CE12CF12CC301B20157
:101AF000A70196010E94991E509540953095219519
:101B00003F4F4F4F5F4FBB2757FDBA95A52F942FDF
:101B1000832F6D968CAF9DAFAEAFBFAF6D97898FA2
:101B20002A8F69966CAD7DAD8EAD9FAD6997A7018B
:101B300096010E94991E50954095309521953F4FF2
:101B40004F4F5F4F3B8F2C8FA1966CAD7DAD8EAD0F
:101B50009FADA197A70196010E94991E50954095AF
:101B6000309521953F4F4F4F5F4F3D8F2E8F6A9697
:101B70004FAD6A9763E188E60E944E1D4A8D64E18D
:101B800088E60E944E1D4B8D65E188E60E944E1D41
:101B90004C8D66E188E60E944E1D4D8D67E188E61A
:101BA0000E944E1D4E8D68E188E60E944E1DC301C5
:101BB000B2010E94792220E030E043E053E40E9429
:101BC000B81F60934E0370934F038093500390931C
:101BD000510369966CAD7DAD8EAD9FAD69970E9446
:101BE000792220E030E043E053E40E94B81F609384
:101BF0005203709353038093540390935503A1961B
:101C00006CAD7DAD8EAD9FADA1970E94792220E095
:101C100030E043E053E40E94B81F60935603709392
:101C2000570380935803909359039E01275E3F4FBB
:101C300042E067E788E60E94E103898C912C982CAA
:101C400088248A8D882A092C000CAA08BB0889825E
:101C50009A82AB82BC829E01275E3F4F42E06AE7D8
:101C600088E60E94E103C98CD12CDC2CCC248A8D1F
:101C7000C82A0D2C000CEE08FF08CD82DE82EF8210
:101C8000F8869E01275E3F4F42E06DE788E60E949E
:101C9000E103898D90E0982F88272A8D822B9C0163
:101CA000990F440B550B69962CAF3DAF4EAF5FAF0C
:101CB000699729873A874B875C871DA21EA21FA2BE
:101CC000FE013196DE019596CE010D9621E04191FF
:101CD00051916191719140FD2C931196E817F9078C
:101CE000B1F798E0492E512C612C712CA5966CAD62
:101CF0007DAD8EAD9FADA597A30192010E94991E67
:101D0000821A930AA40AB50AA9966CAD7DAD8EAD70
:101D10009FADA997A30192010E94991EC21AD30AEE
:101D2000E40AF50A65966CAD7DAD8EAD9FAD659705
:101D3000A30192010E94991E69968CAD9DADAEAD36
:101D4000BFAD6997821B930BA40BB50B7727B7FC2C
:101D50007A956B2D5A2D492D498F2DA1822A8A8E75
:101D6000DB8E2EA1C22ACC8E9D8F2FA1822B8E8F2F
:101D700067E788E60E944E1D4A8D68E788E60E9464
:101D80004E1D4B8D6AE788E60E944E1D4C8D6BE719
:101D900088E60E944E1D4D8D6DE788E60E944E1D1F
:101DA0004E8D6EE788E60E944E1DA5966CAD7DAD0A
:101DB0008EAD9FADA5970E94792220E030E040E8EB
:101DC00058E30E94D82260934203709343038093A8
:101DD000440390934503A9966CAD7DAD8EAD9FAD48
:101DE000A9970E94792220E030E040E858E30E9461
:101DF000D8226093460370934703809348039093DF
:101E0000490365966CAD7DAD8EAD9FAD65970E9423
:101E1000792220E030E040E858E30E94D822609325
:101E20004A0370934B0380934C0390934D0340E01F
:101E30006BE688E60E944E1D64E670E080E090E06C
:101E40000E94510341E06BE688E60E944E1D68EC5B
:101E500070E080E090E00E94510343E06AE188E690
:101E60000E944E1D44E069E188E60E944E1D6BE130
:101E700088E60E942804482F457E6BE188E60E9490
:101E80004E1D6CE188E60E942804482F477E6CE1D5
:101E900088E60E944E1D6DE188E60E942804807F3E
:101EA000482F43606DE188E60E944E1D42E267E3E1
:101EB00088E60E944E1D41E068E388E60E944E1DC0
:101EC00064E670E080E090E00E9451038FE892E0C9
:101ED0000E94BA1D60E08CE00E942804182F6CEB71
:101EE00072E08AEF94E00E94A0066BE471E08AEF52
:101EF00094E00E94A006412F50E060E070E020E1F5
:101F00008AEF94E00E94570661E571E08AEF94E061
:101F10000E94A00620E148E450E060E070E08AEF13
:101F200094E00E94570661E373E08AEF94E00E9418
:101F3000420668EE73E080E090E00E94510340E0CA
:101F40006AE08CE00E944E1D6AE070E080E090E064
:101F50000E9451034FE06AE08CE00E944E1D6AE04F
:101F600070E080E090E00E9451038E010F5F1F4FF0
:101F7000980143E060E18CE00E94E103698170E038
:101F800060587109072E000C880B990B0E9479226A
:101F900020E030E040E85BE30E94D82220E030E01F
:101FA00040E85FE30E94BF1E6093A6037093A703FF
:101FB0008093A8039093A9036A8170E06058710927
:101FC000072E000C880B990B0E94792220E030E04C
:101FD00040E85BE30E94D82220E030E040E85FE385
:101FE0000E94BF1E6093AA037093AB038093AC035F
:101FF0009093AD036B8170E060587109072E000C5F
:10200000880B990B0E94792220E030E040E85BE3E6
:102010000E94D82220E030E040E85FE30E94BF1E2B
:102020006093AE037093AF038093B0039093B103BA
:1020300040E06AE08CE00E944E1D6AE070E080E0C3
:1020400090E00E94510342E16AE08CE00E944E1D44
:102050006AE070E080E090E00E94510384EC92E03E
:102060000E94BA1D68EE73E080E090E00E94510388
:1020700010C360EF72E08AEF94E00E94A00620E1B6
:10208000B701A6018AEF94E00E94570661E373E06E
:102090008AEF94E00E944206FFCF0E948B036230D9
:1020A00071058105910510F00C945A1C6AE388E6CD
:1020B0000E94280480FDF6C20E942C036B017C0163
:1020C000609396037093970380939803909399037A
:1020D0008091920390919303A0919403B091950302
:1020E000A7019601281B390B4A0B5B0BCA01B901EA
:1020F0000E94772220E034E244E759E40E94B81FAE
:10210000C357DF4F688379838A839B83CD58D04040
:1021100060938E0370938F03809390039093910349
:10212000C0929203D0929303E0929403F0929503AD
:102130009B01AC0160918A0370918B0380918C03A9
:1021400090918D030E94BF1E60938A0370938B034E
:1021500080938C0390938D038091860390918703E5
:10216000A0918803B09189030196A11DB11D8093B0
:10217000860390938703A0938803B09389034090CC
:102180009A0350909B0360909C0370909D038091F4
:10219000A2039091A303A091A403B091A503A996D3
:1021A0008CAF9DAFAEAFBFAFA99720919E0330918A
:1021B0009F034091A0035091A103A5962CAF3DAF82
:1021C0004EAF5FAFA5978091C8039091C903A091CE
:1021D000CA03B091CB03C754DF4F88839983AA8386
:1021E000BB83C95BD0402091CC033091CD0340919B
:1021F000CE035091CF03C354DF4F288339834A83E2
:102200005B83CD5BD0408091D0039091D103A091AE
:10221000D203B091D303CF53DF4F88839983AA832E
:10222000BB83C15CD0402091DE033091DF0340913D
:10223000E0035091E103AD962CAF3DAF4EAF5FAFE1
:10224000AD978091E2039091E303A091E403B091F4
:10225000E503E1968CAF9DAFAEAFBFAFE1972091A4
:10226000E6033091E7034091E8035091E903E596D6
:102270002CAF3DAF4EAF5FAFE597809100019091DD
:102280000101A0910201B09103016D968CAF9DAF49
:10229000AEAFBFAF6D972091040130910501409121
:1022A00006015091070165962CAF3DAF4EAF5FAF71
:1022B00065978091080190910901A0910A01B09160
:1022C0000B0169968CAF9DAFAEAFBFAF6997209100
:1022D0000C0130910D0140910E0150910F01A1961A
:1022E0002CAF3DAF4EAF5FAFA197E5962CAD3DADA6
:1022F0004EAD5FADE597CA01B9010E94D8226B01CE
:102300007C01E1962CAD3DAD4EAD5FADE197CA01CC
:10231000B9010E94D8229B01AC01C701B6010E94FD
:10232000BF1E6B017C01AD962CAD3DAD4EAD5FADDA
:10233000AD97CA01B9010E94D8229B01AC01C70127
:10234000B6010E94BF1E0E9417214B015C0120E0D4
:1023500030E0A9010E947222811152C30E948B03B6
:10236000C0908203D0908303E0908403F0908503B3
:10237000DC01CB018C199D09AE09BF0980937E0356
:1023800090937F03A0938003B0938103853F914096
:10239000A105B10508F47BC1809100019091010174
:1023A000A0910201B091030165968CAF9DAFAEAFD5
:1023B000BFAF65979C01AD01BC01CD010E94D82241
:1023C000A1966CAF7DAF8EAF9FAFA1972091040116
:1023D00030910501409106015091070169962CAF9B
:1023E0003DAF4EAF5FAF6997CA01B9010E94D822D5
:1023F0006D966CAF7DAF8EAF9FAF6D97409008012B
:102400005090090160900A0170900B01A3019201A4
:10241000C301B2010E94D822A5966CAF7DAF8EAFEA
:102420009FAFA597C0900C01D0900D01E0900E01D8
:10243000F0900F01A7019601C701B6010E94D822B2
:10244000A9966CAF7DAF8EAF9FAFA9976D962CAD5F
:102450003DAD4EAD5FAD6D97A1966CAD7DAD8EADD2
:102460009FADA1970E94BF1EA5962CAD3DAD4EAD70
:102470005FADA5970E94BE1EA9962CAD3DAD4EAD99
:102480005FADA9970E94BE1E4B015C01A3019201A2
:1024900069966CAD7DAD8EAD9FAD69970E94D822D7
:1024A000AD966CAF7DAF8EAF9FAFAD97A701960194
:1024B00065966CAD7DAD8EAD9FAD65970E94D822BF
:1024C0009B01AC01AD966CAD7DAD8EAD9FADAD9772
:1024D0000E94BF1E9B01AC010E94BF1EA50194017A
:1024E0000E94591FAD966CAF7DAF8EAF9FAFAD9779
:1024F000A701960169966CAD7DAD8EAD9FAD6997D4
:102500000E94D8224B015C01A301920165966CAD3B
:102510007DAD8EAD9FAD65970E94D8229B01AC0129
:10252000C501B4010E94BE1E9B01AC010E94BF1EEA
:102530000E942B1FE1966CAF7DAF8EAF9FAFE197EE
:102540006D962CAD3DAD4EAD5FAD6D97A1966CAD6A
:102550007DAD8EAD9FADA1970E94BE1EA5962CAD00
:102560003DAD4EAD5FADA5970E94BE1EA9962CADA8
:102570003DAD4EAD5FADA9970E94BF1E4B015C0102
:1025800069962CAD3DAD4EAD5FAD699765966CAD6E
:102590007DAD8EAD9FAD65970E94D82265966CAFDC
:1025A0007DAF8EAF9FAF6597A7019601C301B201C2
:1025B0000E94D8229B01AC0165966CAD7DAD8EADBD
:1025C0009FAD65970E94BF1E9B01AC010E94BF1E7C
:1025D000A50194010E94591F6B017C01E1966CAD2D
:1025E0007DAD8EAD9FADE197905820EE3EE245E681
:1025F00052E40E94D8226093F4037093F503809311
:10260000F6039093F70320EE3EE245E652E4AD96E2
:102610006CAD7DAD8EAD9FADAD970E94D8222DECF7
:102620003CEC4CE551E40E94BE1E6093F8037093AD
:10263000F9038093FA039093FB0320EE3EE245E614
:1026400052E4C701B6010E94D8226093FC03709344
:10265000FD038093FE039093FF030E948B0360931E
:102660008203709383038093840390938503109275
:1026700086031092870310928803109289031092A8
:102680008A0310928B0310928C0310928D030E9488
:10269000BF010E948B03672B682B692B11F00C94F0
:1026A0005A1CFBCC980146E06BE388E60E94E103EC
:1026B000698170E0762F66278A81682B7093EF031B
:1026C0006093EE03CB80D12CDC2CCC248C81C82AE7
:1026D000D092F103C092F003ED80F12CFE2CEE2499
:1026E0008E81E82AF092F303E092F20320E030E0DA
:1026F00040E858E32093EA033093EB034093EC0364
:102700005093ED03072E000C880B990B0E94792241
:1027100020E030E040E858E30E94D8226093E603CE
:102720007093E7038093E8039093E903B601DD0C0F
:10273000880B990B0E94792220E030E040E858E3B2
:102740000E94D8226093E2037093E3038093E40332
:102750009093E503B701FF0C880B990B0E94792237
:1027600020E030E040E858E30E94D8226093DE0386
:102770007093DF038093E0039093E103980146E0B8
:1027800063E488E60E94E103698170E0762F6627A2
:102790008A81682B7093D9036093D803CB80D12CA6
:1027A000DC2CCC248C81C82AD092DB03C092DA03C3
:1027B000ED80F12CFE2CEE248E81E82AF092DD03D0
:1027C000E092DC0380E090E0AAEFBBE38093D403C7
:1027D0009093D503A093D603B093D703072E000C94
:1027E000880B990B0E94792220E030E04AEF5BE3EE
:1027F0000E94D8226093D0037093D1038093D203B8
:102800009093D303B601DD0C880B990B0E947922BB
:1028100020E030E04AEF5BE30E94D8226093CC03D3
:102820007093CD038093CE039093CF03B701FF0C39
:10283000880B990B0E94792220E030E04AEF5BE39D
:102840000E94D8226093C8037093C9038093CA037F
:102850009093CB0362E08CE00E94280480FF27C0A5
:10286000980147E063E08CE00E94E1038F8183FDE3
:102870001EC08A8190E0982F88272981822B90930F
:10288000C3038093C2038C8190E0982F88272B810B
:10289000822B9093C5038093C4038E8190E0982F80
:1028A00088272D81822B9093C7038093C6032FEF37
:1028B0003BEE4FEB5FE32093B2033093B3034093BF
:1028C000B4035093B50380E090E0ABEEB3E48093A3
:1028D000B6039093B703A093B803B093B90320E075
:1028E00030E040EF52E42093BA033093BB034093AF
:1028F000BC035093BD0380E090E0AAEFB2E4809364
:10290000BE039093BF03A093C003B093C103609133
:10291000C2037091C303072E000C880B990B0E9411
:1029200079222FEF3BEE4FEB5FE30E94D8222091FC
:10293000A6033091A7034091A8035091A9030E94D8
:10294000D82220E030E04BEE53E40E94BE1E60939C
:10295000A2037093A3038093A4039093A5036091B3
:10296000C4037091C503072E000C880B990B0E94BD
:1029700079222FEF3BEE4FEB5FE30E94D8222091AC
:10298000AA033091AB034091AC035091AD030E9478
:10299000D82220E030E040EF52E40E94BE1E609357
:1029A0009E0370939F038093A0039093A103609173
:1029B000C6037091C703072E000C880B990B0E9469
:1029C00079222FEF3BEE4FEB5FE30E94D82220915C
:1029D000AE033091AF034091B0035091B1030E9418
:1029E000D82220E030E04AEF52E40E94BE1E6093FD
:1029F0009A0370939B0380939C0390939D035CCBFD
:102A0000A5962CAD3DAD4EAD5FADA597CA01B90100
:102A10000E94D8226B017C01A9962CAD3DAD4EAD34
:102A20005FADA997CA01B9010E94D8229B01AC01F0
:102A3000C701B6010E94BF1E6B017C01A301920178
:102A4000C301B2010E94D8229B01AC01C701B601AB
:102A50000E94BF1E0E941721E9966CAF7DAF8EAF1A
:102A60009FAFE99720E030E0A9010E9472228823FD
:102A700009F474CC65962CAD3DAD4EAD5FAD659758
:102A80006D966CAD7DAD8EAD9FAD6D970E94D822D9
:102A9000CF57DF4F688379838A839B83C158D040A7
:102AA00069962CAD3DAD4EAD5FAD69976D966CAD41
:102AB0007DAD8EAD9FAD6D970E94D822CB57DF4F75
:102AC000688379838A839B83C558D040A1962CADB7
:102AD0003DAD4EAD5FADA1976D966CAD7DAD8EAD4C
:102AE0009FAD6D970E94D822C757DF4F68837983C7
:102AF0008A839B83C958D04065962CAD3DAD4EADC1
:102B00005FAD6597CA01B9010E94D822CB56DF4F4D
:102B1000688379838A839B83C559D04069962CAD9D
:102B20003DAD4EAD5FAD699765966CAD7DAD8EAD3B
:102B30009FAD65970E94D8226B017C01A1962CADB8
:102B40003DAD4EAD5FADA19765966CAD7DAD8EADE3
:102B50009FAD65970E94D822C756DF4F688379835F
:102B60008A839B83C959D04069962CAD3DAD4EAD4B
:102B70005FAD6997CA01B9010E94D822ED966CAF8A
:102B80007DAF8EAF9FAFED97A1962CAD3DAD4EAD15
:102B90005FADA19769966CAD7DAD8EAD9FAD699728
:102BA0000E94D822C356DF4F688379838A839B8330
:102BB000CD59D040A1962CAD3DAD4EAD5FADA197A6
:102BC000CA01B9010E94D822C358DF4F68837983B4
:102BD0008A839B83CD57D040A501940160E070E0CB
:102BE00080E89FE30E94B81F4B015C019B01AC0190
:102BF000E5966CAD7DAD8EAD9FADE5970E94D82278
:102C0000CF55DF4F688379838A839B83C15AD04035
:102C1000A5019401E1966CAD7DAD8EAD9FADE197C0
:102C20000E94D822CB55DF4F688379838A839B83A8
:102C3000C55AD040A5019401AD966CAD7DAD8EAD69
:102C40009FADAD970E94D822C755DF4F6883798327
:102C50008A839B83C95AD040E9962CAD3DAD4EADD9
:102C60005FADE99760E070E080E89FE30E94B81FE5
:102C70004B015C019B01AC01A5966CAD7DAD8EADA9
:102C80009FADA5970E94D822A5966CAF7DAF8EAF61
:102C90009FAFA597A5019401A9966CAD7DAD8EADB2
:102CA0009FADA9970E94D822A9966CAF7DAF8EAF39
:102CB0009FAFA997A5019401C301B2010E94D82238
:102CC000AD966CAF7DAF8EAF9FAFAD97A5962CAD97
:102CD0003DAD4EAD5FADA597CA01B9010E94BF1EC3
:102CE000E5966CAF7DAF8EAF9FAFE597ED962CADBF
:102CF0003DAD4EAD5FADED9760E070E080E09FE3ED
:102D00000E94BE1EC358DF4F288139814A815B81F2
:102D1000CD57D0400E94BE1EC355DF4F68837983D4
:102D20008A839B83CD5AD040A9962CAD3DAD4EAD44
:102D30005FADA997CA01B9010E94BF1EE9966CAFA9
:102D40007DAF8EAF9FAFE997C757DF4F288139819D
:102D50004A815B81C958D040C701B6010E94BE1E9E
:102D6000CF54DF4F688379838A839B83C15BD040D4
:102D7000AD962CAD3DAD4EAD5FADAD97CA01B9017D
:102D80000E94BF1ECF56DF4F688379838A839B835F
:102D9000C159D040CB57DF4F288139814A815B81AF
:102DA000C558D040C756DF4F688179818A819B81A1
:102DB000C959D0400E94BF1ECB54DF4F688379832E
:102DC0008A839B83C55BD040C355DF4F28813981FF
:102DD0004A815B81CD5AD040E5966CAD7DAD8EAD1C
:102DE0009FADE5970E94D8224B015C01CF54DF4F85
:102DF000288139814A815B81C15BD040E9966CAD05
:102E00007DAD8EAD9FADE9970E94D8229B01AC01AC
:102E1000C501B4010E94BF1E4B015C01CB54DF4FC2
:102E2000288139814A815B81C55BD040CF56DF4F15
:102E3000688179818A819B81C159D0400E94D822C2
:102E40009B01AC01C501B4010E94BF1E2B013C01D6
:102E5000CB56DF4F288139814A815B81C559D040EB
:102E600060E070E080E09FE30E94BE1E4B015C01C9
:102E7000C757DF4F288139814A815B81C958D040CB
:102E8000C701B6010E94BF1E9B01AC01E5966CAD67
:102E90007DAD8EAD9FADE5970E94D8226B017C0180
:102EA000C358DF4F288139814A815B81CD57D0409B
:102EB000C501B4010E94BE1E9B01AC01E9966CAD38
:102EC0007DAD8EAD9FADE9970E94D8229B01AC01EC
:102ED000C701B6010E94BF1E6B017C01CF57DF4FB7
:102EE000288139814A815B81C158D040C356DF4F68
:102EF000688179818A819B81CD59D0400E94BE1E14
:102F00009B01AC01CF56DF4F688179818A819B811B
:102F1000C159D0400E94D8229B01AC01C701B60123
:102F20000E94BF1E6B017C01A3019201C301B2018B
:102F30000E94D8222B013C01A7019601C701B601CE
:102F40000E94D8229B01AC01C301B2010E94BF1EA6
:102F50000E9417216B017C01CB57DF4F28813981FB
:102F60004A815B81C558D040C756DF4F688179815F
:102F70008A819B81C959D0400E94BE1EE1966CAFE8
:102F80007DAF8EAF9FAFE197CF57DF4F288139815B
:102F90004A815B81C158D040C356DF4F6881798137
:102FA0008A819B81CD59D0400E94BF1E2B013C01DC
:102FB000ED962CAD3DAD4EAD5FADED97C501B401C5
:102FC0000E94BE1ECF57DF4F688379838A839B831D
:102FD000C158D040E1962CAD3DAD4EAD5FADE1970F
:102FE000CA01B9010E94BF1ECB57DF4F68837983A6
:102FF0008A839B83C558D040A3019201C301B201CB
:103000000E94BF1EC757DF4F688379838A839B83E3
:10301000C958D0406D962CAD3DAD4EAD5FAD6D97AE
:10302000CA01B9010E94D822CB56DF4F28813981CD
:103030004A815B81C559D0400E94BE1EED962CADE1
:103040003DAD4EAD5FADED970E94BE1EC358DF4F44
:10305000288139814A815B81CD57D0400E94BF1EB3
:10306000ED966CAF7DAF8EAF9FAFED97A701960148
:10307000C701B6010E94BF1E4B015C01E1962CAD59
:103080003DAD4EAD5FADE197E5966CAD7DAD8EADDE
:103090009FADE5970E94D8226B017C01A3019201AC
:1030A000E9966CAD7DAD8EAD9FADE9970E94D822BB
:1030B0009B01AC01C701B6010E94BF1E6B017C01E0
:1030C000CF57DF4F288139814A815B81C158D04079
:1030D000CF56DF4F688179818A819B81C159D04069
:1030E0000E94D8229B01AC01C701B6010E94BF1EFD
:1030F0009B01AC010E94BF1E6B017C01C355DF4FD9
:10310000288139814A815B81CD5AD040C501B40103
:103110000E94D822E5966CAF7DAF8EAF9FAFE5974A
:10312000E1962CAD3DAD4EAD5FADE197C701B60167
:103130000E94D8229B01AC01E5966CAD7DAD8EADB1
:103140009FADE5970E94BF1EE5966CAF7DAF8EAF39
:103150009FAFE597CF54DF4F288139814A815B814A
:10316000C15BD040C501B4010E94D822E1966CAF8A
:103170007DAF8EAF9FAFE197A3019201C701B6016A
:103180000E94D8229B01AC01E1966CAD7DAD8EAD65
:103190009FADE1970E94BF1EC358DF4F68837983BC
:1031A0008A839B83CD57D040CB54DF4F2881398110
:1031B0004A815B81C55BD040C501B4010E94D82221
:1031C0004B015C01CF57DF4F288139814A815B81F8
:1031D000C158D040C701B6010E94D8229B01AC0162
:1031E000C501B4010E94BF1EE9966CAF7DAF8EAFE2
:1031F0009FAFE997109272031092730310927403B9
:103200001092750310927603109277031092780350
:103210001092790310927A0310927B0310927C0330
:1032200010927D032BED3FE049E450E4CF53DF4F94
:10323000688179818A819B81C15CD0400E94D822BB
:1032400020E030E044E353E40E94B81F6B017C01AE
:10325000ED962CAD3DAD4EAD5FADED97CB55DF4F4F
:10326000688179818A819B81C55AD0400E94D82289
:103270004B015C01C757DF4F288139814A815B814F
:10328000C958D040C755DF4F688179818A819B81B9
:10329000C95AD0400E94D8229B01AC01C501B4019B
:1032A0000E94BE1E4B015C01E9962CAD3DAD4EADBA
:1032B0005FADE997A9966CAD7DAD8EAD9FADA99739
:1032C0000E94D8222B013C01C358DF4F288139814D
:1032D0004A815B81CD57D040AD966CAD7DAD8EAD52
:1032E0009FADAD970E94D8229B01AC01C301B201F2
:1032F0000E94BE1E9B01AC01C501B4010E94BF1E0D
:1033000020E030E040E251E40E94D8229B01AC0171
:10331000C701B6010E94BF1E20E030E0A9010E9453
:10332000BF1EE1966CAF7DAF8EAF9FAFE1972BEDE7
:103330003FE049E450E4C354DF4F688179818A81DA
:103340009B81CD5BD0400E94D82220E030E044E356
:1033500053E40E94B81F6B017C01CB57DF4F2881DB
:1033600039814A815B81C558D040C755DF4F68819C
:1033700079818A819B81C95AD0400E94D8224B0111
:103380005C01ED962CAD3DAD4EAD5FADED97CF55EB
:10339000DF4F688179818A819B81C15AD0400E9428
:1033A000D8229B01AC01C501B4010E94BE1E4B0195
:1033B0005C01E5962CAD3DAD4EAD5FADE597AD96AC
:1033C0006CAD7DAD8EAD9FADAD970E94D8222B0127
:1033D0003C01E9962CAD3DAD4EAD5FADE997A596AC
:1033E0006CAD7DAD8EAD9FADA5970E94D8229B019F
:1033F000AC01C301B2010E94BE1E9B01AC01C5011C
:10340000B4010E94BF1E20E030E040E251E40E947F
:10341000D8229B01AC01C701B6010E94BF1E20E06B
:1034200030E0A9010E94BF1EAD966CAF7DAF8EAF9C
:103430009FAFAD972BED3FE049E450E4C754DF4F19
:10344000688179818A819B81C95BD0400E94D822A2
:1034500020E030E044E353E40E94B81F6B017C019C
:10346000C757DF4F288139814A815B81C958D040D5
:10347000CF55DF4F688179818A819B81C15AD040C5
:103480000E94D8224B015C01CB57DF4F2881398144
:103490004A815B81C558D040CB55DF4F6881798127
:1034A0008A819B81C55AD0400E94D8229B01AC01E1
:1034B000C501B4010E94BE1E4B015C01C358DF4F21
:1034C000288139814A815B81CD57D040A5966CAD6A
:1034D0007DAD8EAD9FADA5970E94D8222B013C01FA
:1034E000E5962CAD3DAD4EAD5FADE597A9966CADC3
:1034F0007DAD8EAD9FADA9970E94D8229B01AC01F6
:10350000C301B2010E94BE1E9B01AC01C501B40102
:103510000E94BF1E20E030E040E251E40E94D82229
:103520009B01AC01C701B6010E94BF1E20E030E044
:10353000A9010E94BF1E4B015C0120E030E040E089
:103540005FE3C357DF4F688179818A819B81CD58C2
:10355000D0400E94D822A5966CAF7DAF8EAF9FAFB2
:10356000A59765966CAD7DAD8EAD9FAD6597905876
:10357000E1962CAD3DAD4EAD5FADE1970E94D822F6
:103580006B017C01AD962CAD3DAD4EAD5FADAD9701
:1035900069966CAD7DAD8EAD9FAD69970E94D822C6
:1035A0009B01AC01C701B6010E94BE1E6B017C01EC
:1035B000A5019401A1966CAD7DAD8EAD9FADA19797
:1035C0000E94D8229B01AC01C701B6010E94BE1E19
:1035D000A5962CAD3DAD4EAD5FADA5970E94D8220E
:1035E0009B01AC016D966CAD7DAD8EAD9FAD6D97C1
:1035F0000E94BF1E6B017C01E1962CAD3DAD4EAD2E
:103600005FADE1970E94D8222B013C01A5019401F6
:1036100069966CAD7DAD8EAD9FAD69970E94D82245
:103620009B01AC01C301B2010E94BF1E2B013C01F2
:10363000AD962CAD3DAD4EAD5FADAD97A1966CADE9
:103640007DAD8EAD9FADA1970E94D8229B01AC01AC
:10365000C301B2010E94BE1EA5962CAD3DAD4EAD7C
:103660005FADA5970E94D8229B01AC0165966CAD19
:103670007DAD8EAD9FAD65970E94BF1E6D966CAF00
:103680007DAF8EAF9FAF6D97AD962CAD3DAD4EAD7E
:103690005FADAD97C701B6010E94D8222B013C0156
:1036A000A501940165966CAD7DAD8EAD9FAD65971E
:1036B0000E94D8229B01AC01C301B2010E94BE1E30
:1036C0002B013C01E1962CAD3DAD4EAD5FADE197D8
:1036D000A1966CAD7DAD8EAD9FADA1970E94D82215
:1036E0009B01AC01C301B2010E94BF1EA5962CAD87
:1036F0003DAD4EAD5FADA5970E94D8229B01AC01B8
:1037000069966CAD7DAD8EAD9FAD69970E94BF1E71
:10371000A9966CAF7DAF8EAF9FAFA997A50194011D
:10372000C701B6010E94D8224B015C01AD962CADB9
:103730003DAD4EAD5FADAD9765966CAD7DAD8EADDB
:103740009FAD65970E94D8229B01AC01C501B401D1
:103750000E94BF1E4B015C01E1962CAD3DAD4EAD0C
:103760005FADE19769966CAD7DAD8EAD9FAD69970C
:103770000E94D8229B01AC01C501B4010E94BE1E6B
:10378000A5962CAD3DAD4EAD5FADA5970E94D8225C
:103790009B01AC01A1966CAD7DAD8EAD9FADA197A7
:1037A0000E94BF1E2B013C01A7019601C701B60173
:1037B0000E94D8224B015C016D962CAD3DAD4EAD03
:1037C0005FAD6D97CA01B9010E94D8229B01AC017F
:1037D000C501B4010E94BF1E4B015C01A9962CAD2E
:1037E0003DAD4EAD5FADA997CA01B9010E94D82287
:1037F0009B01AC01C501B4010E94BF1E4B015C01DD
:10380000A3019201C301B2010E94D8229B01AC0125
:10381000C501B4010E94BF1E0E9417219B01AC018B
:1038200060E070E080E89FE30E94B81F4B015C01FC
:103830009B01AC01C701B6010E94D8226093000130
:10384000709301018093020190930301A5019401FB
:103850006D966CAD7DAD8EAD9FAD6D970E94D822FB
:103860006093040170930501809306019093070112
:10387000A5019401A9966CAD7DAD8EAD9FADA997C4
:103880000E94D822609308017093090180930A0175
:1038900090930B01A5019401C301B2010E94D822AB
:1038A00060930C0170930D0180930E0190930F01B2
:1038B0000C94AE110E948B0360933B0470933C0404
:1038C00080933D0490933E04C0903704D090380418
:1038D000E0903904F0903A046C157D058E059F0543
:1038E00040F46093370470933804809339049093C4
:1038F0003A04C0903704D0903804E0903904F09036
:103900003A049B01AC012C193D094E095F0969017C
:103910007A013AEFC316D104E104F10410F40C94D7
:103920005610609337047093380480933904909351
:103930003A040E948B03C0900104D0900204E090EE
:103940000304F0900404DC01CB018C199D09AE093D
:10395000BF0984369105A105B10538F463E070E034
:1039600080E090E00E945103E4CF0E948B036093BB
:10397000010470930204809303049093040461E1B2
:1039800073E080913104909132040E94A00669E1B5
:1039900073E080913104909132040E94A0060E944D
:1039A0008B03AB01BC012AE0809131049091320479
:1039B0000E9457066BE173E08091310490913204CC
:1039C0000E94A00665E070E080E090E00E94510354
:1039D0006AE070E080E090E00E945103809105046D
:1039E000882311F40C945610809131049091320484
:1039F000DC01ED91FC910480F581E02D0995892B86
:103A000099F38091310490913204DC01ED91FC91A5
:103A10000480F581E02D09951816190614F00C9410
:103A200056108091310490913204DC01ED91FC91AB
:103A30000680F781E02D099599278336910559F085
:103A40008637910511F40C94561088359105C9F606
:103A500010920504D6CF64E273E080913104909116
:103A600032040E94A0062AE041E050E060E070E0ED
:103A700080913104909132040E9457066BE273E00A
:103A800080913104909132040E94A00662E370E0BC
:103A900080E090E00E9451030C945610CF93DF9386
:103AA0001F92CDB7DEB791E09093D6048093F804CF
:103AB0001092D7041092F90487E995E049830E9497
:103AC00057024981642F87E995E00E94570281E0FF
:103AD0000F90DF91CF910C94A105EAEFF4E01382EF
:103AE000128288EE93E0A0E0B0E084839583A68301
:103AF000B78324E131E03183208325EC30E0358742
:103B0000248724EC30E03787268720EC30E0318BA7
:103B1000208B21EC30E0338B228B22EC30E0358B94
:103B2000248B26EC30E0378B268B118E128E138E71
:103B3000148E4EE057EC6AE17FE34093A705509363
:103B4000A8056093A9057093AA051092A305109289
:103B5000A4051092A5051092A605E7E9F5E01382E9
:103B6000128284839583A683B78384E291E0918354
:103B700080830895CF93DF93BC018AEF94E00E9485
:103B80004206EC0161E373E08AEF94E00E94420692
:103B90008C0F9D1FDF91CF9108958F929F92AF92CE
:103BA000BF92CF92DF92EF92FF92CF93DF936B01A0
:103BB0007C019B01AC010E945B21882319F064E326
:103BC00073E027C046015701E894B7F82FEF3FEFA5
:103BD0004FE75FE7C501B4010E945B2181110DC071
:103BE0002FEF3FEF4FE75FE7C501B4010E9472225C
:103BF00018161CF468E373E00CC02FEF3FEF4FE79B
:103C00005FE4C701B6010E94B420181684F46CE387
:103C100073E08AEF94E0DF91CF91FF90EF90DF9017
:103C2000CF90BF90AF909F908F900C9442062FEF53
:103C30003FEF4FE75FECC701B6010E94722287FD9C
:103C4000E6CF20E030E0A901C701B6010E94722250
:103C500087FF11C0E091FA04F091FB040190F0811C
:103C6000E02D6DE28AEF94E00995EC01F7FAF0940B
:103C7000F7F8F09402C0C0E0D0E02DEC3CEC4CE44E
:103C80005DE3C701B6010E94BF1E4B015C010E94AB
:103C90002A206B017C010E9477229B01AC01C501A7
:103CA000B4010E94BE1E4B015C012AE0B701A601CF
:103CB0008AEF94E00E945706C80FD91F6AEB72E0A2
:103CC0008AEF94E00E944206C80FD91F20E030E03E
:103CD00040E251E4C501B4010E94D8220E942A208A
:103CE000AB0160E070E02AE08AEF94E00E945706A2
:103CF0008C0F9D1FDF91CF91FF90EF90DF90CF90C1
:103D0000BF90AF909F908F900895AA1BBB1B51E16D
:103D100007C0AA1FBB1FA617B70710F0A61BB70B3B
:103D2000881F991F5A95A9F780959095BC01CD01E0
:103D30000895052E97FB1EF400940E94B01E57FDB7
:103D400007D00E94962307FC03D04EF40C94B01EBB
:103D500050954095309521953F4F4F4F5F4F0895B7
:103D600090958095709561957F4F8F4F9F4F0895E7
:103D7000EE0FFF1F0590F491E02D09945058BB27DA
:103D8000AA270E94D61E0C945C230E944E2338F072
:103D90000E94552320F039F49F3F19F426F40C9427
:103DA0004B230EF4E095E7FB0C944523E92F0E948A
:103DB0006D2358F3BA17620773078407950720F03D
:103DC00079F4A6F50C948F230EF4E0950B2EBA2F00
:103DD000A02D0B01B90190010C01CA01A001112411
:103DE000FF27591B99F0593F50F4503E68F11A16BD
:103DF000F040A22F232F342F4427585FF3CF46954E
:103E000037952795A795F0405395C9F77EF41F166F
:103E1000BA0B620B730B840BBAF09150A1F0FF0F39
:103E2000BB1F661F771F881FC2F70EC0BA0F621F25
:103E3000731F841F48F4879577956795B795F79515
:103E40009E3F08F0B0CF9395880F08F09927EE0FAA
:103E50009795879508959F939F77EEE389379E07FF
:103E600028F4E8E6F0E00E94A0200CC00E9459204F
:103E70009058A2EA2AED3FE049EC5FE30E94D61E8B
:103E80000E945C230F9007FC905808950E944E23D7
:103E900060F080E891E009F49EEF0E94552328F03D
:103EA00040E851E071F45EEF0CC00C944B230C948D
:103EB0008F23E92FE0780E946D2340F3092E052A15
:103EC000B1F3261737074807590738F00E2E07F8C1
:103ED000E02569F0E025E0640AC0EF6307F800948C
:103EE00007FADB01B9019D01DC01CA01AD01EF93C5
:103EF0000E94CF1F0E945C230E94891F5F9155235F
:103F000039F02BED3FE049E450FD49EC0C94BF1E25
:103F10000895DF93DD27B92FBF7740E85FE31616DA
:103F2000170648075B0718F4D92F0E94B9209F9302
:103F30008F937F936F930E945721ECE7F0E00E94EC
:103F400079200E945C232F913F914F915F910E94B5
:103F5000EB22DD2351F09058A2EA2AED3FE049EC34
:103F60005FE3D0785D270E94D61EDF910C945C231E
:103F70000E94CC1F0C945C230E94552358F00E9491
:103F80004E2340F029F45F3F29F00C944523511152
:103F90000C9490230C944B230E946D2368F3992377
:103FA000B1F3552391F3951B550BBB27AA27621735
:103FB0007307840738F09F5F5F4F220F331F441F42
:103FC000AA1FA9F335D00E2E3AF0E0E832D0915076
:103FD0005040E695001CCAF72BD0FE2F29D0660F63
:103FE000771F881FBB1F261737074807AB07B0E8A6
:103FF00009F0BB0B802DBF01FF2793585F4F3AF0AC
:104000009E3F510578F00C9445230C9490235F3F1C
:10401000E4F3983ED4F3869577956795B795F79531
:104020009F5FC9F7880F911D9695879597F9089519
:10403000E1E0660F771F881FBB1F621773078407B5
:10404000BA0720F0621B730B840BBA0BEE1F88F7C4
:10405000E09508950E94752388F09F5798F0B92F36
:104060009927B751B0F0E1F0660F771F881F991FAD
:104070001AF0BA95C9F714C0B13091F00E948F239D
:10408000B1E008950C948F23672F782F8827B85FAD
:1040900039F0B93FCCF3869577956795B395D9F705
:1040A0003EF490958095709561957F4F8F4F9F4F0F
:1040B0000895DF93CF931F930F938B01EC01E9EAEF
:1040C000F0E00E9479200E945C239801AE018B01F0
:1040D000EC0160E070E080E89FE30E94BE1E0E9459
:1040E00017219801AE010F911F91CF91DF910C9490
:1040F000EB22DF93CF931F930F93FF92EF92DF9208
:104100007B018C01689406C0DA2EEF010E94EB223D
:10411000FE01E894A5912591359145915591A6F31D
:10412000EF010E94D61EFE019701A801DA9469F7FB
:10413000DF90EF90FF900F911F91CF91DF91089545
:104140009F938F937F936F93FF93EF939B01AC01AA
:104150000E94D822EF91FF910E9479202F913F91E8
:104160004F915F910C94D8220E94B42208F48FEFF3
:1041700008959B01AC0160E070E080E89FE30C943F
:10418000B81FFA01EE0FFF1F309621053105A1F18E
:104190006115710561F48038BFE39B0749F16894AC
:1041A0009038810561F08038BFEF9B0741F099237B
:1041B0004AF5FF3FE1053105210519F1E89408941E
:1041C000E795D901AA2329F4AB2FBE2FF85FD0F3CE
:1041D00010C0FF5F70F4A695E0F7F73950F019F0C2
:1041E000FF3A38F49F779F930DD00F9007FC9058BB
:1041F000089546F00C944B2360E070E080E89FE364
:1042000008954FE79F775F934F933F932F930E94BB
:10421000F1212F913F914F915F910E94D8220C94F0
:10422000682119F416F40C944B230C949A210E94E3
:104230007523B8F39923C9F3B6F39F57550B87FF3E
:104240000E94A8210024A0E640EA900180585695DB
:10425000979528F4805C660F771F881F20F026173B
:104260003707480730F4621B730B840B2029312970
:104270004A2BA69517940794202531254A2758F7ED
:10428000660F771F881F20F026173707480730F47E
:10429000620B730B840B200D311D411DA09581F71E
:1042A000B901842F9158880F9695879508959B01A1
:1042B000AC010C94D8220E94B422880B990B08956B
:1042C00029F416F00C9445230C948F230C944B2363
:1042D0000E947523A8F39638A0F707F80F92E89488
:1042E0002BE33AEA48EB5FE70E94EE220F920F922F
:1042F0000F924DB75EB70F920E943922E1EDF0E0C8
:104300000E9479204F915F91EF91FF91E595EE1F0B
:10431000FF1F49F0FE57E0684427EE0F441FFA954F
:10432000E1F74195550B0E94B3210F9007FE0C94C5
:10433000B92008959F3F31F0915020F487957795EB
:104340006795B795880F911D9695879597F908956C
:1043500091505040660F771F881FD2F708950C9434
:1043600045230C949A210E947523D8F39923C9F30D
:10437000940F511DA3F39150504094F059F08823AD
:1043800032F0660F771F881F91505040C1F79E3F53
:1043900051052CF7880F911D9695879597F90895EB
:1043A0005F3FACF0983E9CF0BB278695779567956C
:1043B000B79508F4B1609395C1F7BB0F58F711F4A6
:1043C00060FFE8CF6F5F7F4F8F4F9F4FE3CF0C941D
:1043D000902316F00C949A210C944B2368940C941F
:1043E00045230E947523A8F39923C1F3AEF3DF930D
:1043F000CF931F930F93FF92C92FDD2788232AF0B5
:104400002197660F771F881FDAF720E030E040E839
:104410005FEB9FE3883920F0803E38F021968F775C
:104420000E94BF1EE9EFF0E004C00E94BF1EE6E25A
:10443000F1E00E9479208B01BE01EC01FB2E6F5749
:1044400071097595771F880B990B0E94792228E1D5
:1044500032E741E35FE30E94EB22AF2D9801AE010A
:10446000FF900F911F91CF91DF910E94D61E0C9467
:104470005C23FA01DC01AA0FBB1F9B01AC01BF57F3
:1044800028F4222733274427507820C0B75190F4CE
:10449000AB2F0024469537952795011CA395D2F3A1
:1044A000002071F0220F331F441FB395DAF30ED0B2
:1044B0000C94BE1E61307105A0E88A07B94630F43D
:1044C0009B01AC016627772788279078309621F0EA
:1044D0002083318342835383089581E090E0F894F0
:1044E0000C94B8230E94B42208F481E00895E89463
:1044F00009C097FB3EF490958095709561957F4F2C
:104500008F4F9F4F9923A9F0F92F96E9BB279395D9
:10451000F695879577956795B795F111F8CFFAF4E9
:10452000BB0F11F460FF1BC06F5F7F4F8F4F9F4F1A
:1045300016C0882311F096E911C0772321F09EE878
:10454000872F762F05C0662371F096E8862F70E0DE
:1045500060E02AF09A95660F771F881FDAF7880FB8
:104560009695879597F90895990F0008550FAA0B0E
:10457000E0E8FEEF16161706E807F907C0F0121676
:104580001306E407F50798F0621B730B840B950B79
:1045900039F40A2661F0232B242B252B21F40895CE
:1045A0000A2609F4A140A6958FEF811D811D08956B
:1045B0000E94EB220C945C230E944E2338F00E9450
:1045C000552320F0952311F00C9445230C944B2394
:1045D00011240C9490230E946D2370F3959FC1F3D6
:1045E000950F50E0551F629FF001729FBB27F00DA1
:1045F000B11D639FAA27F00DB11DAA1F649F6627F6
:10460000B00DA11D661F829F2227B00DA11D621F44
:10461000739FB00DA11D621F839FA00D611D221FFE
:10462000749F3327A00D611D231F849F600D211DE2
:10463000822F762F6A2F11249F5750409AF0F1F065
:1046400088234AF0EE0FFF1FBB1F661F771F881FCE
:1046500091505040A9F79E3F510580F00C9445239E
:104660000C9490235F3FE4F3983ED4F386957795BE
:104670006795B795F795E7959F5FC1F7FE2B880F74
:10468000911D9695879597F9089597F99F6780E80A
:1046900070E060E008959FEF80EC089500240A9494
:1046A0001616170618060906089500240A9412160D
:1046B0001306140605060895092E0394000C11F440
:1046C000882352F0BB0F40F4BF2B11F460FF04C0ED
:1046D0006F5F7F4F8F4F9F4F089557FD9058440F46
:1046E000551F59F05F3F71F04795880F97FB991F51
:1046F00061F09F3F79F0879508951216130614060E
:10470000551FF2CF4695F1DF08C01616170618069A
:10471000991FF1CF86957105610508940895E89475
:10472000BB2766277727CB0197F90895A1E21A2EB8
:10473000AA1BBB1BFD010DC0AA1FBB1FEE1FFF1F45
:10474000A217B307E407F50720F0A21BB30BE40B95
:10475000F50B661F771F881F991F1A9469F76095DC
:104760007095809590959B01AC01BD01CF01089596
:04477000F894FFCFEB
:104774000000803F00000000000000000000000076
:1047840000000000560176051F01FD0011019D0186
:104794000000000057022702C901130204020302A9
:1047A400564D4450565F317C315F564D4450560D42
:1047B4000A004D50553932353020004920414D20F2
:1047C4000020492073686F756C6420626520004D79
:1047D400505539323530206973206F6E6C696E65BF
:1047E4002E2E2E00782D617869732073656C6620F7
:1047F400746573743A20616363656C65726174698E
:104804006F6E207472696D2077697468696E203ADE
:10481400200025206F6620666163746F72792076AC
:10482400616C756500792D617869732073656C66B8
:1048340020746573743A20616363656C6572617496
:10484400696F6E207472696D2077697468696E206F
:104854003A20007A2D617869732073656C66207440
:104864006573743A20616363656C65726174696F22
:104874006E207472696D2077697468696E203A20BD
:1048840000782D617869732073656C662074657394
:10489400743A206779726174696F6E207472696DFD
:1048A4002077697468696E203A2000792D617869EF
:1048B400732073656C6620746573743A206779722B
:1048C4006174696F6E207472696D207769746869A8
:1048D4006E203A20007A2D617869732073656C66C6
:1048E40020746573743A206779726174696F6E20FD
:1048F4007472696D2077697468696E203A20004D7E
:1049040050553932353020696E697469616C697A41
:10491400656420666F7220616374697665206461E2
:104924007461206D6F64652E2E2E2E00414B383934
:1049340036332000414B3839363320696E69746947
:10494400616C697A656420666F722061637469764C
:10495400652064617461206D6F64652E2E2E2E00B7
:10496400436F756C64206E6F7420636F6E6E656345
:104974007420746F204D5055393235303A203078D8
:1049840000564D4450455F31007C005F564D445005
:10499400450D0A00564D4450435F005F564D445048
:1049A400430D0A006E616E00696E66006F766600E4
:00000001FF
